{
	"Seminar DevOps (1)/contracts/contracts/Diamond/Diamond.sol": {
		"Diamond": {
			"abi": [
				{
					"anonymous": false,
					"inputs": [
						{
							"components": [
								{
									"internalType": "address",
									"name": "facetAddress",
									"type": "address"
								},
								{
									"internalType": "enum IDiamond.FacetCutAction",
									"name": "action",
									"type": "uint8"
								},
								{
									"internalType": "bytes4[]",
									"name": "functionSelectors",
									"type": "bytes4[]"
								}
							],
							"indexed": false,
							"internalType": "struct IDiamond.FacetCut[]",
							"name": "_diamondCut",
							"type": "tuple[]"
						},
						{
							"indexed": false,
							"internalType": "address",
							"name": "_init",
							"type": "address"
						},
						{
							"indexed": false,
							"internalType": "bytes",
							"name": "_calldata",
							"type": "bytes"
						}
					],
					"name": "DiamondCut",
					"type": "event"
				},
				{
					"anonymous": false,
					"inputs": [
						{
							"indexed": false,
							"internalType": "address",
							"name": "_init",
							"type": "address"
						},
						{
							"indexed": false,
							"internalType": "bytes",
							"name": "_calldata",
							"type": "bytes"
						}
					],
					"name": "callFailed",
					"type": "event"
				},
				{
					"stateMutability": "payable",
					"type": "fallback"
				},
				{
					"inputs": [
						{
							"components": [
								{
									"internalType": "address",
									"name": "facetAddress",
									"type": "address"
								},
								{
									"internalType": "enum IDiamond.FacetCutAction",
									"name": "action",
									"type": "uint8"
								},
								{
									"internalType": "bytes4[]",
									"name": "functionSelectors",
									"type": "bytes4[]"
								}
							],
							"internalType": "struct IDiamond.FacetCut[]",
							"name": "_diamondCut",
							"type": "tuple[]"
						},
						{
							"internalType": "address",
							"name": "_init",
							"type": "address"
						},
						{
							"internalType": "bytes",
							"name": "_calldata",
							"type": "bytes"
						}
					],
					"name": "diamondCut",
					"outputs": [],
					"stateMutability": "nonpayable",
					"type": "function"
				},
				{
					"inputs": [
						{
							"internalType": "bytes4",
							"name": "_functionSelector",
							"type": "bytes4"
						}
					],
					"name": "facetAddress",
					"outputs": [
						{
							"internalType": "address",
							"name": "facetAddress_",
							"type": "address"
						}
					],
					"stateMutability": "view",
					"type": "function"
				},
				{
					"inputs": [],
					"name": "facetAddresses",
					"outputs": [
						{
							"internalType": "address[]",
							"name": "facetAddresses_",
							"type": "address[]"
						}
					],
					"stateMutability": "view",
					"type": "function"
				},
				{
					"inputs": [
						{
							"internalType": "address",
							"name": "_facet",
							"type": "address"
						}
					],
					"name": "facetFunctionSelectors",
					"outputs": [
						{
							"internalType": "bytes4[]",
							"name": "facetFunctionSelectors_",
							"type": "bytes4[]"
						}
					],
					"stateMutability": "view",
					"type": "function"
				},
				{
					"inputs": [],
					"name": "facets",
					"outputs": [
						{
							"components": [
								{
									"internalType": "address",
									"name": "facetAddress",
									"type": "address"
								},
								{
									"internalType": "bytes4[]",
									"name": "functionSelectors",
									"type": "bytes4[]"
								}
							],
							"internalType": "struct IDiamondLoupe.Facet[]",
							"name": "facets_",
							"type": "tuple[]"
						}
					],
					"stateMutability": "view",
					"type": "function"
				},
				{
					"inputs": [],
					"name": "getNumber10",
					"outputs": [
						{
							"internalType": "uint256",
							"name": "num",
							"type": "uint256"
						}
					],
					"stateMutability": "view",
					"type": "function"
				},
				{
					"inputs": [],
					"name": "getNumber100",
					"outputs": [
						{
							"internalType": "uint256",
							"name": "num",
							"type": "uint256"
						}
					],
					"stateMutability": "view",
					"type": "function"
				},
				{
					"inputs": [
						{
							"internalType": "bytes4",
							"name": "",
							"type": "bytes4"
						}
					],
					"name": "selectorToAddress",
					"outputs": [
						{
							"internalType": "address",
							"name": "",
							"type": "address"
						}
					],
					"stateMutability": "view",
					"type": "function"
				},
				{
					"inputs": [
						{
							"internalType": "uint256",
							"name": "",
							"type": "uint256"
						}
					],
					"name": "selectors",
					"outputs": [
						{
							"internalType": "bytes4",
							"name": "",
							"type": "bytes4"
						}
					],
					"stateMutability": "view",
					"type": "function"
				},
				{
					"inputs": [
						{
							"internalType": "uint256",
							"name": "",
							"type": "uint256"
						}
					],
					"name": "storedAddresses",
					"outputs": [
						{
							"internalType": "address",
							"name": "",
							"type": "address"
						}
					],
					"stateMutability": "view",
					"type": "function"
				}
			],
			"devdoc": {
				"kind": "dev",
				"methods": {
					"diamondCut((address,uint8,bytes4[])[],address,bytes)": {
						"params": {
							"_calldata": "A function call, including function selector and arguments                  _calldata is executed with delegatecall on _init",
							"_diamondCut": "Contains the facet addresses and function selectors",
							"_init": "The address of the contract or facet to execute _calldata"
						}
					},
					"facetAddress(bytes4)": {
						"details": "If facet is not found return address(0).",
						"params": {
							"_functionSelector": "The function selector."
						},
						"returns": {
							"facetAddress_": "The facet address."
						}
					},
					"facetAddresses()": {
						"returns": {
							"facetAddresses_": "facetAddresses_"
						}
					},
					"facetFunctionSelectors(address)": {
						"params": {
							"_facet": "The facet address."
						},
						"returns": {
							"facetFunctionSelectors_": "facetFunctionSelectors_"
						}
					},
					"facets()": {
						"returns": {
							"facets_": "Facet"
						}
					}
				},
				"version": 1
			},
			"evm": {
				"assembly": "    /* \"Seminar DevOps (1)/contracts/contracts/Diamond/Diamond.sol\":489:5993  contract Diamond is IDiamondCut, DiamondStorage, IDiamondLoupe{... */\n  mstore(0x40, 0x80)\n  callvalue\n  dup1\n  iszero\n  tag_1\n  jumpi\n  0x00\n  dup1\n  revert\ntag_1:\n  pop\n  dataSize(sub_0)\n  dup1\n  dataOffset(sub_0)\n  0x00\n  codecopy\n  0x00\n  return\nstop\n\nsub_0: assembly {\n        /* \"Seminar DevOps (1)/contracts/contracts/Diamond/Diamond.sol\":489:5993  contract Diamond is IDiamondCut, DiamondStorage, IDiamondLoupe{... */\n      mstore(0x40, 0x80)\n      jumpi(tag_1, lt(calldatasize, 0x04))\n      shr(0xe0, calldataload(0x00))\n      dup1\n      0x7d86195c\n      gt\n      tag_13\n      jumpi\n      dup1\n      0x7d86195c\n      eq\n      tag_8\n      jumpi\n      dup1\n      0xa4666aeb\n      eq\n      tag_9\n      jumpi\n      dup1\n      0xadfca15e\n      eq\n      tag_10\n      jumpi\n      dup1\n      0xcdffacc6\n      eq\n      tag_11\n      jumpi\n      dup1\n      0xf58b911d\n      eq\n      tag_12\n      jumpi\n      jump(tag_2)\n    tag_13:\n      dup1\n      0x02c85697\n      eq\n      tag_3\n      jumpi\n      dup1\n      0x0e90f45d\n      eq\n      tag_4\n      jumpi\n      dup1\n      0x1f931c1c\n      eq\n      tag_5\n      jumpi\n      dup1\n      0x52ef6b2c\n      eq\n      tag_6\n      jumpi\n      dup1\n      0x7a0ed627\n      eq\n      tag_7\n      jumpi\n      jump(tag_2)\n    tag_1:\n    tag_2:\n        /* \"Seminar DevOps (1)/contracts/contracts/Diamond/Diamond.sol\":1107:1120  address facet */\n      0x00\n        /* \"Seminar DevOps (1)/contracts/contracts/Diamond/Diamond.sol\":1123:1140  selectorToAddress */\n      dup1\n        /* \"Seminar DevOps (1)/contracts/contracts/Diamond/Diamond.sol\":1123:1149  selectorToAddress[msg.sig] */\n      0x00\n        /* \"Seminar DevOps (1)/contracts/contracts/Diamond/Diamond.sol\":1141:1148  msg.sig */\n      dup1\n      calldataload\n      0xffffffff00000000000000000000000000000000000000000000000000000000\n      and\n        /* \"Seminar DevOps (1)/contracts/contracts/Diamond/Diamond.sol\":1123:1149  selectorToAddress[msg.sig] */\n      not(0xffffffffffffffffffffffffffffffffffffffffffffffffffffffff)\n      and\n      not(0xffffffffffffffffffffffffffffffffffffffffffffffffffffffff)\n      and\n      dup2\n      mstore\n      0x20\n      add\n      swap1\n      dup2\n      mstore\n      0x20\n      add\n      0x00\n      keccak256\n      0x00\n      swap1\n      sload\n      swap1\n      0x0100\n      exp\n      swap1\n      div\n      0xffffffffffffffffffffffffffffffffffffffff\n      and\n        /* \"Seminar DevOps (1)/contracts/contracts/Diamond/Diamond.sol\":1107:1149  address facet = selectorToAddress[msg.sig] */\n      swap1\n      pop\n        /* \"Seminar DevOps (1)/contracts/contracts/Diamond/Diamond.sol\":1184:1185  0 */\n      0x00\n        /* \"Seminar DevOps (1)/contracts/contracts/Diamond/Diamond.sol\":1167:1186  facet != address(0) */\n      0xffffffffffffffffffffffffffffffffffffffff\n      and\n        /* \"Seminar DevOps (1)/contracts/contracts/Diamond/Diamond.sol\":1167:1172  facet */\n      dup2\n        /* \"Seminar DevOps (1)/contracts/contracts/Diamond/Diamond.sol\":1167:1186  facet != address(0) */\n      0xffffffffffffffffffffffffffffffffffffffff\n      and\n      sub\n        /* \"Seminar DevOps (1)/contracts/contracts/Diamond/Diamond.sol\":1159:1187  require(facet != address(0)) */\n      tag_16\n      jumpi\n      0x00\n      dup1\n      revert\n    tag_16:\n        /* \"Seminar DevOps (1)/contracts/contracts/Diamond/Diamond.sol\":1384:1398  calldatasize() */\n      calldatasize\n        /* \"Seminar DevOps (1)/contracts/contracts/Diamond/Diamond.sol\":1381:1382  0 */\n      0x00\n        /* \"Seminar DevOps (1)/contracts/contracts/Diamond/Diamond.sol\":1378:1379  0 */\n      dup1\n        /* \"Seminar DevOps (1)/contracts/contracts/Diamond/Diamond.sol\":1365:1399  calldatacopy(0, 0, calldatasize()) */\n      calldatacopy\n        /* \"Seminar DevOps (1)/contracts/contracts/Diamond/Diamond.sol\":1528:1529  0 */\n      0x00\n        /* \"Seminar DevOps (1)/contracts/contracts/Diamond/Diamond.sol\":1525:1526  0 */\n      dup1\n        /* \"Seminar DevOps (1)/contracts/contracts/Diamond/Diamond.sol\":1509:1523  calldatasize() */\n      calldatasize\n        /* \"Seminar DevOps (1)/contracts/contracts/Diamond/Diamond.sol\":1506:1507  0 */\n      0x00\n        /* \"Seminar DevOps (1)/contracts/contracts/Diamond/Diamond.sol\":1499:1504  facet */\n      dup5\n        /* \"Seminar DevOps (1)/contracts/contracts/Diamond/Diamond.sol\":1492:1497  gas() */\n      gas\n        /* \"Seminar DevOps (1)/contracts/contracts/Diamond/Diamond.sol\":1479:1530  delegatecall(gas(), facet, 0, calldatasize(), 0, 0) */\n      delegatecall\n        /* \"Seminar DevOps (1)/contracts/contracts/Diamond/Diamond.sol\":1600:1616  returndatasize() */\n      returndatasize\n        /* \"Seminar DevOps (1)/contracts/contracts/Diamond/Diamond.sol\":1597:1598  0 */\n      0x00\n        /* \"Seminar DevOps (1)/contracts/contracts/Diamond/Diamond.sol\":1594:1595  0 */\n      dup1\n        /* \"Seminar DevOps (1)/contracts/contracts/Diamond/Diamond.sol\":1579:1617  returndatacopy(0, 0, returndatasize()) */\n      returndatacopy\n        /* \"Seminar DevOps (1)/contracts/contracts/Diamond/Diamond.sol\":1704:1710  result */\n      dup1\n        /* \"Seminar DevOps (1)/contracts/contracts/Diamond/Diamond.sol\":1728:1729  0 */\n      0x00\n        /* \"Seminar DevOps (1)/contracts/contracts/Diamond/Diamond.sol\":1723:1759  case 0 {revert(0, returndatasize())} */\n      dup2\n      eq\n      tag_18\n      jumpi\n        /* \"Seminar DevOps (1)/contracts/contracts/Diamond/Diamond.sol\":1792:1808  returndatasize() */\n      returndatasize\n        /* \"Seminar DevOps (1)/contracts/contracts/Diamond/Diamond.sol\":1789:1790  0 */\n      0x00\n        /* \"Seminar DevOps (1)/contracts/contracts/Diamond/Diamond.sol\":1781:1809  return (0, returndatasize()) */\n      return\n        /* \"Seminar DevOps (1)/contracts/contracts/Diamond/Diamond.sol\":1723:1759  case 0 {revert(0, returndatasize())} */\n    tag_18:\n        /* \"Seminar DevOps (1)/contracts/contracts/Diamond/Diamond.sol\":1741:1757  returndatasize() */\n      returndatasize\n        /* \"Seminar DevOps (1)/contracts/contracts/Diamond/Diamond.sol\":1738:1739  0 */\n      0x00\n        /* \"Seminar DevOps (1)/contracts/contracts/Diamond/Diamond.sol\":1731:1758  revert(0, returndatasize()) */\n      revert\n        /* \"Seminar DevOps (1)/contracts/contracts/Diamond/Diamond.sol\":885:1018  function getNumber100() public view returns(uint256 num){... */\n    tag_3:\n      callvalue\n      dup1\n      iszero\n      tag_19\n      jumpi\n      0x00\n      dup1\n      revert\n    tag_19:\n      pop\n      tag_20\n      tag_21\n      jump\t// in\n    tag_20:\n      mload(0x40)\n      tag_22\n      swap2\n      swap1\n      tag_23\n      jump\t// in\n    tag_22:\n      mload(0x40)\n      dup1\n      swap2\n      sub\n      swap1\n      return\n        /* \"Seminar DevOps (1)/contracts/contracts/Diamond/Diamond.sol\":748:879  function getNumber10() public view returns(uint256 num){... */\n    tag_4:\n      callvalue\n      dup1\n      iszero\n      tag_24\n      jumpi\n      0x00\n      dup1\n      revert\n    tag_24:\n      pop\n      tag_25\n      tag_26\n      jump\t// in\n    tag_25:\n      mload(0x40)\n      tag_27\n      swap2\n      swap1\n      tag_23\n      jump\t// in\n    tag_27:\n      mload(0x40)\n      dup1\n      swap2\n      sub\n      swap1\n      return\n        /* \"Seminar DevOps (1)/contracts/contracts/Diamond/Diamond.sol\":1832:3862  function diamondCut(FacetCut[] calldata _diamondCut, address _init, bytes calldata _calldata) external{... */\n    tag_5:\n      callvalue\n      dup1\n      iszero\n      tag_28\n      jumpi\n      0x00\n      dup1\n      revert\n    tag_28:\n      pop\n      tag_29\n      0x04\n      dup1\n      calldatasize\n      sub\n      dup2\n      add\n      swap1\n      tag_30\n      swap2\n      swap1\n      tag_31\n      jump\t// in\n    tag_30:\n      tag_32\n      jump\t// in\n    tag_29:\n      stop\n        /* \"Seminar DevOps (1)/contracts/contracts/Diamond/Diamond.sol\":5458:5579  function facetAddresses() external view returns (address[] memory facetAddresses_){... */\n    tag_6:\n      callvalue\n      dup1\n      iszero\n      tag_33\n      jumpi\n      0x00\n      dup1\n      revert\n    tag_33:\n      pop\n      tag_34\n      tag_35\n      jump\t// in\n    tag_34:\n      mload(0x40)\n      tag_36\n      swap2\n      swap1\n      tag_37\n      jump\t// in\n    tag_36:\n      mload(0x40)\n      dup1\n      swap2\n      sub\n      swap1\n      return\n        /* \"Seminar DevOps (1)/contracts/contracts/Diamond/Diamond.sol\":5585:5990  function facets() external view returns (Facet[] memory facets_){... */\n    tag_7:\n      callvalue\n      dup1\n      iszero\n      tag_38\n      jumpi\n      0x00\n      dup1\n      revert\n    tag_38:\n      pop\n      tag_39\n      tag_40\n      jump\t// in\n    tag_39:\n      mload(0x40)\n      tag_41\n      swap2\n      swap1\n      tag_42\n      jump\t// in\n    tag_41:\n      mload(0x40)\n      dup1\n      swap2\n      sub\n      swap1\n      return\n        /* \"Seminar DevOps (1)/contracts/contracts/Diamond/Diamond.sol\":704:736  address[] public storedAddresses */\n    tag_8:\n      callvalue\n      dup1\n      iszero\n      tag_43\n      jumpi\n      0x00\n      dup1\n      revert\n    tag_43:\n      pop\n      tag_44\n      0x04\n      dup1\n      calldatasize\n      sub\n      dup2\n      add\n      swap1\n      tag_45\n      swap2\n      swap1\n      tag_46\n      jump\t// in\n    tag_45:\n      tag_47\n      jump\t// in\n    tag_44:\n      mload(0x40)\n      tag_48\n      swap2\n      swap1\n      tag_49\n      jump\t// in\n    tag_48:\n      mload(0x40)\n      dup1\n      swap2\n      sub\n      swap1\n      return\n        /* \"Seminar DevOps (1)/contracts/contracts/Diamond/Diamond.sol\":616:667  mapping(bytes4 => address) public selectorToAddress */\n    tag_9:\n      callvalue\n      dup1\n      iszero\n      tag_50\n      jumpi\n      0x00\n      dup1\n      revert\n    tag_50:\n      pop\n      tag_51\n      0x04\n      dup1\n      calldatasize\n      sub\n      dup2\n      add\n      swap1\n      tag_52\n      swap2\n      swap1\n      tag_53\n      jump\t// in\n    tag_52:\n      tag_54\n      jump\t// in\n    tag_51:\n      mload(0x40)\n      tag_55\n      swap2\n      swap1\n      tag_49\n      jump\t// in\n    tag_55:\n      mload(0x40)\n      dup1\n      swap2\n      sub\n      swap1\n      return\n        /* \"Seminar DevOps (1)/contracts/contracts/Diamond/Diamond.sol\":3868:4468  function facetFunctionSelectors(address _facet) external view returns (bytes4[] memory facetFunctionSelectors_){... */\n    tag_10:\n      callvalue\n      dup1\n      iszero\n      tag_56\n      jumpi\n      0x00\n      dup1\n      revert\n    tag_56:\n      pop\n      tag_57\n      0x04\n      dup1\n      calldatasize\n      sub\n      dup2\n      add\n      swap1\n      tag_58\n      swap2\n      swap1\n      tag_59\n      jump\t// in\n    tag_58:\n      tag_60\n      jump\t// in\n    tag_57:\n      mload(0x40)\n      tag_61\n      swap2\n      swap1\n      tag_62\n      jump\t// in\n    tag_61:\n      mload(0x40)\n      dup1\n      swap2\n      sub\n      swap1\n      return\n        /* \"Seminar DevOps (1)/contracts/contracts/Diamond/Diamond.sol\":4474:4627  function facetAddress(bytes4 _functionSelector) external view returns (address facetAddress_){... */\n    tag_11:\n      callvalue\n      dup1\n      iszero\n      tag_63\n      jumpi\n      0x00\n      dup1\n      revert\n    tag_63:\n      pop\n      tag_64\n      0x04\n      dup1\n      calldatasize\n      sub\n      dup2\n      add\n      swap1\n      tag_65\n      swap2\n      swap1\n      tag_53\n      jump\t// in\n    tag_65:\n      tag_66\n      jump\t// in\n    tag_64:\n      mload(0x40)\n      tag_67\n      swap2\n      swap1\n      tag_49\n      jump\t// in\n    tag_67:\n      mload(0x40)\n      dup1\n      swap2\n      sub\n      swap1\n      return\n        /* \"Seminar DevOps (1)/contracts/contracts/Diamond/Diamond.sol\":673:698  bytes4[] public selectors */\n    tag_12:\n      callvalue\n      dup1\n      iszero\n      tag_68\n      jumpi\n      0x00\n      dup1\n      revert\n    tag_68:\n      pop\n      tag_69\n      0x04\n      dup1\n      calldatasize\n      sub\n      dup2\n      add\n      swap1\n      tag_70\n      swap2\n      swap1\n      tag_46\n      jump\t// in\n    tag_70:\n      tag_71\n      jump\t// in\n    tag_69:\n      mload(0x40)\n      tag_72\n      swap2\n      swap1\n      tag_73\n      jump\t// in\n    tag_72:\n      mload(0x40)\n      dup1\n      swap2\n      sub\n      swap1\n      return\n        /* \"Seminar DevOps (1)/contracts/contracts/Diamond/Diamond.sol\":885:1018  function getNumber100() public view returns(uint256 num){... */\n    tag_21:\n        /* \"Seminar DevOps (1)/contracts/contracts/Diamond/Diamond.sol\":929:940  uint256 num */\n      0x00\n        /* \"Seminar DevOps (1)/contracts/contracts/Diamond/Diamond.sol\":951:971  MyStorage storage ms */\n      dup1\n        /* \"Seminar DevOps (1)/contracts/contracts/Diamond/Diamond.sol\":974:985  myStorage() */\n      tag_75\n        /* \"Seminar DevOps (1)/contracts/contracts/Diamond/Diamond.sol\":974:983  myStorage */\n      tag_76\n        /* \"Seminar DevOps (1)/contracts/contracts/Diamond/Diamond.sol\":974:985  myStorage() */\n      jump\t// in\n    tag_75:\n        /* \"Seminar DevOps (1)/contracts/contracts/Diamond/Diamond.sol\":951:985  MyStorage storage ms = myStorage() */\n      swap1\n      pop\n        /* \"Seminar DevOps (1)/contracts/contracts/Diamond/Diamond.sol\":1002:1004  ms */\n      dup1\n        /* \"Seminar DevOps (1)/contracts/contracts/Diamond/Diamond.sol\":1002:1011  ms.num100 */\n      0x01\n      add\n      sload\n        /* \"Seminar DevOps (1)/contracts/contracts/Diamond/Diamond.sol\":995:1011  return ms.num100 */\n      swap2\n      pop\n      pop\n        /* \"Seminar DevOps (1)/contracts/contracts/Diamond/Diamond.sol\":885:1018  function getNumber100() public view returns(uint256 num){... */\n      swap1\n      jump\t// out\n        /* \"Seminar DevOps (1)/contracts/contracts/Diamond/Diamond.sol\":748:879  function getNumber10() public view returns(uint256 num){... */\n    tag_26:\n        /* \"Seminar DevOps (1)/contracts/contracts/Diamond/Diamond.sol\":791:802  uint256 num */\n      0x00\n        /* \"Seminar DevOps (1)/contracts/contracts/Diamond/Diamond.sol\":813:833  MyStorage storage ms */\n      dup1\n        /* \"Seminar DevOps (1)/contracts/contracts/Diamond/Diamond.sol\":836:847  myStorage() */\n      tag_78\n        /* \"Seminar DevOps (1)/contracts/contracts/Diamond/Diamond.sol\":836:845  myStorage */\n      tag_76\n        /* \"Seminar DevOps (1)/contracts/contracts/Diamond/Diamond.sol\":836:847  myStorage() */\n      jump\t// in\n    tag_78:\n        /* \"Seminar DevOps (1)/contracts/contracts/Diamond/Diamond.sol\":813:847  MyStorage storage ms = myStorage() */\n      swap1\n      pop\n        /* \"Seminar DevOps (1)/contracts/contracts/Diamond/Diamond.sol\":864:866  ms */\n      dup1\n        /* \"Seminar DevOps (1)/contracts/contracts/Diamond/Diamond.sol\":864:872  ms.num10 */\n      0x00\n      add\n      sload\n        /* \"Seminar DevOps (1)/contracts/contracts/Diamond/Diamond.sol\":857:872  return ms.num10 */\n      swap2\n      pop\n      pop\n        /* \"Seminar DevOps (1)/contracts/contracts/Diamond/Diamond.sol\":748:879  function getNumber10() public view returns(uint256 num){... */\n      swap1\n      jump\t// out\n        /* \"Seminar DevOps (1)/contracts/contracts/Diamond/Diamond.sol\":1832:3862  function diamondCut(FacetCut[] calldata _diamondCut, address _init, bytes calldata _calldata) external{... */\n    tag_32:\n        /* \"Seminar DevOps (1)/contracts/contracts/Diamond/Diamond.sol\":1949:1955  uint i */\n      0x00\n        /* \"Seminar DevOps (1)/contracts/contracts/Diamond/Diamond.sol\":1944:3551  for (uint i = 0; i < _diamondCut.length; i++){... */\n    tag_80:\n        /* \"Seminar DevOps (1)/contracts/contracts/Diamond/Diamond.sol\":1965:1976  _diamondCut */\n      dup6\n      dup6\n        /* \"Seminar DevOps (1)/contracts/contracts/Diamond/Diamond.sol\":1965:1983  _diamondCut.length */\n      swap1\n      pop\n        /* \"Seminar DevOps (1)/contracts/contracts/Diamond/Diamond.sol\":1961:1962  i */\n      dup2\n        /* \"Seminar DevOps (1)/contracts/contracts/Diamond/Diamond.sol\":1961:1983  i < _diamondCut.length */\n      lt\n        /* \"Seminar DevOps (1)/contracts/contracts/Diamond/Diamond.sol\":1944:3551  for (uint i = 0; i < _diamondCut.length; i++){... */\n      iszero\n      tag_81\n      jumpi\n        /* \"Seminar DevOps (1)/contracts/contracts/Diamond/Diamond.sol\":2031:2049  FacetCutAction.Add */\n      0x00\n        /* \"Seminar DevOps (1)/contracts/contracts/Diamond/Diamond.sol\":2006:2049  _diamondCut[i].action == FacetCutAction.Add */\n      0x02\n      dup2\n      gt\n      iszero\n      tag_83\n      jumpi\n      tag_84\n      tag_85\n      jump\t// in\n    tag_84:\n    tag_83:\n        /* \"Seminar DevOps (1)/contracts/contracts/Diamond/Diamond.sol\":2006:2017  _diamondCut */\n      dup7\n      dup7\n        /* \"Seminar DevOps (1)/contracts/contracts/Diamond/Diamond.sol\":2018:2019  i */\n      dup4\n        /* \"Seminar DevOps (1)/contracts/contracts/Diamond/Diamond.sol\":2006:2020  _diamondCut[i] */\n      dup2\n      dup2\n      lt\n      tag_86\n      jumpi\n      tag_87\n      tag_88\n      jump\t// in\n    tag_87:\n    tag_86:\n      swap1\n      pop\n      0x20\n      mul\n      dup2\n      add\n      swap1\n      tag_89\n      swap2\n      swap1\n      tag_90\n      jump\t// in\n    tag_89:\n        /* \"Seminar DevOps (1)/contracts/contracts/Diamond/Diamond.sol\":2006:2027  _diamondCut[i].action */\n      0x20\n      add\n      0x20\n      dup2\n      add\n      swap1\n      tag_91\n      swap2\n      swap1\n      tag_92\n      jump\t// in\n    tag_91:\n        /* \"Seminar DevOps (1)/contracts/contracts/Diamond/Diamond.sol\":2006:2049  _diamondCut[i].action == FacetCutAction.Add */\n      0x02\n      dup2\n      gt\n      iszero\n      tag_93\n      jumpi\n      tag_94\n      tag_85\n      jump\t// in\n    tag_94:\n    tag_93:\n      sub\n        /* \"Seminar DevOps (1)/contracts/contracts/Diamond/Diamond.sol\":2003:2461  if(_diamondCut[i].action == FacetCutAction.Add){... */\n      tag_95\n      jumpi\n        /* \"Seminar DevOps (1)/contracts/contracts/Diamond/Diamond.sol\":2072:2078  uint k */\n      0x00\n        /* \"Seminar DevOps (1)/contracts/contracts/Diamond/Diamond.sol\":2068:2447  for(uint k = 0; k < _diamondCut[i].functionSelectors.length; k++){... */\n    tag_96:\n        /* \"Seminar DevOps (1)/contracts/contracts/Diamond/Diamond.sol\":2088:2099  _diamondCut */\n      dup7\n      dup7\n        /* \"Seminar DevOps (1)/contracts/contracts/Diamond/Diamond.sol\":2100:2101  i */\n      dup4\n        /* \"Seminar DevOps (1)/contracts/contracts/Diamond/Diamond.sol\":2088:2102  _diamondCut[i] */\n      dup2\n      dup2\n      lt\n      tag_99\n      jumpi\n      tag_100\n      tag_88\n      jump\t// in\n    tag_100:\n    tag_99:\n      swap1\n      pop\n      0x20\n      mul\n      dup2\n      add\n      swap1\n      tag_101\n      swap2\n      swap1\n      tag_90\n      jump\t// in\n    tag_101:\n        /* \"Seminar DevOps (1)/contracts/contracts/Diamond/Diamond.sol\":2088:2120  _diamondCut[i].functionSelectors */\n      dup1\n      0x40\n      add\n      swap1\n      tag_102\n      swap2\n      swap1\n      tag_103\n      jump\t// in\n    tag_102:\n        /* \"Seminar DevOps (1)/contracts/contracts/Diamond/Diamond.sol\":2088:2127  _diamondCut[i].functionSelectors.length */\n      swap1\n      pop\n        /* \"Seminar DevOps (1)/contracts/contracts/Diamond/Diamond.sol\":2084:2085  k */\n      dup2\n        /* \"Seminar DevOps (1)/contracts/contracts/Diamond/Diamond.sol\":2084:2127  k < _diamondCut[i].functionSelectors.length */\n      lt\n        /* \"Seminar DevOps (1)/contracts/contracts/Diamond/Diamond.sol\":2068:2447  for(uint k = 0; k < _diamondCut[i].functionSelectors.length; k++){... */\n      iszero\n      tag_97\n      jumpi\n        /* \"Seminar DevOps (1)/contracts/contracts/Diamond/Diamond.sol\":2224:2225  0 */\n      0x00\n        /* \"Seminar DevOps (1)/contracts/contracts/Diamond/Diamond.sol\":2158:2226  selectorToAddress[_diamondCut[i].functionSelectors[k]] == address(0) */\n      0xffffffffffffffffffffffffffffffffffffffff\n      and\n        /* \"Seminar DevOps (1)/contracts/contracts/Diamond/Diamond.sol\":2158:2175  selectorToAddress */\n      0x00\n        /* \"Seminar DevOps (1)/contracts/contracts/Diamond/Diamond.sol\":2158:2212  selectorToAddress[_diamondCut[i].functionSelectors[k]] */\n      dup1\n        /* \"Seminar DevOps (1)/contracts/contracts/Diamond/Diamond.sol\":2176:2187  _diamondCut */\n      dup10\n      dup10\n        /* \"Seminar DevOps (1)/contracts/contracts/Diamond/Diamond.sol\":2188:2189  i */\n      dup7\n        /* \"Seminar DevOps (1)/contracts/contracts/Diamond/Diamond.sol\":2176:2190  _diamondCut[i] */\n      dup2\n      dup2\n      lt\n      tag_104\n      jumpi\n      tag_105\n      tag_88\n      jump\t// in\n    tag_105:\n    tag_104:\n      swap1\n      pop\n      0x20\n      mul\n      dup2\n      add\n      swap1\n      tag_106\n      swap2\n      swap1\n      tag_90\n      jump\t// in\n    tag_106:\n        /* \"Seminar DevOps (1)/contracts/contracts/Diamond/Diamond.sol\":2176:2208  _diamondCut[i].functionSelectors */\n      dup1\n      0x40\n      add\n      swap1\n      tag_107\n      swap2\n      swap1\n      tag_103\n      jump\t// in\n    tag_107:\n        /* \"Seminar DevOps (1)/contracts/contracts/Diamond/Diamond.sol\":2209:2210  k */\n      dup6\n        /* \"Seminar DevOps (1)/contracts/contracts/Diamond/Diamond.sol\":2176:2211  _diamondCut[i].functionSelectors[k] */\n      dup2\n      dup2\n      lt\n      tag_108\n      jumpi\n      tag_109\n      tag_88\n      jump\t// in\n    tag_109:\n    tag_108:\n      swap1\n      pop\n      0x20\n      mul\n      add\n      0x20\n      dup2\n      add\n      swap1\n      tag_110\n      swap2\n      swap1\n      tag_53\n      jump\t// in\n    tag_110:\n        /* \"Seminar DevOps (1)/contracts/contracts/Diamond/Diamond.sol\":2158:2212  selectorToAddress[_diamondCut[i].functionSelectors[k]] */\n      not(0xffffffffffffffffffffffffffffffffffffffffffffffffffffffff)\n      and\n      not(0xffffffffffffffffffffffffffffffffffffffffffffffffffffffff)\n      and\n      dup2\n      mstore\n      0x20\n      add\n      swap1\n      dup2\n      mstore\n      0x20\n      add\n      0x00\n      keccak256\n      0x00\n      swap1\n      sload\n      swap1\n      0x0100\n      exp\n      swap1\n      div\n      0xffffffffffffffffffffffffffffffffffffffff\n      and\n        /* \"Seminar DevOps (1)/contracts/contracts/Diamond/Diamond.sol\":2158:2226  selectorToAddress[_diamondCut[i].functionSelectors[k]] == address(0) */\n      0xffffffffffffffffffffffffffffffffffffffff\n      and\n      sub\n        /* \"Seminar DevOps (1)/contracts/contracts/Diamond/Diamond.sol\":2155:2429  if(selectorToAddress[_diamondCut[i].functionSelectors[k]] == address(0)){... */\n      tag_111\n      jumpi\n        /* \"Seminar DevOps (1)/contracts/contracts/Diamond/Diamond.sol\":2306:2317  _diamondCut */\n      dup7\n      dup7\n        /* \"Seminar DevOps (1)/contracts/contracts/Diamond/Diamond.sol\":2318:2319  i */\n      dup4\n        /* \"Seminar DevOps (1)/contracts/contracts/Diamond/Diamond.sol\":2306:2320  _diamondCut[i] */\n      dup2\n      dup2\n      lt\n      tag_112\n      jumpi\n      tag_113\n      tag_88\n      jump\t// in\n    tag_113:\n    tag_112:\n      swap1\n      pop\n      0x20\n      mul\n      dup2\n      add\n      swap1\n      tag_114\n      swap2\n      swap1\n      tag_90\n      jump\t// in\n    tag_114:\n        /* \"Seminar DevOps (1)/contracts/contracts/Diamond/Diamond.sol\":2306:2333  _diamondCut[i].facetAddress */\n      0x00\n      add\n      0x20\n      dup2\n      add\n      swap1\n      tag_115\n      swap2\n      swap1\n      tag_59\n      jump\t// in\n    tag_115:\n        /* \"Seminar DevOps (1)/contracts/contracts/Diamond/Diamond.sol\":2249:2266  selectorToAddress */\n      0x00\n        /* \"Seminar DevOps (1)/contracts/contracts/Diamond/Diamond.sol\":2249:2303  selectorToAddress[_diamondCut[i].functionSelectors[k]] */\n      dup1\n        /* \"Seminar DevOps (1)/contracts/contracts/Diamond/Diamond.sol\":2267:2278  _diamondCut */\n      dup10\n      dup10\n        /* \"Seminar DevOps (1)/contracts/contracts/Diamond/Diamond.sol\":2279:2280  i */\n      dup7\n        /* \"Seminar DevOps (1)/contracts/contracts/Diamond/Diamond.sol\":2267:2281  _diamondCut[i] */\n      dup2\n      dup2\n      lt\n      tag_116\n      jumpi\n      tag_117\n      tag_88\n      jump\t// in\n    tag_117:\n    tag_116:\n      swap1\n      pop\n      0x20\n      mul\n      dup2\n      add\n      swap1\n      tag_118\n      swap2\n      swap1\n      tag_90\n      jump\t// in\n    tag_118:\n        /* \"Seminar DevOps (1)/contracts/contracts/Diamond/Diamond.sol\":2267:2299  _diamondCut[i].functionSelectors */\n      dup1\n      0x40\n      add\n      swap1\n      tag_119\n      swap2\n      swap1\n      tag_103\n      jump\t// in\n    tag_119:\n        /* \"Seminar DevOps (1)/contracts/contracts/Diamond/Diamond.sol\":2300:2301  k */\n      dup6\n        /* \"Seminar DevOps (1)/contracts/contracts/Diamond/Diamond.sol\":2267:2302  _diamondCut[i].functionSelectors[k] */\n      dup2\n      dup2\n      lt\n      tag_120\n      jumpi\n      tag_121\n      tag_88\n      jump\t// in\n    tag_121:\n    tag_120:\n      swap1\n      pop\n      0x20\n      mul\n      add\n      0x20\n      dup2\n      add\n      swap1\n      tag_122\n      swap2\n      swap1\n      tag_53\n      jump\t// in\n    tag_122:\n        /* \"Seminar DevOps (1)/contracts/contracts/Diamond/Diamond.sol\":2249:2303  selectorToAddress[_diamondCut[i].functionSelectors[k]] */\n      not(0xffffffffffffffffffffffffffffffffffffffffffffffffffffffff)\n      and\n      not(0xffffffffffffffffffffffffffffffffffffffffffffffffffffffff)\n      and\n      dup2\n      mstore\n      0x20\n      add\n      swap1\n      dup2\n      mstore\n      0x20\n      add\n      0x00\n      keccak256\n      0x00\n        /* \"Seminar DevOps (1)/contracts/contracts/Diamond/Diamond.sol\":2249:2333  selectorToAddress[_diamondCut[i].functionSelectors[k]] = _diamondCut[i].facetAddress */\n      0x0100\n      exp\n      dup2\n      sload\n      dup2\n      0xffffffffffffffffffffffffffffffffffffffff\n      mul\n      not\n      and\n      swap1\n      dup4\n      0xffffffffffffffffffffffffffffffffffffffff\n      and\n      mul\n      or\n      swap1\n      sstore\n      pop\n        /* \"Seminar DevOps (1)/contracts/contracts/Diamond/Diamond.sol\":2355:2364  selectors */\n      0x01\n        /* \"Seminar DevOps (1)/contracts/contracts/Diamond/Diamond.sol\":2370:2381  _diamondCut */\n      dup8\n      dup8\n        /* \"Seminar DevOps (1)/contracts/contracts/Diamond/Diamond.sol\":2382:2383  i */\n      dup5\n        /* \"Seminar DevOps (1)/contracts/contracts/Diamond/Diamond.sol\":2370:2384  _diamondCut[i] */\n      dup2\n      dup2\n      lt\n      tag_123\n      jumpi\n      tag_124\n      tag_88\n      jump\t// in\n    tag_124:\n    tag_123:\n      swap1\n      pop\n      0x20\n      mul\n      dup2\n      add\n      swap1\n      tag_125\n      swap2\n      swap1\n      tag_90\n      jump\t// in\n    tag_125:\n        /* \"Seminar DevOps (1)/contracts/contracts/Diamond/Diamond.sol\":2370:2402  _diamondCut[i].functionSelectors */\n      dup1\n      0x40\n      add\n      swap1\n      tag_126\n      swap2\n      swap1\n      tag_103\n      jump\t// in\n    tag_126:\n        /* \"Seminar DevOps (1)/contracts/contracts/Diamond/Diamond.sol\":2403:2404  k */\n      dup4\n        /* \"Seminar DevOps (1)/contracts/contracts/Diamond/Diamond.sol\":2370:2405  _diamondCut[i].functionSelectors[k] */\n      dup2\n      dup2\n      lt\n      tag_127\n      jumpi\n      tag_128\n      tag_88\n      jump\t// in\n    tag_128:\n    tag_127:\n      swap1\n      pop\n      0x20\n      mul\n      add\n      0x20\n      dup2\n      add\n      swap1\n      tag_129\n      swap2\n      swap1\n      tag_53\n      jump\t// in\n    tag_129:\n        /* \"Seminar DevOps (1)/contracts/contracts/Diamond/Diamond.sol\":2355:2406  selectors.push(_diamondCut[i].functionSelectors[k]) */\n      swap1\n      dup1\n      0x01\n      dup2\n      sload\n      add\n      dup1\n      dup3\n      sstore\n      dup1\n      swap2\n      pop\n      pop\n      0x01\n      swap1\n      sub\n      swap1\n      0x00\n      mstore\n      keccak256(0x00, 0x20)\n      swap1\n      0x08\n      swap2\n      dup3\n      dup3\n      div\n      add\n      swap2\n      swap1\n      mod\n      0x04\n      mul\n      swap1\n      swap2\n      swap1\n      swap2\n      swap1\n      swap2\n      0x0100\n      exp\n      dup2\n      sload\n      dup2\n      0xffffffff\n      mul\n      not\n      and\n      swap1\n      dup4\n      0xe0\n      shr\n      mul\n      or\n      swap1\n      sstore\n      pop\n        /* \"Seminar DevOps (1)/contracts/contracts/Diamond/Diamond.sol\":2155:2429  if(selectorToAddress[_diamondCut[i].functionSelectors[k]] == address(0)){... */\n    tag_111:\n        /* \"Seminar DevOps (1)/contracts/contracts/Diamond/Diamond.sol\":2129:2132  k++ */\n      dup1\n      dup1\n      tag_131\n      swap1\n      tag_132\n      jump\t// in\n    tag_131:\n      swap2\n      pop\n      pop\n        /* \"Seminar DevOps (1)/contracts/contracts/Diamond/Diamond.sol\":2068:2447  for(uint k = 0; k < _diamondCut[i].functionSelectors.length; k++){... */\n      jump(tag_96)\n    tag_97:\n      pop\n        /* \"Seminar DevOps (1)/contracts/contracts/Diamond/Diamond.sol\":2003:2461  if(_diamondCut[i].action == FacetCutAction.Add){... */\n    tag_95:\n        /* \"Seminar DevOps (1)/contracts/contracts/Diamond/Diamond.sol\":2503:2525  FacetCutAction.Replace */\n      0x01\n        /* \"Seminar DevOps (1)/contracts/contracts/Diamond/Diamond.sol\":2478:2525  _diamondCut[i].action == FacetCutAction.Replace */\n      0x02\n      dup2\n      gt\n      iszero\n      tag_133\n      jumpi\n      tag_134\n      tag_85\n      jump\t// in\n    tag_134:\n    tag_133:\n        /* \"Seminar DevOps (1)/contracts/contracts/Diamond/Diamond.sol\":2478:2489  _diamondCut */\n      dup7\n      dup7\n        /* \"Seminar DevOps (1)/contracts/contracts/Diamond/Diamond.sol\":2490:2491  i */\n      dup4\n        /* \"Seminar DevOps (1)/contracts/contracts/Diamond/Diamond.sol\":2478:2492  _diamondCut[i] */\n      dup2\n      dup2\n      lt\n      tag_135\n      jumpi\n      tag_136\n      tag_88\n      jump\t// in\n    tag_136:\n    tag_135:\n      swap1\n      pop\n      0x20\n      mul\n      dup2\n      add\n      swap1\n      tag_137\n      swap2\n      swap1\n      tag_90\n      jump\t// in\n    tag_137:\n        /* \"Seminar DevOps (1)/contracts/contracts/Diamond/Diamond.sol\":2478:2499  _diamondCut[i].action */\n      0x20\n      add\n      0x20\n      dup2\n      add\n      swap1\n      tag_138\n      swap2\n      swap1\n      tag_92\n      jump\t// in\n    tag_138:\n        /* \"Seminar DevOps (1)/contracts/contracts/Diamond/Diamond.sol\":2478:2525  _diamondCut[i].action == FacetCutAction.Replace */\n      0x02\n      dup2\n      gt\n      iszero\n      tag_139\n      jumpi\n      tag_140\n      tag_85\n      jump\t// in\n    tag_140:\n    tag_139:\n      sub\n        /* \"Seminar DevOps (1)/contracts/contracts/Diamond/Diamond.sol\":2475:2864  if(_diamondCut[i].action == FacetCutAction.Replace){... */\n      tag_141\n      jumpi\n        /* \"Seminar DevOps (1)/contracts/contracts/Diamond/Diamond.sol\":2548:2554  uint k */\n      0x00\n        /* \"Seminar DevOps (1)/contracts/contracts/Diamond/Diamond.sol\":2544:2850  for(uint k = 0; k < _diamondCut[i].functionSelectors.length; k++){... */\n    tag_142:\n        /* \"Seminar DevOps (1)/contracts/contracts/Diamond/Diamond.sol\":2564:2575  _diamondCut */\n      dup7\n      dup7\n        /* \"Seminar DevOps (1)/contracts/contracts/Diamond/Diamond.sol\":2576:2577  i */\n      dup4\n        /* \"Seminar DevOps (1)/contracts/contracts/Diamond/Diamond.sol\":2564:2578  _diamondCut[i] */\n      dup2\n      dup2\n      lt\n      tag_145\n      jumpi\n      tag_146\n      tag_88\n      jump\t// in\n    tag_146:\n    tag_145:\n      swap1\n      pop\n      0x20\n      mul\n      dup2\n      add\n      swap1\n      tag_147\n      swap2\n      swap1\n      tag_90\n      jump\t// in\n    tag_147:\n        /* \"Seminar DevOps (1)/contracts/contracts/Diamond/Diamond.sol\":2564:2596  _diamondCut[i].functionSelectors */\n      dup1\n      0x40\n      add\n      swap1\n      tag_148\n      swap2\n      swap1\n      tag_103\n      jump\t// in\n    tag_148:\n        /* \"Seminar DevOps (1)/contracts/contracts/Diamond/Diamond.sol\":2564:2603  _diamondCut[i].functionSelectors.length */\n      swap1\n      pop\n        /* \"Seminar DevOps (1)/contracts/contracts/Diamond/Diamond.sol\":2560:2561  k */\n      dup2\n        /* \"Seminar DevOps (1)/contracts/contracts/Diamond/Diamond.sol\":2560:2603  k < _diamondCut[i].functionSelectors.length */\n      lt\n        /* \"Seminar DevOps (1)/contracts/contracts/Diamond/Diamond.sol\":2544:2850  for(uint k = 0; k < _diamondCut[i].functionSelectors.length; k++){... */\n      iszero\n      tag_143\n      jumpi\n        /* \"Seminar DevOps (1)/contracts/contracts/Diamond/Diamond.sol\":2700:2701  0 */\n      0x00\n        /* \"Seminar DevOps (1)/contracts/contracts/Diamond/Diamond.sol\":2634:2702  selectorToAddress[_diamondCut[i].functionSelectors[k]] != address(0) */\n      0xffffffffffffffffffffffffffffffffffffffff\n      and\n        /* \"Seminar DevOps (1)/contracts/contracts/Diamond/Diamond.sol\":2634:2651  selectorToAddress */\n      0x00\n        /* \"Seminar DevOps (1)/contracts/contracts/Diamond/Diamond.sol\":2634:2688  selectorToAddress[_diamondCut[i].functionSelectors[k]] */\n      dup1\n        /* \"Seminar DevOps (1)/contracts/contracts/Diamond/Diamond.sol\":2652:2663  _diamondCut */\n      dup10\n      dup10\n        /* \"Seminar DevOps (1)/contracts/contracts/Diamond/Diamond.sol\":2664:2665  i */\n      dup7\n        /* \"Seminar DevOps (1)/contracts/contracts/Diamond/Diamond.sol\":2652:2666  _diamondCut[i] */\n      dup2\n      dup2\n      lt\n      tag_149\n      jumpi\n      tag_150\n      tag_88\n      jump\t// in\n    tag_150:\n    tag_149:\n      swap1\n      pop\n      0x20\n      mul\n      dup2\n      add\n      swap1\n      tag_151\n      swap2\n      swap1\n      tag_90\n      jump\t// in\n    tag_151:\n        /* \"Seminar DevOps (1)/contracts/contracts/Diamond/Diamond.sol\":2652:2684  _diamondCut[i].functionSelectors */\n      dup1\n      0x40\n      add\n      swap1\n      tag_152\n      swap2\n      swap1\n      tag_103\n      jump\t// in\n    tag_152:\n        /* \"Seminar DevOps (1)/contracts/contracts/Diamond/Diamond.sol\":2685:2686  k */\n      dup6\n        /* \"Seminar DevOps (1)/contracts/contracts/Diamond/Diamond.sol\":2652:2687  _diamondCut[i].functionSelectors[k] */\n      dup2\n      dup2\n      lt\n      tag_153\n      jumpi\n      tag_154\n      tag_88\n      jump\t// in\n    tag_154:\n    tag_153:\n      swap1\n      pop\n      0x20\n      mul\n      add\n      0x20\n      dup2\n      add\n      swap1\n      tag_155\n      swap2\n      swap1\n      tag_53\n      jump\t// in\n    tag_155:\n        /* \"Seminar DevOps (1)/contracts/contracts/Diamond/Diamond.sol\":2634:2688  selectorToAddress[_diamondCut[i].functionSelectors[k]] */\n      not(0xffffffffffffffffffffffffffffffffffffffffffffffffffffffff)\n      and\n      not(0xffffffffffffffffffffffffffffffffffffffffffffffffffffffff)\n      and\n      dup2\n      mstore\n      0x20\n      add\n      swap1\n      dup2\n      mstore\n      0x20\n      add\n      0x00\n      keccak256\n      0x00\n      swap1\n      sload\n      swap1\n      0x0100\n      exp\n      swap1\n      div\n      0xffffffffffffffffffffffffffffffffffffffff\n      and\n        /* \"Seminar DevOps (1)/contracts/contracts/Diamond/Diamond.sol\":2634:2702  selectorToAddress[_diamondCut[i].functionSelectors[k]] != address(0) */\n      0xffffffffffffffffffffffffffffffffffffffff\n      and\n      eq\n        /* \"Seminar DevOps (1)/contracts/contracts/Diamond/Diamond.sol\":2631:2832  if(selectorToAddress[_diamondCut[i].functionSelectors[k]] != address(0)){... */\n      tag_156\n      jumpi\n        /* \"Seminar DevOps (1)/contracts/contracts/Diamond/Diamond.sol\":2782:2793  _diamondCut */\n      dup7\n      dup7\n        /* \"Seminar DevOps (1)/contracts/contracts/Diamond/Diamond.sol\":2794:2795  i */\n      dup4\n        /* \"Seminar DevOps (1)/contracts/contracts/Diamond/Diamond.sol\":2782:2796  _diamondCut[i] */\n      dup2\n      dup2\n      lt\n      tag_157\n      jumpi\n      tag_158\n      tag_88\n      jump\t// in\n    tag_158:\n    tag_157:\n      swap1\n      pop\n      0x20\n      mul\n      dup2\n      add\n      swap1\n      tag_159\n      swap2\n      swap1\n      tag_90\n      jump\t// in\n    tag_159:\n        /* \"Seminar DevOps (1)/contracts/contracts/Diamond/Diamond.sol\":2782:2809  _diamondCut[i].facetAddress */\n      0x00\n      add\n      0x20\n      dup2\n      add\n      swap1\n      tag_160\n      swap2\n      swap1\n      tag_59\n      jump\t// in\n    tag_160:\n        /* \"Seminar DevOps (1)/contracts/contracts/Diamond/Diamond.sol\":2725:2742  selectorToAddress */\n      0x00\n        /* \"Seminar DevOps (1)/contracts/contracts/Diamond/Diamond.sol\":2725:2779  selectorToAddress[_diamondCut[i].functionSelectors[k]] */\n      dup1\n        /* \"Seminar DevOps (1)/contracts/contracts/Diamond/Diamond.sol\":2743:2754  _diamondCut */\n      dup10\n      dup10\n        /* \"Seminar DevOps (1)/contracts/contracts/Diamond/Diamond.sol\":2755:2756  i */\n      dup7\n        /* \"Seminar DevOps (1)/contracts/contracts/Diamond/Diamond.sol\":2743:2757  _diamondCut[i] */\n      dup2\n      dup2\n      lt\n      tag_161\n      jumpi\n      tag_162\n      tag_88\n      jump\t// in\n    tag_162:\n    tag_161:\n      swap1\n      pop\n      0x20\n      mul\n      dup2\n      add\n      swap1\n      tag_163\n      swap2\n      swap1\n      tag_90\n      jump\t// in\n    tag_163:\n        /* \"Seminar DevOps (1)/contracts/contracts/Diamond/Diamond.sol\":2743:2775  _diamondCut[i].functionSelectors */\n      dup1\n      0x40\n      add\n      swap1\n      tag_164\n      swap2\n      swap1\n      tag_103\n      jump\t// in\n    tag_164:\n        /* \"Seminar DevOps (1)/contracts/contracts/Diamond/Diamond.sol\":2776:2777  k */\n      dup6\n        /* \"Seminar DevOps (1)/contracts/contracts/Diamond/Diamond.sol\":2743:2778  _diamondCut[i].functionSelectors[k] */\n      dup2\n      dup2\n      lt\n      tag_165\n      jumpi\n      tag_166\n      tag_88\n      jump\t// in\n    tag_166:\n    tag_165:\n      swap1\n      pop\n      0x20\n      mul\n      add\n      0x20\n      dup2\n      add\n      swap1\n      tag_167\n      swap2\n      swap1\n      tag_53\n      jump\t// in\n    tag_167:\n        /* \"Seminar DevOps (1)/contracts/contracts/Diamond/Diamond.sol\":2725:2779  selectorToAddress[_diamondCut[i].functionSelectors[k]] */\n      not(0xffffffffffffffffffffffffffffffffffffffffffffffffffffffff)\n      and\n      not(0xffffffffffffffffffffffffffffffffffffffffffffffffffffffff)\n      and\n      dup2\n      mstore\n      0x20\n      add\n      swap1\n      dup2\n      mstore\n      0x20\n      add\n      0x00\n      keccak256\n      0x00\n        /* \"Seminar DevOps (1)/contracts/contracts/Diamond/Diamond.sol\":2725:2809  selectorToAddress[_diamondCut[i].functionSelectors[k]] = _diamondCut[i].facetAddress */\n      0x0100\n      exp\n      dup2\n      sload\n      dup2\n      0xffffffffffffffffffffffffffffffffffffffff\n      mul\n      not\n      and\n      swap1\n      dup4\n      0xffffffffffffffffffffffffffffffffffffffff\n      and\n      mul\n      or\n      swap1\n      sstore\n      pop\n        /* \"Seminar DevOps (1)/contracts/contracts/Diamond/Diamond.sol\":2631:2832  if(selectorToAddress[_diamondCut[i].functionSelectors[k]] != address(0)){... */\n    tag_156:\n        /* \"Seminar DevOps (1)/contracts/contracts/Diamond/Diamond.sol\":2605:2608  k++ */\n      dup1\n      dup1\n      tag_168\n      swap1\n      tag_132\n      jump\t// in\n    tag_168:\n      swap2\n      pop\n      pop\n        /* \"Seminar DevOps (1)/contracts/contracts/Diamond/Diamond.sol\":2544:2850  for(uint k = 0; k < _diamondCut[i].functionSelectors.length; k++){... */\n      jump(tag_142)\n    tag_143:\n      pop\n        /* \"Seminar DevOps (1)/contracts/contracts/Diamond/Diamond.sol\":2475:2864  if(_diamondCut[i].action == FacetCutAction.Replace){... */\n    tag_141:\n        /* \"Seminar DevOps (1)/contracts/contracts/Diamond/Diamond.sol\":2906:2927  FacetCutAction.Remove */\n      0x02\n        /* \"Seminar DevOps (1)/contracts/contracts/Diamond/Diamond.sol\":2881:2927  _diamondCut[i].action == FacetCutAction.Remove */\n      dup1\n      dup2\n      gt\n      iszero\n      tag_169\n      jumpi\n      tag_170\n      tag_85\n      jump\t// in\n    tag_170:\n    tag_169:\n        /* \"Seminar DevOps (1)/contracts/contracts/Diamond/Diamond.sol\":2881:2892  _diamondCut */\n      dup7\n      dup7\n        /* \"Seminar DevOps (1)/contracts/contracts/Diamond/Diamond.sol\":2893:2894  i */\n      dup4\n        /* \"Seminar DevOps (1)/contracts/contracts/Diamond/Diamond.sol\":2881:2895  _diamondCut[i] */\n      dup2\n      dup2\n      lt\n      tag_171\n      jumpi\n      tag_172\n      tag_88\n      jump\t// in\n    tag_172:\n    tag_171:\n      swap1\n      pop\n      0x20\n      mul\n      dup2\n      add\n      swap1\n      tag_173\n      swap2\n      swap1\n      tag_90\n      jump\t// in\n    tag_173:\n        /* \"Seminar DevOps (1)/contracts/contracts/Diamond/Diamond.sol\":2881:2902  _diamondCut[i].action */\n      0x20\n      add\n      0x20\n      dup2\n      add\n      swap1\n      tag_174\n      swap2\n      swap1\n      tag_92\n      jump\t// in\n    tag_174:\n        /* \"Seminar DevOps (1)/contracts/contracts/Diamond/Diamond.sol\":2881:2927  _diamondCut[i].action == FacetCutAction.Remove */\n      0x02\n      dup2\n      gt\n      iszero\n      tag_175\n      jumpi\n      tag_176\n      tag_85\n      jump\t// in\n    tag_176:\n    tag_175:\n      sub\n        /* \"Seminar DevOps (1)/contracts/contracts/Diamond/Diamond.sol\":2878:3541  if(_diamondCut[i].action == FacetCutAction.Remove){... */\n      tag_177\n      jumpi\n        /* \"Seminar DevOps (1)/contracts/contracts/Diamond/Diamond.sol\":2950:2956  uint k */\n      0x00\n        /* \"Seminar DevOps (1)/contracts/contracts/Diamond/Diamond.sol\":2946:3527  for(uint k = 0; k < _diamondCut[i].functionSelectors.length; k++){... */\n    tag_178:\n        /* \"Seminar DevOps (1)/contracts/contracts/Diamond/Diamond.sol\":2966:2977  _diamondCut */\n      dup7\n      dup7\n        /* \"Seminar DevOps (1)/contracts/contracts/Diamond/Diamond.sol\":2978:2979  i */\n      dup4\n        /* \"Seminar DevOps (1)/contracts/contracts/Diamond/Diamond.sol\":2966:2980  _diamondCut[i] */\n      dup2\n      dup2\n      lt\n      tag_181\n      jumpi\n      tag_182\n      tag_88\n      jump\t// in\n    tag_182:\n    tag_181:\n      swap1\n      pop\n      0x20\n      mul\n      dup2\n      add\n      swap1\n      tag_183\n      swap2\n      swap1\n      tag_90\n      jump\t// in\n    tag_183:\n        /* \"Seminar DevOps (1)/contracts/contracts/Diamond/Diamond.sol\":2966:2998  _diamondCut[i].functionSelectors */\n      dup1\n      0x40\n      add\n      swap1\n      tag_184\n      swap2\n      swap1\n      tag_103\n      jump\t// in\n    tag_184:\n        /* \"Seminar DevOps (1)/contracts/contracts/Diamond/Diamond.sol\":2966:3005  _diamondCut[i].functionSelectors.length */\n      swap1\n      pop\n        /* \"Seminar DevOps (1)/contracts/contracts/Diamond/Diamond.sol\":2962:2963  k */\n      dup2\n        /* \"Seminar DevOps (1)/contracts/contracts/Diamond/Diamond.sol\":2962:3005  k < _diamondCut[i].functionSelectors.length */\n      lt\n        /* \"Seminar DevOps (1)/contracts/contracts/Diamond/Diamond.sol\":2946:3527  for(uint k = 0; k < _diamondCut[i].functionSelectors.length; k++){... */\n      iszero\n      tag_179\n      jumpi\n        /* \"Seminar DevOps (1)/contracts/contracts/Diamond/Diamond.sol\":3098:3099  0 */\n      0x00\n        /* \"Seminar DevOps (1)/contracts/contracts/Diamond/Diamond.sol\":3033:3050  selectorToAddress */\n      dup1\n        /* \"Seminar DevOps (1)/contracts/contracts/Diamond/Diamond.sol\":3033:3087  selectorToAddress[_diamondCut[i].functionSelectors[k]] */\n      0x00\n        /* \"Seminar DevOps (1)/contracts/contracts/Diamond/Diamond.sol\":3051:3062  _diamondCut */\n      dup10\n      dup10\n        /* \"Seminar DevOps (1)/contracts/contracts/Diamond/Diamond.sol\":3063:3064  i */\n      dup7\n        /* \"Seminar DevOps (1)/contracts/contracts/Diamond/Diamond.sol\":3051:3065  _diamondCut[i] */\n      dup2\n      dup2\n      lt\n      tag_185\n      jumpi\n      tag_186\n      tag_88\n      jump\t// in\n    tag_186:\n    tag_185:\n      swap1\n      pop\n      0x20\n      mul\n      dup2\n      add\n      swap1\n      tag_187\n      swap2\n      swap1\n      tag_90\n      jump\t// in\n    tag_187:\n        /* \"Seminar DevOps (1)/contracts/contracts/Diamond/Diamond.sol\":3051:3083  _diamondCut[i].functionSelectors */\n      dup1\n      0x40\n      add\n      swap1\n      tag_188\n      swap2\n      swap1\n      tag_103\n      jump\t// in\n    tag_188:\n        /* \"Seminar DevOps (1)/contracts/contracts/Diamond/Diamond.sol\":3084:3085  k */\n      dup6\n        /* \"Seminar DevOps (1)/contracts/contracts/Diamond/Diamond.sol\":3051:3086  _diamondCut[i].functionSelectors[k] */\n      dup2\n      dup2\n      lt\n      tag_189\n      jumpi\n      tag_190\n      tag_88\n      jump\t// in\n    tag_190:\n    tag_189:\n      swap1\n      pop\n      0x20\n      mul\n      add\n      0x20\n      dup2\n      add\n      swap1\n      tag_191\n      swap2\n      swap1\n      tag_53\n      jump\t// in\n    tag_191:\n        /* \"Seminar DevOps (1)/contracts/contracts/Diamond/Diamond.sol\":3033:3087  selectorToAddress[_diamondCut[i].functionSelectors[k]] */\n      not(0xffffffffffffffffffffffffffffffffffffffffffffffffffffffff)\n      and\n      not(0xffffffffffffffffffffffffffffffffffffffffffffffffffffffff)\n      and\n      dup2\n      mstore\n      0x20\n      add\n      swap1\n      dup2\n      mstore\n      0x20\n      add\n      0x00\n      keccak256\n      0x00\n        /* \"Seminar DevOps (1)/contracts/contracts/Diamond/Diamond.sol\":3033:3100  selectorToAddress[_diamondCut[i].functionSelectors[k]] = address(0) */\n      0x0100\n      exp\n      dup2\n      sload\n      dup2\n      0xffffffffffffffffffffffffffffffffffffffff\n      mul\n      not\n      and\n      swap1\n      dup4\n      0xffffffffffffffffffffffffffffffffffffffff\n      and\n      mul\n      or\n      swap1\n      sstore\n      pop\n        /* \"Seminar DevOps (1)/contracts/contracts/Diamond/Diamond.sol\":3126:3132  uint j */\n      0x00\n        /* \"Seminar DevOps (1)/contracts/contracts/Diamond/Diamond.sol\":3122:3509  for(uint j = 0; j < selectors.length; j++){... */\n    tag_192:\n        /* \"Seminar DevOps (1)/contracts/contracts/Diamond/Diamond.sol\":3142:3151  selectors */\n      0x01\n        /* \"Seminar DevOps (1)/contracts/contracts/Diamond/Diamond.sol\":3142:3158  selectors.length */\n      dup1\n      sload\n      swap1\n      pop\n        /* \"Seminar DevOps (1)/contracts/contracts/Diamond/Diamond.sol\":3138:3139  j */\n      dup2\n        /* \"Seminar DevOps (1)/contracts/contracts/Diamond/Diamond.sol\":3138:3158  j < selectors.length */\n      lt\n        /* \"Seminar DevOps (1)/contracts/contracts/Diamond/Diamond.sol\":3122:3509  for(uint j = 0; j < selectors.length; j++){... */\n      iszero\n      tag_193\n      jumpi\n        /* \"Seminar DevOps (1)/contracts/contracts/Diamond/Diamond.sol\":3209:3220  _diamondCut */\n      dup8\n      dup8\n        /* \"Seminar DevOps (1)/contracts/contracts/Diamond/Diamond.sol\":3221:3222  i */\n      dup5\n        /* \"Seminar DevOps (1)/contracts/contracts/Diamond/Diamond.sol\":3209:3223  _diamondCut[i] */\n      dup2\n      dup2\n      lt\n      tag_195\n      jumpi\n      tag_196\n      tag_88\n      jump\t// in\n    tag_196:\n    tag_195:\n      swap1\n      pop\n      0x20\n      mul\n      dup2\n      add\n      swap1\n      tag_197\n      swap2\n      swap1\n      tag_90\n      jump\t// in\n    tag_197:\n        /* \"Seminar DevOps (1)/contracts/contracts/Diamond/Diamond.sol\":3209:3241  _diamondCut[i].functionSelectors */\n      dup1\n      0x40\n      add\n      swap1\n      tag_198\n      swap2\n      swap1\n      tag_103\n      jump\t// in\n    tag_198:\n        /* \"Seminar DevOps (1)/contracts/contracts/Diamond/Diamond.sol\":3242:3243  k */\n      dup4\n        /* \"Seminar DevOps (1)/contracts/contracts/Diamond/Diamond.sol\":3209:3244  _diamondCut[i].functionSelectors[k] */\n      dup2\n      dup2\n      lt\n      tag_199\n      jumpi\n      tag_200\n      tag_88\n      jump\t// in\n    tag_200:\n    tag_199:\n      swap1\n      pop\n      0x20\n      mul\n      add\n      0x20\n      dup2\n      add\n      swap1\n      tag_201\n      swap2\n      swap1\n      tag_53\n      jump\t// in\n    tag_201:\n        /* \"Seminar DevOps (1)/contracts/contracts/Diamond/Diamond.sol\":3193:3244  selectors[j] == _diamondCut[i].functionSelectors[k] */\n      not(0xffffffffffffffffffffffffffffffffffffffffffffffffffffffff)\n      and\n        /* \"Seminar DevOps (1)/contracts/contracts/Diamond/Diamond.sol\":3193:3202  selectors */\n      0x01\n        /* \"Seminar DevOps (1)/contracts/contracts/Diamond/Diamond.sol\":3203:3204  j */\n      dup3\n        /* \"Seminar DevOps (1)/contracts/contracts/Diamond/Diamond.sol\":3193:3205  selectors[j] */\n      dup2\n      sload\n      dup2\n      lt\n      tag_202\n      jumpi\n      tag_203\n      tag_88\n      jump\t// in\n    tag_203:\n    tag_202:\n      swap1\n      0x00\n      mstore\n      keccak256(0x00, 0x20)\n      swap1\n      0x08\n      swap2\n      dup3\n      dup3\n      div\n      add\n      swap2\n      swap1\n      mod\n      0x04\n      mul\n      swap1\n      sload\n      swap1\n      0x0100\n      exp\n      swap1\n      div\n      0xe0\n      shl\n        /* \"Seminar DevOps (1)/contracts/contracts/Diamond/Diamond.sol\":3193:3244  selectors[j] == _diamondCut[i].functionSelectors[k] */\n      not(0xffffffffffffffffffffffffffffffffffffffffffffffffffffffff)\n      and\n      sub\n        /* \"Seminar DevOps (1)/contracts/contracts/Diamond/Diamond.sol\":3190:3487  if(selectors[j] == _diamondCut[i].functionSelectors[k]){... */\n      tag_205\n      jumpi\n        /* \"Seminar DevOps (1)/contracts/contracts/Diamond/Diamond.sol\":3301:3302  1 */\n      0x01\n        /* \"Seminar DevOps (1)/contracts/contracts/Diamond/Diamond.sol\":3282:3291  selectors */\n      dup1\n        /* \"Seminar DevOps (1)/contracts/contracts/Diamond/Diamond.sol\":3282:3298  selectors.length */\n      dup1\n      sload\n      swap1\n      pop\n        /* \"Seminar DevOps (1)/contracts/contracts/Diamond/Diamond.sol\":3282:3302  selectors.length - 1 */\n      tag_206\n      swap2\n      swap1\n      tag_207\n      jump\t// in\n    tag_206:\n        /* \"Seminar DevOps (1)/contracts/contracts/Diamond/Diamond.sol\":3278:3279  j */\n      dup2\n        /* \"Seminar DevOps (1)/contracts/contracts/Diamond/Diamond.sol\":3278:3302  j < selectors.length - 1 */\n      lt\n        /* \"Seminar DevOps (1)/contracts/contracts/Diamond/Diamond.sol\":3275:3461  if(j < selectors.length - 1){... */\n      iszero\n      tag_208\n      jumpi\n        /* \"Seminar DevOps (1)/contracts/contracts/Diamond/Diamond.sol\":3352:3361  selectors */\n      0x01\n        /* \"Seminar DevOps (1)/contracts/contracts/Diamond/Diamond.sol\":3379:3380  1 */\n      dup1\n        /* \"Seminar DevOps (1)/contracts/contracts/Diamond/Diamond.sol\":3362:3371  selectors */\n      dup1\n        /* \"Seminar DevOps (1)/contracts/contracts/Diamond/Diamond.sol\":3362:3378  selectors.length */\n      dup1\n      sload\n      swap1\n      pop\n        /* \"Seminar DevOps (1)/contracts/contracts/Diamond/Diamond.sol\":3362:3380  selectors.length-1 */\n      tag_209\n      swap2\n      swap1\n      tag_207\n      jump\t// in\n    tag_209:\n        /* \"Seminar DevOps (1)/contracts/contracts/Diamond/Diamond.sol\":3352:3381  selectors[selectors.length-1] */\n      dup2\n      sload\n      dup2\n      lt\n      tag_210\n      jumpi\n      tag_211\n      tag_88\n      jump\t// in\n    tag_211:\n    tag_210:\n      swap1\n      0x00\n      mstore\n      keccak256(0x00, 0x20)\n      swap1\n      0x08\n      swap2\n      dup3\n      dup3\n      div\n      add\n      swap2\n      swap1\n      mod\n      0x04\n      mul\n      swap1\n      sload\n      swap1\n      0x0100\n      exp\n      swap1\n      div\n      0xe0\n      shl\n        /* \"Seminar DevOps (1)/contracts/contracts/Diamond/Diamond.sol\":3337:3346  selectors */\n      0x01\n        /* \"Seminar DevOps (1)/contracts/contracts/Diamond/Diamond.sol\":3347:3348  j */\n      dup3\n        /* \"Seminar DevOps (1)/contracts/contracts/Diamond/Diamond.sol\":3337:3349  selectors[j] */\n      dup2\n      sload\n      dup2\n      lt\n      tag_213\n      jumpi\n      tag_214\n      tag_88\n      jump\t// in\n    tag_214:\n    tag_213:\n      swap1\n      0x00\n      mstore\n      keccak256(0x00, 0x20)\n      swap1\n      0x08\n      swap2\n      dup3\n      dup3\n      div\n      add\n      swap2\n      swap1\n      mod\n      0x04\n      mul\n        /* \"Seminar DevOps (1)/contracts/contracts/Diamond/Diamond.sol\":3337:3381  selectors[j] = selectors[selectors.length-1] */\n      0x0100\n      exp\n      dup2\n      sload\n      dup2\n      0xffffffff\n      mul\n      not\n      and\n      swap1\n      dup4\n      0xe0\n      shr\n      mul\n      or\n      swap1\n      sstore\n      pop\n        /* \"Seminar DevOps (1)/contracts/contracts/Diamond/Diamond.sol\":3415:3424  selectors */\n      0x01\n        /* \"Seminar DevOps (1)/contracts/contracts/Diamond/Diamond.sol\":3415:3430  selectors.pop() */\n      dup1\n      sload\n      dup1\n      tag_216\n      jumpi\n      tag_217\n      tag_218\n      jump\t// in\n    tag_217:\n    tag_216:\n      0x01\n      swap1\n      sub\n      dup2\n      dup2\n      swap1\n      0x00\n      mstore\n      keccak256(0x00, 0x20)\n      swap1\n      0x08\n      swap2\n      dup3\n      dup3\n      div\n      add\n      swap2\n      swap1\n      mod\n      0x04\n      mul\n      0x0100\n      exp\n      dup2\n      sload\n      swap1\n      0xffffffff\n      mul\n      not\n      and\n      swap1\n      sstore\n      swap1\n      sstore\n        /* \"Seminar DevOps (1)/contracts/contracts/Diamond/Diamond.sol\":3275:3461  if(j < selectors.length - 1){... */\n    tag_208:\n        /* \"Seminar DevOps (1)/contracts/contracts/Diamond/Diamond.sol\":3190:3487  if(selectors[j] == _diamondCut[i].functionSelectors[k]){... */\n    tag_205:\n        /* \"Seminar DevOps (1)/contracts/contracts/Diamond/Diamond.sol\":3160:3163  j++ */\n      dup1\n      dup1\n      tag_220\n      swap1\n      tag_132\n      jump\t// in\n    tag_220:\n      swap2\n      pop\n      pop\n        /* \"Seminar DevOps (1)/contracts/contracts/Diamond/Diamond.sol\":3122:3509  for(uint j = 0; j < selectors.length; j++){... */\n      jump(tag_192)\n    tag_193:\n      pop\n        /* \"Seminar DevOps (1)/contracts/contracts/Diamond/Diamond.sol\":3007:3010  k++ */\n      dup1\n      dup1\n      tag_221\n      swap1\n      tag_132\n      jump\t// in\n    tag_221:\n      swap2\n      pop\n      pop\n        /* \"Seminar DevOps (1)/contracts/contracts/Diamond/Diamond.sol\":2946:3527  for(uint k = 0; k < _diamondCut[i].functionSelectors.length; k++){... */\n      jump(tag_178)\n    tag_179:\n      pop\n        /* \"Seminar DevOps (1)/contracts/contracts/Diamond/Diamond.sol\":2878:3541  if(_diamondCut[i].action == FacetCutAction.Remove){... */\n    tag_177:\n        /* \"Seminar DevOps (1)/contracts/contracts/Diamond/Diamond.sol\":1985:1988  i++ */\n      dup1\n      dup1\n      tag_222\n      swap1\n      tag_132\n      jump\t// in\n    tag_222:\n      swap2\n      pop\n      pop\n        /* \"Seminar DevOps (1)/contracts/contracts/Diamond/Diamond.sol\":1944:3551  for (uint i = 0; i < _diamondCut.length; i++){... */\n      jump(tag_80)\n    tag_81:\n      pop\n        /* \"Seminar DevOps (1)/contracts/contracts/Diamond/Diamond.sol\":3580:3603  facetAddressesSupport() */\n      tag_223\n        /* \"Seminar DevOps (1)/contracts/contracts/Diamond/Diamond.sol\":3580:3601  facetAddressesSupport */\n      tag_224\n        /* \"Seminar DevOps (1)/contracts/contracts/Diamond/Diamond.sol\":3580:3603  facetAddressesSupport() */\n      jump\t// in\n    tag_223:\n        /* \"Seminar DevOps (1)/contracts/contracts/Diamond/Diamond.sol\":3562:3577  storedAddresses */\n      0x02\n        /* \"Seminar DevOps (1)/contracts/contracts/Diamond/Diamond.sol\":3562:3603  storedAddresses = facetAddressesSupport() */\n      swap1\n      dup1\n      mload\n      swap1\n      0x20\n      add\n      swap1\n      tag_225\n      swap3\n      swap2\n      swap1\n      tag_226\n      jump\t// in\n    tag_225:\n      pop\n        /* \"Seminar DevOps (1)/contracts/contracts/Diamond/Diamond.sol\":3618:3659  DiamondCut(_diamondCut, _init, _calldata) */\n      0x8faa70878671ccd212d20771b795c50af8fd3ff6cf27f4bde57e5d4de0aeb673\n        /* \"Seminar DevOps (1)/contracts/contracts/Diamond/Diamond.sol\":3629:3640  _diamondCut */\n      dup6\n      dup6\n        /* \"Seminar DevOps (1)/contracts/contracts/Diamond/Diamond.sol\":3642:3647  _init */\n      dup6\n        /* \"Seminar DevOps (1)/contracts/contracts/Diamond/Diamond.sol\":3649:3658  _calldata */\n      dup6\n      dup6\n        /* \"Seminar DevOps (1)/contracts/contracts/Diamond/Diamond.sol\":3618:3659  DiamondCut(_diamondCut, _init, _calldata) */\n      mload(0x40)\n      tag_227\n      swap6\n      swap5\n      swap4\n      swap3\n      swap2\n      swap1\n      tag_228\n      jump\t// in\n    tag_227:\n      mload(0x40)\n      dup1\n      swap2\n      sub\n      swap1\n      log1\n        /* \"Seminar DevOps (1)/contracts/contracts/Diamond/Diamond.sol\":3689:3690  0 */\n      0x00\n        /* \"Seminar DevOps (1)/contracts/contracts/Diamond/Diamond.sol\":3672:3691  _init != address(0) */\n      0xffffffffffffffffffffffffffffffffffffffff\n      and\n        /* \"Seminar DevOps (1)/contracts/contracts/Diamond/Diamond.sol\":3672:3677  _init */\n      dup4\n        /* \"Seminar DevOps (1)/contracts/contracts/Diamond/Diamond.sol\":3672:3691  _init != address(0) */\n      0xffffffffffffffffffffffffffffffffffffffff\n      and\n      eq\n        /* \"Seminar DevOps (1)/contracts/contracts/Diamond/Diamond.sol\":3669:3856  if(_init != address(0)){... */\n      tag_229\n      jumpi\n        /* \"Seminar DevOps (1)/contracts/contracts/Diamond/Diamond.sol\":3707:3719  bool success */\n      0x00\n        /* \"Seminar DevOps (1)/contracts/contracts/Diamond/Diamond.sol\":3725:3730  _init */\n      dup4\n        /* \"Seminar DevOps (1)/contracts/contracts/Diamond/Diamond.sol\":3725:3743  _init.delegatecall */\n      0xffffffffffffffffffffffffffffffffffffffff\n      and\n        /* \"Seminar DevOps (1)/contracts/contracts/Diamond/Diamond.sol\":3744:3753  _calldata */\n      dup4\n      dup4\n        /* \"Seminar DevOps (1)/contracts/contracts/Diamond/Diamond.sol\":3725:3754  _init.delegatecall(_calldata) */\n      mload(0x40)\n      tag_230\n      swap3\n      swap2\n      swap1\n      tag_231\n      jump\t// in\n    tag_230:\n      0x00\n      mload(0x40)\n      dup1\n      dup4\n      sub\n      dup2\n      dup6\n      gas\n      delegatecall\n      swap2\n      pop\n      pop\n      returndatasize\n      dup1\n      0x00\n      dup2\n      eq\n      tag_234\n      jumpi\n      mload(0x40)\n      swap2\n      pop\n      and(add(returndatasize, 0x3f), not(0x1f))\n      dup3\n      add\n      0x40\n      mstore\n      returndatasize\n      dup3\n      mstore\n      returndatasize\n      0x00\n      0x20\n      dup5\n      add\n      returndatacopy\n      jump(tag_233)\n    tag_234:\n      0x60\n      swap2\n      pop\n    tag_233:\n      pop\n        /* \"Seminar DevOps (1)/contracts/contracts/Diamond/Diamond.sol\":3706:3754  (bool success, ) = _init.delegatecall(_calldata) */\n      pop\n      swap1\n      pop\n        /* \"Seminar DevOps (1)/contracts/contracts/Diamond/Diamond.sol\":3772:3779  success */\n      dup1\n        /* \"Seminar DevOps (1)/contracts/contracts/Diamond/Diamond.sol\":3768:3846  if(!success){... */\n      tag_235\n      jumpi\n        /* \"Seminar DevOps (1)/contracts/contracts/Diamond/Diamond.sol\":3803:3831  callFailed(_init, _calldata) */\n      0xf7799c13936fa7e564cd208124650df4af9063ed8b45000d2442efdb081b7759\n        /* \"Seminar DevOps (1)/contracts/contracts/Diamond/Diamond.sol\":3814:3819  _init */\n      dup5\n        /* \"Seminar DevOps (1)/contracts/contracts/Diamond/Diamond.sol\":3821:3830  _calldata */\n      dup5\n      dup5\n        /* \"Seminar DevOps (1)/contracts/contracts/Diamond/Diamond.sol\":3803:3831  callFailed(_init, _calldata) */\n      mload(0x40)\n      tag_236\n      swap4\n      swap3\n      swap2\n      swap1\n      tag_237\n      jump\t// in\n    tag_236:\n      mload(0x40)\n      dup1\n      swap2\n      sub\n      swap1\n      log1\n        /* \"Seminar DevOps (1)/contracts/contracts/Diamond/Diamond.sol\":3768:3846  if(!success){... */\n    tag_235:\n        /* \"Seminar DevOps (1)/contracts/contracts/Diamond/Diamond.sol\":3692:3856  {... */\n      pop\n        /* \"Seminar DevOps (1)/contracts/contracts/Diamond/Diamond.sol\":3669:3856  if(_init != address(0)){... */\n    tag_229:\n        /* \"Seminar DevOps (1)/contracts/contracts/Diamond/Diamond.sol\":1832:3862  function diamondCut(FacetCut[] calldata _diamondCut, address _init, bytes calldata _calldata) external{... */\n      pop\n      pop\n      pop\n      pop\n      pop\n      jump\t// out\n        /* \"Seminar DevOps (1)/contracts/contracts/Diamond/Diamond.sol\":5458:5579  function facetAddresses() external view returns (address[] memory facetAddresses_){... */\n    tag_35:\n        /* \"Seminar DevOps (1)/contracts/contracts/Diamond/Diamond.sol\":5507:5539  address[] memory facetAddresses_ */\n      0x60\n        /* \"Seminar DevOps (1)/contracts/contracts/Diamond/Diamond.sol\":5557:5572  storedAddresses */\n      0x02\n        /* \"Seminar DevOps (1)/contracts/contracts/Diamond/Diamond.sol\":5550:5572  return storedAddresses */\n      dup1\n      sload\n      dup1\n      0x20\n      mul\n      0x20\n      add\n      mload(0x40)\n      swap1\n      dup2\n      add\n      0x40\n      mstore\n      dup1\n      swap3\n      swap2\n      swap1\n      dup2\n      dup2\n      mstore\n      0x20\n      add\n      dup3\n      dup1\n      sload\n      dup1\n      iszero\n      tag_239\n      jumpi\n      0x20\n      mul\n      dup3\n      add\n      swap2\n      swap1\n      0x00\n      mstore\n      keccak256(0x00, 0x20)\n      swap1\n    tag_240:\n      dup2\n      0x00\n      swap1\n      sload\n      swap1\n      0x0100\n      exp\n      swap1\n      div\n      0xffffffffffffffffffffffffffffffffffffffff\n      and\n      0xffffffffffffffffffffffffffffffffffffffff\n      and\n      dup2\n      mstore\n      0x20\n      add\n      swap1\n      0x01\n      add\n      swap1\n      dup1\n      dup4\n      gt\n      tag_240\n      jumpi\n    tag_239:\n      pop\n      pop\n      pop\n      pop\n      pop\n      swap1\n      pop\n        /* \"Seminar DevOps (1)/contracts/contracts/Diamond/Diamond.sol\":5458:5579  function facetAddresses() external view returns (address[] memory facetAddresses_){... */\n      swap1\n      jump\t// out\n        /* \"Seminar DevOps (1)/contracts/contracts/Diamond/Diamond.sol\":5585:5990  function facets() external view returns (Facet[] memory facets_){... */\n    tag_40:\n        /* \"Seminar DevOps (1)/contracts/contracts/Diamond/Diamond.sol\":5626:5648  Facet[] memory facets_ */\n      0x60\n        /* \"Seminar DevOps (1)/contracts/contracts/Diamond/Diamond.sol\":5682:5686  this */\n      address\n        /* \"Seminar DevOps (1)/contracts/contracts/Diamond/Diamond.sol\":5682:5701  this.facetAddresses */\n      0xffffffffffffffffffffffffffffffffffffffff\n      and\n      0x52ef6b2c\n        /* \"Seminar DevOps (1)/contracts/contracts/Diamond/Diamond.sol\":5682:5703  this.facetAddresses() */\n      mload(0x40)\n      dup2\n      0xffffffff\n      and\n      0xe0\n      shl\n      dup2\n      mstore\n      0x04\n      add\n      0x00\n      mload(0x40)\n      dup1\n      dup4\n      sub\n      dup2\n      dup7\n      gas\n      staticcall\n      iszero\n      dup1\n      iszero\n      tag_243\n      jumpi\n      returndatasize\n      0x00\n      dup1\n      returndatacopy\n      revert(0x00, returndatasize)\n    tag_243:\n      pop\n      pop\n      pop\n      pop\n      mload(0x40)\n      returndatasize\n      0x00\n      dup3\n      returndatacopy\n      returndatasize\n      not(0x1f)\n      0x1f\n      dup3\n      add\n      and\n      dup3\n      add\n      dup1\n      0x40\n      mstore\n      pop\n      dup2\n      add\n      swap1\n      tag_244\n      swap2\n      swap1\n      tag_245\n      jump\t// in\n    tag_244:\n        /* \"Seminar DevOps (1)/contracts/contracts/Diamond/Diamond.sol\":5682:5710  this.facetAddresses().length */\n      mload\n        /* \"Seminar DevOps (1)/contracts/contracts/Diamond/Diamond.sol\":5670:5711  new Facet[](this.facetAddresses().length) */\n      0xffffffffffffffff\n      dup2\n      gt\n      iszero\n      tag_246\n      jumpi\n      tag_247\n      tag_248\n      jump\t// in\n    tag_247:\n    tag_246:\n      mload(0x40)\n      swap1\n      dup1\n      dup3\n      mstore\n      dup1\n      0x20\n      mul\n      0x20\n      add\n      dup3\n      add\n      0x40\n      mstore\n      dup1\n      iszero\n      tag_249\n      jumpi\n      dup2\n      0x20\n      add\n    tag_250:\n      tag_251\n      tag_252\n      jump\t// in\n    tag_251:\n      dup2\n      mstore\n      0x20\n      add\n      swap1\n      0x01\n      swap1\n      sub\n      swap1\n      dup2\n      tag_250\n      jumpi\n      swap1\n      pop\n    tag_249:\n      pop\n        /* \"Seminar DevOps (1)/contracts/contracts/Diamond/Diamond.sol\":5660:5711  facets_ = new Facet[](this.facetAddresses().length) */\n      swap1\n      pop\n        /* \"Seminar DevOps (1)/contracts/contracts/Diamond/Diamond.sol\":5721:5727  uint c */\n      0x00\n        /* \"Seminar DevOps (1)/contracts/contracts/Diamond/Diamond.sol\":5745:5751  uint i */\n      dup1\n        /* \"Seminar DevOps (1)/contracts/contracts/Diamond/Diamond.sol\":5741:5959  for(uint i = 0; i < this.facetAddresses().length; i++){... */\n    tag_253:\n        /* \"Seminar DevOps (1)/contracts/contracts/Diamond/Diamond.sol\":5761:5765  this */\n      address\n        /* \"Seminar DevOps (1)/contracts/contracts/Diamond/Diamond.sol\":5761:5780  this.facetAddresses */\n      0xffffffffffffffffffffffffffffffffffffffff\n      and\n      0x52ef6b2c\n        /* \"Seminar DevOps (1)/contracts/contracts/Diamond/Diamond.sol\":5761:5782  this.facetAddresses() */\n      mload(0x40)\n      dup2\n      0xffffffff\n      and\n      0xe0\n      shl\n      dup2\n      mstore\n      0x04\n      add\n      0x00\n      mload(0x40)\n      dup1\n      dup4\n      sub\n      dup2\n      dup7\n      gas\n      staticcall\n      iszero\n      dup1\n      iszero\n      tag_257\n      jumpi\n      returndatasize\n      0x00\n      dup1\n      returndatacopy\n      revert(0x00, returndatasize)\n    tag_257:\n      pop\n      pop\n      pop\n      pop\n      mload(0x40)\n      returndatasize\n      0x00\n      dup3\n      returndatacopy\n      returndatasize\n      not(0x1f)\n      0x1f\n      dup3\n      add\n      and\n      dup3\n      add\n      dup1\n      0x40\n      mstore\n      pop\n      dup2\n      add\n      swap1\n      tag_258\n      swap2\n      swap1\n      tag_245\n      jump\t// in\n    tag_258:\n        /* \"Seminar DevOps (1)/contracts/contracts/Diamond/Diamond.sol\":5761:5789  this.facetAddresses().length */\n      mload\n        /* \"Seminar DevOps (1)/contracts/contracts/Diamond/Diamond.sol\":5757:5758  i */\n      dup2\n        /* \"Seminar DevOps (1)/contracts/contracts/Diamond/Diamond.sol\":5757:5789  i < this.facetAddresses().length */\n      lt\n        /* \"Seminar DevOps (1)/contracts/contracts/Diamond/Diamond.sol\":5741:5959  for(uint i = 0; i < this.facetAddresses().length; i++){... */\n      iszero\n      tag_254\n      jumpi\n        /* \"Seminar DevOps (1)/contracts/contracts/Diamond/Diamond.sol\":5809:5826  Facet memory curr */\n      0x00\n        /* \"Seminar DevOps (1)/contracts/contracts/Diamond/Diamond.sol\":5829:5915  Facet(this.facetAddresses()[i], this.facetFunctionSelectors(this.facetAddresses()[i])) */\n      mload(0x40)\n      dup1\n      0x40\n      add\n      0x40\n      mstore\n      dup1\n        /* \"Seminar DevOps (1)/contracts/contracts/Diamond/Diamond.sol\":5835:5839  this */\n      address\n        /* \"Seminar DevOps (1)/contracts/contracts/Diamond/Diamond.sol\":5835:5854  this.facetAddresses */\n      0xffffffffffffffffffffffffffffffffffffffff\n      and\n      0x52ef6b2c\n        /* \"Seminar DevOps (1)/contracts/contracts/Diamond/Diamond.sol\":5835:5856  this.facetAddresses() */\n      mload(0x40)\n      dup2\n      0xffffffff\n      and\n      0xe0\n      shl\n      dup2\n      mstore\n      0x04\n      add\n      0x00\n      mload(0x40)\n      dup1\n      dup4\n      sub\n      dup2\n      dup7\n      gas\n      staticcall\n      iszero\n      dup1\n      iszero\n      tag_260\n      jumpi\n      returndatasize\n      0x00\n      dup1\n      returndatacopy\n      revert(0x00, returndatasize)\n    tag_260:\n      pop\n      pop\n      pop\n      pop\n      mload(0x40)\n      returndatasize\n      0x00\n      dup3\n      returndatacopy\n      returndatasize\n      not(0x1f)\n      0x1f\n      dup3\n      add\n      and\n      dup3\n      add\n      dup1\n      0x40\n      mstore\n      pop\n      dup2\n      add\n      swap1\n      tag_261\n      swap2\n      swap1\n      tag_245\n      jump\t// in\n    tag_261:\n        /* \"Seminar DevOps (1)/contracts/contracts/Diamond/Diamond.sol\":5857:5858  i */\n      dup5\n        /* \"Seminar DevOps (1)/contracts/contracts/Diamond/Diamond.sol\":5835:5859  this.facetAddresses()[i] */\n      dup2\n      mload\n      dup2\n      lt\n      tag_262\n      jumpi\n      tag_263\n      tag_88\n      jump\t// in\n    tag_263:\n    tag_262:\n      0x20\n      mul\n      0x20\n      add\n      add\n      mload\n        /* \"Seminar DevOps (1)/contracts/contracts/Diamond/Diamond.sol\":5829:5915  Facet(this.facetAddresses()[i], this.facetFunctionSelectors(this.facetAddresses()[i])) */\n      0xffffffffffffffffffffffffffffffffffffffff\n      and\n      dup2\n      mstore\n      0x20\n      add\n        /* \"Seminar DevOps (1)/contracts/contracts/Diamond/Diamond.sol\":5861:5865  this */\n      address\n        /* \"Seminar DevOps (1)/contracts/contracts/Diamond/Diamond.sol\":5861:5888  this.facetFunctionSelectors */\n      0xffffffffffffffffffffffffffffffffffffffff\n      and\n      0xadfca15e\n        /* \"Seminar DevOps (1)/contracts/contracts/Diamond/Diamond.sol\":5889:5893  this */\n      address\n        /* \"Seminar DevOps (1)/contracts/contracts/Diamond/Diamond.sol\":5889:5908  this.facetAddresses */\n      0xffffffffffffffffffffffffffffffffffffffff\n      and\n      0x52ef6b2c\n        /* \"Seminar DevOps (1)/contracts/contracts/Diamond/Diamond.sol\":5889:5910  this.facetAddresses() */\n      mload(0x40)\n      dup2\n      0xffffffff\n      and\n      0xe0\n      shl\n      dup2\n      mstore\n      0x04\n      add\n      0x00\n      mload(0x40)\n      dup1\n      dup4\n      sub\n      dup2\n      dup7\n      gas\n      staticcall\n      iszero\n      dup1\n      iszero\n      tag_265\n      jumpi\n      returndatasize\n      0x00\n      dup1\n      returndatacopy\n      revert(0x00, returndatasize)\n    tag_265:\n      pop\n      pop\n      pop\n      pop\n      mload(0x40)\n      returndatasize\n      0x00\n      dup3\n      returndatacopy\n      returndatasize\n      not(0x1f)\n      0x1f\n      dup3\n      add\n      and\n      dup3\n      add\n      dup1\n      0x40\n      mstore\n      pop\n      dup2\n      add\n      swap1\n      tag_266\n      swap2\n      swap1\n      tag_245\n      jump\t// in\n    tag_266:\n        /* \"Seminar DevOps (1)/contracts/contracts/Diamond/Diamond.sol\":5911:5912  i */\n      dup7\n        /* \"Seminar DevOps (1)/contracts/contracts/Diamond/Diamond.sol\":5889:5913  this.facetAddresses()[i] */\n      dup2\n      mload\n      dup2\n      lt\n      tag_267\n      jumpi\n      tag_268\n      tag_88\n      jump\t// in\n    tag_268:\n    tag_267:\n      0x20\n      mul\n      0x20\n      add\n      add\n      mload\n        /* \"Seminar DevOps (1)/contracts/contracts/Diamond/Diamond.sol\":5861:5914  this.facetFunctionSelectors(this.facetAddresses()[i]) */\n      mload(0x40)\n      dup3\n      0xffffffff\n      and\n      0xe0\n      shl\n      dup2\n      mstore\n      0x04\n      add\n      tag_269\n      swap2\n      swap1\n      tag_49\n      jump\t// in\n    tag_269:\n      0x00\n      mload(0x40)\n      dup1\n      dup4\n      sub\n      dup2\n      dup7\n      gas\n      staticcall\n      iszero\n      dup1\n      iszero\n      tag_271\n      jumpi\n      returndatasize\n      0x00\n      dup1\n      returndatacopy\n      revert(0x00, returndatasize)\n    tag_271:\n      pop\n      pop\n      pop\n      pop\n      mload(0x40)\n      returndatasize\n      0x00\n      dup3\n      returndatacopy\n      returndatasize\n      not(0x1f)\n      0x1f\n      dup3\n      add\n      and\n      dup3\n      add\n      dup1\n      0x40\n      mstore\n      pop\n      dup2\n      add\n      swap1\n      tag_272\n      swap2\n      swap1\n      tag_273\n      jump\t// in\n    tag_272:\n        /* \"Seminar DevOps (1)/contracts/contracts/Diamond/Diamond.sol\":5829:5915  Facet(this.facetAddresses()[i], this.facetFunctionSelectors(this.facetAddresses()[i])) */\n      dup2\n      mstore\n      pop\n        /* \"Seminar DevOps (1)/contracts/contracts/Diamond/Diamond.sol\":5809:5915  Facet memory curr = Facet(this.facetAddresses()[i], this.facetFunctionSelectors(this.facetAddresses()[i])) */\n      swap1\n      pop\n        /* \"Seminar DevOps (1)/contracts/contracts/Diamond/Diamond.sol\":5944:5948  curr */\n      dup1\n        /* \"Seminar DevOps (1)/contracts/contracts/Diamond/Diamond.sol\":5929:5936  facets_ */\n      dup5\n        /* \"Seminar DevOps (1)/contracts/contracts/Diamond/Diamond.sol\":5937:5940  c++ */\n      dup5\n      dup1\n      tag_274\n      swap1\n      tag_132\n      jump\t// in\n    tag_274:\n      swap6\n      pop\n        /* \"Seminar DevOps (1)/contracts/contracts/Diamond/Diamond.sol\":5929:5941  facets_[c++] */\n      dup2\n      mload\n      dup2\n      lt\n      tag_275\n      jumpi\n      tag_276\n      tag_88\n      jump\t// in\n    tag_276:\n    tag_275:\n      0x20\n      mul\n      0x20\n      add\n      add\n        /* \"Seminar DevOps (1)/contracts/contracts/Diamond/Diamond.sol\":5929:5948  facets_[c++] = curr */\n      dup2\n      swap1\n      mstore\n      pop\n        /* \"Seminar DevOps (1)/contracts/contracts/Diamond/Diamond.sol\":5795:5959  {... */\n      pop\n        /* \"Seminar DevOps (1)/contracts/contracts/Diamond/Diamond.sol\":5791:5794  i++ */\n      dup1\n      dup1\n      tag_277\n      swap1\n      tag_132\n      jump\t// in\n    tag_277:\n      swap2\n      pop\n      pop\n        /* \"Seminar DevOps (1)/contracts/contracts/Diamond/Diamond.sol\":5741:5959  for(uint i = 0; i < this.facetAddresses().length; i++){... */\n      jump(tag_253)\n    tag_254:\n      pop\n        /* \"Seminar DevOps (1)/contracts/contracts/Diamond/Diamond.sol\":5969:5983  return facets_ */\n      pop\n        /* \"Seminar DevOps (1)/contracts/contracts/Diamond/Diamond.sol\":5585:5990  function facets() external view returns (Facet[] memory facets_){... */\n      swap1\n      jump\t// out\n        /* \"Seminar DevOps (1)/contracts/contracts/Diamond/Diamond.sol\":704:736  address[] public storedAddresses */\n    tag_47:\n      0x02\n      dup2\n      dup2\n      sload\n      dup2\n      lt\n      tag_278\n      jumpi\n      0x00\n      dup1\n      revert\n    tag_278:\n      swap1\n      0x00\n      mstore\n      keccak256(0x00, 0x20)\n      add\n      0x00\n      swap2\n      pop\n      sload\n      swap1\n      0x0100\n      exp\n      swap1\n      div\n      0xffffffffffffffffffffffffffffffffffffffff\n      and\n      dup2\n      jump\t// out\n        /* \"Seminar DevOps (1)/contracts/contracts/Diamond/Diamond.sol\":616:667  mapping(bytes4 => address) public selectorToAddress */\n    tag_54:\n      mstore(0x20, 0x00)\n      dup1\n      0x00\n      mstore\n      keccak256(0x00, 0x40)\n      0x00\n      swap2\n      pop\n      sload\n      swap1\n      0x0100\n      exp\n      swap1\n      div\n      0xffffffffffffffffffffffffffffffffffffffff\n      and\n      dup2\n      jump\t// out\n        /* \"Seminar DevOps (1)/contracts/contracts/Diamond/Diamond.sol\":3868:4468  function facetFunctionSelectors(address _facet) external view returns (bytes4[] memory facetFunctionSelectors_){... */\n    tag_60:\n        /* \"Seminar DevOps (1)/contracts/contracts/Diamond/Diamond.sol\":3939:3978  bytes4[] memory facetFunctionSelectors_ */\n      0x60\n        /* \"Seminar DevOps (1)/contracts/contracts/Diamond/Diamond.sol\":3989:3995  uint c */\n      0x00\n        /* \"Seminar DevOps (1)/contracts/contracts/Diamond/Diamond.sol\":4013:4019  uint i */\n      dup1\n        /* \"Seminar DevOps (1)/contracts/contracts/Diamond/Diamond.sol\":4009:4156  for(uint i = 0; i < selectors.length; i++){... */\n    tag_281:\n        /* \"Seminar DevOps (1)/contracts/contracts/Diamond/Diamond.sol\":4029:4038  selectors */\n      0x01\n        /* \"Seminar DevOps (1)/contracts/contracts/Diamond/Diamond.sol\":4029:4045  selectors.length */\n      dup1\n      sload\n      swap1\n      pop\n        /* \"Seminar DevOps (1)/contracts/contracts/Diamond/Diamond.sol\":4025:4026  i */\n      dup2\n        /* \"Seminar DevOps (1)/contracts/contracts/Diamond/Diamond.sol\":4025:4045  i < selectors.length */\n      lt\n        /* \"Seminar DevOps (1)/contracts/contracts/Diamond/Diamond.sol\":4009:4156  for(uint i = 0; i < selectors.length; i++){... */\n      iszero\n      tag_282\n      jumpi\n        /* \"Seminar DevOps (1)/contracts/contracts/Diamond/Diamond.sol\":4103:4109  _facet */\n      dup4\n        /* \"Seminar DevOps (1)/contracts/contracts/Diamond/Diamond.sol\":4068:4109  selectorToAddress[selectors[i]] == _facet */\n      0xffffffffffffffffffffffffffffffffffffffff\n      and\n        /* \"Seminar DevOps (1)/contracts/contracts/Diamond/Diamond.sol\":4068:4085  selectorToAddress */\n      0x00\n        /* \"Seminar DevOps (1)/contracts/contracts/Diamond/Diamond.sol\":4068:4099  selectorToAddress[selectors[i]] */\n      dup1\n        /* \"Seminar DevOps (1)/contracts/contracts/Diamond/Diamond.sol\":4086:4095  selectors */\n      0x01\n        /* \"Seminar DevOps (1)/contracts/contracts/Diamond/Diamond.sol\":4096:4097  i */\n      dup5\n        /* \"Seminar DevOps (1)/contracts/contracts/Diamond/Diamond.sol\":4086:4098  selectors[i] */\n      dup2\n      sload\n      dup2\n      lt\n      tag_284\n      jumpi\n      tag_285\n      tag_88\n      jump\t// in\n    tag_285:\n    tag_284:\n      swap1\n      0x00\n      mstore\n      keccak256(0x00, 0x20)\n      swap1\n      0x08\n      swap2\n      dup3\n      dup3\n      div\n      add\n      swap2\n      swap1\n      mod\n      0x04\n      mul\n      swap1\n      sload\n      swap1\n      0x0100\n      exp\n      swap1\n      div\n      0xe0\n      shl\n        /* \"Seminar DevOps (1)/contracts/contracts/Diamond/Diamond.sol\":4068:4099  selectorToAddress[selectors[i]] */\n      not(0xffffffffffffffffffffffffffffffffffffffffffffffffffffffff)\n      and\n      not(0xffffffffffffffffffffffffffffffffffffffffffffffffffffffff)\n      and\n      dup2\n      mstore\n      0x20\n      add\n      swap1\n      dup2\n      mstore\n      0x20\n      add\n      0x00\n      keccak256\n      0x00\n      swap1\n      sload\n      swap1\n      0x0100\n      exp\n      swap1\n      div\n      0xffffffffffffffffffffffffffffffffffffffff\n      and\n        /* \"Seminar DevOps (1)/contracts/contracts/Diamond/Diamond.sol\":4068:4109  selectorToAddress[selectors[i]] == _facet */\n      0xffffffffffffffffffffffffffffffffffffffff\n      and\n      sub\n        /* \"Seminar DevOps (1)/contracts/contracts/Diamond/Diamond.sol\":4065:4146  if(selectorToAddress[selectors[i]] == _facet){... */\n      tag_287\n      jumpi\n        /* \"Seminar DevOps (1)/contracts/contracts/Diamond/Diamond.sol\":4128:4131  c++ */\n      dup2\n      dup1\n      tag_288\n      swap1\n      tag_132\n      jump\t// in\n    tag_288:\n      swap3\n      pop\n      pop\n        /* \"Seminar DevOps (1)/contracts/contracts/Diamond/Diamond.sol\":4065:4146  if(selectorToAddress[selectors[i]] == _facet){... */\n    tag_287:\n        /* \"Seminar DevOps (1)/contracts/contracts/Diamond/Diamond.sol\":4047:4050  i++ */\n      dup1\n      dup1\n      tag_289\n      swap1\n      tag_132\n      jump\t// in\n    tag_289:\n      swap2\n      pop\n      pop\n        /* \"Seminar DevOps (1)/contracts/contracts/Diamond/Diamond.sol\":4009:4156  for(uint i = 0; i < selectors.length; i++){... */\n      jump(tag_281)\n    tag_282:\n      pop\n        /* \"Seminar DevOps (1)/contracts/contracts/Diamond/Diamond.sol\":4205:4206  c */\n      dup1\n        /* \"Seminar DevOps (1)/contracts/contracts/Diamond/Diamond.sol\":4192:4207  new bytes4[](c) */\n      0xffffffffffffffff\n      dup2\n      gt\n      iszero\n      tag_290\n      jumpi\n      tag_291\n      tag_248\n      jump\t// in\n    tag_291:\n    tag_290:\n      mload(0x40)\n      swap1\n      dup1\n      dup3\n      mstore\n      dup1\n      0x20\n      mul\n      0x20\n      add\n      dup3\n      add\n      0x40\n      mstore\n      dup1\n      iszero\n      tag_292\n      jumpi\n      dup2\n      0x20\n      add\n      0x20\n      dup3\n      mul\n      dup1\n      calldatasize\n      dup4\n      calldatacopy\n      dup1\n      dup3\n      add\n      swap2\n      pop\n      pop\n      swap1\n      pop\n    tag_292:\n      pop\n        /* \"Seminar DevOps (1)/contracts/contracts/Diamond/Diamond.sol\":4166:4207  facetFunctionSelectors_ = new bytes4[](c) */\n      swap2\n      pop\n        /* \"Seminar DevOps (1)/contracts/contracts/Diamond/Diamond.sol\":4222:4223  0 */\n      0x00\n        /* \"Seminar DevOps (1)/contracts/contracts/Diamond/Diamond.sol\":4218:4223  c = 0 */\n      swap1\n      pop\n        /* \"Seminar DevOps (1)/contracts/contracts/Diamond/Diamond.sol\":4238:4244  uint i */\n      0x00\n        /* \"Seminar DevOps (1)/contracts/contracts/Diamond/Diamond.sol\":4234:4421  for(uint i = 0; i < selectors.length; i++){... */\n    tag_293:\n        /* \"Seminar DevOps (1)/contracts/contracts/Diamond/Diamond.sol\":4254:4263  selectors */\n      0x01\n        /* \"Seminar DevOps (1)/contracts/contracts/Diamond/Diamond.sol\":4254:4270  selectors.length */\n      dup1\n      sload\n      swap1\n      pop\n        /* \"Seminar DevOps (1)/contracts/contracts/Diamond/Diamond.sol\":4250:4251  i */\n      dup2\n        /* \"Seminar DevOps (1)/contracts/contracts/Diamond/Diamond.sol\":4250:4270  i < selectors.length */\n      lt\n        /* \"Seminar DevOps (1)/contracts/contracts/Diamond/Diamond.sol\":4234:4421  for(uint i = 0; i < selectors.length; i++){... */\n      iszero\n      tag_294\n      jumpi\n        /* \"Seminar DevOps (1)/contracts/contracts/Diamond/Diamond.sol\":4328:4334  _facet */\n      dup4\n        /* \"Seminar DevOps (1)/contracts/contracts/Diamond/Diamond.sol\":4293:4334  selectorToAddress[selectors[i]] == _facet */\n      0xffffffffffffffffffffffffffffffffffffffff\n      and\n        /* \"Seminar DevOps (1)/contracts/contracts/Diamond/Diamond.sol\":4293:4310  selectorToAddress */\n      0x00\n        /* \"Seminar DevOps (1)/contracts/contracts/Diamond/Diamond.sol\":4293:4324  selectorToAddress[selectors[i]] */\n      dup1\n        /* \"Seminar DevOps (1)/contracts/contracts/Diamond/Diamond.sol\":4311:4320  selectors */\n      0x01\n        /* \"Seminar DevOps (1)/contracts/contracts/Diamond/Diamond.sol\":4321:4322  i */\n      dup5\n        /* \"Seminar DevOps (1)/contracts/contracts/Diamond/Diamond.sol\":4311:4323  selectors[i] */\n      dup2\n      sload\n      dup2\n      lt\n      tag_296\n      jumpi\n      tag_297\n      tag_88\n      jump\t// in\n    tag_297:\n    tag_296:\n      swap1\n      0x00\n      mstore\n      keccak256(0x00, 0x20)\n      swap1\n      0x08\n      swap2\n      dup3\n      dup3\n      div\n      add\n      swap2\n      swap1\n      mod\n      0x04\n      mul\n      swap1\n      sload\n      swap1\n      0x0100\n      exp\n      swap1\n      div\n      0xe0\n      shl\n        /* \"Seminar DevOps (1)/contracts/contracts/Diamond/Diamond.sol\":4293:4324  selectorToAddress[selectors[i]] */\n      not(0xffffffffffffffffffffffffffffffffffffffffffffffffffffffff)\n      and\n      not(0xffffffffffffffffffffffffffffffffffffffffffffffffffffffff)\n      and\n      dup2\n      mstore\n      0x20\n      add\n      swap1\n      dup2\n      mstore\n      0x20\n      add\n      0x00\n      keccak256\n      0x00\n      swap1\n      sload\n      swap1\n      0x0100\n      exp\n      swap1\n      div\n      0xffffffffffffffffffffffffffffffffffffffff\n      and\n        /* \"Seminar DevOps (1)/contracts/contracts/Diamond/Diamond.sol\":4293:4334  selectorToAddress[selectors[i]] == _facet */\n      0xffffffffffffffffffffffffffffffffffffffff\n      and\n      sub\n        /* \"Seminar DevOps (1)/contracts/contracts/Diamond/Diamond.sol\":4290:4411  if(selectorToAddress[selectors[i]] == _facet){... */\n      tag_299\n      jumpi\n        /* \"Seminar DevOps (1)/contracts/contracts/Diamond/Diamond.sol\":4384:4393  selectors */\n      0x01\n        /* \"Seminar DevOps (1)/contracts/contracts/Diamond/Diamond.sol\":4394:4395  i */\n      dup2\n        /* \"Seminar DevOps (1)/contracts/contracts/Diamond/Diamond.sol\":4384:4396  selectors[i] */\n      dup2\n      sload\n      dup2\n      lt\n      tag_300\n      jumpi\n      tag_301\n      tag_88\n      jump\t// in\n    tag_301:\n    tag_300:\n      swap1\n      0x00\n      mstore\n      keccak256(0x00, 0x20)\n      swap1\n      0x08\n      swap2\n      dup3\n      dup3\n      div\n      add\n      swap2\n      swap1\n      mod\n      0x04\n      mul\n      swap1\n      sload\n      swap1\n      0x0100\n      exp\n      swap1\n      div\n      0xe0\n      shl\n        /* \"Seminar DevOps (1)/contracts/contracts/Diamond/Diamond.sol\":4353:4376  facetFunctionSelectors_ */\n      dup4\n        /* \"Seminar DevOps (1)/contracts/contracts/Diamond/Diamond.sol\":4377:4380  c++ */\n      dup4\n      dup1\n      tag_303\n      swap1\n      tag_132\n      jump\t// in\n    tag_303:\n      swap5\n      pop\n        /* \"Seminar DevOps (1)/contracts/contracts/Diamond/Diamond.sol\":4353:4381  facetFunctionSelectors_[c++] */\n      dup2\n      mload\n      dup2\n      lt\n      tag_304\n      jumpi\n      tag_305\n      tag_88\n      jump\t// in\n    tag_305:\n    tag_304:\n      0x20\n      mul\n      0x20\n      add\n      add\n        /* \"Seminar DevOps (1)/contracts/contracts/Diamond/Diamond.sol\":4353:4396  facetFunctionSelectors_[c++] = selectors[i] */\n      swap1\n      not(0xffffffffffffffffffffffffffffffffffffffffffffffffffffffff)\n      and\n      swap1\n      dup2\n      not(0xffffffffffffffffffffffffffffffffffffffffffffffffffffffff)\n      and\n      dup2\n      mstore\n      pop\n      pop\n        /* \"Seminar DevOps (1)/contracts/contracts/Diamond/Diamond.sol\":4290:4411  if(selectorToAddress[selectors[i]] == _facet){... */\n    tag_299:\n        /* \"Seminar DevOps (1)/contracts/contracts/Diamond/Diamond.sol\":4272:4275  i++ */\n      dup1\n      dup1\n      tag_306\n      swap1\n      tag_132\n      jump\t// in\n    tag_306:\n      swap2\n      pop\n      pop\n        /* \"Seminar DevOps (1)/contracts/contracts/Diamond/Diamond.sol\":4234:4421  for(uint i = 0; i < selectors.length; i++){... */\n      jump(tag_293)\n    tag_294:\n      pop\n        /* \"Seminar DevOps (1)/contracts/contracts/Diamond/Diamond.sol\":4431:4461  return facetFunctionSelectors_ */\n      pop\n        /* \"Seminar DevOps (1)/contracts/contracts/Diamond/Diamond.sol\":3868:4468  function facetFunctionSelectors(address _facet) external view returns (bytes4[] memory facetFunctionSelectors_){... */\n      swap2\n      swap1\n      pop\n      jump\t// out\n        /* \"Seminar DevOps (1)/contracts/contracts/Diamond/Diamond.sol\":4474:4627  function facetAddress(bytes4 _functionSelector) external view returns (address facetAddress_){... */\n    tag_66:\n        /* \"Seminar DevOps (1)/contracts/contracts/Diamond/Diamond.sol\":4545:4566  address facetAddress_ */\n      0x00\n        /* \"Seminar DevOps (1)/contracts/contracts/Diamond/Diamond.sol\":4584:4601  selectorToAddress */\n      dup1\n        /* \"Seminar DevOps (1)/contracts/contracts/Diamond/Diamond.sol\":4584:4620  selectorToAddress[_functionSelector] */\n      0x00\n        /* \"Seminar DevOps (1)/contracts/contracts/Diamond/Diamond.sol\":4602:4619  _functionSelector */\n      dup4\n        /* \"Seminar DevOps (1)/contracts/contracts/Diamond/Diamond.sol\":4584:4620  selectorToAddress[_functionSelector] */\n      not(0xffffffffffffffffffffffffffffffffffffffffffffffffffffffff)\n      and\n      not(0xffffffffffffffffffffffffffffffffffffffffffffffffffffffff)\n      and\n      dup2\n      mstore\n      0x20\n      add\n      swap1\n      dup2\n      mstore\n      0x20\n      add\n      0x00\n      keccak256\n      0x00\n      swap1\n      sload\n      swap1\n      0x0100\n      exp\n      swap1\n      div\n      0xffffffffffffffffffffffffffffffffffffffff\n      and\n        /* \"Seminar DevOps (1)/contracts/contracts/Diamond/Diamond.sol\":4577:4620  return selectorToAddress[_functionSelector] */\n      swap1\n      pop\n        /* \"Seminar DevOps (1)/contracts/contracts/Diamond/Diamond.sol\":4474:4627  function facetAddress(bytes4 _functionSelector) external view returns (address facetAddress_){... */\n      swap2\n      swap1\n      pop\n      jump\t// out\n        /* \"Seminar DevOps (1)/contracts/contracts/Diamond/Diamond.sol\":673:698  bytes4[] public selectors */\n    tag_71:\n      0x01\n      dup2\n      dup2\n      sload\n      dup2\n      lt\n      tag_308\n      jumpi\n      0x00\n      dup1\n      revert\n    tag_308:\n      swap1\n      0x00\n      mstore\n      keccak256(0x00, 0x20)\n      swap1\n      0x08\n      swap2\n      dup3\n      dup3\n      div\n      add\n      swap2\n      swap1\n      mod\n      0x04\n      mul\n      swap2\n      pop\n      sload\n      swap1\n      0x0100\n      exp\n      swap1\n      div\n      0xe0\n      shl\n      dup2\n      jump\t// out\n        /* \"Seminar DevOps (1)/contracts/contracts/Diamond/DiamondStorage.sol\":217:362  function myStorage() internal pure returns(MyStorage storage ms) {... */\n    tag_76:\n        /* \"Seminar DevOps (1)/contracts/contracts/Diamond/DiamondStorage.sol\":260:280  MyStorage storage ms */\n      0x00\n        /* \"Seminar DevOps (1)/contracts/contracts/Diamond/DiamondStorage.sol\":288:303  bytes32 ms_slot */\n      dup1\n        /* \"Seminar DevOps (1)/contracts/contracts/Diamond/DiamondStorage.sol\":306:323  keccak256(\"nums\") */\n      0x20bdb322702e8f31eb02a18e466059b6b3224433a6e129849583a03f267f40a3\n        /* \"Seminar DevOps (1)/contracts/contracts/Diamond/DiamondStorage.sol\":288:323  bytes32 ms_slot = keccak256(\"nums\") */\n      swap1\n      pop\n        /* \"Seminar DevOps (1)/contracts/contracts/Diamond/DiamondStorage.sol\":350:357  ms_slot */\n      dup1\n        /* \"Seminar DevOps (1)/contracts/contracts/Diamond/DiamondStorage.sol\":339:357  ms.slot := ms_slot */\n      swap2\n      pop\n        /* \"Seminar DevOps (1)/contracts/contracts/Diamond/DiamondStorage.sol\":338:358  {ms.slot := ms_slot} */\n      pop\n        /* \"Seminar DevOps (1)/contracts/contracts/Diamond/DiamondStorage.sol\":217:362  function myStorage() internal pure returns(MyStorage storage ms) {... */\n      swap1\n      jump\t// out\n        /* \"Seminar DevOps (1)/contracts/contracts/Diamond/Diamond.sol\":4633:5452  function facetAddressesSupport() internal returns (address[] memory facetAddresses_){... */\n    tag_224:\n        /* \"Seminar DevOps (1)/contracts/contracts/Diamond/Diamond.sol\":4684:4716  address[] memory facetAddresses_ */\n      0x60\n        /* \"Seminar DevOps (1)/contracts/contracts/Diamond/Diamond.sol\":4728:4757  address[] memory allAddresses */\n      0x00\n        /* \"Seminar DevOps (1)/contracts/contracts/Diamond/Diamond.sol\":4774:4783  selectors */\n      0x01\n        /* \"Seminar DevOps (1)/contracts/contracts/Diamond/Diamond.sol\":4774:4790  selectors.length */\n      dup1\n      sload\n      swap1\n      pop\n        /* \"Seminar DevOps (1)/contracts/contracts/Diamond/Diamond.sol\":4760:4791  new address[](selectors.length) */\n      0xffffffffffffffff\n      dup2\n      gt\n      iszero\n      tag_312\n      jumpi\n      tag_313\n      tag_248\n      jump\t// in\n    tag_313:\n    tag_312:\n      mload(0x40)\n      swap1\n      dup1\n      dup3\n      mstore\n      dup1\n      0x20\n      mul\n      0x20\n      add\n      dup3\n      add\n      0x40\n      mstore\n      dup1\n      iszero\n      tag_314\n      jumpi\n      dup2\n      0x20\n      add\n      0x20\n      dup3\n      mul\n      dup1\n      calldatasize\n      dup4\n      calldatacopy\n      dup1\n      dup3\n      add\n      swap2\n      pop\n      pop\n      swap1\n      pop\n    tag_314:\n      pop\n        /* \"Seminar DevOps (1)/contracts/contracts/Diamond/Diamond.sol\":4728:4791  address[] memory allAddresses = new address[](selectors.length) */\n      swap1\n      pop\n        /* \"Seminar DevOps (1)/contracts/contracts/Diamond/Diamond.sol\":4801:4807  uint c */\n      0x00\n        /* \"Seminar DevOps (1)/contracts/contracts/Diamond/Diamond.sol\":4825:4831  uint i */\n      dup1\n        /* \"Seminar DevOps (1)/contracts/contracts/Diamond/Diamond.sol\":4821:5263  for(uint i = 0; i < selectors.length; i++){... */\n    tag_315:\n        /* \"Seminar DevOps (1)/contracts/contracts/Diamond/Diamond.sol\":4841:4850  selectors */\n      0x01\n        /* \"Seminar DevOps (1)/contracts/contracts/Diamond/Diamond.sol\":4841:4857  selectors.length */\n      dup1\n      sload\n      swap1\n      pop\n        /* \"Seminar DevOps (1)/contracts/contracts/Diamond/Diamond.sol\":4837:4838  i */\n      dup2\n        /* \"Seminar DevOps (1)/contracts/contracts/Diamond/Diamond.sol\":4837:4857  i < selectors.length */\n      lt\n        /* \"Seminar DevOps (1)/contracts/contracts/Diamond/Diamond.sol\":4821:5263  for(uint i = 0; i < selectors.length; i++){... */\n      iszero\n      tag_316\n      jumpi\n        /* \"Seminar DevOps (1)/contracts/contracts/Diamond/Diamond.sol\":4890:4904  bool duplicate */\n      0x00\n        /* \"Seminar DevOps (1)/contracts/contracts/Diamond/Diamond.sol\":4922:4928  uint k */\n      dup1\n        /* \"Seminar DevOps (1)/contracts/contracts/Diamond/Diamond.sol\":4931:4932  0 */\n      0x00\n        /* \"Seminar DevOps (1)/contracts/contracts/Diamond/Diamond.sol\":4922:4932  uint k = 0 */\n      swap1\n      pop\n        /* \"Seminar DevOps (1)/contracts/contracts/Diamond/Diamond.sol\":4918:5109  for(uint k = 0; k < c; k++){... */\n    tag_318:\n        /* \"Seminar DevOps (1)/contracts/contracts/Diamond/Diamond.sol\":4938:4939  c */\n      dup4\n        /* \"Seminar DevOps (1)/contracts/contracts/Diamond/Diamond.sol\":4934:4935  k */\n      dup2\n        /* \"Seminar DevOps (1)/contracts/contracts/Diamond/Diamond.sol\":4934:4939  k < c */\n      lt\n        /* \"Seminar DevOps (1)/contracts/contracts/Diamond/Diamond.sol\":4918:5109  for(uint k = 0; k < c; k++){... */\n      iszero\n      tag_319\n      jumpi\n        /* \"Seminar DevOps (1)/contracts/contracts/Diamond/Diamond.sol\":5001:5013  allAddresses */\n      dup5\n        /* \"Seminar DevOps (1)/contracts/contracts/Diamond/Diamond.sol\":5014:5015  k */\n      dup2\n        /* \"Seminar DevOps (1)/contracts/contracts/Diamond/Diamond.sol\":5001:5016  allAddresses[k] */\n      dup2\n      mload\n      dup2\n      lt\n      tag_321\n      jumpi\n      tag_322\n      tag_88\n      jump\t// in\n    tag_322:\n    tag_321:\n      0x20\n      mul\n      0x20\n      add\n      add\n      mload\n        /* \"Seminar DevOps (1)/contracts/contracts/Diamond/Diamond.sol\":4966:5016  selectorToAddress[selectors[i]] == allAddresses[k] */\n      0xffffffffffffffffffffffffffffffffffffffff\n      and\n        /* \"Seminar DevOps (1)/contracts/contracts/Diamond/Diamond.sol\":4966:4983  selectorToAddress */\n      0x00\n        /* \"Seminar DevOps (1)/contracts/contracts/Diamond/Diamond.sol\":4966:4997  selectorToAddress[selectors[i]] */\n      dup1\n        /* \"Seminar DevOps (1)/contracts/contracts/Diamond/Diamond.sol\":4984:4993  selectors */\n      0x01\n        /* \"Seminar DevOps (1)/contracts/contracts/Diamond/Diamond.sol\":4994:4995  i */\n      dup7\n        /* \"Seminar DevOps (1)/contracts/contracts/Diamond/Diamond.sol\":4984:4996  selectors[i] */\n      dup2\n      sload\n      dup2\n      lt\n      tag_323\n      jumpi\n      tag_324\n      tag_88\n      jump\t// in\n    tag_324:\n    tag_323:\n      swap1\n      0x00\n      mstore\n      keccak256(0x00, 0x20)\n      swap1\n      0x08\n      swap2\n      dup3\n      dup3\n      div\n      add\n      swap2\n      swap1\n      mod\n      0x04\n      mul\n      swap1\n      sload\n      swap1\n      0x0100\n      exp\n      swap1\n      div\n      0xe0\n      shl\n        /* \"Seminar DevOps (1)/contracts/contracts/Diamond/Diamond.sol\":4966:4997  selectorToAddress[selectors[i]] */\n      not(0xffffffffffffffffffffffffffffffffffffffffffffffffffffffff)\n      and\n      not(0xffffffffffffffffffffffffffffffffffffffffffffffffffffffff)\n      and\n      dup2\n      mstore\n      0x20\n      add\n      swap1\n      dup2\n      mstore\n      0x20\n      add\n      0x00\n      keccak256\n      0x00\n      swap1\n      sload\n      swap1\n      0x0100\n      exp\n      swap1\n      div\n      0xffffffffffffffffffffffffffffffffffffffff\n      and\n        /* \"Seminar DevOps (1)/contracts/contracts/Diamond/Diamond.sol\":4966:5016  selectorToAddress[selectors[i]] == allAddresses[k] */\n      0xffffffffffffffffffffffffffffffffffffffff\n      and\n      sub\n        /* \"Seminar DevOps (1)/contracts/contracts/Diamond/Diamond.sol\":4963:5095  if(selectorToAddress[selectors[i]] == allAddresses[k]){... */\n      tag_326\n      jumpi\n        /* \"Seminar DevOps (1)/contracts/contracts/Diamond/Diamond.sol\":5051:5055  true */\n      0x01\n        /* \"Seminar DevOps (1)/contracts/contracts/Diamond/Diamond.sol\":5039:5055  duplicate = true */\n      swap2\n      pop\n        /* \"Seminar DevOps (1)/contracts/contracts/Diamond/Diamond.sol\":4963:5095  if(selectorToAddress[selectors[i]] == allAddresses[k]){... */\n    tag_326:\n        /* \"Seminar DevOps (1)/contracts/contracts/Diamond/Diamond.sol\":4941:4944  k++ */\n      dup1\n      dup1\n      tag_327\n      swap1\n      tag_132\n      jump\t// in\n    tag_327:\n      swap2\n      pop\n      pop\n        /* \"Seminar DevOps (1)/contracts/contracts/Diamond/Diamond.sol\":4918:5109  for(uint k = 0; k < c; k++){... */\n      jump(tag_318)\n    tag_319:\n      pop\n        /* \"Seminar DevOps (1)/contracts/contracts/Diamond/Diamond.sol\":5127:5136  duplicate */\n      dup1\n        /* \"Seminar DevOps (1)/contracts/contracts/Diamond/Diamond.sol\":5123:5221  if(!duplicate){... */\n      tag_328\n      jumpi\n        /* \"Seminar DevOps (1)/contracts/contracts/Diamond/Diamond.sol\":5175:5192  selectorToAddress */\n      0x00\n        /* \"Seminar DevOps (1)/contracts/contracts/Diamond/Diamond.sol\":5175:5206  selectorToAddress[selectors[i]] */\n      dup1\n        /* \"Seminar DevOps (1)/contracts/contracts/Diamond/Diamond.sol\":5193:5202  selectors */\n      0x01\n        /* \"Seminar DevOps (1)/contracts/contracts/Diamond/Diamond.sol\":5203:5204  i */\n      dup5\n        /* \"Seminar DevOps (1)/contracts/contracts/Diamond/Diamond.sol\":5193:5205  selectors[i] */\n      dup2\n      sload\n      dup2\n      lt\n      tag_329\n      jumpi\n      tag_330\n      tag_88\n      jump\t// in\n    tag_330:\n    tag_329:\n      swap1\n      0x00\n      mstore\n      keccak256(0x00, 0x20)\n      swap1\n      0x08\n      swap2\n      dup3\n      dup3\n      div\n      add\n      swap2\n      swap1\n      mod\n      0x04\n      mul\n      swap1\n      sload\n      swap1\n      0x0100\n      exp\n      swap1\n      div\n      0xe0\n      shl\n        /* \"Seminar DevOps (1)/contracts/contracts/Diamond/Diamond.sol\":5175:5206  selectorToAddress[selectors[i]] */\n      not(0xffffffffffffffffffffffffffffffffffffffffffffffffffffffff)\n      and\n      not(0xffffffffffffffffffffffffffffffffffffffffffffffffffffffff)\n      and\n      dup2\n      mstore\n      0x20\n      add\n      swap1\n      dup2\n      mstore\n      0x20\n      add\n      0x00\n      keccak256\n      0x00\n      swap1\n      sload\n      swap1\n      0x0100\n      exp\n      swap1\n      div\n      0xffffffffffffffffffffffffffffffffffffffff\n      and\n        /* \"Seminar DevOps (1)/contracts/contracts/Diamond/Diamond.sol\":5155:5167  allAddresses */\n      dup5\n        /* \"Seminar DevOps (1)/contracts/contracts/Diamond/Diamond.sol\":5168:5171  c++ */\n      dup5\n      dup1\n      tag_332\n      swap1\n      tag_132\n      jump\t// in\n    tag_332:\n      swap6\n      pop\n        /* \"Seminar DevOps (1)/contracts/contracts/Diamond/Diamond.sol\":5155:5172  allAddresses[c++] */\n      dup2\n      mload\n      dup2\n      lt\n      tag_333\n      jumpi\n      tag_334\n      tag_88\n      jump\t// in\n    tag_334:\n    tag_333:\n      0x20\n      mul\n      0x20\n      add\n      add\n        /* \"Seminar DevOps (1)/contracts/contracts/Diamond/Diamond.sol\":5155:5206  allAddresses[c++] = selectorToAddress[selectors[i]] */\n      swap1\n      0xffffffffffffffffffffffffffffffffffffffff\n      and\n      swap1\n      dup2\n      0xffffffffffffffffffffffffffffffffffffffff\n      and\n      dup2\n      mstore\n      pop\n      pop\n        /* \"Seminar DevOps (1)/contracts/contracts/Diamond/Diamond.sol\":5123:5221  if(!duplicate){... */\n    tag_328:\n        /* \"Seminar DevOps (1)/contracts/contracts/Diamond/Diamond.sol\":5247:5252  false */\n      0x00\n        /* \"Seminar DevOps (1)/contracts/contracts/Diamond/Diamond.sol\":5235:5252  duplicate = false */\n      swap1\n      pop\n        /* \"Seminar DevOps (1)/contracts/contracts/Diamond/Diamond.sol\":4863:5263  {... */\n      pop\n        /* \"Seminar DevOps (1)/contracts/contracts/Diamond/Diamond.sol\":4859:4862  i++ */\n      dup1\n      dup1\n      tag_335\n      swap1\n      tag_132\n      jump\t// in\n    tag_335:\n      swap2\n      pop\n      pop\n        /* \"Seminar DevOps (1)/contracts/contracts/Diamond/Diamond.sol\":4821:5263  for(uint i = 0; i < selectors.length; i++){... */\n      jump(tag_315)\n    tag_316:\n      pop\n        /* \"Seminar DevOps (1)/contracts/contracts/Diamond/Diamond.sol\":5305:5306  c */\n      dup1\n        /* \"Seminar DevOps (1)/contracts/contracts/Diamond/Diamond.sol\":5291:5307  new address[](c) */\n      0xffffffffffffffff\n      dup2\n      gt\n      iszero\n      tag_336\n      jumpi\n      tag_337\n      tag_248\n      jump\t// in\n    tag_337:\n    tag_336:\n      mload(0x40)\n      swap1\n      dup1\n      dup3\n      mstore\n      dup1\n      0x20\n      mul\n      0x20\n      add\n      dup3\n      add\n      0x40\n      mstore\n      dup1\n      iszero\n      tag_338\n      jumpi\n      dup2\n      0x20\n      add\n      0x20\n      dup3\n      mul\n      dup1\n      calldatasize\n      dup4\n      calldatacopy\n      dup1\n      dup3\n      add\n      swap2\n      pop\n      pop\n      swap1\n      pop\n    tag_338:\n      pop\n        /* \"Seminar DevOps (1)/contracts/contracts/Diamond/Diamond.sol\":5273:5307  facetAddresses_ = new address[](c) */\n      swap3\n      pop\n        /* \"Seminar DevOps (1)/contracts/contracts/Diamond/Diamond.sol\":5330:5336  uint i */\n      0x00\n        /* \"Seminar DevOps (1)/contracts/contracts/Diamond/Diamond.sol\":5326:5414  for(uint i = 0; i < c; i++){... */\n    tag_339:\n        /* \"Seminar DevOps (1)/contracts/contracts/Diamond/Diamond.sol\":5346:5347  c */\n      dup2\n        /* \"Seminar DevOps (1)/contracts/contracts/Diamond/Diamond.sol\":5342:5343  i */\n      dup2\n        /* \"Seminar DevOps (1)/contracts/contracts/Diamond/Diamond.sol\":5342:5347  i < c */\n      lt\n        /* \"Seminar DevOps (1)/contracts/contracts/Diamond/Diamond.sol\":5326:5414  for(uint i = 0; i < c; i++){... */\n      iszero\n      tag_340\n      jumpi\n        /* \"Seminar DevOps (1)/contracts/contracts/Diamond/Diamond.sol\":5388:5400  allAddresses */\n      dup3\n        /* \"Seminar DevOps (1)/contracts/contracts/Diamond/Diamond.sol\":5401:5402  i */\n      dup2\n        /* \"Seminar DevOps (1)/contracts/contracts/Diamond/Diamond.sol\":5388:5403  allAddresses[i] */\n      dup2\n      mload\n      dup2\n      lt\n      tag_342\n      jumpi\n      tag_343\n      tag_88\n      jump\t// in\n    tag_343:\n    tag_342:\n      0x20\n      mul\n      0x20\n      add\n      add\n      mload\n        /* \"Seminar DevOps (1)/contracts/contracts/Diamond/Diamond.sol\":5367:5382  facetAddresses_ */\n      dup5\n        /* \"Seminar DevOps (1)/contracts/contracts/Diamond/Diamond.sol\":5383:5384  i */\n      dup3\n        /* \"Seminar DevOps (1)/contracts/contracts/Diamond/Diamond.sol\":5367:5385  facetAddresses_[i] */\n      dup2\n      mload\n      dup2\n      lt\n      tag_344\n      jumpi\n      tag_345\n      tag_88\n      jump\t// in\n    tag_345:\n    tag_344:\n      0x20\n      mul\n      0x20\n      add\n      add\n        /* \"Seminar DevOps (1)/contracts/contracts/Diamond/Diamond.sol\":5367:5403  facetAddresses_[i] = allAddresses[i] */\n      swap1\n      0xffffffffffffffffffffffffffffffffffffffff\n      and\n      swap1\n      dup2\n      0xffffffffffffffffffffffffffffffffffffffff\n      and\n      dup2\n      mstore\n      pop\n      pop\n        /* \"Seminar DevOps (1)/contracts/contracts/Diamond/Diamond.sol\":5349:5352  i++ */\n      dup1\n      dup1\n      tag_346\n      swap1\n      tag_132\n      jump\t// in\n    tag_346:\n      swap2\n      pop\n      pop\n        /* \"Seminar DevOps (1)/contracts/contracts/Diamond/Diamond.sol\":5326:5414  for(uint i = 0; i < c; i++){... */\n      jump(tag_339)\n    tag_340:\n      pop\n        /* \"Seminar DevOps (1)/contracts/contracts/Diamond/Diamond.sol\":5423:5445  return facetAddresses_ */\n      pop\n      pop\n        /* \"Seminar DevOps (1)/contracts/contracts/Diamond/Diamond.sol\":4633:5452  function facetAddressesSupport() internal returns (address[] memory facetAddresses_){... */\n      swap1\n      jump\t// out\n    tag_226:\n      dup3\n      dup1\n      sload\n      dup3\n      dup3\n      sstore\n      swap1\n      0x00\n      mstore\n      keccak256(0x00, 0x20)\n      swap1\n      dup2\n      add\n      swap3\n      dup3\n      iszero\n      tag_347\n      jumpi\n      swap2\n      0x20\n      mul\n      dup3\n      add\n    tag_348:\n      dup3\n      dup2\n      gt\n      iszero\n      tag_349\n      jumpi\n      dup3\n      mload\n      dup3\n      exp(0x0100, 0x00)\n      dup2\n      sload\n      dup2\n      0xffffffffffffffffffffffffffffffffffffffff\n      mul\n      not\n      and\n      swap1\n      dup4\n      0xffffffffffffffffffffffffffffffffffffffff\n      and\n      mul\n      or\n      swap1\n      sstore\n      pop\n      swap2\n      0x20\n      add\n      swap2\n      swap1\n      0x01\n      add\n      swap1\n      jump(tag_348)\n    tag_349:\n    tag_347:\n      pop\n      swap1\n      pop\n      tag_350\n      swap2\n      swap1\n      tag_351\n      jump\t// in\n    tag_350:\n      pop\n      swap1\n      jump\t// out\n    tag_252:\n      mload(0x40)\n      dup1\n      0x40\n      add\n      0x40\n      mstore\n      dup1\n      and(0xffffffffffffffffffffffffffffffffffffffff, 0x00)\n      dup2\n      mstore\n      0x20\n      add\n      0x60\n      dup2\n      mstore\n      pop\n      swap1\n      jump\t// out\n    tag_351:\n    tag_352:\n      dup1\n      dup3\n      gt\n      iszero\n      tag_353\n      jumpi\n      0x00\n      dup2\n      0x00\n      swap1\n      sstore\n      pop\n      0x01\n      add\n      jump(tag_352)\n    tag_353:\n      pop\n      swap1\n      jump\t// out\n        /* \"#utility.yul\":7:84   */\n    tag_354:\n        /* \"#utility.yul\":44:51   */\n      0x00\n        /* \"#utility.yul\":73:78   */\n      dup2\n        /* \"#utility.yul\":62:78   */\n      swap1\n      pop\n        /* \"#utility.yul\":7:84   */\n      swap2\n      swap1\n      pop\n      jump\t// out\n        /* \"#utility.yul\":90:208   */\n    tag_355:\n        /* \"#utility.yul\":177:201   */\n      tag_444\n        /* \"#utility.yul\":195:200   */\n      dup2\n        /* \"#utility.yul\":177:201   */\n      tag_354\n      jump\t// in\n    tag_444:\n        /* \"#utility.yul\":172:175   */\n      dup3\n        /* \"#utility.yul\":165:202   */\n      mstore\n        /* \"#utility.yul\":90:208   */\n      pop\n      pop\n      jump\t// out\n        /* \"#utility.yul\":214:436   */\n    tag_23:\n        /* \"#utility.yul\":307:311   */\n      0x00\n        /* \"#utility.yul\":345:347   */\n      0x20\n        /* \"#utility.yul\":334:343   */\n      dup3\n        /* \"#utility.yul\":330:348   */\n      add\n        /* \"#utility.yul\":322:348   */\n      swap1\n      pop\n        /* \"#utility.yul\":358:429   */\n      tag_446\n        /* \"#utility.yul\":426:427   */\n      0x00\n        /* \"#utility.yul\":415:424   */\n      dup4\n        /* \"#utility.yul\":411:428   */\n      add\n        /* \"#utility.yul\":402:408   */\n      dup5\n        /* \"#utility.yul\":358:429   */\n      tag_355\n      jump\t// in\n    tag_446:\n        /* \"#utility.yul\":214:436   */\n      swap3\n      swap2\n      pop\n      pop\n      jump\t// out\n        /* \"#utility.yul\":442:517   */\n    tag_356:\n        /* \"#utility.yul\":475:481   */\n      0x00\n        /* \"#utility.yul\":508:510   */\n      0x40\n        /* \"#utility.yul\":502:511   */\n      mload\n        /* \"#utility.yul\":492:511   */\n      swap1\n      pop\n        /* \"#utility.yul\":442:517   */\n      swap1\n      jump\t// out\n        /* \"#utility.yul\":523:640   */\n    tag_357:\n        /* \"#utility.yul\":632:633   */\n      0x00\n        /* \"#utility.yul\":629:630   */\n      dup1\n        /* \"#utility.yul\":622:634   */\n      revert\n        /* \"#utility.yul\":646:763   */\n    tag_358:\n        /* \"#utility.yul\":755:756   */\n      0x00\n        /* \"#utility.yul\":752:753   */\n      dup1\n        /* \"#utility.yul\":745:757   */\n      revert\n        /* \"#utility.yul\":769:886   */\n    tag_359:\n        /* \"#utility.yul\":878:879   */\n      0x00\n        /* \"#utility.yul\":875:876   */\n      dup1\n        /* \"#utility.yul\":868:880   */\n      revert\n        /* \"#utility.yul\":892:1009   */\n    tag_360:\n        /* \"#utility.yul\":1001:1002   */\n      0x00\n        /* \"#utility.yul\":998:999   */\n      dup1\n        /* \"#utility.yul\":991:1003   */\n      revert\n        /* \"#utility.yul\":1015:1132   */\n    tag_361:\n        /* \"#utility.yul\":1124:1125   */\n      0x00\n        /* \"#utility.yul\":1121:1122   */\n      dup1\n        /* \"#utility.yul\":1114:1126   */\n      revert\n        /* \"#utility.yul\":1172:1767   */\n    tag_362:\n        /* \"#utility.yul\":1272:1280   */\n      0x00\n        /* \"#utility.yul\":1282:1288   */\n      dup1\n        /* \"#utility.yul\":1332:1335   */\n      dup4\n        /* \"#utility.yul\":1325:1329   */\n      0x1f\n        /* \"#utility.yul\":1317:1323   */\n      dup5\n        /* \"#utility.yul\":1313:1330   */\n      add\n        /* \"#utility.yul\":1309:1336   */\n      slt\n        /* \"#utility.yul\":1299:1421   */\n      tag_454\n      jumpi\n        /* \"#utility.yul\":1340:1419   */\n      tag_455\n      tag_359\n      jump\t// in\n    tag_455:\n        /* \"#utility.yul\":1299:1421   */\n    tag_454:\n        /* \"#utility.yul\":1453:1459   */\n      dup3\n        /* \"#utility.yul\":1440:1460   */\n      calldataload\n        /* \"#utility.yul\":1430:1460   */\n      swap1\n      pop\n        /* \"#utility.yul\":1483:1501   */\n      0xffffffffffffffff\n        /* \"#utility.yul\":1475:1481   */\n      dup2\n        /* \"#utility.yul\":1472:1502   */\n      gt\n        /* \"#utility.yul\":1469:1586   */\n      iszero\n      tag_456\n      jumpi\n        /* \"#utility.yul\":1505:1584   */\n      tag_457\n      tag_360\n      jump\t// in\n    tag_457:\n        /* \"#utility.yul\":1469:1586   */\n    tag_456:\n        /* \"#utility.yul\":1619:1623   */\n      0x20\n        /* \"#utility.yul\":1611:1617   */\n      dup4\n        /* \"#utility.yul\":1607:1624   */\n      add\n        /* \"#utility.yul\":1595:1624   */\n      swap2\n      pop\n        /* \"#utility.yul\":1673:1676   */\n      dup4\n        /* \"#utility.yul\":1665:1669   */\n      0x20\n        /* \"#utility.yul\":1657:1663   */\n      dup3\n        /* \"#utility.yul\":1653:1670   */\n      mul\n        /* \"#utility.yul\":1643:1651   */\n      dup4\n        /* \"#utility.yul\":1639:1671   */\n      add\n        /* \"#utility.yul\":1636:1677   */\n      gt\n        /* \"#utility.yul\":1633:1761   */\n      iszero\n      tag_458\n      jumpi\n        /* \"#utility.yul\":1680:1759   */\n      tag_459\n      tag_361\n      jump\t// in\n    tag_459:\n        /* \"#utility.yul\":1633:1761   */\n    tag_458:\n        /* \"#utility.yul\":1172:1767   */\n      swap3\n      pop\n      swap3\n      swap1\n      pop\n      jump\t// out\n        /* \"#utility.yul\":1773:1899   */\n    tag_363:\n        /* \"#utility.yul\":1810:1817   */\n      0x00\n        /* \"#utility.yul\":1850:1892   */\n      0xffffffffffffffffffffffffffffffffffffffff\n        /* \"#utility.yul\":1843:1848   */\n      dup3\n        /* \"#utility.yul\":1839:1893   */\n      and\n        /* \"#utility.yul\":1828:1893   */\n      swap1\n      pop\n        /* \"#utility.yul\":1773:1899   */\n      swap2\n      swap1\n      pop\n      jump\t// out\n        /* \"#utility.yul\":1905:2001   */\n    tag_364:\n        /* \"#utility.yul\":1942:1949   */\n      0x00\n        /* \"#utility.yul\":1971:1995   */\n      tag_462\n        /* \"#utility.yul\":1989:1994   */\n      dup3\n        /* \"#utility.yul\":1971:1995   */\n      tag_363\n      jump\t// in\n    tag_462:\n        /* \"#utility.yul\":1960:1995   */\n      swap1\n      pop\n        /* \"#utility.yul\":1905:2001   */\n      swap2\n      swap1\n      pop\n      jump\t// out\n        /* \"#utility.yul\":2007:2129   */\n    tag_365:\n        /* \"#utility.yul\":2080:2104   */\n      tag_464\n        /* \"#utility.yul\":2098:2103   */\n      dup2\n        /* \"#utility.yul\":2080:2104   */\n      tag_364\n      jump\t// in\n    tag_464:\n        /* \"#utility.yul\":2073:2078   */\n      dup2\n        /* \"#utility.yul\":2070:2105   */\n      eq\n        /* \"#utility.yul\":2060:2123   */\n      tag_465\n      jumpi\n        /* \"#utility.yul\":2119:2120   */\n      0x00\n        /* \"#utility.yul\":2116:2117   */\n      dup1\n        /* \"#utility.yul\":2109:2121   */\n      revert\n        /* \"#utility.yul\":2060:2123   */\n    tag_465:\n        /* \"#utility.yul\":2007:2129   */\n      pop\n      jump\t// out\n        /* \"#utility.yul\":2135:2274   */\n    tag_366:\n        /* \"#utility.yul\":2181:2186   */\n      0x00\n        /* \"#utility.yul\":2219:2225   */\n      dup2\n        /* \"#utility.yul\":2206:2226   */\n      calldataload\n        /* \"#utility.yul\":2197:2226   */\n      swap1\n      pop\n        /* \"#utility.yul\":2235:2268   */\n      tag_467\n        /* \"#utility.yul\":2262:2267   */\n      dup2\n        /* \"#utility.yul\":2235:2268   */\n      tag_365\n      jump\t// in\n    tag_467:\n        /* \"#utility.yul\":2135:2274   */\n      swap3\n      swap2\n      pop\n      pop\n      jump\t// out\n        /* \"#utility.yul\":2293:2845   */\n    tag_367:\n        /* \"#utility.yul\":2350:2358   */\n      0x00\n        /* \"#utility.yul\":2360:2366   */\n      dup1\n        /* \"#utility.yul\":2410:2413   */\n      dup4\n        /* \"#utility.yul\":2403:2407   */\n      0x1f\n        /* \"#utility.yul\":2395:2401   */\n      dup5\n        /* \"#utility.yul\":2391:2408   */\n      add\n        /* \"#utility.yul\":2387:2414   */\n      slt\n        /* \"#utility.yul\":2377:2499   */\n      tag_469\n      jumpi\n        /* \"#utility.yul\":2418:2497   */\n      tag_470\n      tag_359\n      jump\t// in\n    tag_470:\n        /* \"#utility.yul\":2377:2499   */\n    tag_469:\n        /* \"#utility.yul\":2531:2537   */\n      dup3\n        /* \"#utility.yul\":2518:2538   */\n      calldataload\n        /* \"#utility.yul\":2508:2538   */\n      swap1\n      pop\n        /* \"#utility.yul\":2561:2579   */\n      0xffffffffffffffff\n        /* \"#utility.yul\":2553:2559   */\n      dup2\n        /* \"#utility.yul\":2550:2580   */\n      gt\n        /* \"#utility.yul\":2547:2664   */\n      iszero\n      tag_471\n      jumpi\n        /* \"#utility.yul\":2583:2662   */\n      tag_472\n      tag_360\n      jump\t// in\n    tag_472:\n        /* \"#utility.yul\":2547:2664   */\n    tag_471:\n        /* \"#utility.yul\":2697:2701   */\n      0x20\n        /* \"#utility.yul\":2689:2695   */\n      dup4\n        /* \"#utility.yul\":2685:2702   */\n      add\n        /* \"#utility.yul\":2673:2702   */\n      swap2\n      pop\n        /* \"#utility.yul\":2751:2754   */\n      dup4\n        /* \"#utility.yul\":2743:2747   */\n      0x01\n        /* \"#utility.yul\":2735:2741   */\n      dup3\n        /* \"#utility.yul\":2731:2748   */\n      mul\n        /* \"#utility.yul\":2721:2729   */\n      dup4\n        /* \"#utility.yul\":2717:2749   */\n      add\n        /* \"#utility.yul\":2714:2755   */\n      gt\n        /* \"#utility.yul\":2711:2839   */\n      iszero\n      tag_473\n      jumpi\n        /* \"#utility.yul\":2758:2837   */\n      tag_474\n      tag_361\n      jump\t// in\n    tag_474:\n        /* \"#utility.yul\":2711:2839   */\n    tag_473:\n        /* \"#utility.yul\":2293:2845   */\n      swap3\n      pop\n      swap3\n      swap1\n      pop\n      jump\t// out\n        /* \"#utility.yul\":2851:3952   */\n    tag_31:\n        /* \"#utility.yul\":2993:2999   */\n      0x00\n        /* \"#utility.yul\":3001:3007   */\n      dup1\n        /* \"#utility.yul\":3009:3015   */\n      0x00\n        /* \"#utility.yul\":3017:3023   */\n      dup1\n        /* \"#utility.yul\":3025:3031   */\n      0x00\n        /* \"#utility.yul\":3074:3076   */\n      0x60\n        /* \"#utility.yul\":3062:3071   */\n      dup7\n        /* \"#utility.yul\":3053:3060   */\n      dup9\n        /* \"#utility.yul\":3049:3072   */\n      sub\n        /* \"#utility.yul\":3045:3077   */\n      slt\n        /* \"#utility.yul\":3042:3161   */\n      iszero\n      tag_476\n      jumpi\n        /* \"#utility.yul\":3080:3159   */\n      tag_477\n      tag_357\n      jump\t// in\n    tag_477:\n        /* \"#utility.yul\":3042:3161   */\n    tag_476:\n        /* \"#utility.yul\":3228:3229   */\n      0x00\n        /* \"#utility.yul\":3217:3226   */\n      dup7\n        /* \"#utility.yul\":3213:3230   */\n      add\n        /* \"#utility.yul\":3200:3231   */\n      calldataload\n        /* \"#utility.yul\":3258:3276   */\n      0xffffffffffffffff\n        /* \"#utility.yul\":3250:3256   */\n      dup2\n        /* \"#utility.yul\":3247:3277   */\n      gt\n        /* \"#utility.yul\":3244:3361   */\n      iszero\n      tag_478\n      jumpi\n        /* \"#utility.yul\":3280:3359   */\n      tag_479\n      tag_358\n      jump\t// in\n    tag_479:\n        /* \"#utility.yul\":3244:3361   */\n    tag_478:\n        /* \"#utility.yul\":3393:3500   */\n      tag_480\n        /* \"#utility.yul\":3492:3499   */\n      dup9\n        /* \"#utility.yul\":3483:3489   */\n      dup3\n        /* \"#utility.yul\":3472:3481   */\n      dup10\n        /* \"#utility.yul\":3468:3490   */\n      add\n        /* \"#utility.yul\":3393:3500   */\n      tag_362\n      jump\t// in\n    tag_480:\n        /* \"#utility.yul\":3375:3500   */\n      swap6\n      pop\n      swap6\n      pop\n        /* \"#utility.yul\":3171:3510   */\n      pop\n        /* \"#utility.yul\":3549:3551   */\n      0x20\n        /* \"#utility.yul\":3575:3628   */\n      tag_481\n        /* \"#utility.yul\":3620:3627   */\n      dup9\n        /* \"#utility.yul\":3611:3617   */\n      dup3\n        /* \"#utility.yul\":3600:3609   */\n      dup10\n        /* \"#utility.yul\":3596:3618   */\n      add\n        /* \"#utility.yul\":3575:3628   */\n      tag_366\n      jump\t// in\n    tag_481:\n        /* \"#utility.yul\":3565:3628   */\n      swap4\n      pop\n        /* \"#utility.yul\":3520:3638   */\n      pop\n        /* \"#utility.yul\":3705:3707   */\n      0x40\n        /* \"#utility.yul\":3694:3703   */\n      dup7\n        /* \"#utility.yul\":3690:3708   */\n      add\n        /* \"#utility.yul\":3677:3709   */\n      calldataload\n        /* \"#utility.yul\":3736:3754   */\n      0xffffffffffffffff\n        /* \"#utility.yul\":3728:3734   */\n      dup2\n        /* \"#utility.yul\":3725:3755   */\n      gt\n        /* \"#utility.yul\":3722:3839   */\n      iszero\n      tag_482\n      jumpi\n        /* \"#utility.yul\":3758:3837   */\n      tag_483\n      tag_358\n      jump\t// in\n    tag_483:\n        /* \"#utility.yul\":3722:3839   */\n    tag_482:\n        /* \"#utility.yul\":3871:3935   */\n      tag_484\n        /* \"#utility.yul\":3927:3934   */\n      dup9\n        /* \"#utility.yul\":3918:3924   */\n      dup3\n        /* \"#utility.yul\":3907:3916   */\n      dup10\n        /* \"#utility.yul\":3903:3925   */\n      add\n        /* \"#utility.yul\":3871:3935   */\n      tag_367\n      jump\t// in\n    tag_484:\n        /* \"#utility.yul\":3853:3935   */\n      swap3\n      pop\n      swap3\n      pop\n        /* \"#utility.yul\":3648:3945   */\n      pop\n        /* \"#utility.yul\":2851:3952   */\n      swap3\n      swap6\n      pop\n      swap3\n      swap6\n      swap1\n      swap4\n      pop\n      jump\t// out\n        /* \"#utility.yul\":3958:4072   */\n    tag_368:\n        /* \"#utility.yul\":4025:4031   */\n      0x00\n        /* \"#utility.yul\":4059:4064   */\n      dup2\n        /* \"#utility.yul\":4053:4065   */\n      mload\n        /* \"#utility.yul\":4043:4065   */\n      swap1\n      pop\n        /* \"#utility.yul\":3958:4072   */\n      swap2\n      swap1\n      pop\n      jump\t// out\n        /* \"#utility.yul\":4078:4262   */\n    tag_369:\n        /* \"#utility.yul\":4177:4188   */\n      0x00\n        /* \"#utility.yul\":4211:4217   */\n      dup3\n        /* \"#utility.yul\":4206:4209   */\n      dup3\n        /* \"#utility.yul\":4199:4218   */\n      mstore\n        /* \"#utility.yul\":4251:4255   */\n      0x20\n        /* \"#utility.yul\":4246:4249   */\n      dup3\n        /* \"#utility.yul\":4242:4256   */\n      add\n        /* \"#utility.yul\":4227:4256   */\n      swap1\n      pop\n        /* \"#utility.yul\":4078:4262   */\n      swap3\n      swap2\n      pop\n      pop\n      jump\t// out\n        /* \"#utility.yul\":4268:4400   */\n    tag_370:\n        /* \"#utility.yul\":4335:4339   */\n      0x00\n        /* \"#utility.yul\":4358:4361   */\n      dup2\n        /* \"#utility.yul\":4350:4361   */\n      swap1\n      pop\n        /* \"#utility.yul\":4388:4392   */\n      0x20\n        /* \"#utility.yul\":4383:4386   */\n      dup3\n        /* \"#utility.yul\":4379:4393   */\n      add\n        /* \"#utility.yul\":4371:4393   */\n      swap1\n      pop\n        /* \"#utility.yul\":4268:4400   */\n      swap2\n      swap1\n      pop\n      jump\t// out\n        /* \"#utility.yul\":4406:4514   */\n    tag_371:\n        /* \"#utility.yul\":4483:4507   */\n      tag_489\n        /* \"#utility.yul\":4501:4506   */\n      dup2\n        /* \"#utility.yul\":4483:4507   */\n      tag_364\n      jump\t// in\n    tag_489:\n        /* \"#utility.yul\":4478:4481   */\n      dup3\n        /* \"#utility.yul\":4471:4508   */\n      mstore\n        /* \"#utility.yul\":4406:4514   */\n      pop\n      pop\n      jump\t// out\n        /* \"#utility.yul\":4520:4699   */\n    tag_372:\n        /* \"#utility.yul\":4589:4599   */\n      0x00\n        /* \"#utility.yul\":4610:4656   */\n      tag_491\n        /* \"#utility.yul\":4652:4655   */\n      dup4\n        /* \"#utility.yul\":4644:4650   */\n      dup4\n        /* \"#utility.yul\":4610:4656   */\n      tag_371\n      jump\t// in\n    tag_491:\n        /* \"#utility.yul\":4688:4692   */\n      0x20\n        /* \"#utility.yul\":4683:4686   */\n      dup4\n        /* \"#utility.yul\":4679:4693   */\n      add\n        /* \"#utility.yul\":4665:4693   */\n      swap1\n      pop\n        /* \"#utility.yul\":4520:4699   */\n      swap3\n      swap2\n      pop\n      pop\n      jump\t// out\n        /* \"#utility.yul\":4705:4818   */\n    tag_373:\n        /* \"#utility.yul\":4775:4779   */\n      0x00\n        /* \"#utility.yul\":4807:4811   */\n      0x20\n        /* \"#utility.yul\":4802:4805   */\n      dup3\n        /* \"#utility.yul\":4798:4812   */\n      add\n        /* \"#utility.yul\":4790:4812   */\n      swap1\n      pop\n        /* \"#utility.yul\":4705:4818   */\n      swap2\n      swap1\n      pop\n      jump\t// out\n        /* \"#utility.yul\":4854:5586   */\n    tag_374:\n        /* \"#utility.yul\":4973:4976   */\n      0x00\n        /* \"#utility.yul\":5002:5056   */\n      tag_494\n        /* \"#utility.yul\":5050:5055   */\n      dup3\n        /* \"#utility.yul\":5002:5056   */\n      tag_368\n      jump\t// in\n    tag_494:\n        /* \"#utility.yul\":5072:5158   */\n      tag_495\n        /* \"#utility.yul\":5151:5157   */\n      dup2\n        /* \"#utility.yul\":5146:5149   */\n      dup6\n        /* \"#utility.yul\":5072:5158   */\n      tag_369\n      jump\t// in\n    tag_495:\n        /* \"#utility.yul\":5065:5158   */\n      swap4\n      pop\n        /* \"#utility.yul\":5182:5238   */\n      tag_496\n        /* \"#utility.yul\":5232:5237   */\n      dup4\n        /* \"#utility.yul\":5182:5238   */\n      tag_370\n      jump\t// in\n    tag_496:\n        /* \"#utility.yul\":5261:5268   */\n      dup1\n        /* \"#utility.yul\":5292:5293   */\n      0x00\n        /* \"#utility.yul\":5277:5561   */\n    tag_497:\n        /* \"#utility.yul\":5302:5308   */\n      dup4\n        /* \"#utility.yul\":5299:5300   */\n      dup2\n        /* \"#utility.yul\":5296:5309   */\n      lt\n        /* \"#utility.yul\":5277:5561   */\n      iszero\n      tag_499\n      jumpi\n        /* \"#utility.yul\":5378:5384   */\n      dup2\n        /* \"#utility.yul\":5372:5385   */\n      mload\n        /* \"#utility.yul\":5405:5468   */\n      tag_500\n        /* \"#utility.yul\":5464:5467   */\n      dup9\n        /* \"#utility.yul\":5449:5462   */\n      dup3\n        /* \"#utility.yul\":5405:5468   */\n      tag_372\n      jump\t// in\n    tag_500:\n        /* \"#utility.yul\":5398:5468   */\n      swap8\n      pop\n        /* \"#utility.yul\":5491:5551   */\n      tag_501\n        /* \"#utility.yul\":5544:5550   */\n      dup4\n        /* \"#utility.yul\":5491:5551   */\n      tag_373\n      jump\t// in\n    tag_501:\n        /* \"#utility.yul\":5481:5551   */\n      swap3\n      pop\n        /* \"#utility.yul\":5337:5561   */\n      pop\n        /* \"#utility.yul\":5324:5325   */\n      0x01\n        /* \"#utility.yul\":5321:5322   */\n      dup2\n        /* \"#utility.yul\":5317:5326   */\n      add\n        /* \"#utility.yul\":5312:5326   */\n      swap1\n      pop\n        /* \"#utility.yul\":5277:5561   */\n      jump(tag_497)\n    tag_499:\n        /* \"#utility.yul\":5281:5295   */\n      pop\n        /* \"#utility.yul\":5577:5580   */\n      dup6\n        /* \"#utility.yul\":5570:5580   */\n      swap4\n      pop\n        /* \"#utility.yul\":4978:5586   */\n      pop\n      pop\n      pop\n        /* \"#utility.yul\":4854:5586   */\n      swap3\n      swap2\n      pop\n      pop\n      jump\t// out\n        /* \"#utility.yul\":5592:5965   */\n    tag_37:\n        /* \"#utility.yul\":5735:5739   */\n      0x00\n        /* \"#utility.yul\":5773:5775   */\n      0x20\n        /* \"#utility.yul\":5762:5771   */\n      dup3\n        /* \"#utility.yul\":5758:5776   */\n      add\n        /* \"#utility.yul\":5750:5776   */\n      swap1\n      pop\n        /* \"#utility.yul\":5822:5831   */\n      dup2\n        /* \"#utility.yul\":5816:5820   */\n      dup2\n        /* \"#utility.yul\":5812:5832   */\n      sub\n        /* \"#utility.yul\":5808:5809   */\n      0x00\n        /* \"#utility.yul\":5797:5806   */\n      dup4\n        /* \"#utility.yul\":5793:5810   */\n      add\n        /* \"#utility.yul\":5786:5833   */\n      mstore\n        /* \"#utility.yul\":5850:5958   */\n      tag_503\n        /* \"#utility.yul\":5953:5957   */\n      dup2\n        /* \"#utility.yul\":5944:5950   */\n      dup5\n        /* \"#utility.yul\":5850:5958   */\n      tag_374\n      jump\t// in\n    tag_503:\n        /* \"#utility.yul\":5842:5958   */\n      swap1\n      pop\n        /* \"#utility.yul\":5592:5965   */\n      swap3\n      swap2\n      pop\n      pop\n      jump\t// out\n        /* \"#utility.yul\":5971:6107   */\n    tag_375:\n        /* \"#utility.yul\":6060:6066   */\n      0x00\n        /* \"#utility.yul\":6094:6099   */\n      dup2\n        /* \"#utility.yul\":6088:6100   */\n      mload\n        /* \"#utility.yul\":6078:6100   */\n      swap1\n      pop\n        /* \"#utility.yul\":5971:6107   */\n      swap2\n      swap1\n      pop\n      jump\t// out\n        /* \"#utility.yul\":6113:6319   */\n    tag_376:\n        /* \"#utility.yul\":6234:6245   */\n      0x00\n        /* \"#utility.yul\":6268:6274   */\n      dup3\n        /* \"#utility.yul\":6263:6266   */\n      dup3\n        /* \"#utility.yul\":6256:6275   */\n      mstore\n        /* \"#utility.yul\":6308:6312   */\n      0x20\n        /* \"#utility.yul\":6303:6306   */\n      dup3\n        /* \"#utility.yul\":6299:6313   */\n      add\n        /* \"#utility.yul\":6284:6313   */\n      swap1\n      pop\n        /* \"#utility.yul\":6113:6319   */\n      swap3\n      swap2\n      pop\n      pop\n      jump\t// out\n        /* \"#utility.yul\":6325:6479   */\n    tag_377:\n        /* \"#utility.yul\":6414:6418   */\n      0x00\n        /* \"#utility.yul\":6437:6440   */\n      dup2\n        /* \"#utility.yul\":6429:6440   */\n      swap1\n      pop\n        /* \"#utility.yul\":6467:6471   */\n      0x20\n        /* \"#utility.yul\":6462:6465   */\n      dup3\n        /* \"#utility.yul\":6458:6472   */\n      add\n        /* \"#utility.yul\":6450:6472   */\n      swap1\n      pop\n        /* \"#utility.yul\":6325:6479   */\n      swap2\n      swap1\n      pop\n      jump\t// out\n        /* \"#utility.yul\":6485:6598   */\n    tag_378:\n        /* \"#utility.yul\":6551:6557   */\n      0x00\n        /* \"#utility.yul\":6585:6590   */\n      dup2\n        /* \"#utility.yul\":6579:6591   */\n      mload\n        /* \"#utility.yul\":6569:6591   */\n      swap1\n      pop\n        /* \"#utility.yul\":6485:6598   */\n      swap2\n      swap1\n      pop\n      jump\t// out\n        /* \"#utility.yul\":6604:6777   */\n    tag_379:\n        /* \"#utility.yul\":6692:6703   */\n      0x00\n        /* \"#utility.yul\":6726:6732   */\n      dup3\n        /* \"#utility.yul\":6721:6724   */\n      dup3\n        /* \"#utility.yul\":6714:6733   */\n      mstore\n        /* \"#utility.yul\":6766:6770   */\n      0x20\n        /* \"#utility.yul\":6761:6764   */\n      dup3\n        /* \"#utility.yul\":6757:6771   */\n      add\n        /* \"#utility.yul\":6742:6771   */\n      swap1\n      pop\n        /* \"#utility.yul\":6604:6777   */\n      swap3\n      swap2\n      pop\n      pop\n      jump\t// out\n        /* \"#utility.yul\":6783:6914   */\n    tag_380:\n        /* \"#utility.yul\":6849:6853   */\n      0x00\n        /* \"#utility.yul\":6872:6875   */\n      dup2\n        /* \"#utility.yul\":6864:6875   */\n      swap1\n      pop\n        /* \"#utility.yul\":6902:6906   */\n      0x20\n        /* \"#utility.yul\":6897:6900   */\n      dup3\n        /* \"#utility.yul\":6893:6907   */\n      add\n        /* \"#utility.yul\":6885:6907   */\n      swap1\n      pop\n        /* \"#utility.yul\":6783:6914   */\n      swap2\n      swap1\n      pop\n      jump\t// out\n        /* \"#utility.yul\":6920:7069   */\n    tag_381:\n        /* \"#utility.yul\":6956:6963   */\n      0x00\n        /* \"#utility.yul\":6996:7062   */\n      0xffffffff00000000000000000000000000000000000000000000000000000000\n        /* \"#utility.yul\":6989:6994   */\n      dup3\n        /* \"#utility.yul\":6985:7063   */\n      and\n        /* \"#utility.yul\":6974:7063   */\n      swap1\n      pop\n        /* \"#utility.yul\":6920:7069   */\n      swap2\n      swap1\n      pop\n      jump\t// out\n        /* \"#utility.yul\":7075:7180   */\n    tag_382:\n        /* \"#utility.yul\":7150:7173   */\n      tag_512\n        /* \"#utility.yul\":7167:7172   */\n      dup2\n        /* \"#utility.yul\":7150:7173   */\n      tag_381\n      jump\t// in\n    tag_512:\n        /* \"#utility.yul\":7145:7148   */\n      dup3\n        /* \"#utility.yul\":7138:7174   */\n      mstore\n        /* \"#utility.yul\":7075:7180   */\n      pop\n      pop\n      jump\t// out\n        /* \"#utility.yul\":7186:7361   */\n    tag_383:\n        /* \"#utility.yul\":7253:7263   */\n      0x00\n        /* \"#utility.yul\":7274:7318   */\n      tag_514\n        /* \"#utility.yul\":7314:7317   */\n      dup4\n        /* \"#utility.yul\":7306:7312   */\n      dup4\n        /* \"#utility.yul\":7274:7318   */\n      tag_382\n      jump\t// in\n    tag_514:\n        /* \"#utility.yul\":7350:7354   */\n      0x20\n        /* \"#utility.yul\":7345:7348   */\n      dup4\n        /* \"#utility.yul\":7341:7355   */\n      add\n        /* \"#utility.yul\":7327:7355   */\n      swap1\n      pop\n        /* \"#utility.yul\":7186:7361   */\n      swap3\n      swap2\n      pop\n      pop\n      jump\t// out\n        /* \"#utility.yul\":7367:7479   */\n    tag_384:\n        /* \"#utility.yul\":7436:7440   */\n      0x00\n        /* \"#utility.yul\":7468:7472   */\n      0x20\n        /* \"#utility.yul\":7463:7466   */\n      dup3\n        /* \"#utility.yul\":7459:7473   */\n      add\n        /* \"#utility.yul\":7451:7473   */\n      swap1\n      pop\n        /* \"#utility.yul\":7367:7479   */\n      swap2\n      swap1\n      pop\n      jump\t// out\n        /* \"#utility.yul\":7513:8217   */\n    tag_385:\n        /* \"#utility.yul\":7620:7623   */\n      0x00\n        /* \"#utility.yul\":7649:7702   */\n      tag_517\n        /* \"#utility.yul\":7696:7701   */\n      dup3\n        /* \"#utility.yul\":7649:7702   */\n      tag_378\n      jump\t// in\n    tag_517:\n        /* \"#utility.yul\":7718:7793   */\n      tag_518\n        /* \"#utility.yul\":7786:7792   */\n      dup2\n        /* \"#utility.yul\":7781:7784   */\n      dup6\n        /* \"#utility.yul\":7718:7793   */\n      tag_379\n      jump\t// in\n    tag_518:\n        /* \"#utility.yul\":7711:7793   */\n      swap4\n      pop\n        /* \"#utility.yul\":7817:7872   */\n      tag_519\n        /* \"#utility.yul\":7866:7871   */\n      dup4\n        /* \"#utility.yul\":7817:7872   */\n      tag_380\n      jump\t// in\n    tag_519:\n        /* \"#utility.yul\":7895:7902   */\n      dup1\n        /* \"#utility.yul\":7926:7927   */\n      0x00\n        /* \"#utility.yul\":7911:8192   */\n    tag_520:\n        /* \"#utility.yul\":7936:7942   */\n      dup4\n        /* \"#utility.yul\":7933:7934   */\n      dup2\n        /* \"#utility.yul\":7930:7943   */\n      lt\n        /* \"#utility.yul\":7911:8192   */\n      iszero\n      tag_522\n      jumpi\n        /* \"#utility.yul\":8012:8018   */\n      dup2\n        /* \"#utility.yul\":8006:8019   */\n      mload\n        /* \"#utility.yul\":8039:8100   */\n      tag_523\n        /* \"#utility.yul\":8096:8099   */\n      dup9\n        /* \"#utility.yul\":8081:8094   */\n      dup3\n        /* \"#utility.yul\":8039:8100   */\n      tag_383\n      jump\t// in\n    tag_523:\n        /* \"#utility.yul\":8032:8100   */\n      swap8\n      pop\n        /* \"#utility.yul\":8123:8182   */\n      tag_524\n        /* \"#utility.yul\":8175:8181   */\n      dup4\n        /* \"#utility.yul\":8123:8182   */\n      tag_384\n      jump\t// in\n    tag_524:\n        /* \"#utility.yul\":8113:8182   */\n      swap3\n      pop\n        /* \"#utility.yul\":7971:8192   */\n      pop\n        /* \"#utility.yul\":7958:7959   */\n      0x01\n        /* \"#utility.yul\":7955:7956   */\n      dup2\n        /* \"#utility.yul\":7951:7960   */\n      add\n        /* \"#utility.yul\":7946:7960   */\n      swap1\n      pop\n        /* \"#utility.yul\":7911:8192   */\n      jump(tag_520)\n    tag_522:\n        /* \"#utility.yul\":7915:7929   */\n      pop\n        /* \"#utility.yul\":8208:8211   */\n      dup6\n        /* \"#utility.yul\":8201:8211   */\n      swap4\n      pop\n        /* \"#utility.yul\":7625:8217   */\n      pop\n      pop\n      pop\n        /* \"#utility.yul\":7513:8217   */\n      swap3\n      swap2\n      pop\n      pop\n      jump\t// out\n        /* \"#utility.yul\":8287:8926   */\n    tag_386:\n        /* \"#utility.yul\":8390:8393   */\n      0x00\n        /* \"#utility.yul\":8426:8430   */\n      0x40\n        /* \"#utility.yul\":8421:8424   */\n      dup4\n        /* \"#utility.yul\":8417:8431   */\n      add\n        /* \"#utility.yul\":8521:8525   */\n      0x00\n        /* \"#utility.yul\":8514:8519   */\n      dup4\n        /* \"#utility.yul\":8510:8526   */\n      add\n        /* \"#utility.yul\":8504:8527   */\n      mload\n        /* \"#utility.yul\":8540:8603   */\n      tag_526\n        /* \"#utility.yul\":8597:8601   */\n      0x00\n        /* \"#utility.yul\":8592:8595   */\n      dup7\n        /* \"#utility.yul\":8588:8602   */\n      add\n        /* \"#utility.yul\":8574:8586   */\n      dup3\n        /* \"#utility.yul\":8540:8603   */\n      tag_371\n      jump\t// in\n    tag_526:\n        /* \"#utility.yul\":8441:8613   */\n      pop\n        /* \"#utility.yul\":8708:8712   */\n      0x20\n        /* \"#utility.yul\":8701:8706   */\n      dup4\n        /* \"#utility.yul\":8697:8713   */\n      add\n        /* \"#utility.yul\":8691:8714   */\n      mload\n        /* \"#utility.yul\":8761:8764   */\n      dup5\n        /* \"#utility.yul\":8755:8759   */\n      dup3\n        /* \"#utility.yul\":8751:8765   */\n      sub\n        /* \"#utility.yul\":8744:8748   */\n      0x20\n        /* \"#utility.yul\":8739:8742   */\n      dup7\n        /* \"#utility.yul\":8735:8749   */\n      add\n        /* \"#utility.yul\":8728:8766   */\n      mstore\n        /* \"#utility.yul\":8787:8888   */\n      tag_527\n        /* \"#utility.yul\":8883:8887   */\n      dup3\n        /* \"#utility.yul\":8869:8881   */\n      dup3\n        /* \"#utility.yul\":8787:8888   */\n      tag_385\n      jump\t// in\n    tag_527:\n        /* \"#utility.yul\":8779:8888   */\n      swap2\n      pop\n        /* \"#utility.yul\":8623:8899   */\n      pop\n        /* \"#utility.yul\":8916:8920   */\n      dup1\n        /* \"#utility.yul\":8909:8920   */\n      swap2\n      pop\n        /* \"#utility.yul\":8395:8926   */\n      pop\n        /* \"#utility.yul\":8287:8926   */\n      swap3\n      swap2\n      pop\n      pop\n      jump\t// out\n        /* \"#utility.yul\":8932:9176   */\n    tag_387:\n        /* \"#utility.yul\":9045:9055   */\n      0x00\n        /* \"#utility.yul\":9080:9170   */\n      tag_529\n        /* \"#utility.yul\":9166:9169   */\n      dup4\n        /* \"#utility.yul\":9158:9164   */\n      dup4\n        /* \"#utility.yul\":9080:9170   */\n      tag_386\n      jump\t// in\n    tag_529:\n        /* \"#utility.yul\":9066:9170   */\n      swap1\n      pop\n        /* \"#utility.yul\":8932:9176   */\n      swap3\n      swap2\n      pop\n      pop\n      jump\t// out\n        /* \"#utility.yul\":9182:9317   */\n    tag_388:\n        /* \"#utility.yul\":9274:9278   */\n      0x00\n        /* \"#utility.yul\":9306:9310   */\n      0x20\n        /* \"#utility.yul\":9301:9304   */\n      dup3\n        /* \"#utility.yul\":9297:9311   */\n      add\n        /* \"#utility.yul\":9289:9311   */\n      swap1\n      pop\n        /* \"#utility.yul\":9182:9317   */\n      swap2\n      swap1\n      pop\n      jump\t// out\n        /* \"#utility.yul\":9391:10478   */\n    tag_389:\n        /* \"#utility.yul\":9554:9557   */\n      0x00\n        /* \"#utility.yul\":9583:9659   */\n      tag_532\n        /* \"#utility.yul\":9653:9658   */\n      dup3\n        /* \"#utility.yul\":9583:9659   */\n      tag_375\n      jump\t// in\n    tag_532:\n        /* \"#utility.yul\":9675:9783   */\n      tag_533\n        /* \"#utility.yul\":9776:9782   */\n      dup2\n        /* \"#utility.yul\":9771:9774   */\n      dup6\n        /* \"#utility.yul\":9675:9783   */\n      tag_376\n      jump\t// in\n    tag_533:\n        /* \"#utility.yul\":9668:9783   */\n      swap4\n      pop\n        /* \"#utility.yul\":9809:9812   */\n      dup4\n        /* \"#utility.yul\":9854:9858   */\n      0x20\n        /* \"#utility.yul\":9846:9852   */\n      dup3\n        /* \"#utility.yul\":9842:9859   */\n      mul\n        /* \"#utility.yul\":9837:9840   */\n      dup6\n        /* \"#utility.yul\":9833:9860   */\n      add\n        /* \"#utility.yul\":9884:9962   */\n      tag_534\n        /* \"#utility.yul\":9956:9961   */\n      dup6\n        /* \"#utility.yul\":9884:9962   */\n      tag_377\n      jump\t// in\n    tag_534:\n        /* \"#utility.yul\":9985:9992   */\n      dup1\n        /* \"#utility.yul\":10016:10017   */\n      0x00\n        /* \"#utility.yul\":10001:10433   */\n    tag_535:\n        /* \"#utility.yul\":10026:10032   */\n      dup6\n        /* \"#utility.yul\":10023:10024   */\n      dup2\n        /* \"#utility.yul\":10020:10033   */\n      lt\n        /* \"#utility.yul\":10001:10433   */\n      iszero\n      tag_537\n      jumpi\n        /* \"#utility.yul\":10097:10106   */\n      dup5\n        /* \"#utility.yul\":10091:10095   */\n      dup5\n        /* \"#utility.yul\":10087:10107   */\n      sub\n        /* \"#utility.yul\":10082:10085   */\n      dup10\n        /* \"#utility.yul\":10075:10108   */\n      mstore\n        /* \"#utility.yul\":10148:10154   */\n      dup2\n        /* \"#utility.yul\":10142:10155   */\n      mload\n        /* \"#utility.yul\":10176:10284   */\n      tag_538\n        /* \"#utility.yul\":10279:10283   */\n      dup6\n        /* \"#utility.yul\":10264:10277   */\n      dup3\n        /* \"#utility.yul\":10176:10284   */\n      tag_387\n      jump\t// in\n    tag_538:\n        /* \"#utility.yul\":10168:10284   */\n      swap5\n      pop\n        /* \"#utility.yul\":10307:10389   */\n      tag_539\n        /* \"#utility.yul\":10382:10388   */\n      dup4\n        /* \"#utility.yul\":10307:10389   */\n      tag_388\n      jump\t// in\n    tag_539:\n        /* \"#utility.yul\":10297:10389   */\n      swap3\n      pop\n        /* \"#utility.yul\":10418:10422   */\n      0x20\n        /* \"#utility.yul\":10413:10416   */\n      dup11\n        /* \"#utility.yul\":10409:10423   */\n      add\n        /* \"#utility.yul\":10402:10423   */\n      swap10\n      pop\n        /* \"#utility.yul\":10061:10433   */\n      pop\n        /* \"#utility.yul\":10048:10049   */\n      0x01\n        /* \"#utility.yul\":10045:10046   */\n      dup2\n        /* \"#utility.yul\":10041:10050   */\n      add\n        /* \"#utility.yul\":10036:10050   */\n      swap1\n      pop\n        /* \"#utility.yul\":10001:10433   */\n      jump(tag_535)\n    tag_537:\n        /* \"#utility.yul\":10005:10019   */\n      pop\n        /* \"#utility.yul\":10449:10453   */\n      dup3\n        /* \"#utility.yul\":10442:10453   */\n      swap8\n      pop\n        /* \"#utility.yul\":10469:10472   */\n      dup8\n        /* \"#utility.yul\":10462:10472   */\n      swap6\n      pop\n        /* \"#utility.yul\":9559:10478   */\n      pop\n      pop\n      pop\n      pop\n      pop\n        /* \"#utility.yul\":9391:10478   */\n      swap3\n      swap2\n      pop\n      pop\n      jump\t// out\n        /* \"#utility.yul\":10484:10945   */\n    tag_42:\n        /* \"#utility.yul\":10671:10675   */\n      0x00\n        /* \"#utility.yul\":10709:10711   */\n      0x20\n        /* \"#utility.yul\":10698:10707   */\n      dup3\n        /* \"#utility.yul\":10694:10712   */\n      add\n        /* \"#utility.yul\":10686:10712   */\n      swap1\n      pop\n        /* \"#utility.yul\":10758:10767   */\n      dup2\n        /* \"#utility.yul\":10752:10756   */\n      dup2\n        /* \"#utility.yul\":10748:10768   */\n      sub\n        /* \"#utility.yul\":10744:10745   */\n      0x00\n        /* \"#utility.yul\":10733:10742   */\n      dup4\n        /* \"#utility.yul\":10729:10746   */\n      add\n        /* \"#utility.yul\":10722:10769   */\n      mstore\n        /* \"#utility.yul\":10786:10938   */\n      tag_541\n        /* \"#utility.yul\":10933:10937   */\n      dup2\n        /* \"#utility.yul\":10924:10930   */\n      dup5\n        /* \"#utility.yul\":10786:10938   */\n      tag_389\n      jump\t// in\n    tag_541:\n        /* \"#utility.yul\":10778:10938   */\n      swap1\n      pop\n        /* \"#utility.yul\":10484:10945   */\n      swap3\n      swap2\n      pop\n      pop\n      jump\t// out\n        /* \"#utility.yul\":10951:11073   */\n    tag_390:\n        /* \"#utility.yul\":11024:11048   */\n      tag_543\n        /* \"#utility.yul\":11042:11047   */\n      dup2\n        /* \"#utility.yul\":11024:11048   */\n      tag_354\n      jump\t// in\n    tag_543:\n        /* \"#utility.yul\":11017:11022   */\n      dup2\n        /* \"#utility.yul\":11014:11049   */\n      eq\n        /* \"#utility.yul\":11004:11067   */\n      tag_544\n      jumpi\n        /* \"#utility.yul\":11063:11064   */\n      0x00\n        /* \"#utility.yul\":11060:11061   */\n      dup1\n        /* \"#utility.yul\":11053:11065   */\n      revert\n        /* \"#utility.yul\":11004:11067   */\n    tag_544:\n        /* \"#utility.yul\":10951:11073   */\n      pop\n      jump\t// out\n        /* \"#utility.yul\":11079:11218   */\n    tag_391:\n        /* \"#utility.yul\":11125:11130   */\n      0x00\n        /* \"#utility.yul\":11163:11169   */\n      dup2\n        /* \"#utility.yul\":11150:11170   */\n      calldataload\n        /* \"#utility.yul\":11141:11170   */\n      swap1\n      pop\n        /* \"#utility.yul\":11179:11212   */\n      tag_546\n        /* \"#utility.yul\":11206:11211   */\n      dup2\n        /* \"#utility.yul\":11179:11212   */\n      tag_390\n      jump\t// in\n    tag_546:\n        /* \"#utility.yul\":11079:11218   */\n      swap3\n      swap2\n      pop\n      pop\n      jump\t// out\n        /* \"#utility.yul\":11224:11553   */\n    tag_46:\n        /* \"#utility.yul\":11283:11289   */\n      0x00\n        /* \"#utility.yul\":11332:11334   */\n      0x20\n        /* \"#utility.yul\":11320:11329   */\n      dup3\n        /* \"#utility.yul\":11311:11318   */\n      dup5\n        /* \"#utility.yul\":11307:11330   */\n      sub\n        /* \"#utility.yul\":11303:11335   */\n      slt\n        /* \"#utility.yul\":11300:11419   */\n      iszero\n      tag_548\n      jumpi\n        /* \"#utility.yul\":11338:11417   */\n      tag_549\n      tag_357\n      jump\t// in\n    tag_549:\n        /* \"#utility.yul\":11300:11419   */\n    tag_548:\n        /* \"#utility.yul\":11458:11459   */\n      0x00\n        /* \"#utility.yul\":11483:11536   */\n      tag_550\n        /* \"#utility.yul\":11528:11535   */\n      dup5\n        /* \"#utility.yul\":11519:11525   */\n      dup3\n        /* \"#utility.yul\":11508:11517   */\n      dup6\n        /* \"#utility.yul\":11504:11526   */\n      add\n        /* \"#utility.yul\":11483:11536   */\n      tag_391\n      jump\t// in\n    tag_550:\n        /* \"#utility.yul\":11473:11536   */\n      swap2\n      pop\n        /* \"#utility.yul\":11429:11546   */\n      pop\n        /* \"#utility.yul\":11224:11553   */\n      swap3\n      swap2\n      pop\n      pop\n      jump\t// out\n        /* \"#utility.yul\":11559:11677   */\n    tag_392:\n        /* \"#utility.yul\":11646:11670   */\n      tag_552\n        /* \"#utility.yul\":11664:11669   */\n      dup2\n        /* \"#utility.yul\":11646:11670   */\n      tag_364\n      jump\t// in\n    tag_552:\n        /* \"#utility.yul\":11641:11644   */\n      dup3\n        /* \"#utility.yul\":11634:11671   */\n      mstore\n        /* \"#utility.yul\":11559:11677   */\n      pop\n      pop\n      jump\t// out\n        /* \"#utility.yul\":11683:11905   */\n    tag_49:\n        /* \"#utility.yul\":11776:11780   */\n      0x00\n        /* \"#utility.yul\":11814:11816   */\n      0x20\n        /* \"#utility.yul\":11803:11812   */\n      dup3\n        /* \"#utility.yul\":11799:11817   */\n      add\n        /* \"#utility.yul\":11791:11817   */\n      swap1\n      pop\n        /* \"#utility.yul\":11827:11898   */\n      tag_554\n        /* \"#utility.yul\":11895:11896   */\n      0x00\n        /* \"#utility.yul\":11884:11893   */\n      dup4\n        /* \"#utility.yul\":11880:11897   */\n      add\n        /* \"#utility.yul\":11871:11877   */\n      dup5\n        /* \"#utility.yul\":11827:11898   */\n      tag_392\n      jump\t// in\n    tag_554:\n        /* \"#utility.yul\":11683:11905   */\n      swap3\n      swap2\n      pop\n      pop\n      jump\t// out\n        /* \"#utility.yul\":11911:12031   */\n    tag_393:\n        /* \"#utility.yul\":11983:12006   */\n      tag_556\n        /* \"#utility.yul\":12000:12005   */\n      dup2\n        /* \"#utility.yul\":11983:12006   */\n      tag_381\n      jump\t// in\n    tag_556:\n        /* \"#utility.yul\":11976:11981   */\n      dup2\n        /* \"#utility.yul\":11973:12007   */\n      eq\n        /* \"#utility.yul\":11963:12025   */\n      tag_557\n      jumpi\n        /* \"#utility.yul\":12021:12022   */\n      0x00\n        /* \"#utility.yul\":12018:12019   */\n      dup1\n        /* \"#utility.yul\":12011:12023   */\n      revert\n        /* \"#utility.yul\":11963:12025   */\n    tag_557:\n        /* \"#utility.yul\":11911:12031   */\n      pop\n      jump\t// out\n        /* \"#utility.yul\":12037:12174   */\n    tag_394:\n        /* \"#utility.yul\":12082:12087   */\n      0x00\n        /* \"#utility.yul\":12120:12126   */\n      dup2\n        /* \"#utility.yul\":12107:12127   */\n      calldataload\n        /* \"#utility.yul\":12098:12127   */\n      swap1\n      pop\n        /* \"#utility.yul\":12136:12168   */\n      tag_559\n        /* \"#utility.yul\":12162:12167   */\n      dup2\n        /* \"#utility.yul\":12136:12168   */\n      tag_393\n      jump\t// in\n    tag_559:\n        /* \"#utility.yul\":12037:12174   */\n      swap3\n      swap2\n      pop\n      pop\n      jump\t// out\n        /* \"#utility.yul\":12180:12507   */\n    tag_53:\n        /* \"#utility.yul\":12238:12244   */\n      0x00\n        /* \"#utility.yul\":12287:12289   */\n      0x20\n        /* \"#utility.yul\":12275:12284   */\n      dup3\n        /* \"#utility.yul\":12266:12273   */\n      dup5\n        /* \"#utility.yul\":12262:12285   */\n      sub\n        /* \"#utility.yul\":12258:12290   */\n      slt\n        /* \"#utility.yul\":12255:12374   */\n      iszero\n      tag_561\n      jumpi\n        /* \"#utility.yul\":12293:12372   */\n      tag_562\n      tag_357\n      jump\t// in\n    tag_562:\n        /* \"#utility.yul\":12255:12374   */\n    tag_561:\n        /* \"#utility.yul\":12413:12414   */\n      0x00\n        /* \"#utility.yul\":12438:12490   */\n      tag_563\n        /* \"#utility.yul\":12482:12489   */\n      dup5\n        /* \"#utility.yul\":12473:12479   */\n      dup3\n        /* \"#utility.yul\":12462:12471   */\n      dup6\n        /* \"#utility.yul\":12458:12480   */\n      add\n        /* \"#utility.yul\":12438:12490   */\n      tag_394\n      jump\t// in\n    tag_563:\n        /* \"#utility.yul\":12428:12490   */\n      swap2\n      pop\n        /* \"#utility.yul\":12384:12500   */\n      pop\n        /* \"#utility.yul\":12180:12507   */\n      swap3\n      swap2\n      pop\n      pop\n      jump\t// out\n        /* \"#utility.yul\":12513:12842   */\n    tag_59:\n        /* \"#utility.yul\":12572:12578   */\n      0x00\n        /* \"#utility.yul\":12621:12623   */\n      0x20\n        /* \"#utility.yul\":12609:12618   */\n      dup3\n        /* \"#utility.yul\":12600:12607   */\n      dup5\n        /* \"#utility.yul\":12596:12619   */\n      sub\n        /* \"#utility.yul\":12592:12624   */\n      slt\n        /* \"#utility.yul\":12589:12708   */\n      iszero\n      tag_565\n      jumpi\n        /* \"#utility.yul\":12627:12706   */\n      tag_566\n      tag_357\n      jump\t// in\n    tag_566:\n        /* \"#utility.yul\":12589:12708   */\n    tag_565:\n        /* \"#utility.yul\":12747:12748   */\n      0x00\n        /* \"#utility.yul\":12772:12825   */\n      tag_567\n        /* \"#utility.yul\":12817:12824   */\n      dup5\n        /* \"#utility.yul\":12808:12814   */\n      dup3\n        /* \"#utility.yul\":12797:12806   */\n      dup6\n        /* \"#utility.yul\":12793:12815   */\n      add\n        /* \"#utility.yul\":12772:12825   */\n      tag_366\n      jump\t// in\n    tag_567:\n        /* \"#utility.yul\":12762:12825   */\n      swap2\n      pop\n        /* \"#utility.yul\":12718:12835   */\n      pop\n        /* \"#utility.yul\":12513:12842   */\n      swap3\n      swap2\n      pop\n      pop\n      jump\t// out\n        /* \"#utility.yul\":12848:13031   */\n    tag_395:\n        /* \"#utility.yul\":12946:12957   */\n      0x00\n        /* \"#utility.yul\":12980:12986   */\n      dup3\n        /* \"#utility.yul\":12975:12978   */\n      dup3\n        /* \"#utility.yul\":12968:12987   */\n      mstore\n        /* \"#utility.yul\":13020:13024   */\n      0x20\n        /* \"#utility.yul\":13015:13018   */\n      dup3\n        /* \"#utility.yul\":13011:13025   */\n      add\n        /* \"#utility.yul\":12996:13025   */\n      swap1\n      pop\n        /* \"#utility.yul\":12848:13031   */\n      swap3\n      swap2\n      pop\n      pop\n      jump\t// out\n        /* \"#utility.yul\":13065:13789   */\n    tag_396:\n        /* \"#utility.yul\":13182:13185   */\n      0x00\n        /* \"#utility.yul\":13211:13264   */\n      tag_570\n        /* \"#utility.yul\":13258:13263   */\n      dup3\n        /* \"#utility.yul\":13211:13264   */\n      tag_378\n      jump\t// in\n    tag_570:\n        /* \"#utility.yul\":13280:13365   */\n      tag_571\n        /* \"#utility.yul\":13358:13364   */\n      dup2\n        /* \"#utility.yul\":13353:13356   */\n      dup6\n        /* \"#utility.yul\":13280:13365   */\n      tag_395\n      jump\t// in\n    tag_571:\n        /* \"#utility.yul\":13273:13365   */\n      swap4\n      pop\n        /* \"#utility.yul\":13389:13444   */\n      tag_572\n        /* \"#utility.yul\":13438:13443   */\n      dup4\n        /* \"#utility.yul\":13389:13444   */\n      tag_380\n      jump\t// in\n    tag_572:\n        /* \"#utility.yul\":13467:13474   */\n      dup1\n        /* \"#utility.yul\":13498:13499   */\n      0x00\n        /* \"#utility.yul\":13483:13764   */\n    tag_573:\n        /* \"#utility.yul\":13508:13514   */\n      dup4\n        /* \"#utility.yul\":13505:13506   */\n      dup2\n        /* \"#utility.yul\":13502:13515   */\n      lt\n        /* \"#utility.yul\":13483:13764   */\n      iszero\n      tag_575\n      jumpi\n        /* \"#utility.yul\":13584:13590   */\n      dup2\n        /* \"#utility.yul\":13578:13591   */\n      mload\n        /* \"#utility.yul\":13611:13672   */\n      tag_576\n        /* \"#utility.yul\":13668:13671   */\n      dup9\n        /* \"#utility.yul\":13653:13666   */\n      dup3\n        /* \"#utility.yul\":13611:13672   */\n      tag_383\n      jump\t// in\n    tag_576:\n        /* \"#utility.yul\":13604:13672   */\n      swap8\n      pop\n        /* \"#utility.yul\":13695:13754   */\n      tag_577\n        /* \"#utility.yul\":13747:13753   */\n      dup4\n        /* \"#utility.yul\":13695:13754   */\n      tag_384\n      jump\t// in\n    tag_577:\n        /* \"#utility.yul\":13685:13754   */\n      swap3\n      pop\n        /* \"#utility.yul\":13543:13764   */\n      pop\n        /* \"#utility.yul\":13530:13531   */\n      0x01\n        /* \"#utility.yul\":13527:13528   */\n      dup2\n        /* \"#utility.yul\":13523:13532   */\n      add\n        /* \"#utility.yul\":13518:13532   */\n      swap1\n      pop\n        /* \"#utility.yul\":13483:13764   */\n      jump(tag_573)\n    tag_575:\n        /* \"#utility.yul\":13487:13501   */\n      pop\n        /* \"#utility.yul\":13780:13783   */\n      dup6\n        /* \"#utility.yul\":13773:13783   */\n      swap4\n      pop\n        /* \"#utility.yul\":13187:13789   */\n      pop\n      pop\n      pop\n        /* \"#utility.yul\":13065:13789   */\n      swap3\n      swap2\n      pop\n      pop\n      jump\t// out\n        /* \"#utility.yul\":13795:14164   */\n    tag_62:\n        /* \"#utility.yul\":13936:13940   */\n      0x00\n        /* \"#utility.yul\":13974:13976   */\n      0x20\n        /* \"#utility.yul\":13963:13972   */\n      dup3\n        /* \"#utility.yul\":13959:13977   */\n      add\n        /* \"#utility.yul\":13951:13977   */\n      swap1\n      pop\n        /* \"#utility.yul\":14023:14032   */\n      dup2\n        /* \"#utility.yul\":14017:14021   */\n      dup2\n        /* \"#utility.yul\":14013:14033   */\n      sub\n        /* \"#utility.yul\":14009:14010   */\n      0x00\n        /* \"#utility.yul\":13998:14007   */\n      dup4\n        /* \"#utility.yul\":13994:14011   */\n      add\n        /* \"#utility.yul\":13987:14034   */\n      mstore\n        /* \"#utility.yul\":14051:14157   */\n      tag_579\n        /* \"#utility.yul\":14152:14156   */\n      dup2\n        /* \"#utility.yul\":14143:14149   */\n      dup5\n        /* \"#utility.yul\":14051:14157   */\n      tag_396\n      jump\t// in\n    tag_579:\n        /* \"#utility.yul\":14043:14157   */\n      swap1\n      pop\n        /* \"#utility.yul\":13795:14164   */\n      swap3\n      swap2\n      pop\n      pop\n      jump\t// out\n        /* \"#utility.yul\":14170:14285   */\n    tag_397:\n        /* \"#utility.yul\":14255:14278   */\n      tag_581\n        /* \"#utility.yul\":14272:14277   */\n      dup2\n        /* \"#utility.yul\":14255:14278   */\n      tag_381\n      jump\t// in\n    tag_581:\n        /* \"#utility.yul\":14250:14253   */\n      dup3\n        /* \"#utility.yul\":14243:14279   */\n      mstore\n        /* \"#utility.yul\":14170:14285   */\n      pop\n      pop\n      jump\t// out\n        /* \"#utility.yul\":14291:14509   */\n    tag_73:\n        /* \"#utility.yul\":14382:14386   */\n      0x00\n        /* \"#utility.yul\":14420:14422   */\n      0x20\n        /* \"#utility.yul\":14409:14418   */\n      dup3\n        /* \"#utility.yul\":14405:14423   */\n      add\n        /* \"#utility.yul\":14397:14423   */\n      swap1\n      pop\n        /* \"#utility.yul\":14433:14502   */\n      tag_583\n        /* \"#utility.yul\":14499:14500   */\n      0x00\n        /* \"#utility.yul\":14488:14497   */\n      dup4\n        /* \"#utility.yul\":14484:14501   */\n      add\n        /* \"#utility.yul\":14475:14481   */\n      dup5\n        /* \"#utility.yul\":14433:14502   */\n      tag_397\n      jump\t// in\n    tag_583:\n        /* \"#utility.yul\":14291:14509   */\n      swap3\n      swap2\n      pop\n      pop\n      jump\t// out\n        /* \"#utility.yul\":14515:14695   */\n    tag_85:\n        /* \"#utility.yul\":14563:14640   */\n      0x4e487b7100000000000000000000000000000000000000000000000000000000\n        /* \"#utility.yul\":14560:14561   */\n      0x00\n        /* \"#utility.yul\":14553:14641   */\n      mstore\n        /* \"#utility.yul\":14660:14664   */\n      0x21\n        /* \"#utility.yul\":14657:14658   */\n      0x04\n        /* \"#utility.yul\":14650:14665   */\n      mstore\n        /* \"#utility.yul\":14684:14688   */\n      0x24\n        /* \"#utility.yul\":14681:14682   */\n      0x00\n        /* \"#utility.yul\":14674:14689   */\n      revert\n        /* \"#utility.yul\":14701:14881   */\n    tag_88:\n        /* \"#utility.yul\":14749:14826   */\n      0x4e487b7100000000000000000000000000000000000000000000000000000000\n        /* \"#utility.yul\":14746:14747   */\n      0x00\n        /* \"#utility.yul\":14739:14827   */\n      mstore\n        /* \"#utility.yul\":14846:14850   */\n      0x32\n        /* \"#utility.yul\":14843:14844   */\n      0x04\n        /* \"#utility.yul\":14836:14851   */\n      mstore\n        /* \"#utility.yul\":14870:14874   */\n      0x24\n        /* \"#utility.yul\":14867:14868   */\n      0x00\n        /* \"#utility.yul\":14860:14875   */\n      revert\n        /* \"#utility.yul\":14887:15004   */\n    tag_398:\n        /* \"#utility.yul\":14996:14997   */\n      0x00\n        /* \"#utility.yul\":14993:14994   */\n      dup1\n        /* \"#utility.yul\":14986:14998   */\n      revert\n        /* \"#utility.yul\":15010:15127   */\n    tag_399:\n        /* \"#utility.yul\":15119:15120   */\n      0x00\n        /* \"#utility.yul\":15116:15117   */\n      dup1\n        /* \"#utility.yul\":15109:15121   */\n      revert\n        /* \"#utility.yul\":15133:15250   */\n    tag_400:\n        /* \"#utility.yul\":15242:15243   */\n      0x00\n        /* \"#utility.yul\":15239:15240   */\n      dup1\n        /* \"#utility.yul\":15232:15244   */\n      revert\n        /* \"#utility.yul\":15256:15649   */\n    tag_90:\n        /* \"#utility.yul\":15349:15353   */\n      0x00\n        /* \"#utility.yul\":15403:15414   */\n      dup3\n        /* \"#utility.yul\":15390:15415   */\n      calldataload\n        /* \"#utility.yul\":15503:15504   */\n      0x01\n        /* \"#utility.yul\":15497:15501   */\n      0x60\n        /* \"#utility.yul\":15493:15505   */\n      sub\n        /* \"#utility.yul\":15482:15490   */\n      dup4\n        /* \"#utility.yul\":15466:15480   */\n      calldatasize\n        /* \"#utility.yul\":15462:15491   */\n      sub\n        /* \"#utility.yul\":15458:15506   */\n      sub\n        /* \"#utility.yul\":15438:15456   */\n      dup2\n        /* \"#utility.yul\":15434:15507   */\n      slt\n        /* \"#utility.yul\":15424:15592   */\n      tag_590\n      jumpi\n        /* \"#utility.yul\":15511:15590   */\n      tag_591\n      tag_398\n      jump\t// in\n    tag_591:\n        /* \"#utility.yul\":15424:15592   */\n    tag_590:\n        /* \"#utility.yul\":15623:15641   */\n      dup1\n        /* \"#utility.yul\":15613:15621   */\n      dup4\n        /* \"#utility.yul\":15609:15642   */\n      add\n        /* \"#utility.yul\":15601:15642   */\n      swap2\n      pop\n        /* \"#utility.yul\":15354:15649   */\n      pop\n        /* \"#utility.yul\":15256:15649   */\n      swap3\n      swap2\n      pop\n      pop\n      jump\t// out\n        /* \"#utility.yul\":15655:15772   */\n    tag_401:\n        /* \"#utility.yul\":15746:15747   */\n      0x03\n        /* \"#utility.yul\":15739:15744   */\n      dup2\n        /* \"#utility.yul\":15736:15748   */\n      lt\n        /* \"#utility.yul\":15726:15766   */\n      tag_593\n      jumpi\n        /* \"#utility.yul\":15762:15763   */\n      0x00\n        /* \"#utility.yul\":15759:15760   */\n      dup1\n        /* \"#utility.yul\":15752:15764   */\n      revert\n        /* \"#utility.yul\":15726:15766   */\n    tag_593:\n        /* \"#utility.yul\":15655:15772   */\n      pop\n      jump\t// out\n        /* \"#utility.yul\":15778:15953   */\n    tag_402:\n        /* \"#utility.yul\":15842:15847   */\n      0x00\n        /* \"#utility.yul\":15880:15886   */\n      dup2\n        /* \"#utility.yul\":15867:15887   */\n      calldataload\n        /* \"#utility.yul\":15858:15887   */\n      swap1\n      pop\n        /* \"#utility.yul\":15896:15947   */\n      tag_595\n        /* \"#utility.yul\":15941:15946   */\n      dup2\n        /* \"#utility.yul\":15896:15947   */\n      tag_401\n      jump\t// in\n    tag_595:\n        /* \"#utility.yul\":15778:15953   */\n      swap3\n      swap2\n      pop\n      pop\n      jump\t// out\n        /* \"#utility.yul\":15959:16324   */\n    tag_92:\n        /* \"#utility.yul\":16036:16042   */\n      0x00\n        /* \"#utility.yul\":16085:16087   */\n      0x20\n        /* \"#utility.yul\":16073:16082   */\n      dup3\n        /* \"#utility.yul\":16064:16071   */\n      dup5\n        /* \"#utility.yul\":16060:16083   */\n      sub\n        /* \"#utility.yul\":16056:16088   */\n      slt\n        /* \"#utility.yul\":16053:16172   */\n      iszero\n      tag_597\n      jumpi\n        /* \"#utility.yul\":16091:16170   */\n      tag_598\n      tag_357\n      jump\t// in\n    tag_598:\n        /* \"#utility.yul\":16053:16172   */\n    tag_597:\n        /* \"#utility.yul\":16211:16212   */\n      0x00\n        /* \"#utility.yul\":16236:16307   */\n      tag_599\n        /* \"#utility.yul\":16299:16306   */\n      dup5\n        /* \"#utility.yul\":16290:16296   */\n      dup3\n        /* \"#utility.yul\":16279:16288   */\n      dup6\n        /* \"#utility.yul\":16275:16297   */\n      add\n        /* \"#utility.yul\":16236:16307   */\n      tag_402\n      jump\t// in\n    tag_599:\n        /* \"#utility.yul\":16226:16307   */\n      swap2\n      pop\n        /* \"#utility.yul\":16182:16317   */\n      pop\n        /* \"#utility.yul\":15959:16324   */\n      swap3\n      swap2\n      pop\n      pop\n      jump\t// out\n        /* \"#utility.yul\":16330:17069   */\n    tag_103:\n        /* \"#utility.yul\":16422:16426   */\n      0x00\n        /* \"#utility.yul\":16428:16434   */\n      dup1\n        /* \"#utility.yul\":16484:16495   */\n      dup4\n        /* \"#utility.yul\":16471:16496   */\n      calldataload\n        /* \"#utility.yul\":16584:16585   */\n      0x01\n        /* \"#utility.yul\":16578:16582   */\n      0x20\n        /* \"#utility.yul\":16574:16586   */\n      sub\n        /* \"#utility.yul\":16563:16571   */\n      dup5\n        /* \"#utility.yul\":16547:16561   */\n      calldatasize\n        /* \"#utility.yul\":16543:16572   */\n      sub\n        /* \"#utility.yul\":16539:16587   */\n      sub\n        /* \"#utility.yul\":16519:16537   */\n      dup2\n        /* \"#utility.yul\":16515:16588   */\n      slt\n        /* \"#utility.yul\":16505:16673   */\n      tag_601\n      jumpi\n        /* \"#utility.yul\":16592:16671   */\n      tag_602\n      tag_398\n      jump\t// in\n    tag_602:\n        /* \"#utility.yul\":16505:16673   */\n    tag_601:\n        /* \"#utility.yul\":16704:16722   */\n      dup1\n        /* \"#utility.yul\":16694:16702   */\n      dup5\n        /* \"#utility.yul\":16690:16723   */\n      add\n        /* \"#utility.yul\":16682:16723   */\n      swap3\n      pop\n        /* \"#utility.yul\":16756:16760   */\n      dup3\n        /* \"#utility.yul\":16743:16761   */\n      calldataload\n        /* \"#utility.yul\":16733:16761   */\n      swap2\n      pop\n        /* \"#utility.yul\":16784:16802   */\n      0xffffffffffffffff\n        /* \"#utility.yul\":16776:16782   */\n      dup3\n        /* \"#utility.yul\":16773:16803   */\n      gt\n        /* \"#utility.yul\":16770:16887   */\n      iszero\n      tag_603\n      jumpi\n        /* \"#utility.yul\":16806:16885   */\n      tag_604\n      tag_399\n      jump\t// in\n    tag_604:\n        /* \"#utility.yul\":16770:16887   */\n    tag_603:\n        /* \"#utility.yul\":16914:16916   */\n      0x20\n        /* \"#utility.yul\":16908:16912   */\n      dup4\n        /* \"#utility.yul\":16904:16917   */\n      add\n        /* \"#utility.yul\":16896:16917   */\n      swap3\n      pop\n        /* \"#utility.yul\":16971:16975   */\n      0x20\n        /* \"#utility.yul\":16963:16969   */\n      dup3\n        /* \"#utility.yul\":16959:16976   */\n      mul\n        /* \"#utility.yul\":16943:16957   */\n      calldatasize\n        /* \"#utility.yul\":16939:16977   */\n      sub\n        /* \"#utility.yul\":16933:16937   */\n      dup4\n        /* \"#utility.yul\":16929:16978   */\n      sgt\n        /* \"#utility.yul\":16926:17062   */\n      iszero\n      tag_605\n      jumpi\n        /* \"#utility.yul\":16981:17060   */\n      tag_606\n      tag_400\n      jump\t// in\n    tag_606:\n        /* \"#utility.yul\":16926:17062   */\n    tag_605:\n        /* \"#utility.yul\":16435:17069   */\n      pop\n        /* \"#utility.yul\":16330:17069   */\n      swap3\n      pop\n      swap3\n      swap1\n      pop\n      jump\t// out\n        /* \"#utility.yul\":17075:17255   */\n    tag_403:\n        /* \"#utility.yul\":17123:17200   */\n      0x4e487b7100000000000000000000000000000000000000000000000000000000\n        /* \"#utility.yul\":17120:17121   */\n      0x00\n        /* \"#utility.yul\":17113:17201   */\n      mstore\n        /* \"#utility.yul\":17220:17224   */\n      0x11\n        /* \"#utility.yul\":17217:17218   */\n      0x04\n        /* \"#utility.yul\":17210:17225   */\n      mstore\n        /* \"#utility.yul\":17244:17248   */\n      0x24\n        /* \"#utility.yul\":17241:17242   */\n      0x00\n        /* \"#utility.yul\":17234:17249   */\n      revert\n        /* \"#utility.yul\":17261:17494   */\n    tag_132:\n        /* \"#utility.yul\":17300:17303   */\n      0x00\n        /* \"#utility.yul\":17323:17347   */\n      tag_609\n        /* \"#utility.yul\":17341:17346   */\n      dup3\n        /* \"#utility.yul\":17323:17347   */\n      tag_354\n      jump\t// in\n    tag_609:\n        /* \"#utility.yul\":17314:17347   */\n      swap2\n      pop\n        /* \"#utility.yul\":17369:17435   */\n      0xffffffffffffffffffffffffffffffffffffffffffffffffffffffffffffffff\n        /* \"#utility.yul\":17362:17367   */\n      dup3\n        /* \"#utility.yul\":17359:17436   */\n      sub\n        /* \"#utility.yul\":17356:17459   */\n      tag_610\n      jumpi\n        /* \"#utility.yul\":17439:17457   */\n      tag_611\n      tag_403\n      jump\t// in\n    tag_611:\n        /* \"#utility.yul\":17356:17459   */\n    tag_610:\n        /* \"#utility.yul\":17486:17487   */\n      0x01\n        /* \"#utility.yul\":17479:17484   */\n      dup3\n        /* \"#utility.yul\":17475:17488   */\n      add\n        /* \"#utility.yul\":17468:17488   */\n      swap1\n      pop\n        /* \"#utility.yul\":17261:17494   */\n      swap2\n      swap1\n      pop\n      jump\t// out\n        /* \"#utility.yul\":17500:17694   */\n    tag_207:\n        /* \"#utility.yul\":17540:17544   */\n      0x00\n        /* \"#utility.yul\":17560:17580   */\n      tag_613\n        /* \"#utility.yul\":17578:17579   */\n      dup3\n        /* \"#utility.yul\":17560:17580   */\n      tag_354\n      jump\t// in\n    tag_613:\n        /* \"#utility.yul\":17555:17580   */\n      swap2\n      pop\n        /* \"#utility.yul\":17594:17614   */\n      tag_614\n        /* \"#utility.yul\":17612:17613   */\n      dup4\n        /* \"#utility.yul\":17594:17614   */\n      tag_354\n      jump\t// in\n    tag_614:\n        /* \"#utility.yul\":17589:17614   */\n      swap3\n      pop\n        /* \"#utility.yul\":17638:17639   */\n      dup3\n        /* \"#utility.yul\":17635:17636   */\n      dup3\n        /* \"#utility.yul\":17631:17640   */\n      sub\n        /* \"#utility.yul\":17623:17640   */\n      swap1\n      pop\n        /* \"#utility.yul\":17662:17663   */\n      dup2\n        /* \"#utility.yul\":17656:17660   */\n      dup2\n        /* \"#utility.yul\":17653:17664   */\n      gt\n        /* \"#utility.yul\":17650:17687   */\n      iszero\n      tag_615\n      jumpi\n        /* \"#utility.yul\":17667:17685   */\n      tag_616\n      tag_403\n      jump\t// in\n    tag_616:\n        /* \"#utility.yul\":17650:17687   */\n    tag_615:\n        /* \"#utility.yul\":17500:17694   */\n      swap3\n      swap2\n      pop\n      pop\n      jump\t// out\n        /* \"#utility.yul\":17700:17880   */\n    tag_218:\n        /* \"#utility.yul\":17748:17825   */\n      0x4e487b7100000000000000000000000000000000000000000000000000000000\n        /* \"#utility.yul\":17745:17746   */\n      0x00\n        /* \"#utility.yul\":17738:17826   */\n      mstore\n        /* \"#utility.yul\":17845:17849   */\n      0x31\n        /* \"#utility.yul\":17842:17843   */\n      0x04\n        /* \"#utility.yul\":17835:17850   */\n      mstore\n        /* \"#utility.yul\":17869:17873   */\n      0x24\n        /* \"#utility.yul\":17866:17867   */\n      0x00\n        /* \"#utility.yul\":17859:17874   */\n      revert\n        /* \"#utility.yul\":17886:18095   */\n    tag_404:\n        /* \"#utility.yul\":18010:18021   */\n      0x00\n        /* \"#utility.yul\":18044:18050   */\n      dup3\n        /* \"#utility.yul\":18039:18042   */\n      dup3\n        /* \"#utility.yul\":18032:18051   */\n      mstore\n        /* \"#utility.yul\":18084:18088   */\n      0x20\n        /* \"#utility.yul\":18079:18082   */\n      dup3\n        /* \"#utility.yul\":18075:18089   */\n      add\n        /* \"#utility.yul\":18060:18089   */\n      swap1\n      pop\n        /* \"#utility.yul\":17886:18095   */\n      swap3\n      swap2\n      pop\n      pop\n      jump\t// out\n        /* \"#utility.yul\":18101:18230   */\n    tag_405:\n        /* \"#utility.yul\":18197:18201   */\n      0x00\n        /* \"#utility.yul\":18220:18223   */\n      dup2\n        /* \"#utility.yul\":18212:18223   */\n      swap1\n      pop\n        /* \"#utility.yul\":18101:18230   */\n      swap2\n      swap1\n      pop\n      jump\t// out\n        /* \"#utility.yul\":18236:18358   */\n    tag_406:\n        /* \"#utility.yul\":18288:18293   */\n      0x00\n        /* \"#utility.yul\":18313:18352   */\n      tag_621\n        /* \"#utility.yul\":18348:18350   */\n      0x20\n        /* \"#utility.yul\":18343:18346   */\n      dup5\n        /* \"#utility.yul\":18339:18351   */\n      add\n        /* \"#utility.yul\":18334:18337   */\n      dup5\n        /* \"#utility.yul\":18313:18352   */\n      tag_366\n      jump\t// in\n    tag_621:\n        /* \"#utility.yul\":18304:18352   */\n      swap1\n      pop\n        /* \"#utility.yul\":18236:18358   */\n      swap3\n      swap2\n      pop\n      pop\n      jump\t// out\n        /* \"#utility.yul\":18364:18522   */\n    tag_407:\n        /* \"#utility.yul\":18434:18439   */\n      0x00\n        /* \"#utility.yul\":18459:18516   */\n      tag_623\n        /* \"#utility.yul\":18512:18514   */\n      0x20\n        /* \"#utility.yul\":18507:18510   */\n      dup5\n        /* \"#utility.yul\":18503:18515   */\n      add\n        /* \"#utility.yul\":18498:18501   */\n      dup5\n        /* \"#utility.yul\":18459:18516   */\n      tag_402\n      jump\t// in\n    tag_623:\n        /* \"#utility.yul\":18450:18516   */\n      swap1\n      pop\n        /* \"#utility.yul\":18364:18522   */\n      swap3\n      swap2\n      pop\n      pop\n      jump\t// out\n        /* \"#utility.yul\":18528:18651   */\n    tag_408:\n        /* \"#utility.yul\":18619:18620   */\n      0x03\n        /* \"#utility.yul\":18612:18617   */\n      dup2\n        /* \"#utility.yul\":18609:18621   */\n      lt\n        /* \"#utility.yul\":18599:18645   */\n      tag_625\n      jumpi\n        /* \"#utility.yul\":18625:18643   */\n      tag_626\n      tag_85\n      jump\t// in\n    tag_626:\n        /* \"#utility.yul\":18599:18645   */\n    tag_625:\n        /* \"#utility.yul\":18528:18651   */\n      pop\n      jump\t// out\n        /* \"#utility.yul\":18657:18804   */\n    tag_409:\n        /* \"#utility.yul\":18712:18719   */\n      0x00\n        /* \"#utility.yul\":18741:18746   */\n      dup2\n        /* \"#utility.yul\":18730:18746   */\n      swap1\n      pop\n        /* \"#utility.yul\":18747:18798   */\n      tag_628\n        /* \"#utility.yul\":18792:18797   */\n      dup3\n        /* \"#utility.yul\":18747:18798   */\n      tag_408\n      jump\t// in\n    tag_628:\n        /* \"#utility.yul\":18657:18804   */\n      swap2\n      swap1\n      pop\n      jump\t// out\n        /* \"#utility.yul\":18810:18957   */\n    tag_410:\n        /* \"#utility.yul\":18876:18885   */\n      0x00\n        /* \"#utility.yul\":18909:18951   */\n      tag_630\n        /* \"#utility.yul\":18945:18950   */\n      dup3\n        /* \"#utility.yul\":18909:18951   */\n      tag_409\n      jump\t// in\n    tag_630:\n        /* \"#utility.yul\":18896:18951   */\n      swap1\n      pop\n        /* \"#utility.yul\":18810:18957   */\n      swap2\n      swap1\n      pop\n      jump\t// out\n        /* \"#utility.yul\":18963:19116   */\n    tag_411:\n        /* \"#utility.yul\":19056:19109   */\n      tag_632\n        /* \"#utility.yul\":19103:19108   */\n      dup2\n        /* \"#utility.yul\":19056:19109   */\n      tag_410\n      jump\t// in\n    tag_632:\n        /* \"#utility.yul\":19051:19054   */\n      dup3\n        /* \"#utility.yul\":19044:19110   */\n      mstore\n        /* \"#utility.yul\":18963:19116   */\n      pop\n      pop\n      jump\t// out\n        /* \"#utility.yul\":19122:19239   */\n    tag_412:\n        /* \"#utility.yul\":19231:19232   */\n      0x00\n        /* \"#utility.yul\":19228:19229   */\n      dup1\n        /* \"#utility.yul\":19221:19233   */\n      revert\n        /* \"#utility.yul\":19245:19362   */\n    tag_413:\n        /* \"#utility.yul\":19354:19355   */\n      0x00\n        /* \"#utility.yul\":19351:19352   */\n      dup1\n        /* \"#utility.yul\":19344:19356   */\n      revert\n        /* \"#utility.yul\":19368:19485   */\n    tag_414:\n        /* \"#utility.yul\":19477:19478   */\n      0x00\n        /* \"#utility.yul\":19474:19475   */\n      dup1\n        /* \"#utility.yul\":19467:19479   */\n      revert\n        /* \"#utility.yul\":19491:20217   */\n    tag_415:\n        /* \"#utility.yul\":19570:19575   */\n      0x00\n        /* \"#utility.yul\":19577:19583   */\n      dup1\n        /* \"#utility.yul\":19633:19636   */\n      dup4\n        /* \"#utility.yul\":19620:19637   */\n      calldataload\n        /* \"#utility.yul\":19725:19726   */\n      0x01\n        /* \"#utility.yul\":19719:19723   */\n      0x20\n        /* \"#utility.yul\":19715:19727   */\n      sub\n        /* \"#utility.yul\":19704:19712   */\n      dup5\n        /* \"#utility.yul\":19688:19702   */\n      calldatasize\n        /* \"#utility.yul\":19684:19713   */\n      sub\n        /* \"#utility.yul\":19680:19728   */\n      sub\n        /* \"#utility.yul\":19660:19678   */\n      dup2\n        /* \"#utility.yul\":19656:19729   */\n      slt\n        /* \"#utility.yul\":19646:19814   */\n      tag_637\n      jumpi\n        /* \"#utility.yul\":19733:19812   */\n      tag_638\n      tag_414\n      jump\t// in\n    tag_638:\n        /* \"#utility.yul\":19646:19814   */\n    tag_637:\n        /* \"#utility.yul\":19856:19864   */\n      dup4\n        /* \"#utility.yul\":19836:19854   */\n      dup2\n        /* \"#utility.yul\":19832:19865   */\n      add\n        /* \"#utility.yul\":19823:19865   */\n      swap3\n      pop\n        /* \"#utility.yul\":19898:19903   */\n      dup3\n        /* \"#utility.yul\":19885:19904   */\n      calldataload\n        /* \"#utility.yul\":19875:19904   */\n      swap2\n      pop\n        /* \"#utility.yul\":19933:19937   */\n      0x20\n        /* \"#utility.yul\":19926:19931   */\n      dup4\n        /* \"#utility.yul\":19922:19938   */\n      add\n        /* \"#utility.yul\":19913:19938   */\n      swap3\n      pop\n        /* \"#utility.yul\":19961:19979   */\n      0xffffffffffffffff\n        /* \"#utility.yul\":19953:19959   */\n      dup3\n        /* \"#utility.yul\":19950:19980   */\n      gt\n        /* \"#utility.yul\":19947:20064   */\n      iszero\n      tag_639\n      jumpi\n        /* \"#utility.yul\":19983:20062   */\n      tag_640\n      tag_412\n      jump\t// in\n    tag_640:\n        /* \"#utility.yul\":19947:20064   */\n    tag_639:\n        /* \"#utility.yul\":20119:20123   */\n      0x20\n        /* \"#utility.yul\":20111:20117   */\n      dup3\n        /* \"#utility.yul\":20107:20124   */\n      mul\n        /* \"#utility.yul\":20091:20105   */\n      calldatasize\n        /* \"#utility.yul\":20087:20125   */\n      sub\n        /* \"#utility.yul\":20080:20085   */\n      dup4\n        /* \"#utility.yul\":20076:20126   */\n      sgt\n        /* \"#utility.yul\":20073:20210   */\n      iszero\n      tag_641\n      jumpi\n        /* \"#utility.yul\":20129:20208   */\n      tag_642\n      tag_413\n      jump\t// in\n    tag_642:\n        /* \"#utility.yul\":20073:20210   */\n    tag_641:\n        /* \"#utility.yul\":19584:20217   */\n      pop\n        /* \"#utility.yul\":19491:20217   */\n      swap3\n      pop\n      swap3\n      swap1\n      pop\n      jump\t// out\n        /* \"#utility.yul\":20223:20324   */\n    tag_416:\n        /* \"#utility.yul\":20291:20295   */\n      0x00\n        /* \"#utility.yul\":20314:20317   */\n      dup2\n        /* \"#utility.yul\":20306:20317   */\n      swap1\n      pop\n        /* \"#utility.yul\":20223:20324   */\n      swap2\n      swap1\n      pop\n      jump\t// out\n        /* \"#utility.yul\":20330:20450   */\n    tag_417:\n        /* \"#utility.yul\":20381:20386   */\n      0x00\n        /* \"#utility.yul\":20406:20444   */\n      tag_645\n        /* \"#utility.yul\":20440:20442   */\n      0x20\n        /* \"#utility.yul\":20435:20438   */\n      dup5\n        /* \"#utility.yul\":20431:20443   */\n      add\n        /* \"#utility.yul\":20426:20429   */\n      dup5\n        /* \"#utility.yul\":20406:20444   */\n      tag_394\n      jump\t// in\n    tag_645:\n        /* \"#utility.yul\":20397:20444   */\n      swap1\n      pop\n        /* \"#utility.yul\":20330:20450   */\n      swap3\n      swap2\n      pop\n      pop\n      jump\t// out\n        /* \"#utility.yul\":20456:20570   */\n    tag_418:\n        /* \"#utility.yul\":20527:20531   */\n      0x00\n        /* \"#utility.yul\":20559:20563   */\n      0x20\n        /* \"#utility.yul\":20554:20557   */\n      dup3\n        /* \"#utility.yul\":20550:20564   */\n      add\n        /* \"#utility.yul\":20542:20564   */\n      swap1\n      pop\n        /* \"#utility.yul\":20456:20570   */\n      swap2\n      swap1\n      pop\n      jump\t// out\n        /* \"#utility.yul\":20604:21275   */\n    tag_419:\n        /* \"#utility.yul\":20721:20724   */\n      0x00\n        /* \"#utility.yul\":20744:20819   */\n      tag_648\n        /* \"#utility.yul\":20812:20818   */\n      dup4\n        /* \"#utility.yul\":20807:20810   */\n      dup6\n        /* \"#utility.yul\":20744:20819   */\n      tag_379\n      jump\t// in\n    tag_648:\n        /* \"#utility.yul\":20737:20819   */\n      swap4\n      pop\n        /* \"#utility.yul\":20843:20900   */\n      tag_649\n        /* \"#utility.yul\":20894:20899   */\n      dup3\n        /* \"#utility.yul\":20843:20900   */\n      tag_416\n      jump\t// in\n    tag_649:\n        /* \"#utility.yul\":20923:20930   */\n      dup1\n        /* \"#utility.yul\":20954:20955   */\n      0x00\n        /* \"#utility.yul\":20939:21250   */\n    tag_650:\n        /* \"#utility.yul\":20964:20970   */\n      dup6\n        /* \"#utility.yul\":20961:20962   */\n      dup2\n        /* \"#utility.yul\":20958:20971   */\n      lt\n        /* \"#utility.yul\":20939:21250   */\n      iszero\n      tag_652\n      jumpi\n        /* \"#utility.yul\":21034:21075   */\n      tag_653\n        /* \"#utility.yul\":21068:21074   */\n      dup3\n        /* \"#utility.yul\":21059:21066   */\n      dup5\n        /* \"#utility.yul\":21034:21075   */\n      tag_417\n      jump\t// in\n    tag_653:\n        /* \"#utility.yul\":21095:21156   */\n      tag_654\n        /* \"#utility.yul\":21152:21155   */\n      dup9\n        /* \"#utility.yul\":21137:21150   */\n      dup3\n        /* \"#utility.yul\":21095:21156   */\n      tag_383\n      jump\t// in\n    tag_654:\n        /* \"#utility.yul\":21088:21156   */\n      swap8\n      pop\n        /* \"#utility.yul\":21179:21240   */\n      tag_655\n        /* \"#utility.yul\":21233:21239   */\n      dup4\n        /* \"#utility.yul\":21179:21240   */\n      tag_418\n      jump\t// in\n    tag_655:\n        /* \"#utility.yul\":21169:21240   */\n      swap3\n      pop\n        /* \"#utility.yul\":20999:21250   */\n      pop\n        /* \"#utility.yul\":20986:20987   */\n      0x01\n        /* \"#utility.yul\":20983:20984   */\n      dup2\n        /* \"#utility.yul\":20979:20988   */\n      add\n        /* \"#utility.yul\":20974:20988   */\n      swap1\n      pop\n        /* \"#utility.yul\":20939:21250   */\n      jump(tag_650)\n    tag_652:\n        /* \"#utility.yul\":20943:20957   */\n      pop\n        /* \"#utility.yul\":21266:21269   */\n      dup6\n        /* \"#utility.yul\":21259:21269   */\n      swap3\n      pop\n        /* \"#utility.yul\":20726:21275   */\n      pop\n      pop\n        /* \"#utility.yul\":20604:21275   */\n      swap4\n      swap3\n      pop\n      pop\n      pop\n      jump\t// out\n        /* \"#utility.yul\":21341:22335   */\n    tag_420:\n        /* \"#utility.yul\":21452:21455   */\n      0x00\n        /* \"#utility.yul\":21488:21492   */\n      0x60\n        /* \"#utility.yul\":21483:21486   */\n      dup4\n        /* \"#utility.yul\":21479:21493   */\n      add\n        /* \"#utility.yul\":21566:21616   */\n      tag_657\n        /* \"#utility.yul\":21610:21614   */\n      0x00\n        /* \"#utility.yul\":21603:21608   */\n      dup5\n        /* \"#utility.yul\":21599:21615   */\n      add\n        /* \"#utility.yul\":21592:21597   */\n      dup5\n        /* \"#utility.yul\":21566:21616   */\n      tag_406\n      jump\t// in\n    tag_657:\n        /* \"#utility.yul\":21629:21692   */\n      tag_658\n        /* \"#utility.yul\":21686:21690   */\n      0x00\n        /* \"#utility.yul\":21681:21684   */\n      dup7\n        /* \"#utility.yul\":21677:21691   */\n      add\n        /* \"#utility.yul\":21663:21675   */\n      dup3\n        /* \"#utility.yul\":21629:21692   */\n      tag_371\n      jump\t// in\n    tag_658:\n        /* \"#utility.yul\":21503:21702   */\n      pop\n        /* \"#utility.yul\":21769:21837   */\n      tag_659\n        /* \"#utility.yul\":21831:21835   */\n      0x20\n        /* \"#utility.yul\":21824:21829   */\n      dup5\n        /* \"#utility.yul\":21820:21836   */\n      add\n        /* \"#utility.yul\":21813:21818   */\n      dup5\n        /* \"#utility.yul\":21769:21837   */\n      tag_407\n      jump\t// in\n    tag_659:\n        /* \"#utility.yul\":21850:21929   */\n      tag_660\n        /* \"#utility.yul\":21923:21927   */\n      0x20\n        /* \"#utility.yul\":21918:21921   */\n      dup7\n        /* \"#utility.yul\":21914:21928   */\n      add\n        /* \"#utility.yul\":21900:21912   */\n      dup3\n        /* \"#utility.yul\":21850:21929   */\n      tag_411\n      jump\t// in\n    tag_660:\n        /* \"#utility.yul\":21712:21939   */\n      pop\n        /* \"#utility.yul\":22031:22107   */\n      tag_661\n        /* \"#utility.yul\":22101:22105   */\n      0x40\n        /* \"#utility.yul\":22094:22099   */\n      dup5\n        /* \"#utility.yul\":22090:22106   */\n      add\n        /* \"#utility.yul\":22083:22088   */\n      dup5\n        /* \"#utility.yul\":22031:22107   */\n      tag_415\n      jump\t// in\n    tag_661:\n        /* \"#utility.yul\":22154:22157   */\n      dup6\n        /* \"#utility.yul\":22148:22152   */\n      dup4\n        /* \"#utility.yul\":22144:22158   */\n      sub\n        /* \"#utility.yul\":22137:22141   */\n      0x40\n        /* \"#utility.yul\":22132:22135   */\n      dup8\n        /* \"#utility.yul\":22128:22142   */\n      add\n        /* \"#utility.yul\":22121:22159   */\n      mstore\n        /* \"#utility.yul\":22180:22297   */\n      tag_662\n        /* \"#utility.yul\":22292:22296   */\n      dup4\n        /* \"#utility.yul\":22278:22290   */\n      dup3\n        /* \"#utility.yul\":22264:22276   */\n      dup5\n        /* \"#utility.yul\":22180:22297   */\n      tag_419\n      jump\t// in\n    tag_662:\n        /* \"#utility.yul\":22172:22297   */\n      swap3\n      pop\n        /* \"#utility.yul\":21949:22308   */\n      pop\n      pop\n        /* \"#utility.yul\":22325:22329   */\n      dup1\n        /* \"#utility.yul\":22318:22329   */\n      swap2\n      pop\n        /* \"#utility.yul\":21457:22335   */\n      pop\n        /* \"#utility.yul\":21341:22335   */\n      swap3\n      swap2\n      pop\n      pop\n      jump\t// out\n        /* \"#utility.yul\":22341:22601   */\n    tag_421:\n        /* \"#utility.yul\":22462:22472   */\n      0x00\n        /* \"#utility.yul\":22497:22595   */\n      tag_664\n        /* \"#utility.yul\":22591:22594   */\n      dup4\n        /* \"#utility.yul\":22583:22589   */\n      dup4\n        /* \"#utility.yul\":22497:22595   */\n      tag_420\n      jump\t// in\n    tag_664:\n        /* \"#utility.yul\":22483:22595   */\n      swap1\n      pop\n        /* \"#utility.yul\":22341:22601   */\n      swap3\n      swap2\n      pop\n      pop\n      jump\t// out\n        /* \"#utility.yul\":22607:22981   */\n    tag_422:\n        /* \"#utility.yul\":22687:22692   */\n      0x00\n        /* \"#utility.yul\":22742:22745   */\n      dup3\n        /* \"#utility.yul\":22729:22746   */\n      calldataload\n        /* \"#utility.yul\":22834:22835   */\n      0x01\n        /* \"#utility.yul\":22828:22832   */\n      0x60\n        /* \"#utility.yul\":22824:22836   */\n      sub\n        /* \"#utility.yul\":22813:22821   */\n      dup4\n        /* \"#utility.yul\":22797:22811   */\n      calldatasize\n        /* \"#utility.yul\":22793:22822   */\n      sub\n        /* \"#utility.yul\":22789:22837   */\n      sub\n        /* \"#utility.yul\":22769:22787   */\n      dup2\n        /* \"#utility.yul\":22765:22838   */\n      slt\n        /* \"#utility.yul\":22755:22923   */\n      tag_666\n      jumpi\n        /* \"#utility.yul\":22842:22921   */\n      tag_667\n      tag_414\n      jump\t// in\n    tag_667:\n        /* \"#utility.yul\":22755:22923   */\n    tag_666:\n        /* \"#utility.yul\":22965:22973   */\n      dup3\n        /* \"#utility.yul\":22945:22963   */\n      dup2\n        /* \"#utility.yul\":22941:22974   */\n      add\n        /* \"#utility.yul\":22932:22974   */\n      swap2\n      pop\n        /* \"#utility.yul\":22693:22981   */\n      pop\n        /* \"#utility.yul\":22607:22981   */\n      swap3\n      swap2\n      pop\n      pop\n      jump\t// out\n        /* \"#utility.yul\":22987:23129   */\n    tag_423:\n        /* \"#utility.yul\":23086:23090   */\n      0x00\n        /* \"#utility.yul\":23118:23122   */\n      0x20\n        /* \"#utility.yul\":23113:23116   */\n      dup3\n        /* \"#utility.yul\":23109:23123   */\n      add\n        /* \"#utility.yul\":23101:23123   */\n      swap1\n      pop\n        /* \"#utility.yul\":22987:23129   */\n      swap2\n      swap1\n      pop\n      jump\t// out\n        /* \"#utility.yul\":23199:24287   */\n    tag_424:\n        /* \"#utility.yul\":23380:23383   */\n      0x00\n        /* \"#utility.yul\":23403:23514   */\n      tag_670\n        /* \"#utility.yul\":23507:23513   */\n      dup4\n        /* \"#utility.yul\":23502:23505   */\n      dup6\n        /* \"#utility.yul\":23403:23514   */\n      tag_404\n      jump\t// in\n    tag_670:\n        /* \"#utility.yul\":23396:23514   */\n      swap4\n      pop\n        /* \"#utility.yul\":23540:23543   */\n      dup4\n        /* \"#utility.yul\":23585:23589   */\n      0x20\n        /* \"#utility.yul\":23577:23583   */\n      dup5\n        /* \"#utility.yul\":23573:23590   */\n      mul\n        /* \"#utility.yul\":23568:23571   */\n      dup6\n        /* \"#utility.yul\":23564:23591   */\n      add\n        /* \"#utility.yul\":23615:23700   */\n      tag_671\n        /* \"#utility.yul\":23694:23699   */\n      dup5\n        /* \"#utility.yul\":23615:23700   */\n      tag_405\n      jump\t// in\n    tag_671:\n        /* \"#utility.yul\":23723:23730   */\n      dup1\n        /* \"#utility.yul\":23754:23755   */\n      0x00\n        /* \"#utility.yul\":23739:24242   */\n    tag_672:\n        /* \"#utility.yul\":23764:23770   */\n      dup8\n        /* \"#utility.yul\":23761:23762   */\n      dup2\n        /* \"#utility.yul\":23758:23771   */\n      lt\n        /* \"#utility.yul\":23739:24242   */\n      iszero\n      tag_674\n      jumpi\n        /* \"#utility.yul\":23835:23844   */\n      dup5\n        /* \"#utility.yul\":23829:23833   */\n      dup5\n        /* \"#utility.yul\":23825:23845   */\n      sub\n        /* \"#utility.yul\":23820:23823   */\n      dup10\n        /* \"#utility.yul\":23813:23846   */\n      mstore\n        /* \"#utility.yul\":23880:23949   */\n      tag_675\n        /* \"#utility.yul\":23942:23948   */\n      dup3\n        /* \"#utility.yul\":23933:23940   */\n      dup5\n        /* \"#utility.yul\":23880:23949   */\n      tag_422\n      jump\t// in\n    tag_675:\n        /* \"#utility.yul\":23970:24086   */\n      tag_676\n        /* \"#utility.yul\":24081:24085   */\n      dup6\n        /* \"#utility.yul\":24066:24079   */\n      dup3\n        /* \"#utility.yul\":23970:24086   */\n      tag_421\n      jump\t// in\n    tag_676:\n        /* \"#utility.yul\":23962:24086   */\n      swap5\n      pop\n        /* \"#utility.yul\":24109:24198   */\n      tag_677\n        /* \"#utility.yul\":24191:24197   */\n      dup4\n        /* \"#utility.yul\":24109:24198   */\n      tag_423\n      jump\t// in\n    tag_677:\n        /* \"#utility.yul\":24099:24198   */\n      swap3\n      pop\n        /* \"#utility.yul\":24227:24231   */\n      0x20\n        /* \"#utility.yul\":24222:24225   */\n      dup11\n        /* \"#utility.yul\":24218:24232   */\n      add\n        /* \"#utility.yul\":24211:24232   */\n      swap10\n      pop\n        /* \"#utility.yul\":23799:24242   */\n      pop\n        /* \"#utility.yul\":23786:23787   */\n      0x01\n        /* \"#utility.yul\":23783:23784   */\n      dup2\n        /* \"#utility.yul\":23779:23788   */\n      add\n        /* \"#utility.yul\":23774:23788   */\n      swap1\n      pop\n        /* \"#utility.yul\":23739:24242   */\n      jump(tag_672)\n    tag_674:\n        /* \"#utility.yul\":23743:23757   */\n      pop\n        /* \"#utility.yul\":24258:24262   */\n      dup3\n        /* \"#utility.yul\":24251:24262   */\n      swap8\n      pop\n        /* \"#utility.yul\":24278:24281   */\n      dup8\n        /* \"#utility.yul\":24271:24281   */\n      swap5\n      pop\n        /* \"#utility.yul\":23385:24287   */\n      pop\n      pop\n      pop\n      pop\n        /* \"#utility.yul\":23199:24287   */\n      swap4\n      swap3\n      pop\n      pop\n      pop\n      jump\t// out\n        /* \"#utility.yul\":24293:24461   */\n    tag_425:\n        /* \"#utility.yul\":24376:24387   */\n      0x00\n        /* \"#utility.yul\":24410:24416   */\n      dup3\n        /* \"#utility.yul\":24405:24408   */\n      dup3\n        /* \"#utility.yul\":24398:24417   */\n      mstore\n        /* \"#utility.yul\":24450:24454   */\n      0x20\n        /* \"#utility.yul\":24445:24448   */\n      dup3\n        /* \"#utility.yul\":24441:24455   */\n      add\n        /* \"#utility.yul\":24426:24455   */\n      swap1\n      pop\n        /* \"#utility.yul\":24293:24461   */\n      swap3\n      swap2\n      pop\n      pop\n      jump\t// out\n        /* \"#utility.yul\":24467:24613   */\n    tag_426:\n        /* \"#utility.yul\":24564:24570   */\n      dup3\n        /* \"#utility.yul\":24559:24562   */\n      dup2\n        /* \"#utility.yul\":24554:24557   */\n      dup4\n        /* \"#utility.yul\":24541:24571   */\n      calldatacopy\n        /* \"#utility.yul\":24605:24606   */\n      0x00\n        /* \"#utility.yul\":24596:24602   */\n      dup4\n        /* \"#utility.yul\":24591:24594   */\n      dup4\n        /* \"#utility.yul\":24587:24603   */\n      add\n        /* \"#utility.yul\":24580:24607   */\n      mstore\n        /* \"#utility.yul\":24467:24613   */\n      pop\n      pop\n      pop\n      jump\t// out\n        /* \"#utility.yul\":24619:24721   */\n    tag_427:\n        /* \"#utility.yul\":24660:24666   */\n      0x00\n        /* \"#utility.yul\":24711:24713   */\n      0x1f\n        /* \"#utility.yul\":24707:24714   */\n      not\n        /* \"#utility.yul\":24702:24704   */\n      0x1f\n        /* \"#utility.yul\":24695:24700   */\n      dup4\n        /* \"#utility.yul\":24691:24705   */\n      add\n        /* \"#utility.yul\":24687:24715   */\n      and\n        /* \"#utility.yul\":24677:24715   */\n      swap1\n      pop\n        /* \"#utility.yul\":24619:24721   */\n      swap2\n      swap1\n      pop\n      jump\t// out\n        /* \"#utility.yul\":24749:25063   */\n    tag_428:\n        /* \"#utility.yul\":24845:24848   */\n      0x00\n        /* \"#utility.yul\":24866:24936   */\n      tag_682\n        /* \"#utility.yul\":24929:24935   */\n      dup4\n        /* \"#utility.yul\":24924:24927   */\n      dup6\n        /* \"#utility.yul\":24866:24936   */\n      tag_425\n      jump\t// in\n    tag_682:\n        /* \"#utility.yul\":24859:24936   */\n      swap4\n      pop\n        /* \"#utility.yul\":24946:25002   */\n      tag_683\n        /* \"#utility.yul\":24995:25001   */\n      dup4\n        /* \"#utility.yul\":24990:24993   */\n      dup6\n        /* \"#utility.yul\":24983:24988   */\n      dup5\n        /* \"#utility.yul\":24946:25002   */\n      tag_426\n      jump\t// in\n    tag_683:\n        /* \"#utility.yul\":25027:25056   */\n      tag_684\n        /* \"#utility.yul\":25049:25055   */\n      dup4\n        /* \"#utility.yul\":25027:25056   */\n      tag_427\n      jump\t// in\n    tag_684:\n        /* \"#utility.yul\":25022:25025   */\n      dup5\n        /* \"#utility.yul\":25018:25057   */\n      add\n        /* \"#utility.yul\":25011:25057   */\n      swap1\n      pop\n        /* \"#utility.yul\":24749:25063   */\n      swap4\n      swap3\n      pop\n      pop\n      pop\n      jump\t// out\n        /* \"#utility.yul\":25069:25893   */\n    tag_228:\n        /* \"#utility.yul\":25358:25362   */\n      0x00\n        /* \"#utility.yul\":25396:25398   */\n      0x60\n        /* \"#utility.yul\":25385:25394   */\n      dup3\n        /* \"#utility.yul\":25381:25399   */\n      add\n        /* \"#utility.yul\":25373:25399   */\n      swap1\n      pop\n        /* \"#utility.yul\":25445:25454   */\n      dup2\n        /* \"#utility.yul\":25439:25443   */\n      dup2\n        /* \"#utility.yul\":25435:25455   */\n      sub\n        /* \"#utility.yul\":25431:25432   */\n      0x00\n        /* \"#utility.yul\":25420:25429   */\n      dup4\n        /* \"#utility.yul\":25416:25433   */\n      add\n        /* \"#utility.yul\":25409:25456   */\n      mstore\n        /* \"#utility.yul\":25473:25643   */\n      tag_686\n        /* \"#utility.yul\":25638:25642   */\n      dup2\n        /* \"#utility.yul\":25629:25635   */\n      dup8\n        /* \"#utility.yul\":25621:25627   */\n      dup10\n        /* \"#utility.yul\":25473:25643   */\n      tag_424\n      jump\t// in\n    tag_686:\n        /* \"#utility.yul\":25465:25643   */\n      swap1\n      pop\n        /* \"#utility.yul\":25653:25725   */\n      tag_687\n        /* \"#utility.yul\":25721:25723   */\n      0x20\n        /* \"#utility.yul\":25710:25719   */\n      dup4\n        /* \"#utility.yul\":25706:25724   */\n      add\n        /* \"#utility.yul\":25697:25703   */\n      dup7\n        /* \"#utility.yul\":25653:25725   */\n      tag_392\n      jump\t// in\n    tag_687:\n        /* \"#utility.yul\":25772:25781   */\n      dup2\n        /* \"#utility.yul\":25766:25770   */\n      dup2\n        /* \"#utility.yul\":25762:25782   */\n      sub\n        /* \"#utility.yul\":25757:25759   */\n      0x40\n        /* \"#utility.yul\":25746:25755   */\n      dup4\n        /* \"#utility.yul\":25742:25760   */\n      add\n        /* \"#utility.yul\":25735:25783   */\n      mstore\n        /* \"#utility.yul\":25800:25886   */\n      tag_688\n        /* \"#utility.yul\":25881:25885   */\n      dup2\n        /* \"#utility.yul\":25872:25878   */\n      dup5\n        /* \"#utility.yul\":25864:25870   */\n      dup7\n        /* \"#utility.yul\":25800:25886   */\n      tag_428\n      jump\t// in\n    tag_688:\n        /* \"#utility.yul\":25792:25886   */\n      swap1\n      pop\n        /* \"#utility.yul\":25069:25893   */\n      swap7\n      swap6\n      pop\n      pop\n      pop\n      pop\n      pop\n      pop\n      jump\t// out\n        /* \"#utility.yul\":25899:26046   */\n    tag_429:\n        /* \"#utility.yul\":26000:26011   */\n      0x00\n        /* \"#utility.yul\":26037:26040   */\n      dup2\n        /* \"#utility.yul\":26022:26040   */\n      swap1\n      pop\n        /* \"#utility.yul\":25899:26046   */\n      swap3\n      swap2\n      pop\n      pop\n      jump\t// out\n        /* \"#utility.yul\":26074:26401   */\n    tag_430:\n        /* \"#utility.yul\":26188:26191   */\n      0x00\n        /* \"#utility.yul\":26209:26297   */\n      tag_691\n        /* \"#utility.yul\":26290:26296   */\n      dup4\n        /* \"#utility.yul\":26285:26288   */\n      dup6\n        /* \"#utility.yul\":26209:26297   */\n      tag_429\n      jump\t// in\n    tag_691:\n        /* \"#utility.yul\":26202:26297   */\n      swap4\n      pop\n        /* \"#utility.yul\":26307:26363   */\n      tag_692\n        /* \"#utility.yul\":26356:26362   */\n      dup4\n        /* \"#utility.yul\":26351:26354   */\n      dup6\n        /* \"#utility.yul\":26344:26349   */\n      dup5\n        /* \"#utility.yul\":26307:26363   */\n      tag_426\n      jump\t// in\n    tag_692:\n        /* \"#utility.yul\":26388:26394   */\n      dup3\n        /* \"#utility.yul\":26383:26386   */\n      dup5\n        /* \"#utility.yul\":26379:26395   */\n      add\n        /* \"#utility.yul\":26372:26395   */\n      swap1\n      pop\n        /* \"#utility.yul\":26074:26401   */\n      swap4\n      swap3\n      pop\n      pop\n      pop\n      jump\t// out\n        /* \"#utility.yul\":26407:26698   */\n    tag_231:\n        /* \"#utility.yul\":26547:26550   */\n      0x00\n        /* \"#utility.yul\":26569:26672   */\n      tag_694\n        /* \"#utility.yul\":26668:26671   */\n      dup3\n        /* \"#utility.yul\":26659:26665   */\n      dup5\n        /* \"#utility.yul\":26651:26657   */\n      dup7\n        /* \"#utility.yul\":26569:26672   */\n      tag_430\n      jump\t// in\n    tag_694:\n        /* \"#utility.yul\":26562:26672   */\n      swap2\n      pop\n        /* \"#utility.yul\":26689:26692   */\n      dup2\n        /* \"#utility.yul\":26682:26692   */\n      swap1\n      pop\n        /* \"#utility.yul\":26407:26698   */\n      swap4\n      swap3\n      pop\n      pop\n      pop\n      jump\t// out\n        /* \"#utility.yul\":26704:27143   */\n    tag_237:\n        /* \"#utility.yul\":26853:26857   */\n      0x00\n        /* \"#utility.yul\":26891:26893   */\n      0x40\n        /* \"#utility.yul\":26880:26889   */\n      dup3\n        /* \"#utility.yul\":26876:26894   */\n      add\n        /* \"#utility.yul\":26868:26894   */\n      swap1\n      pop\n        /* \"#utility.yul\":26904:26975   */\n      tag_696\n        /* \"#utility.yul\":26972:26973   */\n      0x00\n        /* \"#utility.yul\":26961:26970   */\n      dup4\n        /* \"#utility.yul\":26957:26974   */\n      add\n        /* \"#utility.yul\":26948:26954   */\n      dup7\n        /* \"#utility.yul\":26904:26975   */\n      tag_392\n      jump\t// in\n    tag_696:\n        /* \"#utility.yul\":27022:27031   */\n      dup2\n        /* \"#utility.yul\":27016:27020   */\n      dup2\n        /* \"#utility.yul\":27012:27032   */\n      sub\n        /* \"#utility.yul\":27007:27009   */\n      0x20\n        /* \"#utility.yul\":26996:27005   */\n      dup4\n        /* \"#utility.yul\":26992:27010   */\n      add\n        /* \"#utility.yul\":26985:27033   */\n      mstore\n        /* \"#utility.yul\":27050:27136   */\n      tag_697\n        /* \"#utility.yul\":27131:27135   */\n      dup2\n        /* \"#utility.yul\":27122:27128   */\n      dup5\n        /* \"#utility.yul\":27114:27120   */\n      dup7\n        /* \"#utility.yul\":27050:27136   */\n      tag_428\n      jump\t// in\n    tag_697:\n        /* \"#utility.yul\":27042:27136   */\n      swap1\n      pop\n        /* \"#utility.yul\":26704:27143   */\n      swap5\n      swap4\n      pop\n      pop\n      pop\n      pop\n      jump\t// out\n        /* \"#utility.yul\":27149:27329   */\n    tag_248:\n        /* \"#utility.yul\":27197:27274   */\n      0x4e487b7100000000000000000000000000000000000000000000000000000000\n        /* \"#utility.yul\":27194:27195   */\n      0x00\n        /* \"#utility.yul\":27187:27275   */\n      mstore\n        /* \"#utility.yul\":27294:27298   */\n      0x41\n        /* \"#utility.yul\":27291:27292   */\n      0x04\n        /* \"#utility.yul\":27284:27299   */\n      mstore\n        /* \"#utility.yul\":27318:27322   */\n      0x24\n        /* \"#utility.yul\":27315:27316   */\n      0x00\n        /* \"#utility.yul\":27308:27323   */\n      revert\n        /* \"#utility.yul\":27335:27616   */\n    tag_431:\n        /* \"#utility.yul\":27418:27445   */\n      tag_700\n        /* \"#utility.yul\":27440:27444   */\n      dup3\n        /* \"#utility.yul\":27418:27445   */\n      tag_427\n      jump\t// in\n    tag_700:\n        /* \"#utility.yul\":27410:27416   */\n      dup2\n        /* \"#utility.yul\":27406:27446   */\n      add\n        /* \"#utility.yul\":27548:27554   */\n      dup2\n        /* \"#utility.yul\":27536:27546   */\n      dup2\n        /* \"#utility.yul\":27533:27555   */\n      lt\n        /* \"#utility.yul\":27512:27530   */\n      0xffffffffffffffff\n        /* \"#utility.yul\":27500:27510   */\n      dup3\n        /* \"#utility.yul\":27497:27531   */\n      gt\n        /* \"#utility.yul\":27494:27556   */\n      or\n        /* \"#utility.yul\":27491:27579   */\n      iszero\n      tag_701\n      jumpi\n        /* \"#utility.yul\":27559:27577   */\n      tag_702\n      tag_248\n      jump\t// in\n    tag_702:\n        /* \"#utility.yul\":27491:27579   */\n    tag_701:\n        /* \"#utility.yul\":27599:27609   */\n      dup1\n        /* \"#utility.yul\":27595:27597   */\n      0x40\n        /* \"#utility.yul\":27588:27610   */\n      mstore\n        /* \"#utility.yul\":27378:27616   */\n      pop\n        /* \"#utility.yul\":27335:27616   */\n      pop\n      pop\n      jump\t// out\n        /* \"#utility.yul\":27622:27751   */\n    tag_432:\n        /* \"#utility.yul\":27656:27662   */\n      0x00\n        /* \"#utility.yul\":27683:27703   */\n      tag_704\n      tag_356\n      jump\t// in\n    tag_704:\n        /* \"#utility.yul\":27673:27703   */\n      swap1\n      pop\n        /* \"#utility.yul\":27712:27745   */\n      tag_705\n        /* \"#utility.yul\":27740:27744   */\n      dup3\n        /* \"#utility.yul\":27732:27738   */\n      dup3\n        /* \"#utility.yul\":27712:27745   */\n      tag_431\n      jump\t// in\n    tag_705:\n        /* \"#utility.yul\":27622:27751   */\n      swap2\n      swap1\n      pop\n      jump\t// out\n        /* \"#utility.yul\":27757:28068   */\n    tag_433:\n        /* \"#utility.yul\":27834:27838   */\n      0x00\n        /* \"#utility.yul\":27924:27942   */\n      0xffffffffffffffff\n        /* \"#utility.yul\":27916:27922   */\n      dup3\n        /* \"#utility.yul\":27913:27943   */\n      gt\n        /* \"#utility.yul\":27910:27966   */\n      iszero\n      tag_707\n      jumpi\n        /* \"#utility.yul\":27946:27964   */\n      tag_708\n      tag_248\n      jump\t// in\n    tag_708:\n        /* \"#utility.yul\":27910:27966   */\n    tag_707:\n        /* \"#utility.yul\":27996:28000   */\n      0x20\n        /* \"#utility.yul\":27988:27994   */\n      dup3\n        /* \"#utility.yul\":27984:28001   */\n      mul\n        /* \"#utility.yul\":27976:28001   */\n      swap1\n      pop\n        /* \"#utility.yul\":28056:28060   */\n      0x20\n        /* \"#utility.yul\":28050:28054   */\n      dup2\n        /* \"#utility.yul\":28046:28061   */\n      add\n        /* \"#utility.yul\":28038:28061   */\n      swap1\n      pop\n        /* \"#utility.yul\":27757:28068   */\n      swap2\n      swap1\n      pop\n      jump\t// out\n        /* \"#utility.yul\":28074:28217   */\n    tag_434:\n        /* \"#utility.yul\":28131:28136   */\n      0x00\n        /* \"#utility.yul\":28162:28168   */\n      dup2\n        /* \"#utility.yul\":28156:28169   */\n      mload\n        /* \"#utility.yul\":28147:28169   */\n      swap1\n      pop\n        /* \"#utility.yul\":28178:28211   */\n      tag_710\n        /* \"#utility.yul\":28205:28210   */\n      dup2\n        /* \"#utility.yul\":28178:28211   */\n      tag_365\n      jump\t// in\n    tag_710:\n        /* \"#utility.yul\":28074:28217   */\n      swap3\n      swap2\n      pop\n      pop\n      jump\t// out\n        /* \"#utility.yul\":28240:28972   */\n    tag_435:\n        /* \"#utility.yul\":28347:28352   */\n      0x00\n        /* \"#utility.yul\":28372:28453   */\n      tag_712\n        /* \"#utility.yul\":28388:28452   */\n      tag_713\n        /* \"#utility.yul\":28445:28451   */\n      dup5\n        /* \"#utility.yul\":28388:28452   */\n      tag_433\n      jump\t// in\n    tag_713:\n        /* \"#utility.yul\":28372:28453   */\n      tag_432\n      jump\t// in\n    tag_712:\n        /* \"#utility.yul\":28363:28453   */\n      swap1\n      pop\n        /* \"#utility.yul\":28473:28478   */\n      dup1\n        /* \"#utility.yul\":28502:28508   */\n      dup4\n        /* \"#utility.yul\":28495:28500   */\n      dup3\n        /* \"#utility.yul\":28488:28509   */\n      mstore\n        /* \"#utility.yul\":28536:28540   */\n      0x20\n        /* \"#utility.yul\":28529:28534   */\n      dup3\n        /* \"#utility.yul\":28525:28541   */\n      add\n        /* \"#utility.yul\":28518:28541   */\n      swap1\n      pop\n        /* \"#utility.yul\":28589:28593   */\n      0x20\n        /* \"#utility.yul\":28581:28587   */\n      dup5\n        /* \"#utility.yul\":28577:28594   */\n      mul\n        /* \"#utility.yul\":28569:28575   */\n      dup4\n        /* \"#utility.yul\":28565:28595   */\n      add\n        /* \"#utility.yul\":28618:28621   */\n      dup6\n        /* \"#utility.yul\":28610:28616   */\n      dup2\n        /* \"#utility.yul\":28607:28622   */\n      gt\n        /* \"#utility.yul\":28604:28726   */\n      iszero\n      tag_714\n      jumpi\n        /* \"#utility.yul\":28637:28716   */\n      tag_715\n      tag_361\n      jump\t// in\n    tag_715:\n        /* \"#utility.yul\":28604:28726   */\n    tag_714:\n        /* \"#utility.yul\":28752:28758   */\n      dup4\n        /* \"#utility.yul\":28735:28966   */\n    tag_716:\n        /* \"#utility.yul\":28769:28775   */\n      dup2\n        /* \"#utility.yul\":28764:28767   */\n      dup2\n        /* \"#utility.yul\":28761:28776   */\n      lt\n        /* \"#utility.yul\":28735:28966   */\n      iszero\n      tag_718\n      jumpi\n        /* \"#utility.yul\":28844:28847   */\n      dup1\n        /* \"#utility.yul\":28873:28921   */\n      tag_719\n        /* \"#utility.yul\":28917:28920   */\n      dup9\n        /* \"#utility.yul\":28905:28915   */\n      dup3\n        /* \"#utility.yul\":28873:28921   */\n      tag_434\n      jump\t// in\n    tag_719:\n        /* \"#utility.yul\":28868:28871   */\n      dup5\n        /* \"#utility.yul\":28861:28922   */\n      mstore\n        /* \"#utility.yul\":28951:28955   */\n      0x20\n        /* \"#utility.yul\":28946:28949   */\n      dup5\n        /* \"#utility.yul\":28942:28956   */\n      add\n        /* \"#utility.yul\":28935:28956   */\n      swap4\n      pop\n        /* \"#utility.yul\":28811:28966   */\n      pop\n        /* \"#utility.yul\":28795:28799   */\n      0x20\n        /* \"#utility.yul\":28790:28793   */\n      dup2\n        /* \"#utility.yul\":28786:28800   */\n      add\n        /* \"#utility.yul\":28779:28800   */\n      swap1\n      pop\n        /* \"#utility.yul\":28735:28966   */\n      jump(tag_716)\n    tag_718:\n        /* \"#utility.yul\":28739:28760   */\n      pop\n        /* \"#utility.yul\":28353:28972   */\n      pop\n      pop\n        /* \"#utility.yul\":28240:28972   */\n      swap4\n      swap3\n      pop\n      pop\n      pop\n      jump\t// out\n        /* \"#utility.yul\":28995:29380   */\n    tag_436:\n        /* \"#utility.yul\":29077:29082   */\n      0x00\n        /* \"#utility.yul\":29126:29129   */\n      dup3\n        /* \"#utility.yul\":29119:29123   */\n      0x1f\n        /* \"#utility.yul\":29111:29117   */\n      dup4\n        /* \"#utility.yul\":29107:29124   */\n      add\n        /* \"#utility.yul\":29103:29130   */\n      slt\n        /* \"#utility.yul\":29093:29215   */\n      tag_721\n      jumpi\n        /* \"#utility.yul\":29134:29213   */\n      tag_722\n      tag_359\n      jump\t// in\n    tag_722:\n        /* \"#utility.yul\":29093:29215   */\n    tag_721:\n        /* \"#utility.yul\":29244:29250   */\n      dup2\n        /* \"#utility.yul\":29238:29251   */\n      mload\n        /* \"#utility.yul\":29269:29374   */\n      tag_723\n        /* \"#utility.yul\":29370:29373   */\n      dup5\n        /* \"#utility.yul\":29362:29368   */\n      dup3\n        /* \"#utility.yul\":29355:29359   */\n      0x20\n        /* \"#utility.yul\":29347:29353   */\n      dup7\n        /* \"#utility.yul\":29343:29360   */\n      add\n        /* \"#utility.yul\":29269:29374   */\n      tag_435\n      jump\t// in\n    tag_723:\n        /* \"#utility.yul\":29260:29374   */\n      swap2\n      pop\n        /* \"#utility.yul\":29083:29380   */\n      pop\n        /* \"#utility.yul\":28995:29380   */\n      swap3\n      swap2\n      pop\n      pop\n      jump\t// out\n        /* \"#utility.yul\":29386:29940   */\n    tag_245:\n        /* \"#utility.yul\":29481:29487   */\n      0x00\n        /* \"#utility.yul\":29530:29532   */\n      0x20\n        /* \"#utility.yul\":29518:29527   */\n      dup3\n        /* \"#utility.yul\":29509:29516   */\n      dup5\n        /* \"#utility.yul\":29505:29528   */\n      sub\n        /* \"#utility.yul\":29501:29533   */\n      slt\n        /* \"#utility.yul\":29498:29617   */\n      iszero\n      tag_725\n      jumpi\n        /* \"#utility.yul\":29536:29615   */\n      tag_726\n      tag_357\n      jump\t// in\n    tag_726:\n        /* \"#utility.yul\":29498:29617   */\n    tag_725:\n        /* \"#utility.yul\":29677:29678   */\n      0x00\n        /* \"#utility.yul\":29666:29675   */\n      dup3\n        /* \"#utility.yul\":29662:29679   */\n      add\n        /* \"#utility.yul\":29656:29680   */\n      mload\n        /* \"#utility.yul\":29707:29725   */\n      0xffffffffffffffff\n        /* \"#utility.yul\":29699:29705   */\n      dup2\n        /* \"#utility.yul\":29696:29726   */\n      gt\n        /* \"#utility.yul\":29693:29810   */\n      iszero\n      tag_727\n      jumpi\n        /* \"#utility.yul\":29729:29808   */\n      tag_728\n      tag_358\n      jump\t// in\n    tag_728:\n        /* \"#utility.yul\":29693:29810   */\n    tag_727:\n        /* \"#utility.yul\":29834:29923   */\n      tag_729\n        /* \"#utility.yul\":29915:29922   */\n      dup5\n        /* \"#utility.yul\":29906:29912   */\n      dup3\n        /* \"#utility.yul\":29895:29904   */\n      dup6\n        /* \"#utility.yul\":29891:29913   */\n      add\n        /* \"#utility.yul\":29834:29923   */\n      tag_436\n      jump\t// in\n    tag_729:\n        /* \"#utility.yul\":29824:29923   */\n      swap2\n      pop\n        /* \"#utility.yul\":29627:29933   */\n      pop\n        /* \"#utility.yul\":29386:29940   */\n      swap3\n      swap2\n      pop\n      pop\n      jump\t// out\n        /* \"#utility.yul\":29946:30256   */\n    tag_437:\n        /* \"#utility.yul\":30022:30026   */\n      0x00\n        /* \"#utility.yul\":30112:30130   */\n      0xffffffffffffffff\n        /* \"#utility.yul\":30104:30110   */\n      dup3\n        /* \"#utility.yul\":30101:30131   */\n      gt\n        /* \"#utility.yul\":30098:30154   */\n      iszero\n      tag_731\n      jumpi\n        /* \"#utility.yul\":30134:30152   */\n      tag_732\n      tag_248\n      jump\t// in\n    tag_732:\n        /* \"#utility.yul\":30098:30154   */\n    tag_731:\n        /* \"#utility.yul\":30184:30188   */\n      0x20\n        /* \"#utility.yul\":30176:30182   */\n      dup3\n        /* \"#utility.yul\":30172:30189   */\n      mul\n        /* \"#utility.yul\":30164:30189   */\n      swap1\n      pop\n        /* \"#utility.yul\":30244:30248   */\n      0x20\n        /* \"#utility.yul\":30238:30242   */\n      dup2\n        /* \"#utility.yul\":30234:30249   */\n      add\n        /* \"#utility.yul\":30226:30249   */\n      swap1\n      pop\n        /* \"#utility.yul\":29946:30256   */\n      swap2\n      swap1\n      pop\n      jump\t// out\n        /* \"#utility.yul\":30262:30403   */\n    tag_438:\n        /* \"#utility.yul\":30318:30323   */\n      0x00\n        /* \"#utility.yul\":30349:30355   */\n      dup2\n        /* \"#utility.yul\":30343:30356   */\n      mload\n        /* \"#utility.yul\":30334:30356   */\n      swap1\n      pop\n        /* \"#utility.yul\":30365:30397   */\n      tag_734\n        /* \"#utility.yul\":30391:30396   */\n      dup2\n        /* \"#utility.yul\":30365:30397   */\n      tag_393\n      jump\t// in\n    tag_734:\n        /* \"#utility.yul\":30262:30403   */\n      swap3\n      swap2\n      pop\n      pop\n      jump\t// out\n        /* \"#utility.yul\":30425:31154   */\n    tag_439:\n        /* \"#utility.yul\":30531:30536   */\n      0x00\n        /* \"#utility.yul\":30556:30636   */\n      tag_736\n        /* \"#utility.yul\":30572:30635   */\n      tag_737\n        /* \"#utility.yul\":30628:30634   */\n      dup5\n        /* \"#utility.yul\":30572:30635   */\n      tag_437\n      jump\t// in\n    tag_737:\n        /* \"#utility.yul\":30556:30636   */\n      tag_432\n      jump\t// in\n    tag_736:\n        /* \"#utility.yul\":30547:30636   */\n      swap1\n      pop\n        /* \"#utility.yul\":30656:30661   */\n      dup1\n        /* \"#utility.yul\":30685:30691   */\n      dup4\n        /* \"#utility.yul\":30678:30683   */\n      dup3\n        /* \"#utility.yul\":30671:30692   */\n      mstore\n        /* \"#utility.yul\":30719:30723   */\n      0x20\n        /* \"#utility.yul\":30712:30717   */\n      dup3\n        /* \"#utility.yul\":30708:30724   */\n      add\n        /* \"#utility.yul\":30701:30724   */\n      swap1\n      pop\n        /* \"#utility.yul\":30772:30776   */\n      0x20\n        /* \"#utility.yul\":30764:30770   */\n      dup5\n        /* \"#utility.yul\":30760:30777   */\n      mul\n        /* \"#utility.yul\":30752:30758   */\n      dup4\n        /* \"#utility.yul\":30748:30778   */\n      add\n        /* \"#utility.yul\":30801:30804   */\n      dup6\n        /* \"#utility.yul\":30793:30799   */\n      dup2\n        /* \"#utility.yul\":30790:30805   */\n      gt\n        /* \"#utility.yul\":30787:30909   */\n      iszero\n      tag_738\n      jumpi\n        /* \"#utility.yul\":30820:30899   */\n      tag_739\n      tag_361\n      jump\t// in\n    tag_739:\n        /* \"#utility.yul\":30787:30909   */\n    tag_738:\n        /* \"#utility.yul\":30935:30941   */\n      dup4\n        /* \"#utility.yul\":30918:31148   */\n    tag_740:\n        /* \"#utility.yul\":30952:30958   */\n      dup2\n        /* \"#utility.yul\":30947:30950   */\n      dup2\n        /* \"#utility.yul\":30944:30959   */\n      lt\n        /* \"#utility.yul\":30918:31148   */\n      iszero\n      tag_742\n      jumpi\n        /* \"#utility.yul\":31027:31030   */\n      dup1\n        /* \"#utility.yul\":31056:31103   */\n      tag_743\n        /* \"#utility.yul\":31099:31102   */\n      dup9\n        /* \"#utility.yul\":31087:31097   */\n      dup3\n        /* \"#utility.yul\":31056:31103   */\n      tag_438\n      jump\t// in\n    tag_743:\n        /* \"#utility.yul\":31051:31054   */\n      dup5\n        /* \"#utility.yul\":31044:31104   */\n      mstore\n        /* \"#utility.yul\":31133:31137   */\n      0x20\n        /* \"#utility.yul\":31128:31131   */\n      dup5\n        /* \"#utility.yul\":31124:31138   */\n      add\n        /* \"#utility.yul\":31117:31138   */\n      swap4\n      pop\n        /* \"#utility.yul\":30994:31148   */\n      pop\n        /* \"#utility.yul\":30978:30982   */\n      0x20\n        /* \"#utility.yul\":30973:30976   */\n      dup2\n        /* \"#utility.yul\":30969:30983   */\n      add\n        /* \"#utility.yul\":30962:30983   */\n      swap1\n      pop\n        /* \"#utility.yul\":30918:31148   */\n      jump(tag_740)\n    tag_742:\n        /* \"#utility.yul\":30922:30943   */\n      pop\n        /* \"#utility.yul\":30537:31154   */\n      pop\n      pop\n        /* \"#utility.yul\":30425:31154   */\n      swap4\n      swap3\n      pop\n      pop\n      pop\n      jump\t// out\n        /* \"#utility.yul\":31176:31559   */\n    tag_440:\n        /* \"#utility.yul\":31257:31262   */\n      0x00\n        /* \"#utility.yul\":31306:31309   */\n      dup3\n        /* \"#utility.yul\":31299:31303   */\n      0x1f\n        /* \"#utility.yul\":31291:31297   */\n      dup4\n        /* \"#utility.yul\":31287:31304   */\n      add\n        /* \"#utility.yul\":31283:31310   */\n      slt\n        /* \"#utility.yul\":31273:31395   */\n      tag_745\n      jumpi\n        /* \"#utility.yul\":31314:31393   */\n      tag_746\n      tag_359\n      jump\t// in\n    tag_746:\n        /* \"#utility.yul\":31273:31395   */\n    tag_745:\n        /* \"#utility.yul\":31424:31430   */\n      dup2\n        /* \"#utility.yul\":31418:31431   */\n      mload\n        /* \"#utility.yul\":31449:31553   */\n      tag_747\n        /* \"#utility.yul\":31549:31552   */\n      dup5\n        /* \"#utility.yul\":31541:31547   */\n      dup3\n        /* \"#utility.yul\":31534:31538   */\n      0x20\n        /* \"#utility.yul\":31526:31532   */\n      dup7\n        /* \"#utility.yul\":31522:31539   */\n      add\n        /* \"#utility.yul\":31449:31553   */\n      tag_439\n      jump\t// in\n    tag_747:\n        /* \"#utility.yul\":31440:31553   */\n      swap2\n      pop\n        /* \"#utility.yul\":31263:31559   */\n      pop\n        /* \"#utility.yul\":31176:31559   */\n      swap3\n      swap2\n      pop\n      pop\n      jump\t// out\n        /* \"#utility.yul\":31565:32117   */\n    tag_273:\n        /* \"#utility.yul\":31659:31665   */\n      0x00\n        /* \"#utility.yul\":31708:31710   */\n      0x20\n        /* \"#utility.yul\":31696:31705   */\n      dup3\n        /* \"#utility.yul\":31687:31694   */\n      dup5\n        /* \"#utility.yul\":31683:31706   */\n      sub\n        /* \"#utility.yul\":31679:31711   */\n      slt\n        /* \"#utility.yul\":31676:31795   */\n      iszero\n      tag_749\n      jumpi\n        /* \"#utility.yul\":31714:31793   */\n      tag_750\n      tag_357\n      jump\t// in\n    tag_750:\n        /* \"#utility.yul\":31676:31795   */\n    tag_749:\n        /* \"#utility.yul\":31855:31856   */\n      0x00\n        /* \"#utility.yul\":31844:31853   */\n      dup3\n        /* \"#utility.yul\":31840:31857   */\n      add\n        /* \"#utility.yul\":31834:31858   */\n      mload\n        /* \"#utility.yul\":31885:31903   */\n      0xffffffffffffffff\n        /* \"#utility.yul\":31877:31883   */\n      dup2\n        /* \"#utility.yul\":31874:31904   */\n      gt\n        /* \"#utility.yul\":31871:31988   */\n      iszero\n      tag_751\n      jumpi\n        /* \"#utility.yul\":31907:31986   */\n      tag_752\n      tag_358\n      jump\t// in\n    tag_752:\n        /* \"#utility.yul\":31871:31988   */\n    tag_751:\n        /* \"#utility.yul\":32012:32100   */\n      tag_753\n        /* \"#utility.yul\":32092:32099   */\n      dup5\n        /* \"#utility.yul\":32083:32089   */\n      dup3\n        /* \"#utility.yul\":32072:32081   */\n      dup6\n        /* \"#utility.yul\":32068:32090   */\n      add\n        /* \"#utility.yul\":32012:32100   */\n      tag_440\n      jump\t// in\n    tag_753:\n        /* \"#utility.yul\":32002:32100   */\n      swap2\n      pop\n        /* \"#utility.yul\":31805:32110   */\n      pop\n        /* \"#utility.yul\":31565:32117   */\n      swap3\n      swap2\n      pop\n      pop\n      jump\t// out\n\n    auxdata: 0xa26469706673582212206062c7240bb0279ac2dbe6255d53e0978d7571253e5c0757280bb11cc7ea034464736f6c63430008120033\n}\n",
				"bytecode": {
					"linkReferences": {},
					"object": "608060405234801561001057600080fd5b50612b0e806100206000396000f3fe6080604052600436106100955760003560e01c80637d86195c116100595780637d86195c14610262578063a4666aeb1461029f578063adfca15e146102dc578063cdffacc614610319578063f58b911d1461035657610096565b806302c856971461018d5780630e90f45d146101b85780631f931c1c146101e357806352ef6b2c1461020c5780637a0ed6271461023757610096565b5b600080600080357fffffffff00000000000000000000000000000000000000000000000000000000167bffffffffffffffffffffffffffffffffffffffffffffffffffffffff19167bffffffffffffffffffffffffffffffffffffffffffffffffffffffff1916815260200190815260200160002060009054906101000a900473ffffffffffffffffffffffffffffffffffffffff169050600073ffffffffffffffffffffffffffffffffffffffff168173ffffffffffffffffffffffffffffffffffffffff160361016757600080fd5b3660008037600080366000845af43d6000803e8060008114610188573d6000f35b3d6000fd5b34801561019957600080fd5b506101a2610393565b6040516101af9190611b94565b60405180910390f35b3480156101c457600080fd5b506101cd6103ab565b6040516101da9190611b94565b60405180910390f35b3480156101ef57600080fd5b5061020a60048036038101906102059190611cdc565b6103c3565b005b34801561021857600080fd5b50610221610ef4565b60405161022e9190611e2f565b60405180910390f35b34801561024357600080fd5b5061024c610f82565b604051610259919061203a565b60405180910390f35b34801561026e57600080fd5b5061028960048036038101906102849190612088565b6112d9565b60405161029691906120c4565b60405180910390f35b3480156102ab57600080fd5b506102c660048036038101906102c1919061210b565b611318565b6040516102d391906120c4565b60405180910390f35b3480156102e857600080fd5b5061030360048036038101906102fe9190612138565b61134b565b60405161031091906121d4565b60405180910390f35b34801561032557600080fd5b50610340600480360381019061033b919061210b565b61164f565b60405161034d91906120c4565b60405180910390f35b34801561036257600080fd5b5061037d60048036038101906103789190612088565b6116c9565b60405161038a9190612205565b60405180910390f35b60008061039e611700565b9050806001015491505090565b6000806103b6611700565b9050806000015491505090565b60005b85859050811015610dab57600060028111156103e5576103e4612220565b5b8686838181106103f8576103f761224f565b5b905060200281019061040a919061228d565b602001602081019061041c91906122da565b600281111561042e5761042d612220565b5b036107485760005b8686838181106104495761044861224f565b5b905060200281019061045b919061228d565b806040019061046a9190612307565b905081101561074657600073ffffffffffffffffffffffffffffffffffffffff166000808989868181106104a1576104a061224f565b5b90506020028101906104b3919061228d565b80604001906104c29190612307565b858181106104d3576104d261224f565b5b90506020020160208101906104e8919061210b565b7bffffffffffffffffffffffffffffffffffffffffffffffffffffffff19167bffffffffffffffffffffffffffffffffffffffffffffffffffffffff1916815260200190815260200160002060009054906101000a900473ffffffffffffffffffffffffffffffffffffffff1673ffffffffffffffffffffffffffffffffffffffff1603610733578686838181106105835761058261224f565b5b9050602002810190610595919061228d565b60000160208101906105a79190612138565b6000808989868181106105bd576105bc61224f565b5b90506020028101906105cf919061228d565b80604001906105de9190612307565b858181106105ef576105ee61224f565b5b9050602002016020810190610604919061210b565b7bffffffffffffffffffffffffffffffffffffffffffffffffffffffff19167bffffffffffffffffffffffffffffffffffffffffffffffffffffffff1916815260200190815260200160002060006101000a81548173ffffffffffffffffffffffffffffffffffffffff021916908373ffffffffffffffffffffffffffffffffffffffff16021790555060018787848181106106a3576106a261224f565b5b90506020028101906106b5919061228d565b80604001906106c49190612307565b838181106106d5576106d461224f565b5b90506020020160208101906106ea919061210b565b90806001815401808255809150506001900390600052602060002090600891828204019190066004029091909190916101000a81548163ffffffff021916908360e01c02179055505b808061073e90612399565b915050610436565b505b6001600281111561075c5761075b612220565b5b86868381811061076f5761076e61224f565b5b9050602002810190610781919061228d565b602001602081019061079391906122da565b60028111156107a5576107a4612220565b5b03610a1b5760005b8686838181106107c0576107bf61224f565b5b90506020028101906107d2919061228d565b80604001906107e19190612307565b9050811015610a1957600073ffffffffffffffffffffffffffffffffffffffff166000808989868181106108185761081761224f565b5b905060200281019061082a919061228d565b80604001906108399190612307565b8581811061084a5761084961224f565b5b905060200201602081019061085f919061210b565b7bffffffffffffffffffffffffffffffffffffffffffffffffffffffff19167bffffffffffffffffffffffffffffffffffffffffffffffffffffffff1916815260200190815260200160002060009054906101000a900473ffffffffffffffffffffffffffffffffffffffff1673ffffffffffffffffffffffffffffffffffffffff1614610a06578686838181106108fa576108f961224f565b5b905060200281019061090c919061228d565b600001602081019061091e9190612138565b6000808989868181106109345761093361224f565b5b9050602002810190610946919061228d565b80604001906109559190612307565b858181106109665761096561224f565b5b905060200201602081019061097b919061210b565b7bffffffffffffffffffffffffffffffffffffffffffffffffffffffff19167bffffffffffffffffffffffffffffffffffffffffffffffffffffffff1916815260200190815260200160002060006101000a81548173ffffffffffffffffffffffffffffffffffffffff021916908373ffffffffffffffffffffffffffffffffffffffff1602179055505b8080610a1190612399565b9150506107ad565b505b600280811115610a2e57610a2d612220565b5b868683818110610a4157610a4061224f565b5b9050602002810190610a53919061228d565b6020016020810190610a6591906122da565b6002811115610a7757610a76612220565b5b03610d985760005b868683818110610a9257610a9161224f565b5b9050602002810190610aa4919061228d565b8060400190610ab39190612307565b9050811015610d96576000806000898986818110610ad457610ad361224f565b5b9050602002810190610ae6919061228d565b8060400190610af59190612307565b85818110610b0657610b0561224f565b5b9050602002016020810190610b1b919061210b565b7bffffffffffffffffffffffffffffffffffffffffffffffffffffffff19167bffffffffffffffffffffffffffffffffffffffffffffffffffffffff1916815260200190815260200160002060006101000a81548173ffffffffffffffffffffffffffffffffffffffff021916908373ffffffffffffffffffffffffffffffffffffffff16021790555060005b600180549050811015610d8257878784818110610bc857610bc761224f565b5b9050602002810190610bda919061228d565b8060400190610be99190612307565b83818110610bfa57610bf961224f565b5b9050602002016020810190610c0f919061210b565b7bffffffffffffffffffffffffffffffffffffffffffffffffffffffff191660018281548110610c4257610c4161224f565b5b90600052602060002090600891828204019190066004029054906101000a900460e01b7bffffffffffffffffffffffffffffffffffffffffffffffffffffffff191603610d6f5760018080549050610c9a91906123e1565b811015610d6e576001808080549050610cb391906123e1565b81548110610cc457610cc361224f565b5b90600052602060002090600891828204019190066004029054906101000a900460e01b60018281548110610cfb57610cfa61224f565b5b90600052602060002090600891828204019190066004026101000a81548163ffffffff021916908360e01c02179055506001805480610d3d57610d3c612415565b5b60019003818190600052602060002090600891828204019190066004026101000a81549063ffffffff021916905590555b5b8080610d7a90612399565b915050610ba8565b508080610d8e90612399565b915050610a7f565b505b8080610da390612399565b9150506103c6565b50610db461172d565b60029080519060200190610dc9929190611aa4565b507f8faa70878671ccd212d20771b795c50af8fd3ff6cf27f4bde57e5d4de0aeb6738585858585604051610e01959493929190612757565b60405180910390a1600073ffffffffffffffffffffffffffffffffffffffff168373ffffffffffffffffffffffffffffffffffffffff1614610eed5760008373ffffffffffffffffffffffffffffffffffffffff168383604051610e669291906127d0565b600060405180830381855af49150503d8060008114610ea1576040519150601f19603f3d011682016040523d82523d6000602084013e610ea6565b606091505b5050905080610eeb577ff7799c13936fa7e564cd208124650df4af9063ed8b45000d2442efdb081b7759848484604051610ee2939291906127e9565b60405180910390a15b505b5050505050565b60606002805480602002602001604051908101604052809291908181526020018280548015610f7857602002820191906000526020600020905b8160009054906101000a900473ffffffffffffffffffffffffffffffffffffffff1673ffffffffffffffffffffffffffffffffffffffff1681526020019060010190808311610f2e575b5050505050905090565b60603073ffffffffffffffffffffffffffffffffffffffff166352ef6b2c6040518163ffffffff1660e01b8152600401600060405180830381865afa158015610fcf573d6000803e3d6000fd5b505050506040513d6000823e3d601f19601f82011682018060405250810190610ff8919061296e565b5167ffffffffffffffff8111156110125761101161281b565b5b60405190808252806020026020018201604052801561104b57816020015b611038611b2e565b8152602001906001900390816110305790505b5090506000805b3073ffffffffffffffffffffffffffffffffffffffff166352ef6b2c6040518163ffffffff1660e01b8152600401600060405180830381865afa15801561109d573d6000803e3d6000fd5b505050506040513d6000823e3d601f19601f820116820180604052508101906110c6919061296e565b518110156112d457600060405180604001604052803073ffffffffffffffffffffffffffffffffffffffff166352ef6b2c6040518163ffffffff1660e01b8152600401600060405180830381865afa158015611126573d6000803e3d6000fd5b505050506040513d6000823e3d601f19601f8201168201806040525081019061114f919061296e565b84815181106111615761116061224f565b5b602002602001015173ffffffffffffffffffffffffffffffffffffffff1681526020013073ffffffffffffffffffffffffffffffffffffffff1663adfca15e3073ffffffffffffffffffffffffffffffffffffffff166352ef6b2c6040518163ffffffff1660e01b8152600401600060405180830381865afa1580156111eb573d6000803e3d6000fd5b505050506040513d6000823e3d601f19601f82011682018060405250810190611214919061296e565b86815181106112265761122561224f565b5b60200260200101516040518263ffffffff1660e01b815260040161124a91906120c4565b600060405180830381865afa158015611267573d6000803e3d6000fd5b505050506040513d6000823e3d601f19601f820116820180604052508101906112909190612a8f565b8152509050808484806112a290612399565b9550815181106112b5576112b461224f565b5b60200260200101819052505080806112cc90612399565b915050611052565b505090565b600281815481106112e957600080fd5b906000526020600020016000915054906101000a900473ffffffffffffffffffffffffffffffffffffffff1681565b60006020528060005260406000206000915054906101000a900473ffffffffffffffffffffffffffffffffffffffff1681565b60606000805b600180549050811015611459578373ffffffffffffffffffffffffffffffffffffffff166000806001848154811061138c5761138b61224f565b5b90600052602060002090600891828204019190066004029054906101000a900460e01b7bffffffffffffffffffffffffffffffffffffffffffffffffffffffff19167bffffffffffffffffffffffffffffffffffffffffffffffffffffffff1916815260200190815260200160002060009054906101000a900473ffffffffffffffffffffffffffffffffffffffff1673ffffffffffffffffffffffffffffffffffffffff160361144657818061144290612399565b9250505b808061145190612399565b915050611351565b508067ffffffffffffffff8111156114745761147361281b565b5b6040519080825280602002602001820160405280156114a25781602001602082028036833780820191505090505b5091506000905060005b600180549050811015611648578373ffffffffffffffffffffffffffffffffffffffff16600080600184815481106114e7576114e661224f565b5b90600052602060002090600891828204019190066004029054906101000a900460e01b7bffffffffffffffffffffffffffffffffffffffffffffffffffffffff19167bffffffffffffffffffffffffffffffffffffffffffffffffffffffff1916815260200190815260200160002060009054906101000a900473ffffffffffffffffffffffffffffffffffffffff1673ffffffffffffffffffffffffffffffffffffffff160361163557600181815481106115a6576115a561224f565b5b90600052602060002090600891828204019190066004029054906101000a900460e01b8383806115d590612399565b9450815181106115e8576115e761224f565b5b60200260200101907bffffffffffffffffffffffffffffffffffffffffffffffffffffffff191690817bffffffffffffffffffffffffffffffffffffffffffffffffffffffff1916815250505b808061164090612399565b9150506114ac565b5050919050565b6000806000837bffffffffffffffffffffffffffffffffffffffffffffffffffffffff19167bffffffffffffffffffffffffffffffffffffffffffffffffffffffff1916815260200190815260200160002060009054906101000a900473ffffffffffffffffffffffffffffffffffffffff169050919050565b600181815481106116d957600080fd5b9060005260206000209060089182820401919006600402915054906101000a900460e01b81565b6000807f20bdb322702e8f31eb02a18e466059b6b3224433a6e129849583a03f267f40a390508091505090565b6060600060018054905067ffffffffffffffff8111156117505761174f61281b565b5b60405190808252806020026020018201604052801561177e5781602001602082028036833780820191505090505b5090506000805b6001805490508110156119cc57600080600090505b838110156118ad578481815181106117b5576117b461224f565b5b602002602001015173ffffffffffffffffffffffffffffffffffffffff16600080600186815481106117ea576117e961224f565b5b90600052602060002090600891828204019190066004029054906101000a900460e01b7bffffffffffffffffffffffffffffffffffffffffffffffffffffffff19167bffffffffffffffffffffffffffffffffffffffffffffffffffffffff1916815260200190815260200160002060009054906101000a900473ffffffffffffffffffffffffffffffffffffffff1673ffffffffffffffffffffffffffffffffffffffff160361189a57600191505b80806118a590612399565b91505061179a565b50806119b457600080600184815481106118ca576118c961224f565b5b90600052602060002090600891828204019190066004029054906101000a900460e01b7bffffffffffffffffffffffffffffffffffffffffffffffffffffffff19167bffffffffffffffffffffffffffffffffffffffffffffffffffffffff1916815260200190815260200160002060009054906101000a900473ffffffffffffffffffffffffffffffffffffffff1684848061196690612399565b9550815181106119795761197861224f565b5b602002602001019073ffffffffffffffffffffffffffffffffffffffff16908173ffffffffffffffffffffffffffffffffffffffff16815250505b600090505080806119c490612399565b915050611785565b508067ffffffffffffffff8111156119e7576119e661281b565b5b604051908082528060200260200182016040528015611a155781602001602082028036833780820191505090505b50925060005b81811015611a9e57828181518110611a3657611a3561224f565b5b6020026020010151848281518110611a5157611a5061224f565b5b602002602001019073ffffffffffffffffffffffffffffffffffffffff16908173ffffffffffffffffffffffffffffffffffffffff16815250508080611a9690612399565b915050611a1b565b50505090565b828054828255906000526020600020908101928215611b1d579160200282015b82811115611b1c5782518260006101000a81548173ffffffffffffffffffffffffffffffffffffffff021916908373ffffffffffffffffffffffffffffffffffffffff16021790555091602001919060010190611ac4565b5b509050611b2a9190611b5e565b5090565b6040518060400160405280600073ffffffffffffffffffffffffffffffffffffffff168152602001606081525090565b5b80821115611b77576000816000905550600101611b5f565b5090565b6000819050919050565b611b8e81611b7b565b82525050565b6000602082019050611ba96000830184611b85565b92915050565b6000604051905090565b600080fd5b600080fd5b600080fd5b600080fd5b600080fd5b60008083601f840112611be857611be7611bc3565b5b8235905067ffffffffffffffff811115611c0557611c04611bc8565b5b602083019150836020820283011115611c2157611c20611bcd565b5b9250929050565b600073ffffffffffffffffffffffffffffffffffffffff82169050919050565b6000611c5382611c28565b9050919050565b611c6381611c48565b8114611c6e57600080fd5b50565b600081359050611c8081611c5a565b92915050565b60008083601f840112611c9c57611c9b611bc3565b5b8235905067ffffffffffffffff811115611cb957611cb8611bc8565b5b602083019150836001820283011115611cd557611cd4611bcd565b5b9250929050565b600080600080600060608688031215611cf857611cf7611bb9565b5b600086013567ffffffffffffffff811115611d1657611d15611bbe565b5b611d2288828901611bd2565b95509550506020611d3588828901611c71565b935050604086013567ffffffffffffffff811115611d5657611d55611bbe565b5b611d6288828901611c86565b92509250509295509295909350565b600081519050919050565b600082825260208201905092915050565b6000819050602082019050919050565b611da681611c48565b82525050565b6000611db88383611d9d565b60208301905092915050565b6000602082019050919050565b6000611ddc82611d71565b611de68185611d7c565b9350611df183611d8d565b8060005b83811015611e22578151611e098882611dac565b9750611e1483611dc4565b925050600181019050611df5565b5085935050505092915050565b60006020820190508181036000830152611e498184611dd1565b905092915050565b600081519050919050565b600082825260208201905092915050565b6000819050602082019050919050565b600081519050919050565b600082825260208201905092915050565b6000819050602082019050919050565b60007fffffffff0000000000000000000000000000000000000000000000000000000082169050919050565b611ede81611ea9565b82525050565b6000611ef08383611ed5565b60208301905092915050565b6000602082019050919050565b6000611f1482611e7d565b611f1e8185611e88565b9350611f2983611e99565b8060005b83811015611f5a578151611f418882611ee4565b9750611f4c83611efc565b925050600181019050611f2d565b5085935050505092915050565b6000604083016000830151611f7f6000860182611d9d565b5060208301518482036020860152611f978282611f09565b9150508091505092915050565b6000611fb08383611f67565b905092915050565b6000602082019050919050565b6000611fd082611e51565b611fda8185611e5c565b935083602082028501611fec85611e6d565b8060005b8581101561202857848403895281516120098582611fa4565b945061201483611fb8565b925060208a01995050600181019050611ff0565b50829750879550505050505092915050565b600060208201905081810360008301526120548184611fc5565b905092915050565b61206581611b7b565b811461207057600080fd5b50565b6000813590506120828161205c565b92915050565b60006020828403121561209e5761209d611bb9565b5b60006120ac84828501612073565b91505092915050565b6120be81611c48565b82525050565b60006020820190506120d960008301846120b5565b92915050565b6120e881611ea9565b81146120f357600080fd5b50565b600081359050612105816120df565b92915050565b60006020828403121561212157612120611bb9565b5b600061212f848285016120f6565b91505092915050565b60006020828403121561214e5761214d611bb9565b5b600061215c84828501611c71565b91505092915050565b600082825260208201905092915050565b600061218182611e7d565b61218b8185612165565b935061219683611e99565b8060005b838110156121c75781516121ae8882611ee4565b97506121b983611efc565b92505060018101905061219a565b5085935050505092915050565b600060208201905081810360008301526121ee8184612176565b905092915050565b6121ff81611ea9565b82525050565b600060208201905061221a60008301846121f6565b92915050565b7f4e487b7100000000000000000000000000000000000000000000000000000000600052602160045260246000fd5b7f4e487b7100000000000000000000000000000000000000000000000000000000600052603260045260246000fd5b600080fd5b600080fd5b600080fd5b6000823560016060038336030381126122a9576122a861227e565b5b80830191505092915050565b600381106122c257600080fd5b50565b6000813590506122d4816122b5565b92915050565b6000602082840312156122f0576122ef611bb9565b5b60006122fe848285016122c5565b91505092915050565b600080833560016020038436030381126123245761232361227e565b5b80840192508235915067ffffffffffffffff82111561234657612345612283565b5b60208301925060208202360383131561236257612361612288565b5b509250929050565b7f4e487b7100000000000000000000000000000000000000000000000000000000600052601160045260246000fd5b60006123a482611b7b565b91507fffffffffffffffffffffffffffffffffffffffffffffffffffffffffffffffff82036123d6576123d561236a565b5b600182019050919050565b60006123ec82611b7b565b91506123f783611b7b565b925082820390508181111561240f5761240e61236a565b5b92915050565b7f4e487b7100000000000000000000000000000000000000000000000000000000600052603160045260246000fd5b600082825260208201905092915050565b6000819050919050565b600061246e6020840184611c71565b905092915050565b600061248560208401846122c5565b905092915050565b6003811061249e5761249d612220565b5b50565b60008190506124af8261248d565b919050565b60006124bf826124a1565b9050919050565b6124cf816124b4565b82525050565b600080fd5b600080fd5b600080fd5b60008083356001602003843603038112612501576125006124df565b5b83810192508235915060208301925067ffffffffffffffff821115612529576125286124d5565b5b60208202360383131561253f5761253e6124da565b5b509250929050565b6000819050919050565b600061256060208401846120f6565b905092915050565b6000602082019050919050565b60006125818385611e88565b935061258c82612547565b8060005b858110156125c5576125a28284612551565b6125ac8882611ee4565b97506125b783612568565b925050600181019050612590565b5085925050509392505050565b6000606083016125e5600084018461245f565b6125f26000860182611d9d565b506126006020840184612476565b61260d60208601826124c6565b5061261b60408401846124e4565b858303604087015261262e838284612575565b925050508091505092915050565b600061264883836125d2565b905092915050565b60008235600160600383360303811261266c5761266b6124df565b5b82810191505092915050565b6000602082019050919050565b60006126918385612444565b9350836020840285016126a384612455565b8060005b878110156126e75784840389526126be8284612650565b6126c8858261263c565b94506126d383612678565b925060208a019950506001810190506126a7565b50829750879450505050509392505050565b600082825260208201905092915050565b82818337600083830152505050565b6000601f19601f8301169050919050565b600061273683856126f9565b935061274383858461270a565b61274c83612719565b840190509392505050565b60006060820190508181036000830152612772818789612685565b905061278160208301866120b5565b818103604083015261279481848661272a565b90509695505050505050565b600081905092915050565b60006127b783856127a0565b93506127c483858461270a565b82840190509392505050565b60006127dd8284866127ab565b91508190509392505050565b60006040820190506127fe60008301866120b5565b818103602083015261281181848661272a565b9050949350505050565b7f4e487b7100000000000000000000000000000000000000000000000000000000600052604160045260246000fd5b61285382612719565b810181811067ffffffffffffffff821117156128725761287161281b565b5b80604052505050565b6000612885611baf565b9050612891828261284a565b919050565b600067ffffffffffffffff8211156128b1576128b061281b565b5b602082029050602081019050919050565b6000815190506128d181611c5a565b92915050565b60006128ea6128e584612896565b61287b565b9050808382526020820190506020840283018581111561290d5761290c611bcd565b5b835b81811015612936578061292288826128c2565b84526020840193505060208101905061290f565b5050509392505050565b600082601f83011261295557612954611bc3565b5b81516129658482602086016128d7565b91505092915050565b60006020828403121561298457612983611bb9565b5b600082015167ffffffffffffffff8111156129a2576129a1611bbe565b5b6129ae84828501612940565b91505092915050565b600067ffffffffffffffff8211156129d2576129d161281b565b5b602082029050602081019050919050565b6000815190506129f2816120df565b92915050565b6000612a0b612a06846129b7565b61287b565b90508083825260208201905060208402830185811115612a2e57612a2d611bcd565b5b835b81811015612a575780612a4388826129e3565b845260208401935050602081019050612a30565b5050509392505050565b600082601f830112612a7657612a75611bc3565b5b8151612a868482602086016129f8565b91505092915050565b600060208284031215612aa557612aa4611bb9565b5b600082015167ffffffffffffffff811115612ac357612ac2611bbe565b5b612acf84828501612a61565b9150509291505056fea26469706673582212206062c7240bb0279ac2dbe6255d53e0978d7571253e5c0757280bb11cc7ea034464736f6c63430008120033",
					"opcodes": "PUSH1 0x80 PUSH1 0x40 MSTORE CALLVALUE DUP1 ISZERO PUSH2 0x10 JUMPI PUSH1 0x0 DUP1 REVERT JUMPDEST POP PUSH2 0x2B0E DUP1 PUSH2 0x20 PUSH1 0x0 CODECOPY PUSH1 0x0 RETURN INVALID PUSH1 0x80 PUSH1 0x40 MSTORE PUSH1 0x4 CALLDATASIZE LT PUSH2 0x95 JUMPI PUSH1 0x0 CALLDATALOAD PUSH1 0xE0 SHR DUP1 PUSH4 0x7D86195C GT PUSH2 0x59 JUMPI DUP1 PUSH4 0x7D86195C EQ PUSH2 0x262 JUMPI DUP1 PUSH4 0xA4666AEB EQ PUSH2 0x29F JUMPI DUP1 PUSH4 0xADFCA15E EQ PUSH2 0x2DC JUMPI DUP1 PUSH4 0xCDFFACC6 EQ PUSH2 0x319 JUMPI DUP1 PUSH4 0xF58B911D EQ PUSH2 0x356 JUMPI PUSH2 0x96 JUMP JUMPDEST DUP1 PUSH4 0x2C85697 EQ PUSH2 0x18D JUMPI DUP1 PUSH4 0xE90F45D EQ PUSH2 0x1B8 JUMPI DUP1 PUSH4 0x1F931C1C EQ PUSH2 0x1E3 JUMPI DUP1 PUSH4 0x52EF6B2C EQ PUSH2 0x20C JUMPI DUP1 PUSH4 0x7A0ED627 EQ PUSH2 0x237 JUMPI PUSH2 0x96 JUMP JUMPDEST JUMPDEST PUSH1 0x0 DUP1 PUSH1 0x0 DUP1 CALLDATALOAD PUSH32 0xFFFFFFFF00000000000000000000000000000000000000000000000000000000 AND PUSH28 0xFFFFFFFFFFFFFFFFFFFFFFFFFFFFFFFFFFFFFFFFFFFFFFFFFFFFFFFF NOT AND PUSH28 0xFFFFFFFFFFFFFFFFFFFFFFFFFFFFFFFFFFFFFFFFFFFFFFFFFFFFFFFF NOT AND DUP2 MSTORE PUSH1 0x20 ADD SWAP1 DUP2 MSTORE PUSH1 0x20 ADD PUSH1 0x0 KECCAK256 PUSH1 0x0 SWAP1 SLOAD SWAP1 PUSH2 0x100 EXP SWAP1 DIV PUSH20 0xFFFFFFFFFFFFFFFFFFFFFFFFFFFFFFFFFFFFFFFF AND SWAP1 POP PUSH1 0x0 PUSH20 0xFFFFFFFFFFFFFFFFFFFFFFFFFFFFFFFFFFFFFFFF AND DUP2 PUSH20 0xFFFFFFFFFFFFFFFFFFFFFFFFFFFFFFFFFFFFFFFF AND SUB PUSH2 0x167 JUMPI PUSH1 0x0 DUP1 REVERT JUMPDEST CALLDATASIZE PUSH1 0x0 DUP1 CALLDATACOPY PUSH1 0x0 DUP1 CALLDATASIZE PUSH1 0x0 DUP5 GAS DELEGATECALL RETURNDATASIZE PUSH1 0x0 DUP1 RETURNDATACOPY DUP1 PUSH1 0x0 DUP2 EQ PUSH2 0x188 JUMPI RETURNDATASIZE PUSH1 0x0 RETURN JUMPDEST RETURNDATASIZE PUSH1 0x0 REVERT JUMPDEST CALLVALUE DUP1 ISZERO PUSH2 0x199 JUMPI PUSH1 0x0 DUP1 REVERT JUMPDEST POP PUSH2 0x1A2 PUSH2 0x393 JUMP JUMPDEST PUSH1 0x40 MLOAD PUSH2 0x1AF SWAP2 SWAP1 PUSH2 0x1B94 JUMP JUMPDEST PUSH1 0x40 MLOAD DUP1 SWAP2 SUB SWAP1 RETURN JUMPDEST CALLVALUE DUP1 ISZERO PUSH2 0x1C4 JUMPI PUSH1 0x0 DUP1 REVERT JUMPDEST POP PUSH2 0x1CD PUSH2 0x3AB JUMP JUMPDEST PUSH1 0x40 MLOAD PUSH2 0x1DA SWAP2 SWAP1 PUSH2 0x1B94 JUMP JUMPDEST PUSH1 0x40 MLOAD DUP1 SWAP2 SUB SWAP1 RETURN JUMPDEST CALLVALUE DUP1 ISZERO PUSH2 0x1EF JUMPI PUSH1 0x0 DUP1 REVERT JUMPDEST POP PUSH2 0x20A PUSH1 0x4 DUP1 CALLDATASIZE SUB DUP2 ADD SWAP1 PUSH2 0x205 SWAP2 SWAP1 PUSH2 0x1CDC JUMP JUMPDEST PUSH2 0x3C3 JUMP JUMPDEST STOP JUMPDEST CALLVALUE DUP1 ISZERO PUSH2 0x218 JUMPI PUSH1 0x0 DUP1 REVERT JUMPDEST POP PUSH2 0x221 PUSH2 0xEF4 JUMP JUMPDEST PUSH1 0x40 MLOAD PUSH2 0x22E SWAP2 SWAP1 PUSH2 0x1E2F JUMP JUMPDEST PUSH1 0x40 MLOAD DUP1 SWAP2 SUB SWAP1 RETURN JUMPDEST CALLVALUE DUP1 ISZERO PUSH2 0x243 JUMPI PUSH1 0x0 DUP1 REVERT JUMPDEST POP PUSH2 0x24C PUSH2 0xF82 JUMP JUMPDEST PUSH1 0x40 MLOAD PUSH2 0x259 SWAP2 SWAP1 PUSH2 0x203A JUMP JUMPDEST PUSH1 0x40 MLOAD DUP1 SWAP2 SUB SWAP1 RETURN JUMPDEST CALLVALUE DUP1 ISZERO PUSH2 0x26E JUMPI PUSH1 0x0 DUP1 REVERT JUMPDEST POP PUSH2 0x289 PUSH1 0x4 DUP1 CALLDATASIZE SUB DUP2 ADD SWAP1 PUSH2 0x284 SWAP2 SWAP1 PUSH2 0x2088 JUMP JUMPDEST PUSH2 0x12D9 JUMP JUMPDEST PUSH1 0x40 MLOAD PUSH2 0x296 SWAP2 SWAP1 PUSH2 0x20C4 JUMP JUMPDEST PUSH1 0x40 MLOAD DUP1 SWAP2 SUB SWAP1 RETURN JUMPDEST CALLVALUE DUP1 ISZERO PUSH2 0x2AB JUMPI PUSH1 0x0 DUP1 REVERT JUMPDEST POP PUSH2 0x2C6 PUSH1 0x4 DUP1 CALLDATASIZE SUB DUP2 ADD SWAP1 PUSH2 0x2C1 SWAP2 SWAP1 PUSH2 0x210B JUMP JUMPDEST PUSH2 0x1318 JUMP JUMPDEST PUSH1 0x40 MLOAD PUSH2 0x2D3 SWAP2 SWAP1 PUSH2 0x20C4 JUMP JUMPDEST PUSH1 0x40 MLOAD DUP1 SWAP2 SUB SWAP1 RETURN JUMPDEST CALLVALUE DUP1 ISZERO PUSH2 0x2E8 JUMPI PUSH1 0x0 DUP1 REVERT JUMPDEST POP PUSH2 0x303 PUSH1 0x4 DUP1 CALLDATASIZE SUB DUP2 ADD SWAP1 PUSH2 0x2FE SWAP2 SWAP1 PUSH2 0x2138 JUMP JUMPDEST PUSH2 0x134B JUMP JUMPDEST PUSH1 0x40 MLOAD PUSH2 0x310 SWAP2 SWAP1 PUSH2 0x21D4 JUMP JUMPDEST PUSH1 0x40 MLOAD DUP1 SWAP2 SUB SWAP1 RETURN JUMPDEST CALLVALUE DUP1 ISZERO PUSH2 0x325 JUMPI PUSH1 0x0 DUP1 REVERT JUMPDEST POP PUSH2 0x340 PUSH1 0x4 DUP1 CALLDATASIZE SUB DUP2 ADD SWAP1 PUSH2 0x33B SWAP2 SWAP1 PUSH2 0x210B JUMP JUMPDEST PUSH2 0x164F JUMP JUMPDEST PUSH1 0x40 MLOAD PUSH2 0x34D SWAP2 SWAP1 PUSH2 0x20C4 JUMP JUMPDEST PUSH1 0x40 MLOAD DUP1 SWAP2 SUB SWAP1 RETURN JUMPDEST CALLVALUE DUP1 ISZERO PUSH2 0x362 JUMPI PUSH1 0x0 DUP1 REVERT JUMPDEST POP PUSH2 0x37D PUSH1 0x4 DUP1 CALLDATASIZE SUB DUP2 ADD SWAP1 PUSH2 0x378 SWAP2 SWAP1 PUSH2 0x2088 JUMP JUMPDEST PUSH2 0x16C9 JUMP JUMPDEST PUSH1 0x40 MLOAD PUSH2 0x38A SWAP2 SWAP1 PUSH2 0x2205 JUMP JUMPDEST PUSH1 0x40 MLOAD DUP1 SWAP2 SUB SWAP1 RETURN JUMPDEST PUSH1 0x0 DUP1 PUSH2 0x39E PUSH2 0x1700 JUMP JUMPDEST SWAP1 POP DUP1 PUSH1 0x1 ADD SLOAD SWAP2 POP POP SWAP1 JUMP JUMPDEST PUSH1 0x0 DUP1 PUSH2 0x3B6 PUSH2 0x1700 JUMP JUMPDEST SWAP1 POP DUP1 PUSH1 0x0 ADD SLOAD SWAP2 POP POP SWAP1 JUMP JUMPDEST PUSH1 0x0 JUMPDEST DUP6 DUP6 SWAP1 POP DUP2 LT ISZERO PUSH2 0xDAB JUMPI PUSH1 0x0 PUSH1 0x2 DUP2 GT ISZERO PUSH2 0x3E5 JUMPI PUSH2 0x3E4 PUSH2 0x2220 JUMP JUMPDEST JUMPDEST DUP7 DUP7 DUP4 DUP2 DUP2 LT PUSH2 0x3F8 JUMPI PUSH2 0x3F7 PUSH2 0x224F JUMP JUMPDEST JUMPDEST SWAP1 POP PUSH1 0x20 MUL DUP2 ADD SWAP1 PUSH2 0x40A SWAP2 SWAP1 PUSH2 0x228D JUMP JUMPDEST PUSH1 0x20 ADD PUSH1 0x20 DUP2 ADD SWAP1 PUSH2 0x41C SWAP2 SWAP1 PUSH2 0x22DA JUMP JUMPDEST PUSH1 0x2 DUP2 GT ISZERO PUSH2 0x42E JUMPI PUSH2 0x42D PUSH2 0x2220 JUMP JUMPDEST JUMPDEST SUB PUSH2 0x748 JUMPI PUSH1 0x0 JUMPDEST DUP7 DUP7 DUP4 DUP2 DUP2 LT PUSH2 0x449 JUMPI PUSH2 0x448 PUSH2 0x224F JUMP JUMPDEST JUMPDEST SWAP1 POP PUSH1 0x20 MUL DUP2 ADD SWAP1 PUSH2 0x45B SWAP2 SWAP1 PUSH2 0x228D JUMP JUMPDEST DUP1 PUSH1 0x40 ADD SWAP1 PUSH2 0x46A SWAP2 SWAP1 PUSH2 0x2307 JUMP JUMPDEST SWAP1 POP DUP2 LT ISZERO PUSH2 0x746 JUMPI PUSH1 0x0 PUSH20 0xFFFFFFFFFFFFFFFFFFFFFFFFFFFFFFFFFFFFFFFF AND PUSH1 0x0 DUP1 DUP10 DUP10 DUP7 DUP2 DUP2 LT PUSH2 0x4A1 JUMPI PUSH2 0x4A0 PUSH2 0x224F JUMP JUMPDEST JUMPDEST SWAP1 POP PUSH1 0x20 MUL DUP2 ADD SWAP1 PUSH2 0x4B3 SWAP2 SWAP1 PUSH2 0x228D JUMP JUMPDEST DUP1 PUSH1 0x40 ADD SWAP1 PUSH2 0x4C2 SWAP2 SWAP1 PUSH2 0x2307 JUMP JUMPDEST DUP6 DUP2 DUP2 LT PUSH2 0x4D3 JUMPI PUSH2 0x4D2 PUSH2 0x224F JUMP JUMPDEST JUMPDEST SWAP1 POP PUSH1 0x20 MUL ADD PUSH1 0x20 DUP2 ADD SWAP1 PUSH2 0x4E8 SWAP2 SWAP1 PUSH2 0x210B JUMP JUMPDEST PUSH28 0xFFFFFFFFFFFFFFFFFFFFFFFFFFFFFFFFFFFFFFFFFFFFFFFFFFFFFFFF NOT AND PUSH28 0xFFFFFFFFFFFFFFFFFFFFFFFFFFFFFFFFFFFFFFFFFFFFFFFFFFFFFFFF NOT AND DUP2 MSTORE PUSH1 0x20 ADD SWAP1 DUP2 MSTORE PUSH1 0x20 ADD PUSH1 0x0 KECCAK256 PUSH1 0x0 SWAP1 SLOAD SWAP1 PUSH2 0x100 EXP SWAP1 DIV PUSH20 0xFFFFFFFFFFFFFFFFFFFFFFFFFFFFFFFFFFFFFFFF AND PUSH20 0xFFFFFFFFFFFFFFFFFFFFFFFFFFFFFFFFFFFFFFFF AND SUB PUSH2 0x733 JUMPI DUP7 DUP7 DUP4 DUP2 DUP2 LT PUSH2 0x583 JUMPI PUSH2 0x582 PUSH2 0x224F JUMP JUMPDEST JUMPDEST SWAP1 POP PUSH1 0x20 MUL DUP2 ADD SWAP1 PUSH2 0x595 SWAP2 SWAP1 PUSH2 0x228D JUMP JUMPDEST PUSH1 0x0 ADD PUSH1 0x20 DUP2 ADD SWAP1 PUSH2 0x5A7 SWAP2 SWAP1 PUSH2 0x2138 JUMP JUMPDEST PUSH1 0x0 DUP1 DUP10 DUP10 DUP7 DUP2 DUP2 LT PUSH2 0x5BD JUMPI PUSH2 0x5BC PUSH2 0x224F JUMP JUMPDEST JUMPDEST SWAP1 POP PUSH1 0x20 MUL DUP2 ADD SWAP1 PUSH2 0x5CF SWAP2 SWAP1 PUSH2 0x228D JUMP JUMPDEST DUP1 PUSH1 0x40 ADD SWAP1 PUSH2 0x5DE SWAP2 SWAP1 PUSH2 0x2307 JUMP JUMPDEST DUP6 DUP2 DUP2 LT PUSH2 0x5EF JUMPI PUSH2 0x5EE PUSH2 0x224F JUMP JUMPDEST JUMPDEST SWAP1 POP PUSH1 0x20 MUL ADD PUSH1 0x20 DUP2 ADD SWAP1 PUSH2 0x604 SWAP2 SWAP1 PUSH2 0x210B JUMP JUMPDEST PUSH28 0xFFFFFFFFFFFFFFFFFFFFFFFFFFFFFFFFFFFFFFFFFFFFFFFFFFFFFFFF NOT AND PUSH28 0xFFFFFFFFFFFFFFFFFFFFFFFFFFFFFFFFFFFFFFFFFFFFFFFFFFFFFFFF NOT AND DUP2 MSTORE PUSH1 0x20 ADD SWAP1 DUP2 MSTORE PUSH1 0x20 ADD PUSH1 0x0 KECCAK256 PUSH1 0x0 PUSH2 0x100 EXP DUP2 SLOAD DUP2 PUSH20 0xFFFFFFFFFFFFFFFFFFFFFFFFFFFFFFFFFFFFFFFF MUL NOT AND SWAP1 DUP4 PUSH20 0xFFFFFFFFFFFFFFFFFFFFFFFFFFFFFFFFFFFFFFFF AND MUL OR SWAP1 SSTORE POP PUSH1 0x1 DUP8 DUP8 DUP5 DUP2 DUP2 LT PUSH2 0x6A3 JUMPI PUSH2 0x6A2 PUSH2 0x224F JUMP JUMPDEST JUMPDEST SWAP1 POP PUSH1 0x20 MUL DUP2 ADD SWAP1 PUSH2 0x6B5 SWAP2 SWAP1 PUSH2 0x228D JUMP JUMPDEST DUP1 PUSH1 0x40 ADD SWAP1 PUSH2 0x6C4 SWAP2 SWAP1 PUSH2 0x2307 JUMP JUMPDEST DUP4 DUP2 DUP2 LT PUSH2 0x6D5 JUMPI PUSH2 0x6D4 PUSH2 0x224F JUMP JUMPDEST JUMPDEST SWAP1 POP PUSH1 0x20 MUL ADD PUSH1 0x20 DUP2 ADD SWAP1 PUSH2 0x6EA SWAP2 SWAP1 PUSH2 0x210B JUMP JUMPDEST SWAP1 DUP1 PUSH1 0x1 DUP2 SLOAD ADD DUP1 DUP3 SSTORE DUP1 SWAP2 POP POP PUSH1 0x1 SWAP1 SUB SWAP1 PUSH1 0x0 MSTORE PUSH1 0x20 PUSH1 0x0 KECCAK256 SWAP1 PUSH1 0x8 SWAP2 DUP3 DUP3 DIV ADD SWAP2 SWAP1 MOD PUSH1 0x4 MUL SWAP1 SWAP2 SWAP1 SWAP2 SWAP1 SWAP2 PUSH2 0x100 EXP DUP2 SLOAD DUP2 PUSH4 0xFFFFFFFF MUL NOT AND SWAP1 DUP4 PUSH1 0xE0 SHR MUL OR SWAP1 SSTORE POP JUMPDEST DUP1 DUP1 PUSH2 0x73E SWAP1 PUSH2 0x2399 JUMP JUMPDEST SWAP2 POP POP PUSH2 0x436 JUMP JUMPDEST POP JUMPDEST PUSH1 0x1 PUSH1 0x2 DUP2 GT ISZERO PUSH2 0x75C JUMPI PUSH2 0x75B PUSH2 0x2220 JUMP JUMPDEST JUMPDEST DUP7 DUP7 DUP4 DUP2 DUP2 LT PUSH2 0x76F JUMPI PUSH2 0x76E PUSH2 0x224F JUMP JUMPDEST JUMPDEST SWAP1 POP PUSH1 0x20 MUL DUP2 ADD SWAP1 PUSH2 0x781 SWAP2 SWAP1 PUSH2 0x228D JUMP JUMPDEST PUSH1 0x20 ADD PUSH1 0x20 DUP2 ADD SWAP1 PUSH2 0x793 SWAP2 SWAP1 PUSH2 0x22DA JUMP JUMPDEST PUSH1 0x2 DUP2 GT ISZERO PUSH2 0x7A5 JUMPI PUSH2 0x7A4 PUSH2 0x2220 JUMP JUMPDEST JUMPDEST SUB PUSH2 0xA1B JUMPI PUSH1 0x0 JUMPDEST DUP7 DUP7 DUP4 DUP2 DUP2 LT PUSH2 0x7C0 JUMPI PUSH2 0x7BF PUSH2 0x224F JUMP JUMPDEST JUMPDEST SWAP1 POP PUSH1 0x20 MUL DUP2 ADD SWAP1 PUSH2 0x7D2 SWAP2 SWAP1 PUSH2 0x228D JUMP JUMPDEST DUP1 PUSH1 0x40 ADD SWAP1 PUSH2 0x7E1 SWAP2 SWAP1 PUSH2 0x2307 JUMP JUMPDEST SWAP1 POP DUP2 LT ISZERO PUSH2 0xA19 JUMPI PUSH1 0x0 PUSH20 0xFFFFFFFFFFFFFFFFFFFFFFFFFFFFFFFFFFFFFFFF AND PUSH1 0x0 DUP1 DUP10 DUP10 DUP7 DUP2 DUP2 LT PUSH2 0x818 JUMPI PUSH2 0x817 PUSH2 0x224F JUMP JUMPDEST JUMPDEST SWAP1 POP PUSH1 0x20 MUL DUP2 ADD SWAP1 PUSH2 0x82A SWAP2 SWAP1 PUSH2 0x228D JUMP JUMPDEST DUP1 PUSH1 0x40 ADD SWAP1 PUSH2 0x839 SWAP2 SWAP1 PUSH2 0x2307 JUMP JUMPDEST DUP6 DUP2 DUP2 LT PUSH2 0x84A JUMPI PUSH2 0x849 PUSH2 0x224F JUMP JUMPDEST JUMPDEST SWAP1 POP PUSH1 0x20 MUL ADD PUSH1 0x20 DUP2 ADD SWAP1 PUSH2 0x85F SWAP2 SWAP1 PUSH2 0x210B JUMP JUMPDEST PUSH28 0xFFFFFFFFFFFFFFFFFFFFFFFFFFFFFFFFFFFFFFFFFFFFFFFFFFFFFFFF NOT AND PUSH28 0xFFFFFFFFFFFFFFFFFFFFFFFFFFFFFFFFFFFFFFFFFFFFFFFFFFFFFFFF NOT AND DUP2 MSTORE PUSH1 0x20 ADD SWAP1 DUP2 MSTORE PUSH1 0x20 ADD PUSH1 0x0 KECCAK256 PUSH1 0x0 SWAP1 SLOAD SWAP1 PUSH2 0x100 EXP SWAP1 DIV PUSH20 0xFFFFFFFFFFFFFFFFFFFFFFFFFFFFFFFFFFFFFFFF AND PUSH20 0xFFFFFFFFFFFFFFFFFFFFFFFFFFFFFFFFFFFFFFFF AND EQ PUSH2 0xA06 JUMPI DUP7 DUP7 DUP4 DUP2 DUP2 LT PUSH2 0x8FA JUMPI PUSH2 0x8F9 PUSH2 0x224F JUMP JUMPDEST JUMPDEST SWAP1 POP PUSH1 0x20 MUL DUP2 ADD SWAP1 PUSH2 0x90C SWAP2 SWAP1 PUSH2 0x228D JUMP JUMPDEST PUSH1 0x0 ADD PUSH1 0x20 DUP2 ADD SWAP1 PUSH2 0x91E SWAP2 SWAP1 PUSH2 0x2138 JUMP JUMPDEST PUSH1 0x0 DUP1 DUP10 DUP10 DUP7 DUP2 DUP2 LT PUSH2 0x934 JUMPI PUSH2 0x933 PUSH2 0x224F JUMP JUMPDEST JUMPDEST SWAP1 POP PUSH1 0x20 MUL DUP2 ADD SWAP1 PUSH2 0x946 SWAP2 SWAP1 PUSH2 0x228D JUMP JUMPDEST DUP1 PUSH1 0x40 ADD SWAP1 PUSH2 0x955 SWAP2 SWAP1 PUSH2 0x2307 JUMP JUMPDEST DUP6 DUP2 DUP2 LT PUSH2 0x966 JUMPI PUSH2 0x965 PUSH2 0x224F JUMP JUMPDEST JUMPDEST SWAP1 POP PUSH1 0x20 MUL ADD PUSH1 0x20 DUP2 ADD SWAP1 PUSH2 0x97B SWAP2 SWAP1 PUSH2 0x210B JUMP JUMPDEST PUSH28 0xFFFFFFFFFFFFFFFFFFFFFFFFFFFFFFFFFFFFFFFFFFFFFFFFFFFFFFFF NOT AND PUSH28 0xFFFFFFFFFFFFFFFFFFFFFFFFFFFFFFFFFFFFFFFFFFFFFFFFFFFFFFFF NOT AND DUP2 MSTORE PUSH1 0x20 ADD SWAP1 DUP2 MSTORE PUSH1 0x20 ADD PUSH1 0x0 KECCAK256 PUSH1 0x0 PUSH2 0x100 EXP DUP2 SLOAD DUP2 PUSH20 0xFFFFFFFFFFFFFFFFFFFFFFFFFFFFFFFFFFFFFFFF MUL NOT AND SWAP1 DUP4 PUSH20 0xFFFFFFFFFFFFFFFFFFFFFFFFFFFFFFFFFFFFFFFF AND MUL OR SWAP1 SSTORE POP JUMPDEST DUP1 DUP1 PUSH2 0xA11 SWAP1 PUSH2 0x2399 JUMP JUMPDEST SWAP2 POP POP PUSH2 0x7AD JUMP JUMPDEST POP JUMPDEST PUSH1 0x2 DUP1 DUP2 GT ISZERO PUSH2 0xA2E JUMPI PUSH2 0xA2D PUSH2 0x2220 JUMP JUMPDEST JUMPDEST DUP7 DUP7 DUP4 DUP2 DUP2 LT PUSH2 0xA41 JUMPI PUSH2 0xA40 PUSH2 0x224F JUMP JUMPDEST JUMPDEST SWAP1 POP PUSH1 0x20 MUL DUP2 ADD SWAP1 PUSH2 0xA53 SWAP2 SWAP1 PUSH2 0x228D JUMP JUMPDEST PUSH1 0x20 ADD PUSH1 0x20 DUP2 ADD SWAP1 PUSH2 0xA65 SWAP2 SWAP1 PUSH2 0x22DA JUMP JUMPDEST PUSH1 0x2 DUP2 GT ISZERO PUSH2 0xA77 JUMPI PUSH2 0xA76 PUSH2 0x2220 JUMP JUMPDEST JUMPDEST SUB PUSH2 0xD98 JUMPI PUSH1 0x0 JUMPDEST DUP7 DUP7 DUP4 DUP2 DUP2 LT PUSH2 0xA92 JUMPI PUSH2 0xA91 PUSH2 0x224F JUMP JUMPDEST JUMPDEST SWAP1 POP PUSH1 0x20 MUL DUP2 ADD SWAP1 PUSH2 0xAA4 SWAP2 SWAP1 PUSH2 0x228D JUMP JUMPDEST DUP1 PUSH1 0x40 ADD SWAP1 PUSH2 0xAB3 SWAP2 SWAP1 PUSH2 0x2307 JUMP JUMPDEST SWAP1 POP DUP2 LT ISZERO PUSH2 0xD96 JUMPI PUSH1 0x0 DUP1 PUSH1 0x0 DUP10 DUP10 DUP7 DUP2 DUP2 LT PUSH2 0xAD4 JUMPI PUSH2 0xAD3 PUSH2 0x224F JUMP JUMPDEST JUMPDEST SWAP1 POP PUSH1 0x20 MUL DUP2 ADD SWAP1 PUSH2 0xAE6 SWAP2 SWAP1 PUSH2 0x228D JUMP JUMPDEST DUP1 PUSH1 0x40 ADD SWAP1 PUSH2 0xAF5 SWAP2 SWAP1 PUSH2 0x2307 JUMP JUMPDEST DUP6 DUP2 DUP2 LT PUSH2 0xB06 JUMPI PUSH2 0xB05 PUSH2 0x224F JUMP JUMPDEST JUMPDEST SWAP1 POP PUSH1 0x20 MUL ADD PUSH1 0x20 DUP2 ADD SWAP1 PUSH2 0xB1B SWAP2 SWAP1 PUSH2 0x210B JUMP JUMPDEST PUSH28 0xFFFFFFFFFFFFFFFFFFFFFFFFFFFFFFFFFFFFFFFFFFFFFFFFFFFFFFFF NOT AND PUSH28 0xFFFFFFFFFFFFFFFFFFFFFFFFFFFFFFFFFFFFFFFFFFFFFFFFFFFFFFFF NOT AND DUP2 MSTORE PUSH1 0x20 ADD SWAP1 DUP2 MSTORE PUSH1 0x20 ADD PUSH1 0x0 KECCAK256 PUSH1 0x0 PUSH2 0x100 EXP DUP2 SLOAD DUP2 PUSH20 0xFFFFFFFFFFFFFFFFFFFFFFFFFFFFFFFFFFFFFFFF MUL NOT AND SWAP1 DUP4 PUSH20 0xFFFFFFFFFFFFFFFFFFFFFFFFFFFFFFFFFFFFFFFF AND MUL OR SWAP1 SSTORE POP PUSH1 0x0 JUMPDEST PUSH1 0x1 DUP1 SLOAD SWAP1 POP DUP2 LT ISZERO PUSH2 0xD82 JUMPI DUP8 DUP8 DUP5 DUP2 DUP2 LT PUSH2 0xBC8 JUMPI PUSH2 0xBC7 PUSH2 0x224F JUMP JUMPDEST JUMPDEST SWAP1 POP PUSH1 0x20 MUL DUP2 ADD SWAP1 PUSH2 0xBDA SWAP2 SWAP1 PUSH2 0x228D JUMP JUMPDEST DUP1 PUSH1 0x40 ADD SWAP1 PUSH2 0xBE9 SWAP2 SWAP1 PUSH2 0x2307 JUMP JUMPDEST DUP4 DUP2 DUP2 LT PUSH2 0xBFA JUMPI PUSH2 0xBF9 PUSH2 0x224F JUMP JUMPDEST JUMPDEST SWAP1 POP PUSH1 0x20 MUL ADD PUSH1 0x20 DUP2 ADD SWAP1 PUSH2 0xC0F SWAP2 SWAP1 PUSH2 0x210B JUMP JUMPDEST PUSH28 0xFFFFFFFFFFFFFFFFFFFFFFFFFFFFFFFFFFFFFFFFFFFFFFFFFFFFFFFF NOT AND PUSH1 0x1 DUP3 DUP2 SLOAD DUP2 LT PUSH2 0xC42 JUMPI PUSH2 0xC41 PUSH2 0x224F JUMP JUMPDEST JUMPDEST SWAP1 PUSH1 0x0 MSTORE PUSH1 0x20 PUSH1 0x0 KECCAK256 SWAP1 PUSH1 0x8 SWAP2 DUP3 DUP3 DIV ADD SWAP2 SWAP1 MOD PUSH1 0x4 MUL SWAP1 SLOAD SWAP1 PUSH2 0x100 EXP SWAP1 DIV PUSH1 0xE0 SHL PUSH28 0xFFFFFFFFFFFFFFFFFFFFFFFFFFFFFFFFFFFFFFFFFFFFFFFFFFFFFFFF NOT AND SUB PUSH2 0xD6F JUMPI PUSH1 0x1 DUP1 DUP1 SLOAD SWAP1 POP PUSH2 0xC9A SWAP2 SWAP1 PUSH2 0x23E1 JUMP JUMPDEST DUP2 LT ISZERO PUSH2 0xD6E JUMPI PUSH1 0x1 DUP1 DUP1 DUP1 SLOAD SWAP1 POP PUSH2 0xCB3 SWAP2 SWAP1 PUSH2 0x23E1 JUMP JUMPDEST DUP2 SLOAD DUP2 LT PUSH2 0xCC4 JUMPI PUSH2 0xCC3 PUSH2 0x224F JUMP JUMPDEST JUMPDEST SWAP1 PUSH1 0x0 MSTORE PUSH1 0x20 PUSH1 0x0 KECCAK256 SWAP1 PUSH1 0x8 SWAP2 DUP3 DUP3 DIV ADD SWAP2 SWAP1 MOD PUSH1 0x4 MUL SWAP1 SLOAD SWAP1 PUSH2 0x100 EXP SWAP1 DIV PUSH1 0xE0 SHL PUSH1 0x1 DUP3 DUP2 SLOAD DUP2 LT PUSH2 0xCFB JUMPI PUSH2 0xCFA PUSH2 0x224F JUMP JUMPDEST JUMPDEST SWAP1 PUSH1 0x0 MSTORE PUSH1 0x20 PUSH1 0x0 KECCAK256 SWAP1 PUSH1 0x8 SWAP2 DUP3 DUP3 DIV ADD SWAP2 SWAP1 MOD PUSH1 0x4 MUL PUSH2 0x100 EXP DUP2 SLOAD DUP2 PUSH4 0xFFFFFFFF MUL NOT AND SWAP1 DUP4 PUSH1 0xE0 SHR MUL OR SWAP1 SSTORE POP PUSH1 0x1 DUP1 SLOAD DUP1 PUSH2 0xD3D JUMPI PUSH2 0xD3C PUSH2 0x2415 JUMP JUMPDEST JUMPDEST PUSH1 0x1 SWAP1 SUB DUP2 DUP2 SWAP1 PUSH1 0x0 MSTORE PUSH1 0x20 PUSH1 0x0 KECCAK256 SWAP1 PUSH1 0x8 SWAP2 DUP3 DUP3 DIV ADD SWAP2 SWAP1 MOD PUSH1 0x4 MUL PUSH2 0x100 EXP DUP2 SLOAD SWAP1 PUSH4 0xFFFFFFFF MUL NOT AND SWAP1 SSTORE SWAP1 SSTORE JUMPDEST JUMPDEST DUP1 DUP1 PUSH2 0xD7A SWAP1 PUSH2 0x2399 JUMP JUMPDEST SWAP2 POP POP PUSH2 0xBA8 JUMP JUMPDEST POP DUP1 DUP1 PUSH2 0xD8E SWAP1 PUSH2 0x2399 JUMP JUMPDEST SWAP2 POP POP PUSH2 0xA7F JUMP JUMPDEST POP JUMPDEST DUP1 DUP1 PUSH2 0xDA3 SWAP1 PUSH2 0x2399 JUMP JUMPDEST SWAP2 POP POP PUSH2 0x3C6 JUMP JUMPDEST POP PUSH2 0xDB4 PUSH2 0x172D JUMP JUMPDEST PUSH1 0x2 SWAP1 DUP1 MLOAD SWAP1 PUSH1 0x20 ADD SWAP1 PUSH2 0xDC9 SWAP3 SWAP2 SWAP1 PUSH2 0x1AA4 JUMP JUMPDEST POP PUSH32 0x8FAA70878671CCD212D20771B795C50AF8FD3FF6CF27F4BDE57E5D4DE0AEB673 DUP6 DUP6 DUP6 DUP6 DUP6 PUSH1 0x40 MLOAD PUSH2 0xE01 SWAP6 SWAP5 SWAP4 SWAP3 SWAP2 SWAP1 PUSH2 0x2757 JUMP JUMPDEST PUSH1 0x40 MLOAD DUP1 SWAP2 SUB SWAP1 LOG1 PUSH1 0x0 PUSH20 0xFFFFFFFFFFFFFFFFFFFFFFFFFFFFFFFFFFFFFFFF AND DUP4 PUSH20 0xFFFFFFFFFFFFFFFFFFFFFFFFFFFFFFFFFFFFFFFF AND EQ PUSH2 0xEED JUMPI PUSH1 0x0 DUP4 PUSH20 0xFFFFFFFFFFFFFFFFFFFFFFFFFFFFFFFFFFFFFFFF AND DUP4 DUP4 PUSH1 0x40 MLOAD PUSH2 0xE66 SWAP3 SWAP2 SWAP1 PUSH2 0x27D0 JUMP JUMPDEST PUSH1 0x0 PUSH1 0x40 MLOAD DUP1 DUP4 SUB DUP2 DUP6 GAS DELEGATECALL SWAP2 POP POP RETURNDATASIZE DUP1 PUSH1 0x0 DUP2 EQ PUSH2 0xEA1 JUMPI PUSH1 0x40 MLOAD SWAP2 POP PUSH1 0x1F NOT PUSH1 0x3F RETURNDATASIZE ADD AND DUP3 ADD PUSH1 0x40 MSTORE RETURNDATASIZE DUP3 MSTORE RETURNDATASIZE PUSH1 0x0 PUSH1 0x20 DUP5 ADD RETURNDATACOPY PUSH2 0xEA6 JUMP JUMPDEST PUSH1 0x60 SWAP2 POP JUMPDEST POP POP SWAP1 POP DUP1 PUSH2 0xEEB JUMPI PUSH32 0xF7799C13936FA7E564CD208124650DF4AF9063ED8B45000D2442EFDB081B7759 DUP5 DUP5 DUP5 PUSH1 0x40 MLOAD PUSH2 0xEE2 SWAP4 SWAP3 SWAP2 SWAP1 PUSH2 0x27E9 JUMP JUMPDEST PUSH1 0x40 MLOAD DUP1 SWAP2 SUB SWAP1 LOG1 JUMPDEST POP JUMPDEST POP POP POP POP POP JUMP JUMPDEST PUSH1 0x60 PUSH1 0x2 DUP1 SLOAD DUP1 PUSH1 0x20 MUL PUSH1 0x20 ADD PUSH1 0x40 MLOAD SWAP1 DUP2 ADD PUSH1 0x40 MSTORE DUP1 SWAP3 SWAP2 SWAP1 DUP2 DUP2 MSTORE PUSH1 0x20 ADD DUP3 DUP1 SLOAD DUP1 ISZERO PUSH2 0xF78 JUMPI PUSH1 0x20 MUL DUP3 ADD SWAP2 SWAP1 PUSH1 0x0 MSTORE PUSH1 0x20 PUSH1 0x0 KECCAK256 SWAP1 JUMPDEST DUP2 PUSH1 0x0 SWAP1 SLOAD SWAP1 PUSH2 0x100 EXP SWAP1 DIV PUSH20 0xFFFFFFFFFFFFFFFFFFFFFFFFFFFFFFFFFFFFFFFF AND PUSH20 0xFFFFFFFFFFFFFFFFFFFFFFFFFFFFFFFFFFFFFFFF AND DUP2 MSTORE PUSH1 0x20 ADD SWAP1 PUSH1 0x1 ADD SWAP1 DUP1 DUP4 GT PUSH2 0xF2E JUMPI JUMPDEST POP POP POP POP POP SWAP1 POP SWAP1 JUMP JUMPDEST PUSH1 0x60 ADDRESS PUSH20 0xFFFFFFFFFFFFFFFFFFFFFFFFFFFFFFFFFFFFFFFF AND PUSH4 0x52EF6B2C PUSH1 0x40 MLOAD DUP2 PUSH4 0xFFFFFFFF AND PUSH1 0xE0 SHL DUP2 MSTORE PUSH1 0x4 ADD PUSH1 0x0 PUSH1 0x40 MLOAD DUP1 DUP4 SUB DUP2 DUP7 GAS STATICCALL ISZERO DUP1 ISZERO PUSH2 0xFCF JUMPI RETURNDATASIZE PUSH1 0x0 DUP1 RETURNDATACOPY RETURNDATASIZE PUSH1 0x0 REVERT JUMPDEST POP POP POP POP PUSH1 0x40 MLOAD RETURNDATASIZE PUSH1 0x0 DUP3 RETURNDATACOPY RETURNDATASIZE PUSH1 0x1F NOT PUSH1 0x1F DUP3 ADD AND DUP3 ADD DUP1 PUSH1 0x40 MSTORE POP DUP2 ADD SWAP1 PUSH2 0xFF8 SWAP2 SWAP1 PUSH2 0x296E JUMP JUMPDEST MLOAD PUSH8 0xFFFFFFFFFFFFFFFF DUP2 GT ISZERO PUSH2 0x1012 JUMPI PUSH2 0x1011 PUSH2 0x281B JUMP JUMPDEST JUMPDEST PUSH1 0x40 MLOAD SWAP1 DUP1 DUP3 MSTORE DUP1 PUSH1 0x20 MUL PUSH1 0x20 ADD DUP3 ADD PUSH1 0x40 MSTORE DUP1 ISZERO PUSH2 0x104B JUMPI DUP2 PUSH1 0x20 ADD JUMPDEST PUSH2 0x1038 PUSH2 0x1B2E JUMP JUMPDEST DUP2 MSTORE PUSH1 0x20 ADD SWAP1 PUSH1 0x1 SWAP1 SUB SWAP1 DUP2 PUSH2 0x1030 JUMPI SWAP1 POP JUMPDEST POP SWAP1 POP PUSH1 0x0 DUP1 JUMPDEST ADDRESS PUSH20 0xFFFFFFFFFFFFFFFFFFFFFFFFFFFFFFFFFFFFFFFF AND PUSH4 0x52EF6B2C PUSH1 0x40 MLOAD DUP2 PUSH4 0xFFFFFFFF AND PUSH1 0xE0 SHL DUP2 MSTORE PUSH1 0x4 ADD PUSH1 0x0 PUSH1 0x40 MLOAD DUP1 DUP4 SUB DUP2 DUP7 GAS STATICCALL ISZERO DUP1 ISZERO PUSH2 0x109D JUMPI RETURNDATASIZE PUSH1 0x0 DUP1 RETURNDATACOPY RETURNDATASIZE PUSH1 0x0 REVERT JUMPDEST POP POP POP POP PUSH1 0x40 MLOAD RETURNDATASIZE PUSH1 0x0 DUP3 RETURNDATACOPY RETURNDATASIZE PUSH1 0x1F NOT PUSH1 0x1F DUP3 ADD AND DUP3 ADD DUP1 PUSH1 0x40 MSTORE POP DUP2 ADD SWAP1 PUSH2 0x10C6 SWAP2 SWAP1 PUSH2 0x296E JUMP JUMPDEST MLOAD DUP2 LT ISZERO PUSH2 0x12D4 JUMPI PUSH1 0x0 PUSH1 0x40 MLOAD DUP1 PUSH1 0x40 ADD PUSH1 0x40 MSTORE DUP1 ADDRESS PUSH20 0xFFFFFFFFFFFFFFFFFFFFFFFFFFFFFFFFFFFFFFFF AND PUSH4 0x52EF6B2C PUSH1 0x40 MLOAD DUP2 PUSH4 0xFFFFFFFF AND PUSH1 0xE0 SHL DUP2 MSTORE PUSH1 0x4 ADD PUSH1 0x0 PUSH1 0x40 MLOAD DUP1 DUP4 SUB DUP2 DUP7 GAS STATICCALL ISZERO DUP1 ISZERO PUSH2 0x1126 JUMPI RETURNDATASIZE PUSH1 0x0 DUP1 RETURNDATACOPY RETURNDATASIZE PUSH1 0x0 REVERT JUMPDEST POP POP POP POP PUSH1 0x40 MLOAD RETURNDATASIZE PUSH1 0x0 DUP3 RETURNDATACOPY RETURNDATASIZE PUSH1 0x1F NOT PUSH1 0x1F DUP3 ADD AND DUP3 ADD DUP1 PUSH1 0x40 MSTORE POP DUP2 ADD SWAP1 PUSH2 0x114F SWAP2 SWAP1 PUSH2 0x296E JUMP JUMPDEST DUP5 DUP2 MLOAD DUP2 LT PUSH2 0x1161 JUMPI PUSH2 0x1160 PUSH2 0x224F JUMP JUMPDEST JUMPDEST PUSH1 0x20 MUL PUSH1 0x20 ADD ADD MLOAD PUSH20 0xFFFFFFFFFFFFFFFFFFFFFFFFFFFFFFFFFFFFFFFF AND DUP2 MSTORE PUSH1 0x20 ADD ADDRESS PUSH20 0xFFFFFFFFFFFFFFFFFFFFFFFFFFFFFFFFFFFFFFFF AND PUSH4 0xADFCA15E ADDRESS PUSH20 0xFFFFFFFFFFFFFFFFFFFFFFFFFFFFFFFFFFFFFFFF AND PUSH4 0x52EF6B2C PUSH1 0x40 MLOAD DUP2 PUSH4 0xFFFFFFFF AND PUSH1 0xE0 SHL DUP2 MSTORE PUSH1 0x4 ADD PUSH1 0x0 PUSH1 0x40 MLOAD DUP1 DUP4 SUB DUP2 DUP7 GAS STATICCALL ISZERO DUP1 ISZERO PUSH2 0x11EB JUMPI RETURNDATASIZE PUSH1 0x0 DUP1 RETURNDATACOPY RETURNDATASIZE PUSH1 0x0 REVERT JUMPDEST POP POP POP POP PUSH1 0x40 MLOAD RETURNDATASIZE PUSH1 0x0 DUP3 RETURNDATACOPY RETURNDATASIZE PUSH1 0x1F NOT PUSH1 0x1F DUP3 ADD AND DUP3 ADD DUP1 PUSH1 0x40 MSTORE POP DUP2 ADD SWAP1 PUSH2 0x1214 SWAP2 SWAP1 PUSH2 0x296E JUMP JUMPDEST DUP7 DUP2 MLOAD DUP2 LT PUSH2 0x1226 JUMPI PUSH2 0x1225 PUSH2 0x224F JUMP JUMPDEST JUMPDEST PUSH1 0x20 MUL PUSH1 0x20 ADD ADD MLOAD PUSH1 0x40 MLOAD DUP3 PUSH4 0xFFFFFFFF AND PUSH1 0xE0 SHL DUP2 MSTORE PUSH1 0x4 ADD PUSH2 0x124A SWAP2 SWAP1 PUSH2 0x20C4 JUMP JUMPDEST PUSH1 0x0 PUSH1 0x40 MLOAD DUP1 DUP4 SUB DUP2 DUP7 GAS STATICCALL ISZERO DUP1 ISZERO PUSH2 0x1267 JUMPI RETURNDATASIZE PUSH1 0x0 DUP1 RETURNDATACOPY RETURNDATASIZE PUSH1 0x0 REVERT JUMPDEST POP POP POP POP PUSH1 0x40 MLOAD RETURNDATASIZE PUSH1 0x0 DUP3 RETURNDATACOPY RETURNDATASIZE PUSH1 0x1F NOT PUSH1 0x1F DUP3 ADD AND DUP3 ADD DUP1 PUSH1 0x40 MSTORE POP DUP2 ADD SWAP1 PUSH2 0x1290 SWAP2 SWAP1 PUSH2 0x2A8F JUMP JUMPDEST DUP2 MSTORE POP SWAP1 POP DUP1 DUP5 DUP5 DUP1 PUSH2 0x12A2 SWAP1 PUSH2 0x2399 JUMP JUMPDEST SWAP6 POP DUP2 MLOAD DUP2 LT PUSH2 0x12B5 JUMPI PUSH2 0x12B4 PUSH2 0x224F JUMP JUMPDEST JUMPDEST PUSH1 0x20 MUL PUSH1 0x20 ADD ADD DUP2 SWAP1 MSTORE POP POP DUP1 DUP1 PUSH2 0x12CC SWAP1 PUSH2 0x2399 JUMP JUMPDEST SWAP2 POP POP PUSH2 0x1052 JUMP JUMPDEST POP POP SWAP1 JUMP JUMPDEST PUSH1 0x2 DUP2 DUP2 SLOAD DUP2 LT PUSH2 0x12E9 JUMPI PUSH1 0x0 DUP1 REVERT JUMPDEST SWAP1 PUSH1 0x0 MSTORE PUSH1 0x20 PUSH1 0x0 KECCAK256 ADD PUSH1 0x0 SWAP2 POP SLOAD SWAP1 PUSH2 0x100 EXP SWAP1 DIV PUSH20 0xFFFFFFFFFFFFFFFFFFFFFFFFFFFFFFFFFFFFFFFF AND DUP2 JUMP JUMPDEST PUSH1 0x0 PUSH1 0x20 MSTORE DUP1 PUSH1 0x0 MSTORE PUSH1 0x40 PUSH1 0x0 KECCAK256 PUSH1 0x0 SWAP2 POP SLOAD SWAP1 PUSH2 0x100 EXP SWAP1 DIV PUSH20 0xFFFFFFFFFFFFFFFFFFFFFFFFFFFFFFFFFFFFFFFF AND DUP2 JUMP JUMPDEST PUSH1 0x60 PUSH1 0x0 DUP1 JUMPDEST PUSH1 0x1 DUP1 SLOAD SWAP1 POP DUP2 LT ISZERO PUSH2 0x1459 JUMPI DUP4 PUSH20 0xFFFFFFFFFFFFFFFFFFFFFFFFFFFFFFFFFFFFFFFF AND PUSH1 0x0 DUP1 PUSH1 0x1 DUP5 DUP2 SLOAD DUP2 LT PUSH2 0x138C JUMPI PUSH2 0x138B PUSH2 0x224F JUMP JUMPDEST JUMPDEST SWAP1 PUSH1 0x0 MSTORE PUSH1 0x20 PUSH1 0x0 KECCAK256 SWAP1 PUSH1 0x8 SWAP2 DUP3 DUP3 DIV ADD SWAP2 SWAP1 MOD PUSH1 0x4 MUL SWAP1 SLOAD SWAP1 PUSH2 0x100 EXP SWAP1 DIV PUSH1 0xE0 SHL PUSH28 0xFFFFFFFFFFFFFFFFFFFFFFFFFFFFFFFFFFFFFFFFFFFFFFFFFFFFFFFF NOT AND PUSH28 0xFFFFFFFFFFFFFFFFFFFFFFFFFFFFFFFFFFFFFFFFFFFFFFFFFFFFFFFF NOT AND DUP2 MSTORE PUSH1 0x20 ADD SWAP1 DUP2 MSTORE PUSH1 0x20 ADD PUSH1 0x0 KECCAK256 PUSH1 0x0 SWAP1 SLOAD SWAP1 PUSH2 0x100 EXP SWAP1 DIV PUSH20 0xFFFFFFFFFFFFFFFFFFFFFFFFFFFFFFFFFFFFFFFF AND PUSH20 0xFFFFFFFFFFFFFFFFFFFFFFFFFFFFFFFFFFFFFFFF AND SUB PUSH2 0x1446 JUMPI DUP2 DUP1 PUSH2 0x1442 SWAP1 PUSH2 0x2399 JUMP JUMPDEST SWAP3 POP POP JUMPDEST DUP1 DUP1 PUSH2 0x1451 SWAP1 PUSH2 0x2399 JUMP JUMPDEST SWAP2 POP POP PUSH2 0x1351 JUMP JUMPDEST POP DUP1 PUSH8 0xFFFFFFFFFFFFFFFF DUP2 GT ISZERO PUSH2 0x1474 JUMPI PUSH2 0x1473 PUSH2 0x281B JUMP JUMPDEST JUMPDEST PUSH1 0x40 MLOAD SWAP1 DUP1 DUP3 MSTORE DUP1 PUSH1 0x20 MUL PUSH1 0x20 ADD DUP3 ADD PUSH1 0x40 MSTORE DUP1 ISZERO PUSH2 0x14A2 JUMPI DUP2 PUSH1 0x20 ADD PUSH1 0x20 DUP3 MUL DUP1 CALLDATASIZE DUP4 CALLDATACOPY DUP1 DUP3 ADD SWAP2 POP POP SWAP1 POP JUMPDEST POP SWAP2 POP PUSH1 0x0 SWAP1 POP PUSH1 0x0 JUMPDEST PUSH1 0x1 DUP1 SLOAD SWAP1 POP DUP2 LT ISZERO PUSH2 0x1648 JUMPI DUP4 PUSH20 0xFFFFFFFFFFFFFFFFFFFFFFFFFFFFFFFFFFFFFFFF AND PUSH1 0x0 DUP1 PUSH1 0x1 DUP5 DUP2 SLOAD DUP2 LT PUSH2 0x14E7 JUMPI PUSH2 0x14E6 PUSH2 0x224F JUMP JUMPDEST JUMPDEST SWAP1 PUSH1 0x0 MSTORE PUSH1 0x20 PUSH1 0x0 KECCAK256 SWAP1 PUSH1 0x8 SWAP2 DUP3 DUP3 DIV ADD SWAP2 SWAP1 MOD PUSH1 0x4 MUL SWAP1 SLOAD SWAP1 PUSH2 0x100 EXP SWAP1 DIV PUSH1 0xE0 SHL PUSH28 0xFFFFFFFFFFFFFFFFFFFFFFFFFFFFFFFFFFFFFFFFFFFFFFFFFFFFFFFF NOT AND PUSH28 0xFFFFFFFFFFFFFFFFFFFFFFFFFFFFFFFFFFFFFFFFFFFFFFFFFFFFFFFF NOT AND DUP2 MSTORE PUSH1 0x20 ADD SWAP1 DUP2 MSTORE PUSH1 0x20 ADD PUSH1 0x0 KECCAK256 PUSH1 0x0 SWAP1 SLOAD SWAP1 PUSH2 0x100 EXP SWAP1 DIV PUSH20 0xFFFFFFFFFFFFFFFFFFFFFFFFFFFFFFFFFFFFFFFF AND PUSH20 0xFFFFFFFFFFFFFFFFFFFFFFFFFFFFFFFFFFFFFFFF AND SUB PUSH2 0x1635 JUMPI PUSH1 0x1 DUP2 DUP2 SLOAD DUP2 LT PUSH2 0x15A6 JUMPI PUSH2 0x15A5 PUSH2 0x224F JUMP JUMPDEST JUMPDEST SWAP1 PUSH1 0x0 MSTORE PUSH1 0x20 PUSH1 0x0 KECCAK256 SWAP1 PUSH1 0x8 SWAP2 DUP3 DUP3 DIV ADD SWAP2 SWAP1 MOD PUSH1 0x4 MUL SWAP1 SLOAD SWAP1 PUSH2 0x100 EXP SWAP1 DIV PUSH1 0xE0 SHL DUP4 DUP4 DUP1 PUSH2 0x15D5 SWAP1 PUSH2 0x2399 JUMP JUMPDEST SWAP5 POP DUP2 MLOAD DUP2 LT PUSH2 0x15E8 JUMPI PUSH2 0x15E7 PUSH2 0x224F JUMP JUMPDEST JUMPDEST PUSH1 0x20 MUL PUSH1 0x20 ADD ADD SWAP1 PUSH28 0xFFFFFFFFFFFFFFFFFFFFFFFFFFFFFFFFFFFFFFFFFFFFFFFFFFFFFFFF NOT AND SWAP1 DUP2 PUSH28 0xFFFFFFFFFFFFFFFFFFFFFFFFFFFFFFFFFFFFFFFFFFFFFFFFFFFFFFFF NOT AND DUP2 MSTORE POP POP JUMPDEST DUP1 DUP1 PUSH2 0x1640 SWAP1 PUSH2 0x2399 JUMP JUMPDEST SWAP2 POP POP PUSH2 0x14AC JUMP JUMPDEST POP POP SWAP2 SWAP1 POP JUMP JUMPDEST PUSH1 0x0 DUP1 PUSH1 0x0 DUP4 PUSH28 0xFFFFFFFFFFFFFFFFFFFFFFFFFFFFFFFFFFFFFFFFFFFFFFFFFFFFFFFF NOT AND PUSH28 0xFFFFFFFFFFFFFFFFFFFFFFFFFFFFFFFFFFFFFFFFFFFFFFFFFFFFFFFF NOT AND DUP2 MSTORE PUSH1 0x20 ADD SWAP1 DUP2 MSTORE PUSH1 0x20 ADD PUSH1 0x0 KECCAK256 PUSH1 0x0 SWAP1 SLOAD SWAP1 PUSH2 0x100 EXP SWAP1 DIV PUSH20 0xFFFFFFFFFFFFFFFFFFFFFFFFFFFFFFFFFFFFFFFF AND SWAP1 POP SWAP2 SWAP1 POP JUMP JUMPDEST PUSH1 0x1 DUP2 DUP2 SLOAD DUP2 LT PUSH2 0x16D9 JUMPI PUSH1 0x0 DUP1 REVERT JUMPDEST SWAP1 PUSH1 0x0 MSTORE PUSH1 0x20 PUSH1 0x0 KECCAK256 SWAP1 PUSH1 0x8 SWAP2 DUP3 DUP3 DIV ADD SWAP2 SWAP1 MOD PUSH1 0x4 MUL SWAP2 POP SLOAD SWAP1 PUSH2 0x100 EXP SWAP1 DIV PUSH1 0xE0 SHL DUP2 JUMP JUMPDEST PUSH1 0x0 DUP1 PUSH32 0x20BDB322702E8F31EB02A18E466059B6B3224433A6E129849583A03F267F40A3 SWAP1 POP DUP1 SWAP2 POP POP SWAP1 JUMP JUMPDEST PUSH1 0x60 PUSH1 0x0 PUSH1 0x1 DUP1 SLOAD SWAP1 POP PUSH8 0xFFFFFFFFFFFFFFFF DUP2 GT ISZERO PUSH2 0x1750 JUMPI PUSH2 0x174F PUSH2 0x281B JUMP JUMPDEST JUMPDEST PUSH1 0x40 MLOAD SWAP1 DUP1 DUP3 MSTORE DUP1 PUSH1 0x20 MUL PUSH1 0x20 ADD DUP3 ADD PUSH1 0x40 MSTORE DUP1 ISZERO PUSH2 0x177E JUMPI DUP2 PUSH1 0x20 ADD PUSH1 0x20 DUP3 MUL DUP1 CALLDATASIZE DUP4 CALLDATACOPY DUP1 DUP3 ADD SWAP2 POP POP SWAP1 POP JUMPDEST POP SWAP1 POP PUSH1 0x0 DUP1 JUMPDEST PUSH1 0x1 DUP1 SLOAD SWAP1 POP DUP2 LT ISZERO PUSH2 0x19CC JUMPI PUSH1 0x0 DUP1 PUSH1 0x0 SWAP1 POP JUMPDEST DUP4 DUP2 LT ISZERO PUSH2 0x18AD JUMPI DUP5 DUP2 DUP2 MLOAD DUP2 LT PUSH2 0x17B5 JUMPI PUSH2 0x17B4 PUSH2 0x224F JUMP JUMPDEST JUMPDEST PUSH1 0x20 MUL PUSH1 0x20 ADD ADD MLOAD PUSH20 0xFFFFFFFFFFFFFFFFFFFFFFFFFFFFFFFFFFFFFFFF AND PUSH1 0x0 DUP1 PUSH1 0x1 DUP7 DUP2 SLOAD DUP2 LT PUSH2 0x17EA JUMPI PUSH2 0x17E9 PUSH2 0x224F JUMP JUMPDEST JUMPDEST SWAP1 PUSH1 0x0 MSTORE PUSH1 0x20 PUSH1 0x0 KECCAK256 SWAP1 PUSH1 0x8 SWAP2 DUP3 DUP3 DIV ADD SWAP2 SWAP1 MOD PUSH1 0x4 MUL SWAP1 SLOAD SWAP1 PUSH2 0x100 EXP SWAP1 DIV PUSH1 0xE0 SHL PUSH28 0xFFFFFFFFFFFFFFFFFFFFFFFFFFFFFFFFFFFFFFFFFFFFFFFFFFFFFFFF NOT AND PUSH28 0xFFFFFFFFFFFFFFFFFFFFFFFFFFFFFFFFFFFFFFFFFFFFFFFFFFFFFFFF NOT AND DUP2 MSTORE PUSH1 0x20 ADD SWAP1 DUP2 MSTORE PUSH1 0x20 ADD PUSH1 0x0 KECCAK256 PUSH1 0x0 SWAP1 SLOAD SWAP1 PUSH2 0x100 EXP SWAP1 DIV PUSH20 0xFFFFFFFFFFFFFFFFFFFFFFFFFFFFFFFFFFFFFFFF AND PUSH20 0xFFFFFFFFFFFFFFFFFFFFFFFFFFFFFFFFFFFFFFFF AND SUB PUSH2 0x189A JUMPI PUSH1 0x1 SWAP2 POP JUMPDEST DUP1 DUP1 PUSH2 0x18A5 SWAP1 PUSH2 0x2399 JUMP JUMPDEST SWAP2 POP POP PUSH2 0x179A JUMP JUMPDEST POP DUP1 PUSH2 0x19B4 JUMPI PUSH1 0x0 DUP1 PUSH1 0x1 DUP5 DUP2 SLOAD DUP2 LT PUSH2 0x18CA JUMPI PUSH2 0x18C9 PUSH2 0x224F JUMP JUMPDEST JUMPDEST SWAP1 PUSH1 0x0 MSTORE PUSH1 0x20 PUSH1 0x0 KECCAK256 SWAP1 PUSH1 0x8 SWAP2 DUP3 DUP3 DIV ADD SWAP2 SWAP1 MOD PUSH1 0x4 MUL SWAP1 SLOAD SWAP1 PUSH2 0x100 EXP SWAP1 DIV PUSH1 0xE0 SHL PUSH28 0xFFFFFFFFFFFFFFFFFFFFFFFFFFFFFFFFFFFFFFFFFFFFFFFFFFFFFFFF NOT AND PUSH28 0xFFFFFFFFFFFFFFFFFFFFFFFFFFFFFFFFFFFFFFFFFFFFFFFFFFFFFFFF NOT AND DUP2 MSTORE PUSH1 0x20 ADD SWAP1 DUP2 MSTORE PUSH1 0x20 ADD PUSH1 0x0 KECCAK256 PUSH1 0x0 SWAP1 SLOAD SWAP1 PUSH2 0x100 EXP SWAP1 DIV PUSH20 0xFFFFFFFFFFFFFFFFFFFFFFFFFFFFFFFFFFFFFFFF AND DUP5 DUP5 DUP1 PUSH2 0x1966 SWAP1 PUSH2 0x2399 JUMP JUMPDEST SWAP6 POP DUP2 MLOAD DUP2 LT PUSH2 0x1979 JUMPI PUSH2 0x1978 PUSH2 0x224F JUMP JUMPDEST JUMPDEST PUSH1 0x20 MUL PUSH1 0x20 ADD ADD SWAP1 PUSH20 0xFFFFFFFFFFFFFFFFFFFFFFFFFFFFFFFFFFFFFFFF AND SWAP1 DUP2 PUSH20 0xFFFFFFFFFFFFFFFFFFFFFFFFFFFFFFFFFFFFFFFF AND DUP2 MSTORE POP POP JUMPDEST PUSH1 0x0 SWAP1 POP POP DUP1 DUP1 PUSH2 0x19C4 SWAP1 PUSH2 0x2399 JUMP JUMPDEST SWAP2 POP POP PUSH2 0x1785 JUMP JUMPDEST POP DUP1 PUSH8 0xFFFFFFFFFFFFFFFF DUP2 GT ISZERO PUSH2 0x19E7 JUMPI PUSH2 0x19E6 PUSH2 0x281B JUMP JUMPDEST JUMPDEST PUSH1 0x40 MLOAD SWAP1 DUP1 DUP3 MSTORE DUP1 PUSH1 0x20 MUL PUSH1 0x20 ADD DUP3 ADD PUSH1 0x40 MSTORE DUP1 ISZERO PUSH2 0x1A15 JUMPI DUP2 PUSH1 0x20 ADD PUSH1 0x20 DUP3 MUL DUP1 CALLDATASIZE DUP4 CALLDATACOPY DUP1 DUP3 ADD SWAP2 POP POP SWAP1 POP JUMPDEST POP SWAP3 POP PUSH1 0x0 JUMPDEST DUP2 DUP2 LT ISZERO PUSH2 0x1A9E JUMPI DUP3 DUP2 DUP2 MLOAD DUP2 LT PUSH2 0x1A36 JUMPI PUSH2 0x1A35 PUSH2 0x224F JUMP JUMPDEST JUMPDEST PUSH1 0x20 MUL PUSH1 0x20 ADD ADD MLOAD DUP5 DUP3 DUP2 MLOAD DUP2 LT PUSH2 0x1A51 JUMPI PUSH2 0x1A50 PUSH2 0x224F JUMP JUMPDEST JUMPDEST PUSH1 0x20 MUL PUSH1 0x20 ADD ADD SWAP1 PUSH20 0xFFFFFFFFFFFFFFFFFFFFFFFFFFFFFFFFFFFFFFFF AND SWAP1 DUP2 PUSH20 0xFFFFFFFFFFFFFFFFFFFFFFFFFFFFFFFFFFFFFFFF AND DUP2 MSTORE POP POP DUP1 DUP1 PUSH2 0x1A96 SWAP1 PUSH2 0x2399 JUMP JUMPDEST SWAP2 POP POP PUSH2 0x1A1B JUMP JUMPDEST POP POP POP SWAP1 JUMP JUMPDEST DUP3 DUP1 SLOAD DUP3 DUP3 SSTORE SWAP1 PUSH1 0x0 MSTORE PUSH1 0x20 PUSH1 0x0 KECCAK256 SWAP1 DUP2 ADD SWAP3 DUP3 ISZERO PUSH2 0x1B1D JUMPI SWAP2 PUSH1 0x20 MUL DUP3 ADD JUMPDEST DUP3 DUP2 GT ISZERO PUSH2 0x1B1C JUMPI DUP3 MLOAD DUP3 PUSH1 0x0 PUSH2 0x100 EXP DUP2 SLOAD DUP2 PUSH20 0xFFFFFFFFFFFFFFFFFFFFFFFFFFFFFFFFFFFFFFFF MUL NOT AND SWAP1 DUP4 PUSH20 0xFFFFFFFFFFFFFFFFFFFFFFFFFFFFFFFFFFFFFFFF AND MUL OR SWAP1 SSTORE POP SWAP2 PUSH1 0x20 ADD SWAP2 SWAP1 PUSH1 0x1 ADD SWAP1 PUSH2 0x1AC4 JUMP JUMPDEST JUMPDEST POP SWAP1 POP PUSH2 0x1B2A SWAP2 SWAP1 PUSH2 0x1B5E JUMP JUMPDEST POP SWAP1 JUMP JUMPDEST PUSH1 0x40 MLOAD DUP1 PUSH1 0x40 ADD PUSH1 0x40 MSTORE DUP1 PUSH1 0x0 PUSH20 0xFFFFFFFFFFFFFFFFFFFFFFFFFFFFFFFFFFFFFFFF AND DUP2 MSTORE PUSH1 0x20 ADD PUSH1 0x60 DUP2 MSTORE POP SWAP1 JUMP JUMPDEST JUMPDEST DUP1 DUP3 GT ISZERO PUSH2 0x1B77 JUMPI PUSH1 0x0 DUP2 PUSH1 0x0 SWAP1 SSTORE POP PUSH1 0x1 ADD PUSH2 0x1B5F JUMP JUMPDEST POP SWAP1 JUMP JUMPDEST PUSH1 0x0 DUP2 SWAP1 POP SWAP2 SWAP1 POP JUMP JUMPDEST PUSH2 0x1B8E DUP2 PUSH2 0x1B7B JUMP JUMPDEST DUP3 MSTORE POP POP JUMP JUMPDEST PUSH1 0x0 PUSH1 0x20 DUP3 ADD SWAP1 POP PUSH2 0x1BA9 PUSH1 0x0 DUP4 ADD DUP5 PUSH2 0x1B85 JUMP JUMPDEST SWAP3 SWAP2 POP POP JUMP JUMPDEST PUSH1 0x0 PUSH1 0x40 MLOAD SWAP1 POP SWAP1 JUMP JUMPDEST PUSH1 0x0 DUP1 REVERT JUMPDEST PUSH1 0x0 DUP1 REVERT JUMPDEST PUSH1 0x0 DUP1 REVERT JUMPDEST PUSH1 0x0 DUP1 REVERT JUMPDEST PUSH1 0x0 DUP1 REVERT JUMPDEST PUSH1 0x0 DUP1 DUP4 PUSH1 0x1F DUP5 ADD SLT PUSH2 0x1BE8 JUMPI PUSH2 0x1BE7 PUSH2 0x1BC3 JUMP JUMPDEST JUMPDEST DUP3 CALLDATALOAD SWAP1 POP PUSH8 0xFFFFFFFFFFFFFFFF DUP2 GT ISZERO PUSH2 0x1C05 JUMPI PUSH2 0x1C04 PUSH2 0x1BC8 JUMP JUMPDEST JUMPDEST PUSH1 0x20 DUP4 ADD SWAP2 POP DUP4 PUSH1 0x20 DUP3 MUL DUP4 ADD GT ISZERO PUSH2 0x1C21 JUMPI PUSH2 0x1C20 PUSH2 0x1BCD JUMP JUMPDEST JUMPDEST SWAP3 POP SWAP3 SWAP1 POP JUMP JUMPDEST PUSH1 0x0 PUSH20 0xFFFFFFFFFFFFFFFFFFFFFFFFFFFFFFFFFFFFFFFF DUP3 AND SWAP1 POP SWAP2 SWAP1 POP JUMP JUMPDEST PUSH1 0x0 PUSH2 0x1C53 DUP3 PUSH2 0x1C28 JUMP JUMPDEST SWAP1 POP SWAP2 SWAP1 POP JUMP JUMPDEST PUSH2 0x1C63 DUP2 PUSH2 0x1C48 JUMP JUMPDEST DUP2 EQ PUSH2 0x1C6E JUMPI PUSH1 0x0 DUP1 REVERT JUMPDEST POP JUMP JUMPDEST PUSH1 0x0 DUP2 CALLDATALOAD SWAP1 POP PUSH2 0x1C80 DUP2 PUSH2 0x1C5A JUMP JUMPDEST SWAP3 SWAP2 POP POP JUMP JUMPDEST PUSH1 0x0 DUP1 DUP4 PUSH1 0x1F DUP5 ADD SLT PUSH2 0x1C9C JUMPI PUSH2 0x1C9B PUSH2 0x1BC3 JUMP JUMPDEST JUMPDEST DUP3 CALLDATALOAD SWAP1 POP PUSH8 0xFFFFFFFFFFFFFFFF DUP2 GT ISZERO PUSH2 0x1CB9 JUMPI PUSH2 0x1CB8 PUSH2 0x1BC8 JUMP JUMPDEST JUMPDEST PUSH1 0x20 DUP4 ADD SWAP2 POP DUP4 PUSH1 0x1 DUP3 MUL DUP4 ADD GT ISZERO PUSH2 0x1CD5 JUMPI PUSH2 0x1CD4 PUSH2 0x1BCD JUMP JUMPDEST JUMPDEST SWAP3 POP SWAP3 SWAP1 POP JUMP JUMPDEST PUSH1 0x0 DUP1 PUSH1 0x0 DUP1 PUSH1 0x0 PUSH1 0x60 DUP7 DUP9 SUB SLT ISZERO PUSH2 0x1CF8 JUMPI PUSH2 0x1CF7 PUSH2 0x1BB9 JUMP JUMPDEST JUMPDEST PUSH1 0x0 DUP7 ADD CALLDATALOAD PUSH8 0xFFFFFFFFFFFFFFFF DUP2 GT ISZERO PUSH2 0x1D16 JUMPI PUSH2 0x1D15 PUSH2 0x1BBE JUMP JUMPDEST JUMPDEST PUSH2 0x1D22 DUP9 DUP3 DUP10 ADD PUSH2 0x1BD2 JUMP JUMPDEST SWAP6 POP SWAP6 POP POP PUSH1 0x20 PUSH2 0x1D35 DUP9 DUP3 DUP10 ADD PUSH2 0x1C71 JUMP JUMPDEST SWAP4 POP POP PUSH1 0x40 DUP7 ADD CALLDATALOAD PUSH8 0xFFFFFFFFFFFFFFFF DUP2 GT ISZERO PUSH2 0x1D56 JUMPI PUSH2 0x1D55 PUSH2 0x1BBE JUMP JUMPDEST JUMPDEST PUSH2 0x1D62 DUP9 DUP3 DUP10 ADD PUSH2 0x1C86 JUMP JUMPDEST SWAP3 POP SWAP3 POP POP SWAP3 SWAP6 POP SWAP3 SWAP6 SWAP1 SWAP4 POP JUMP JUMPDEST PUSH1 0x0 DUP2 MLOAD SWAP1 POP SWAP2 SWAP1 POP JUMP JUMPDEST PUSH1 0x0 DUP3 DUP3 MSTORE PUSH1 0x20 DUP3 ADD SWAP1 POP SWAP3 SWAP2 POP POP JUMP JUMPDEST PUSH1 0x0 DUP2 SWAP1 POP PUSH1 0x20 DUP3 ADD SWAP1 POP SWAP2 SWAP1 POP JUMP JUMPDEST PUSH2 0x1DA6 DUP2 PUSH2 0x1C48 JUMP JUMPDEST DUP3 MSTORE POP POP JUMP JUMPDEST PUSH1 0x0 PUSH2 0x1DB8 DUP4 DUP4 PUSH2 0x1D9D JUMP JUMPDEST PUSH1 0x20 DUP4 ADD SWAP1 POP SWAP3 SWAP2 POP POP JUMP JUMPDEST PUSH1 0x0 PUSH1 0x20 DUP3 ADD SWAP1 POP SWAP2 SWAP1 POP JUMP JUMPDEST PUSH1 0x0 PUSH2 0x1DDC DUP3 PUSH2 0x1D71 JUMP JUMPDEST PUSH2 0x1DE6 DUP2 DUP6 PUSH2 0x1D7C JUMP JUMPDEST SWAP4 POP PUSH2 0x1DF1 DUP4 PUSH2 0x1D8D JUMP JUMPDEST DUP1 PUSH1 0x0 JUMPDEST DUP4 DUP2 LT ISZERO PUSH2 0x1E22 JUMPI DUP2 MLOAD PUSH2 0x1E09 DUP9 DUP3 PUSH2 0x1DAC JUMP JUMPDEST SWAP8 POP PUSH2 0x1E14 DUP4 PUSH2 0x1DC4 JUMP JUMPDEST SWAP3 POP POP PUSH1 0x1 DUP2 ADD SWAP1 POP PUSH2 0x1DF5 JUMP JUMPDEST POP DUP6 SWAP4 POP POP POP POP SWAP3 SWAP2 POP POP JUMP JUMPDEST PUSH1 0x0 PUSH1 0x20 DUP3 ADD SWAP1 POP DUP2 DUP2 SUB PUSH1 0x0 DUP4 ADD MSTORE PUSH2 0x1E49 DUP2 DUP5 PUSH2 0x1DD1 JUMP JUMPDEST SWAP1 POP SWAP3 SWAP2 POP POP JUMP JUMPDEST PUSH1 0x0 DUP2 MLOAD SWAP1 POP SWAP2 SWAP1 POP JUMP JUMPDEST PUSH1 0x0 DUP3 DUP3 MSTORE PUSH1 0x20 DUP3 ADD SWAP1 POP SWAP3 SWAP2 POP POP JUMP JUMPDEST PUSH1 0x0 DUP2 SWAP1 POP PUSH1 0x20 DUP3 ADD SWAP1 POP SWAP2 SWAP1 POP JUMP JUMPDEST PUSH1 0x0 DUP2 MLOAD SWAP1 POP SWAP2 SWAP1 POP JUMP JUMPDEST PUSH1 0x0 DUP3 DUP3 MSTORE PUSH1 0x20 DUP3 ADD SWAP1 POP SWAP3 SWAP2 POP POP JUMP JUMPDEST PUSH1 0x0 DUP2 SWAP1 POP PUSH1 0x20 DUP3 ADD SWAP1 POP SWAP2 SWAP1 POP JUMP JUMPDEST PUSH1 0x0 PUSH32 0xFFFFFFFF00000000000000000000000000000000000000000000000000000000 DUP3 AND SWAP1 POP SWAP2 SWAP1 POP JUMP JUMPDEST PUSH2 0x1EDE DUP2 PUSH2 0x1EA9 JUMP JUMPDEST DUP3 MSTORE POP POP JUMP JUMPDEST PUSH1 0x0 PUSH2 0x1EF0 DUP4 DUP4 PUSH2 0x1ED5 JUMP JUMPDEST PUSH1 0x20 DUP4 ADD SWAP1 POP SWAP3 SWAP2 POP POP JUMP JUMPDEST PUSH1 0x0 PUSH1 0x20 DUP3 ADD SWAP1 POP SWAP2 SWAP1 POP JUMP JUMPDEST PUSH1 0x0 PUSH2 0x1F14 DUP3 PUSH2 0x1E7D JUMP JUMPDEST PUSH2 0x1F1E DUP2 DUP6 PUSH2 0x1E88 JUMP JUMPDEST SWAP4 POP PUSH2 0x1F29 DUP4 PUSH2 0x1E99 JUMP JUMPDEST DUP1 PUSH1 0x0 JUMPDEST DUP4 DUP2 LT ISZERO PUSH2 0x1F5A JUMPI DUP2 MLOAD PUSH2 0x1F41 DUP9 DUP3 PUSH2 0x1EE4 JUMP JUMPDEST SWAP8 POP PUSH2 0x1F4C DUP4 PUSH2 0x1EFC JUMP JUMPDEST SWAP3 POP POP PUSH1 0x1 DUP2 ADD SWAP1 POP PUSH2 0x1F2D JUMP JUMPDEST POP DUP6 SWAP4 POP POP POP POP SWAP3 SWAP2 POP POP JUMP JUMPDEST PUSH1 0x0 PUSH1 0x40 DUP4 ADD PUSH1 0x0 DUP4 ADD MLOAD PUSH2 0x1F7F PUSH1 0x0 DUP7 ADD DUP3 PUSH2 0x1D9D JUMP JUMPDEST POP PUSH1 0x20 DUP4 ADD MLOAD DUP5 DUP3 SUB PUSH1 0x20 DUP7 ADD MSTORE PUSH2 0x1F97 DUP3 DUP3 PUSH2 0x1F09 JUMP JUMPDEST SWAP2 POP POP DUP1 SWAP2 POP POP SWAP3 SWAP2 POP POP JUMP JUMPDEST PUSH1 0x0 PUSH2 0x1FB0 DUP4 DUP4 PUSH2 0x1F67 JUMP JUMPDEST SWAP1 POP SWAP3 SWAP2 POP POP JUMP JUMPDEST PUSH1 0x0 PUSH1 0x20 DUP3 ADD SWAP1 POP SWAP2 SWAP1 POP JUMP JUMPDEST PUSH1 0x0 PUSH2 0x1FD0 DUP3 PUSH2 0x1E51 JUMP JUMPDEST PUSH2 0x1FDA DUP2 DUP6 PUSH2 0x1E5C JUMP JUMPDEST SWAP4 POP DUP4 PUSH1 0x20 DUP3 MUL DUP6 ADD PUSH2 0x1FEC DUP6 PUSH2 0x1E6D JUMP JUMPDEST DUP1 PUSH1 0x0 JUMPDEST DUP6 DUP2 LT ISZERO PUSH2 0x2028 JUMPI DUP5 DUP5 SUB DUP10 MSTORE DUP2 MLOAD PUSH2 0x2009 DUP6 DUP3 PUSH2 0x1FA4 JUMP JUMPDEST SWAP5 POP PUSH2 0x2014 DUP4 PUSH2 0x1FB8 JUMP JUMPDEST SWAP3 POP PUSH1 0x20 DUP11 ADD SWAP10 POP POP PUSH1 0x1 DUP2 ADD SWAP1 POP PUSH2 0x1FF0 JUMP JUMPDEST POP DUP3 SWAP8 POP DUP8 SWAP6 POP POP POP POP POP POP SWAP3 SWAP2 POP POP JUMP JUMPDEST PUSH1 0x0 PUSH1 0x20 DUP3 ADD SWAP1 POP DUP2 DUP2 SUB PUSH1 0x0 DUP4 ADD MSTORE PUSH2 0x2054 DUP2 DUP5 PUSH2 0x1FC5 JUMP JUMPDEST SWAP1 POP SWAP3 SWAP2 POP POP JUMP JUMPDEST PUSH2 0x2065 DUP2 PUSH2 0x1B7B JUMP JUMPDEST DUP2 EQ PUSH2 0x2070 JUMPI PUSH1 0x0 DUP1 REVERT JUMPDEST POP JUMP JUMPDEST PUSH1 0x0 DUP2 CALLDATALOAD SWAP1 POP PUSH2 0x2082 DUP2 PUSH2 0x205C JUMP JUMPDEST SWAP3 SWAP2 POP POP JUMP JUMPDEST PUSH1 0x0 PUSH1 0x20 DUP3 DUP5 SUB SLT ISZERO PUSH2 0x209E JUMPI PUSH2 0x209D PUSH2 0x1BB9 JUMP JUMPDEST JUMPDEST PUSH1 0x0 PUSH2 0x20AC DUP5 DUP3 DUP6 ADD PUSH2 0x2073 JUMP JUMPDEST SWAP2 POP POP SWAP3 SWAP2 POP POP JUMP JUMPDEST PUSH2 0x20BE DUP2 PUSH2 0x1C48 JUMP JUMPDEST DUP3 MSTORE POP POP JUMP JUMPDEST PUSH1 0x0 PUSH1 0x20 DUP3 ADD SWAP1 POP PUSH2 0x20D9 PUSH1 0x0 DUP4 ADD DUP5 PUSH2 0x20B5 JUMP JUMPDEST SWAP3 SWAP2 POP POP JUMP JUMPDEST PUSH2 0x20E8 DUP2 PUSH2 0x1EA9 JUMP JUMPDEST DUP2 EQ PUSH2 0x20F3 JUMPI PUSH1 0x0 DUP1 REVERT JUMPDEST POP JUMP JUMPDEST PUSH1 0x0 DUP2 CALLDATALOAD SWAP1 POP PUSH2 0x2105 DUP2 PUSH2 0x20DF JUMP JUMPDEST SWAP3 SWAP2 POP POP JUMP JUMPDEST PUSH1 0x0 PUSH1 0x20 DUP3 DUP5 SUB SLT ISZERO PUSH2 0x2121 JUMPI PUSH2 0x2120 PUSH2 0x1BB9 JUMP JUMPDEST JUMPDEST PUSH1 0x0 PUSH2 0x212F DUP5 DUP3 DUP6 ADD PUSH2 0x20F6 JUMP JUMPDEST SWAP2 POP POP SWAP3 SWAP2 POP POP JUMP JUMPDEST PUSH1 0x0 PUSH1 0x20 DUP3 DUP5 SUB SLT ISZERO PUSH2 0x214E JUMPI PUSH2 0x214D PUSH2 0x1BB9 JUMP JUMPDEST JUMPDEST PUSH1 0x0 PUSH2 0x215C DUP5 DUP3 DUP6 ADD PUSH2 0x1C71 JUMP JUMPDEST SWAP2 POP POP SWAP3 SWAP2 POP POP JUMP JUMPDEST PUSH1 0x0 DUP3 DUP3 MSTORE PUSH1 0x20 DUP3 ADD SWAP1 POP SWAP3 SWAP2 POP POP JUMP JUMPDEST PUSH1 0x0 PUSH2 0x2181 DUP3 PUSH2 0x1E7D JUMP JUMPDEST PUSH2 0x218B DUP2 DUP6 PUSH2 0x2165 JUMP JUMPDEST SWAP4 POP PUSH2 0x2196 DUP4 PUSH2 0x1E99 JUMP JUMPDEST DUP1 PUSH1 0x0 JUMPDEST DUP4 DUP2 LT ISZERO PUSH2 0x21C7 JUMPI DUP2 MLOAD PUSH2 0x21AE DUP9 DUP3 PUSH2 0x1EE4 JUMP JUMPDEST SWAP8 POP PUSH2 0x21B9 DUP4 PUSH2 0x1EFC JUMP JUMPDEST SWAP3 POP POP PUSH1 0x1 DUP2 ADD SWAP1 POP PUSH2 0x219A JUMP JUMPDEST POP DUP6 SWAP4 POP POP POP POP SWAP3 SWAP2 POP POP JUMP JUMPDEST PUSH1 0x0 PUSH1 0x20 DUP3 ADD SWAP1 POP DUP2 DUP2 SUB PUSH1 0x0 DUP4 ADD MSTORE PUSH2 0x21EE DUP2 DUP5 PUSH2 0x2176 JUMP JUMPDEST SWAP1 POP SWAP3 SWAP2 POP POP JUMP JUMPDEST PUSH2 0x21FF DUP2 PUSH2 0x1EA9 JUMP JUMPDEST DUP3 MSTORE POP POP JUMP JUMPDEST PUSH1 0x0 PUSH1 0x20 DUP3 ADD SWAP1 POP PUSH2 0x221A PUSH1 0x0 DUP4 ADD DUP5 PUSH2 0x21F6 JUMP JUMPDEST SWAP3 SWAP2 POP POP JUMP JUMPDEST PUSH32 0x4E487B7100000000000000000000000000000000000000000000000000000000 PUSH1 0x0 MSTORE PUSH1 0x21 PUSH1 0x4 MSTORE PUSH1 0x24 PUSH1 0x0 REVERT JUMPDEST PUSH32 0x4E487B7100000000000000000000000000000000000000000000000000000000 PUSH1 0x0 MSTORE PUSH1 0x32 PUSH1 0x4 MSTORE PUSH1 0x24 PUSH1 0x0 REVERT JUMPDEST PUSH1 0x0 DUP1 REVERT JUMPDEST PUSH1 0x0 DUP1 REVERT JUMPDEST PUSH1 0x0 DUP1 REVERT JUMPDEST PUSH1 0x0 DUP3 CALLDATALOAD PUSH1 0x1 PUSH1 0x60 SUB DUP4 CALLDATASIZE SUB SUB DUP2 SLT PUSH2 0x22A9 JUMPI PUSH2 0x22A8 PUSH2 0x227E JUMP JUMPDEST JUMPDEST DUP1 DUP4 ADD SWAP2 POP POP SWAP3 SWAP2 POP POP JUMP JUMPDEST PUSH1 0x3 DUP2 LT PUSH2 0x22C2 JUMPI PUSH1 0x0 DUP1 REVERT JUMPDEST POP JUMP JUMPDEST PUSH1 0x0 DUP2 CALLDATALOAD SWAP1 POP PUSH2 0x22D4 DUP2 PUSH2 0x22B5 JUMP JUMPDEST SWAP3 SWAP2 POP POP JUMP JUMPDEST PUSH1 0x0 PUSH1 0x20 DUP3 DUP5 SUB SLT ISZERO PUSH2 0x22F0 JUMPI PUSH2 0x22EF PUSH2 0x1BB9 JUMP JUMPDEST JUMPDEST PUSH1 0x0 PUSH2 0x22FE DUP5 DUP3 DUP6 ADD PUSH2 0x22C5 JUMP JUMPDEST SWAP2 POP POP SWAP3 SWAP2 POP POP JUMP JUMPDEST PUSH1 0x0 DUP1 DUP4 CALLDATALOAD PUSH1 0x1 PUSH1 0x20 SUB DUP5 CALLDATASIZE SUB SUB DUP2 SLT PUSH2 0x2324 JUMPI PUSH2 0x2323 PUSH2 0x227E JUMP JUMPDEST JUMPDEST DUP1 DUP5 ADD SWAP3 POP DUP3 CALLDATALOAD SWAP2 POP PUSH8 0xFFFFFFFFFFFFFFFF DUP3 GT ISZERO PUSH2 0x2346 JUMPI PUSH2 0x2345 PUSH2 0x2283 JUMP JUMPDEST JUMPDEST PUSH1 0x20 DUP4 ADD SWAP3 POP PUSH1 0x20 DUP3 MUL CALLDATASIZE SUB DUP4 SGT ISZERO PUSH2 0x2362 JUMPI PUSH2 0x2361 PUSH2 0x2288 JUMP JUMPDEST JUMPDEST POP SWAP3 POP SWAP3 SWAP1 POP JUMP JUMPDEST PUSH32 0x4E487B7100000000000000000000000000000000000000000000000000000000 PUSH1 0x0 MSTORE PUSH1 0x11 PUSH1 0x4 MSTORE PUSH1 0x24 PUSH1 0x0 REVERT JUMPDEST PUSH1 0x0 PUSH2 0x23A4 DUP3 PUSH2 0x1B7B JUMP JUMPDEST SWAP2 POP PUSH32 0xFFFFFFFFFFFFFFFFFFFFFFFFFFFFFFFFFFFFFFFFFFFFFFFFFFFFFFFFFFFFFFFF DUP3 SUB PUSH2 0x23D6 JUMPI PUSH2 0x23D5 PUSH2 0x236A JUMP JUMPDEST JUMPDEST PUSH1 0x1 DUP3 ADD SWAP1 POP SWAP2 SWAP1 POP JUMP JUMPDEST PUSH1 0x0 PUSH2 0x23EC DUP3 PUSH2 0x1B7B JUMP JUMPDEST SWAP2 POP PUSH2 0x23F7 DUP4 PUSH2 0x1B7B JUMP JUMPDEST SWAP3 POP DUP3 DUP3 SUB SWAP1 POP DUP2 DUP2 GT ISZERO PUSH2 0x240F JUMPI PUSH2 0x240E PUSH2 0x236A JUMP JUMPDEST JUMPDEST SWAP3 SWAP2 POP POP JUMP JUMPDEST PUSH32 0x4E487B7100000000000000000000000000000000000000000000000000000000 PUSH1 0x0 MSTORE PUSH1 0x31 PUSH1 0x4 MSTORE PUSH1 0x24 PUSH1 0x0 REVERT JUMPDEST PUSH1 0x0 DUP3 DUP3 MSTORE PUSH1 0x20 DUP3 ADD SWAP1 POP SWAP3 SWAP2 POP POP JUMP JUMPDEST PUSH1 0x0 DUP2 SWAP1 POP SWAP2 SWAP1 POP JUMP JUMPDEST PUSH1 0x0 PUSH2 0x246E PUSH1 0x20 DUP5 ADD DUP5 PUSH2 0x1C71 JUMP JUMPDEST SWAP1 POP SWAP3 SWAP2 POP POP JUMP JUMPDEST PUSH1 0x0 PUSH2 0x2485 PUSH1 0x20 DUP5 ADD DUP5 PUSH2 0x22C5 JUMP JUMPDEST SWAP1 POP SWAP3 SWAP2 POP POP JUMP JUMPDEST PUSH1 0x3 DUP2 LT PUSH2 0x249E JUMPI PUSH2 0x249D PUSH2 0x2220 JUMP JUMPDEST JUMPDEST POP JUMP JUMPDEST PUSH1 0x0 DUP2 SWAP1 POP PUSH2 0x24AF DUP3 PUSH2 0x248D JUMP JUMPDEST SWAP2 SWAP1 POP JUMP JUMPDEST PUSH1 0x0 PUSH2 0x24BF DUP3 PUSH2 0x24A1 JUMP JUMPDEST SWAP1 POP SWAP2 SWAP1 POP JUMP JUMPDEST PUSH2 0x24CF DUP2 PUSH2 0x24B4 JUMP JUMPDEST DUP3 MSTORE POP POP JUMP JUMPDEST PUSH1 0x0 DUP1 REVERT JUMPDEST PUSH1 0x0 DUP1 REVERT JUMPDEST PUSH1 0x0 DUP1 REVERT JUMPDEST PUSH1 0x0 DUP1 DUP4 CALLDATALOAD PUSH1 0x1 PUSH1 0x20 SUB DUP5 CALLDATASIZE SUB SUB DUP2 SLT PUSH2 0x2501 JUMPI PUSH2 0x2500 PUSH2 0x24DF JUMP JUMPDEST JUMPDEST DUP4 DUP2 ADD SWAP3 POP DUP3 CALLDATALOAD SWAP2 POP PUSH1 0x20 DUP4 ADD SWAP3 POP PUSH8 0xFFFFFFFFFFFFFFFF DUP3 GT ISZERO PUSH2 0x2529 JUMPI PUSH2 0x2528 PUSH2 0x24D5 JUMP JUMPDEST JUMPDEST PUSH1 0x20 DUP3 MUL CALLDATASIZE SUB DUP4 SGT ISZERO PUSH2 0x253F JUMPI PUSH2 0x253E PUSH2 0x24DA JUMP JUMPDEST JUMPDEST POP SWAP3 POP SWAP3 SWAP1 POP JUMP JUMPDEST PUSH1 0x0 DUP2 SWAP1 POP SWAP2 SWAP1 POP JUMP JUMPDEST PUSH1 0x0 PUSH2 0x2560 PUSH1 0x20 DUP5 ADD DUP5 PUSH2 0x20F6 JUMP JUMPDEST SWAP1 POP SWAP3 SWAP2 POP POP JUMP JUMPDEST PUSH1 0x0 PUSH1 0x20 DUP3 ADD SWAP1 POP SWAP2 SWAP1 POP JUMP JUMPDEST PUSH1 0x0 PUSH2 0x2581 DUP4 DUP6 PUSH2 0x1E88 JUMP JUMPDEST SWAP4 POP PUSH2 0x258C DUP3 PUSH2 0x2547 JUMP JUMPDEST DUP1 PUSH1 0x0 JUMPDEST DUP6 DUP2 LT ISZERO PUSH2 0x25C5 JUMPI PUSH2 0x25A2 DUP3 DUP5 PUSH2 0x2551 JUMP JUMPDEST PUSH2 0x25AC DUP9 DUP3 PUSH2 0x1EE4 JUMP JUMPDEST SWAP8 POP PUSH2 0x25B7 DUP4 PUSH2 0x2568 JUMP JUMPDEST SWAP3 POP POP PUSH1 0x1 DUP2 ADD SWAP1 POP PUSH2 0x2590 JUMP JUMPDEST POP DUP6 SWAP3 POP POP POP SWAP4 SWAP3 POP POP POP JUMP JUMPDEST PUSH1 0x0 PUSH1 0x60 DUP4 ADD PUSH2 0x25E5 PUSH1 0x0 DUP5 ADD DUP5 PUSH2 0x245F JUMP JUMPDEST PUSH2 0x25F2 PUSH1 0x0 DUP7 ADD DUP3 PUSH2 0x1D9D JUMP JUMPDEST POP PUSH2 0x2600 PUSH1 0x20 DUP5 ADD DUP5 PUSH2 0x2476 JUMP JUMPDEST PUSH2 0x260D PUSH1 0x20 DUP7 ADD DUP3 PUSH2 0x24C6 JUMP JUMPDEST POP PUSH2 0x261B PUSH1 0x40 DUP5 ADD DUP5 PUSH2 0x24E4 JUMP JUMPDEST DUP6 DUP4 SUB PUSH1 0x40 DUP8 ADD MSTORE PUSH2 0x262E DUP4 DUP3 DUP5 PUSH2 0x2575 JUMP JUMPDEST SWAP3 POP POP POP DUP1 SWAP2 POP POP SWAP3 SWAP2 POP POP JUMP JUMPDEST PUSH1 0x0 PUSH2 0x2648 DUP4 DUP4 PUSH2 0x25D2 JUMP JUMPDEST SWAP1 POP SWAP3 SWAP2 POP POP JUMP JUMPDEST PUSH1 0x0 DUP3 CALLDATALOAD PUSH1 0x1 PUSH1 0x60 SUB DUP4 CALLDATASIZE SUB SUB DUP2 SLT PUSH2 0x266C JUMPI PUSH2 0x266B PUSH2 0x24DF JUMP JUMPDEST JUMPDEST DUP3 DUP2 ADD SWAP2 POP POP SWAP3 SWAP2 POP POP JUMP JUMPDEST PUSH1 0x0 PUSH1 0x20 DUP3 ADD SWAP1 POP SWAP2 SWAP1 POP JUMP JUMPDEST PUSH1 0x0 PUSH2 0x2691 DUP4 DUP6 PUSH2 0x2444 JUMP JUMPDEST SWAP4 POP DUP4 PUSH1 0x20 DUP5 MUL DUP6 ADD PUSH2 0x26A3 DUP5 PUSH2 0x2455 JUMP JUMPDEST DUP1 PUSH1 0x0 JUMPDEST DUP8 DUP2 LT ISZERO PUSH2 0x26E7 JUMPI DUP5 DUP5 SUB DUP10 MSTORE PUSH2 0x26BE DUP3 DUP5 PUSH2 0x2650 JUMP JUMPDEST PUSH2 0x26C8 DUP6 DUP3 PUSH2 0x263C JUMP JUMPDEST SWAP5 POP PUSH2 0x26D3 DUP4 PUSH2 0x2678 JUMP JUMPDEST SWAP3 POP PUSH1 0x20 DUP11 ADD SWAP10 POP POP PUSH1 0x1 DUP2 ADD SWAP1 POP PUSH2 0x26A7 JUMP JUMPDEST POP DUP3 SWAP8 POP DUP8 SWAP5 POP POP POP POP POP SWAP4 SWAP3 POP POP POP JUMP JUMPDEST PUSH1 0x0 DUP3 DUP3 MSTORE PUSH1 0x20 DUP3 ADD SWAP1 POP SWAP3 SWAP2 POP POP JUMP JUMPDEST DUP3 DUP2 DUP4 CALLDATACOPY PUSH1 0x0 DUP4 DUP4 ADD MSTORE POP POP POP JUMP JUMPDEST PUSH1 0x0 PUSH1 0x1F NOT PUSH1 0x1F DUP4 ADD AND SWAP1 POP SWAP2 SWAP1 POP JUMP JUMPDEST PUSH1 0x0 PUSH2 0x2736 DUP4 DUP6 PUSH2 0x26F9 JUMP JUMPDEST SWAP4 POP PUSH2 0x2743 DUP4 DUP6 DUP5 PUSH2 0x270A JUMP JUMPDEST PUSH2 0x274C DUP4 PUSH2 0x2719 JUMP JUMPDEST DUP5 ADD SWAP1 POP SWAP4 SWAP3 POP POP POP JUMP JUMPDEST PUSH1 0x0 PUSH1 0x60 DUP3 ADD SWAP1 POP DUP2 DUP2 SUB PUSH1 0x0 DUP4 ADD MSTORE PUSH2 0x2772 DUP2 DUP8 DUP10 PUSH2 0x2685 JUMP JUMPDEST SWAP1 POP PUSH2 0x2781 PUSH1 0x20 DUP4 ADD DUP7 PUSH2 0x20B5 JUMP JUMPDEST DUP2 DUP2 SUB PUSH1 0x40 DUP4 ADD MSTORE PUSH2 0x2794 DUP2 DUP5 DUP7 PUSH2 0x272A JUMP JUMPDEST SWAP1 POP SWAP7 SWAP6 POP POP POP POP POP POP JUMP JUMPDEST PUSH1 0x0 DUP2 SWAP1 POP SWAP3 SWAP2 POP POP JUMP JUMPDEST PUSH1 0x0 PUSH2 0x27B7 DUP4 DUP6 PUSH2 0x27A0 JUMP JUMPDEST SWAP4 POP PUSH2 0x27C4 DUP4 DUP6 DUP5 PUSH2 0x270A JUMP JUMPDEST DUP3 DUP5 ADD SWAP1 POP SWAP4 SWAP3 POP POP POP JUMP JUMPDEST PUSH1 0x0 PUSH2 0x27DD DUP3 DUP5 DUP7 PUSH2 0x27AB JUMP JUMPDEST SWAP2 POP DUP2 SWAP1 POP SWAP4 SWAP3 POP POP POP JUMP JUMPDEST PUSH1 0x0 PUSH1 0x40 DUP3 ADD SWAP1 POP PUSH2 0x27FE PUSH1 0x0 DUP4 ADD DUP7 PUSH2 0x20B5 JUMP JUMPDEST DUP2 DUP2 SUB PUSH1 0x20 DUP4 ADD MSTORE PUSH2 0x2811 DUP2 DUP5 DUP7 PUSH2 0x272A JUMP JUMPDEST SWAP1 POP SWAP5 SWAP4 POP POP POP POP JUMP JUMPDEST PUSH32 0x4E487B7100000000000000000000000000000000000000000000000000000000 PUSH1 0x0 MSTORE PUSH1 0x41 PUSH1 0x4 MSTORE PUSH1 0x24 PUSH1 0x0 REVERT JUMPDEST PUSH2 0x2853 DUP3 PUSH2 0x2719 JUMP JUMPDEST DUP2 ADD DUP2 DUP2 LT PUSH8 0xFFFFFFFFFFFFFFFF DUP3 GT OR ISZERO PUSH2 0x2872 JUMPI PUSH2 0x2871 PUSH2 0x281B JUMP JUMPDEST JUMPDEST DUP1 PUSH1 0x40 MSTORE POP POP POP JUMP JUMPDEST PUSH1 0x0 PUSH2 0x2885 PUSH2 0x1BAF JUMP JUMPDEST SWAP1 POP PUSH2 0x2891 DUP3 DUP3 PUSH2 0x284A JUMP JUMPDEST SWAP2 SWAP1 POP JUMP JUMPDEST PUSH1 0x0 PUSH8 0xFFFFFFFFFFFFFFFF DUP3 GT ISZERO PUSH2 0x28B1 JUMPI PUSH2 0x28B0 PUSH2 0x281B JUMP JUMPDEST JUMPDEST PUSH1 0x20 DUP3 MUL SWAP1 POP PUSH1 0x20 DUP2 ADD SWAP1 POP SWAP2 SWAP1 POP JUMP JUMPDEST PUSH1 0x0 DUP2 MLOAD SWAP1 POP PUSH2 0x28D1 DUP2 PUSH2 0x1C5A JUMP JUMPDEST SWAP3 SWAP2 POP POP JUMP JUMPDEST PUSH1 0x0 PUSH2 0x28EA PUSH2 0x28E5 DUP5 PUSH2 0x2896 JUMP JUMPDEST PUSH2 0x287B JUMP JUMPDEST SWAP1 POP DUP1 DUP4 DUP3 MSTORE PUSH1 0x20 DUP3 ADD SWAP1 POP PUSH1 0x20 DUP5 MUL DUP4 ADD DUP6 DUP2 GT ISZERO PUSH2 0x290D JUMPI PUSH2 0x290C PUSH2 0x1BCD JUMP JUMPDEST JUMPDEST DUP4 JUMPDEST DUP2 DUP2 LT ISZERO PUSH2 0x2936 JUMPI DUP1 PUSH2 0x2922 DUP9 DUP3 PUSH2 0x28C2 JUMP JUMPDEST DUP5 MSTORE PUSH1 0x20 DUP5 ADD SWAP4 POP POP PUSH1 0x20 DUP2 ADD SWAP1 POP PUSH2 0x290F JUMP JUMPDEST POP POP POP SWAP4 SWAP3 POP POP POP JUMP JUMPDEST PUSH1 0x0 DUP3 PUSH1 0x1F DUP4 ADD SLT PUSH2 0x2955 JUMPI PUSH2 0x2954 PUSH2 0x1BC3 JUMP JUMPDEST JUMPDEST DUP2 MLOAD PUSH2 0x2965 DUP5 DUP3 PUSH1 0x20 DUP7 ADD PUSH2 0x28D7 JUMP JUMPDEST SWAP2 POP POP SWAP3 SWAP2 POP POP JUMP JUMPDEST PUSH1 0x0 PUSH1 0x20 DUP3 DUP5 SUB SLT ISZERO PUSH2 0x2984 JUMPI PUSH2 0x2983 PUSH2 0x1BB9 JUMP JUMPDEST JUMPDEST PUSH1 0x0 DUP3 ADD MLOAD PUSH8 0xFFFFFFFFFFFFFFFF DUP2 GT ISZERO PUSH2 0x29A2 JUMPI PUSH2 0x29A1 PUSH2 0x1BBE JUMP JUMPDEST JUMPDEST PUSH2 0x29AE DUP5 DUP3 DUP6 ADD PUSH2 0x2940 JUMP JUMPDEST SWAP2 POP POP SWAP3 SWAP2 POP POP JUMP JUMPDEST PUSH1 0x0 PUSH8 0xFFFFFFFFFFFFFFFF DUP3 GT ISZERO PUSH2 0x29D2 JUMPI PUSH2 0x29D1 PUSH2 0x281B JUMP JUMPDEST JUMPDEST PUSH1 0x20 DUP3 MUL SWAP1 POP PUSH1 0x20 DUP2 ADD SWAP1 POP SWAP2 SWAP1 POP JUMP JUMPDEST PUSH1 0x0 DUP2 MLOAD SWAP1 POP PUSH2 0x29F2 DUP2 PUSH2 0x20DF JUMP JUMPDEST SWAP3 SWAP2 POP POP JUMP JUMPDEST PUSH1 0x0 PUSH2 0x2A0B PUSH2 0x2A06 DUP5 PUSH2 0x29B7 JUMP JUMPDEST PUSH2 0x287B JUMP JUMPDEST SWAP1 POP DUP1 DUP4 DUP3 MSTORE PUSH1 0x20 DUP3 ADD SWAP1 POP PUSH1 0x20 DUP5 MUL DUP4 ADD DUP6 DUP2 GT ISZERO PUSH2 0x2A2E JUMPI PUSH2 0x2A2D PUSH2 0x1BCD JUMP JUMPDEST JUMPDEST DUP4 JUMPDEST DUP2 DUP2 LT ISZERO PUSH2 0x2A57 JUMPI DUP1 PUSH2 0x2A43 DUP9 DUP3 PUSH2 0x29E3 JUMP JUMPDEST DUP5 MSTORE PUSH1 0x20 DUP5 ADD SWAP4 POP POP PUSH1 0x20 DUP2 ADD SWAP1 POP PUSH2 0x2A30 JUMP JUMPDEST POP POP POP SWAP4 SWAP3 POP POP POP JUMP JUMPDEST PUSH1 0x0 DUP3 PUSH1 0x1F DUP4 ADD SLT PUSH2 0x2A76 JUMPI PUSH2 0x2A75 PUSH2 0x1BC3 JUMP JUMPDEST JUMPDEST DUP2 MLOAD PUSH2 0x2A86 DUP5 DUP3 PUSH1 0x20 DUP7 ADD PUSH2 0x29F8 JUMP JUMPDEST SWAP2 POP POP SWAP3 SWAP2 POP POP JUMP JUMPDEST PUSH1 0x0 PUSH1 0x20 DUP3 DUP5 SUB SLT ISZERO PUSH2 0x2AA5 JUMPI PUSH2 0x2AA4 PUSH2 0x1BB9 JUMP JUMPDEST JUMPDEST PUSH1 0x0 DUP3 ADD MLOAD PUSH8 0xFFFFFFFFFFFFFFFF DUP2 GT ISZERO PUSH2 0x2AC3 JUMPI PUSH2 0x2AC2 PUSH2 0x1BBE JUMP JUMPDEST JUMPDEST PUSH2 0x2ACF DUP5 DUP3 DUP6 ADD PUSH2 0x2A61 JUMP JUMPDEST SWAP2 POP POP SWAP3 SWAP2 POP POP JUMP INVALID LOG2 PUSH5 0x6970667358 0x22 SLT KECCAK256 PUSH1 0x62 0xC7 0x24 SIGNEXTEND 0xB0 0x27 SWAP11 0xC2 0xDB 0xE6 0x25 0x5D MSTORE8 0xE0 SWAP8 DUP14 PUSH22 0x71253E5C0757280BB11CC7EA034464736F6C63430008 SLT STOP CALLER "
				},
				"gasEstimates": {
					"creation": {
						"codeDepositCost": "2204400",
						"executionCost": "2353",
						"totalCost": "2206753"
					},
					"external": {
						"": "infinite",
						"diamondCut((address,uint8,bytes4[])[],address,bytes)": "infinite",
						"facetAddress(bytes4)": "2955",
						"facetAddresses()": "infinite",
						"facetFunctionSelectors(address)": "infinite",
						"facets()": "infinite",
						"getNumber10()": "2527",
						"getNumber100()": "2505",
						"selectorToAddress(bytes4)": "2867",
						"selectors(uint256)": "6637",
						"storedAddresses(uint256)": "4956"
					},
					"internal": {
						"facetAddressesSupport()": "infinite"
					}
				},
				"methodIdentifiers": {
					"diamondCut((address,uint8,bytes4[])[],address,bytes)": "1f931c1c",
					"facetAddress(bytes4)": "cdffacc6",
					"facetAddresses()": "52ef6b2c",
					"facetFunctionSelectors(address)": "adfca15e",
					"facets()": "7a0ed627",
					"getNumber10()": "0e90f45d",
					"getNumber100()": "02c85697",
					"selectorToAddress(bytes4)": "a4666aeb",
					"selectors(uint256)": "f58b911d",
					"storedAddresses(uint256)": "7d86195c"
				}
			},
			"storageLayout": {
				"storage": [
					{
						"astId": 20,
						"contract": "Seminar DevOps (1)/contracts/contracts/Diamond/Diamond.sol:Diamond",
						"label": "selectorToAddress",
						"offset": 0,
						"slot": "0",
						"type": "t_mapping(t_bytes4,t_address)"
					},
					{
						"astId": 23,
						"contract": "Seminar DevOps (1)/contracts/contracts/Diamond/Diamond.sol:Diamond",
						"label": "selectors",
						"offset": 0,
						"slot": "1",
						"type": "t_array(t_bytes4)dyn_storage"
					},
					{
						"astId": 26,
						"contract": "Seminar DevOps (1)/contracts/contracts/Diamond/Diamond.sol:Diamond",
						"label": "storedAddresses",
						"offset": 0,
						"slot": "2",
						"type": "t_array(t_address)dyn_storage"
					}
				],
				"types": {
					"t_address": {
						"encoding": "inplace",
						"label": "address",
						"numberOfBytes": "20"
					},
					"t_array(t_address)dyn_storage": {
						"base": "t_address",
						"encoding": "dynamic_array",
						"label": "address[]",
						"numberOfBytes": "32"
					},
					"t_array(t_bytes4)dyn_storage": {
						"base": "t_bytes4",
						"encoding": "dynamic_array",
						"label": "bytes4[]",
						"numberOfBytes": "32"
					},
					"t_bytes4": {
						"encoding": "inplace",
						"label": "bytes4",
						"numberOfBytes": "4"
					},
					"t_mapping(t_bytes4,t_address)": {
						"encoding": "mapping",
						"key": "t_bytes4",
						"label": "mapping(bytes4 => address)",
						"numberOfBytes": "32",
						"value": "t_address"
					}
				}
			},
			"userdoc": {
				"kind": "user",
				"methods": {
					"diamondCut((address,uint8,bytes4[])[],address,bytes)": {
						"notice": "Add/replace/remove any number of functions and optionally execute         a function with delegatecall"
					},
					"facetAddress(bytes4)": {
						"notice": "Gets the facet that supports the given selector."
					},
					"facetAddresses()": {
						"notice": "Get all the facet addresses used by a diamond."
					},
					"facetFunctionSelectors(address)": {
						"notice": "Gets all the function selectors supported by a specific facet."
					},
					"facets()": {
						"notice": "Gets all facet addresses and their four byte function selectors."
					}
				},
				"version": 1
			}
		}
	}
}