{
	"Seminar DevOps (1)/contracts/contracts/ProxyStorage/ProxyPattern.sol": {
		"ProxyPattern": {
			"abi": [
				{
					"inputs": [
						{
							"internalType": "address",
							"name": "_delegate",
							"type": "address"
						}
					],
					"stateMutability": "nonpayable",
					"type": "constructor"
				},
				{
					"stateMutability": "payable",
					"type": "fallback"
				},
				{
					"inputs": [],
					"name": "getDelegate",
					"outputs": [
						{
							"internalType": "address",
							"name": "delegate",
							"type": "address"
						}
					],
					"stateMutability": "view",
					"type": "function"
				},
				{
					"inputs": [],
					"name": "getNumber",
					"outputs": [
						{
							"internalType": "uint256",
							"name": "num",
							"type": "uint256"
						}
					],
					"stateMutability": "view",
					"type": "function"
				},
				{
					"inputs": [
						{
							"internalType": "address",
							"name": "_delegate",
							"type": "address"
						}
					],
					"name": "updateDelegate",
					"outputs": [],
					"stateMutability": "nonpayable",
					"type": "function"
				}
			],
			"devdoc": {
				"kind": "dev",
				"methods": {},
				"version": 1
			},
			"evm": {
				"assembly": "    /* \"Seminar DevOps (1)/contracts/contracts/ProxyStorage/ProxyPattern.sol\":257:2028  contract ProxyPattern{... */\n  mstore(0x40, 0x80)\n    /* \"Seminar DevOps (1)/contracts/contracts/ProxyStorage/ProxyPattern.sol\":356:507  constructor(address _delegate){... */\n  callvalue\n  dup1\n  iszero\n  tag_1\n  jumpi\n  0x00\n  dup1\n  revert\ntag_1:\n  pop\n  mload(0x40)\n  sub(codesize, bytecodeSize)\n  dup1\n  bytecodeSize\n  dup4\n  codecopy\n  dup2\n  dup2\n  add\n  0x40\n  mstore\n  dup2\n  add\n  swap1\n  tag_2\n  swap2\n  swap1\n  tag_3\n  jump\t// in\ntag_2:\n    /* \"Seminar DevOps (1)/contracts/contracts/ProxyStorage/ProxyPattern.sol\":396:412  bytes32 position */\n  0x00\n    /* \"Seminar DevOps (1)/contracts/contracts/ProxyStorage/ProxyPattern.sol\":415:436  keccak256(\"delegate\") */\n  0x6fdcb8fff5ef717a847d344b0a6ae7be40a2656cce2c3881dd009fc855b9d1ec\n    /* \"Seminar DevOps (1)/contracts/contracts/ProxyStorage/ProxyPattern.sol\":396:436  bytes32 position = keccak256(\"delegate\") */\n  swap1\n  pop\n    /* \"Seminar DevOps (1)/contracts/contracts/ProxyStorage/ProxyPattern.sol\":490:499  _delegate */\n  dup2\n    /* \"Seminar DevOps (1)/contracts/contracts/ProxyStorage/ProxyPattern.sol\":480:488  position */\n  dup2\n    /* \"Seminar DevOps (1)/contracts/contracts/ProxyStorage/ProxyPattern.sol\":473:500  sstore(position, _delegate) */\n  sstore\n    /* \"Seminar DevOps (1)/contracts/contracts/ProxyStorage/ProxyPattern.sol\":459:501  {... */\n  pop\n    /* \"Seminar DevOps (1)/contracts/contracts/ProxyStorage/ProxyPattern.sol\":356:507  constructor(address _delegate){... */\n  pop\n    /* \"Seminar DevOps (1)/contracts/contracts/ProxyStorage/ProxyPattern.sol\":257:2028  contract ProxyPattern{... */\n  jump(tag_6)\n    /* \"#utility.yul\":88:205   */\ntag_8:\n    /* \"#utility.yul\":197:198   */\n  0x00\n    /* \"#utility.yul\":194:195   */\n  dup1\n    /* \"#utility.yul\":187:199   */\n  revert\n    /* \"#utility.yul\":334:460   */\ntag_10:\n    /* \"#utility.yul\":371:378   */\n  0x00\n    /* \"#utility.yul\":411:453   */\n  0xffffffffffffffffffffffffffffffffffffffff\n    /* \"#utility.yul\":404:409   */\n  dup3\n    /* \"#utility.yul\":400:454   */\n  and\n    /* \"#utility.yul\":389:454   */\n  swap1\n  pop\n    /* \"#utility.yul\":334:460   */\n  swap2\n  swap1\n  pop\n  jump\t// out\n    /* \"#utility.yul\":466:562   */\ntag_11:\n    /* \"#utility.yul\":503:510   */\n  0x00\n    /* \"#utility.yul\":532:556   */\n  tag_20\n    /* \"#utility.yul\":550:555   */\n  dup3\n    /* \"#utility.yul\":532:556   */\n  tag_10\n  jump\t// in\ntag_20:\n    /* \"#utility.yul\":521:556   */\n  swap1\n  pop\n    /* \"#utility.yul\":466:562   */\n  swap2\n  swap1\n  pop\n  jump\t// out\n    /* \"#utility.yul\":568:690   */\ntag_12:\n    /* \"#utility.yul\":641:665   */\n  tag_22\n    /* \"#utility.yul\":659:664   */\n  dup2\n    /* \"#utility.yul\":641:665   */\n  tag_11\n  jump\t// in\ntag_22:\n    /* \"#utility.yul\":634:639   */\n  dup2\n    /* \"#utility.yul\":631:666   */\n  eq\n    /* \"#utility.yul\":621:684   */\n  tag_23\n  jumpi\n    /* \"#utility.yul\":680:681   */\n  0x00\n    /* \"#utility.yul\":677:678   */\n  dup1\n    /* \"#utility.yul\":670:682   */\n  revert\n    /* \"#utility.yul\":621:684   */\ntag_23:\n    /* \"#utility.yul\":568:690   */\n  pop\n  jump\t// out\n    /* \"#utility.yul\":696:839   */\ntag_13:\n    /* \"#utility.yul\":753:758   */\n  0x00\n    /* \"#utility.yul\":784:790   */\n  dup2\n    /* \"#utility.yul\":778:791   */\n  mload\n    /* \"#utility.yul\":769:791   */\n  swap1\n  pop\n    /* \"#utility.yul\":800:833   */\n  tag_25\n    /* \"#utility.yul\":827:832   */\n  dup2\n    /* \"#utility.yul\":800:833   */\n  tag_12\n  jump\t// in\ntag_25:\n    /* \"#utility.yul\":696:839   */\n  swap3\n  swap2\n  pop\n  pop\n  jump\t// out\n    /* \"#utility.yul\":845:1196   */\ntag_3:\n    /* \"#utility.yul\":915:921   */\n  0x00\n    /* \"#utility.yul\":964:966   */\n  0x20\n    /* \"#utility.yul\":952:961   */\n  dup3\n    /* \"#utility.yul\":943:950   */\n  dup5\n    /* \"#utility.yul\":939:962   */\n  sub\n    /* \"#utility.yul\":935:967   */\n  slt\n    /* \"#utility.yul\":932:1051   */\n  iszero\n  tag_27\n  jumpi\n    /* \"#utility.yul\":970:1049   */\n  tag_28\n  tag_8\n  jump\t// in\ntag_28:\n    /* \"#utility.yul\":932:1051   */\ntag_27:\n    /* \"#utility.yul\":1090:1091   */\n  0x00\n    /* \"#utility.yul\":1115:1179   */\n  tag_29\n    /* \"#utility.yul\":1171:1178   */\n  dup5\n    /* \"#utility.yul\":1162:1168   */\n  dup3\n    /* \"#utility.yul\":1151:1160   */\n  dup6\n    /* \"#utility.yul\":1147:1169   */\n  add\n    /* \"#utility.yul\":1115:1179   */\n  tag_13\n  jump\t// in\ntag_29:\n    /* \"#utility.yul\":1105:1179   */\n  swap2\n  pop\n    /* \"#utility.yul\":1061:1189   */\n  pop\n    /* \"#utility.yul\":845:1196   */\n  swap3\n  swap2\n  pop\n  pop\n  jump\t// out\n    /* \"Seminar DevOps (1)/contracts/contracts/ProxyStorage/ProxyPattern.sol\":257:2028  contract ProxyPattern{... */\ntag_6:\n  dataSize(sub_0)\n  dup1\n  dataOffset(sub_0)\n  0x00\n  codecopy\n  0x00\n  return\nstop\n\nsub_0: assembly {\n        /* \"Seminar DevOps (1)/contracts/contracts/ProxyStorage/ProxyPattern.sol\":257:2028  contract ProxyPattern{... */\n      mstore(0x40, 0x80)\n      jumpi(tag_1, lt(calldatasize, 0x04))\n      shr(0xe0, calldataload(0x00))\n      dup1\n      0xbc7f3b50\n      eq\n      tag_3\n      jumpi\n      dup1\n      0xf2c9ecd8\n      eq\n      tag_4\n      jumpi\n      dup1\n      0xfe3f9b0e\n      eq\n      tag_5\n      jumpi\n      jump(tag_2)\n    tag_1:\n    tag_2:\n        /* \"Seminar DevOps (1)/contracts/contracts/ProxyStorage/ProxyPattern.sol\":1264:1281  address _delegate */\n      0x00\n        /* \"Seminar DevOps (1)/contracts/contracts/ProxyStorage/ProxyPattern.sol\":1284:1297  getDelegate() */\n      tag_8\n        /* \"Seminar DevOps (1)/contracts/contracts/ProxyStorage/ProxyPattern.sol\":1284:1295  getDelegate */\n      tag_9\n        /* \"Seminar DevOps (1)/contracts/contracts/ProxyStorage/ProxyPattern.sol\":1284:1297  getDelegate() */\n      jump\t// in\n    tag_8:\n        /* \"Seminar DevOps (1)/contracts/contracts/ProxyStorage/ProxyPattern.sol\":1264:1297  address _delegate = getDelegate() */\n      swap1\n      pop\n        /* \"Seminar DevOps (1)/contracts/contracts/ProxyStorage/ProxyPattern.sol\":1336:1337  0 */\n      0x00\n        /* \"Seminar DevOps (1)/contracts/contracts/ProxyStorage/ProxyPattern.sol\":1315:1338  _delegate != address(0) */\n      0xffffffffffffffffffffffffffffffffffffffff\n      and\n        /* \"Seminar DevOps (1)/contracts/contracts/ProxyStorage/ProxyPattern.sol\":1315:1324  _delegate */\n      dup2\n        /* \"Seminar DevOps (1)/contracts/contracts/ProxyStorage/ProxyPattern.sol\":1315:1338  _delegate != address(0) */\n      0xffffffffffffffffffffffffffffffffffffffff\n      and\n      sub\n        /* \"Seminar DevOps (1)/contracts/contracts/ProxyStorage/ProxyPattern.sol\":1307:1339  require(_delegate != address(0)) */\n      tag_10\n      jumpi\n      0x00\n      dup1\n      revert\n    tag_10:\n        /* \"Seminar DevOps (1)/contracts/contracts/ProxyStorage/ProxyPattern.sol\":1553:1567  calldatasize() */\n      calldatasize\n        /* \"Seminar DevOps (1)/contracts/contracts/ProxyStorage/ProxyPattern.sol\":1548:1551  0x0 */\n      0x00\n        /* \"Seminar DevOps (1)/contracts/contracts/ProxyStorage/ProxyPattern.sol\":1543:1546  0x0 */\n      dup1\n        /* \"Seminar DevOps (1)/contracts/contracts/ProxyStorage/ProxyPattern.sol\":1530:1568  calldatacopy(0x0, 0x0, calldatasize()) */\n      calldatacopy\n        /* \"Seminar DevOps (1)/contracts/contracts/ProxyStorage/ProxyPattern.sol\":1718:1721  0x0 */\n      0x00\n        /* \"Seminar DevOps (1)/contracts/contracts/ProxyStorage/ProxyPattern.sol\":1713:1716  0x0 */\n      dup1\n        /* \"Seminar DevOps (1)/contracts/contracts/ProxyStorage/ProxyPattern.sol\":1697:1711  calldatasize() */\n      calldatasize\n        /* \"Seminar DevOps (1)/contracts/contracts/ProxyStorage/ProxyPattern.sol\":1692:1695  0x0 */\n      0x00\n        /* \"Seminar DevOps (1)/contracts/contracts/ProxyStorage/ProxyPattern.sol\":1681:1690  _delegate */\n      dup5\n        /* \"Seminar DevOps (1)/contracts/contracts/ProxyStorage/ProxyPattern.sol\":1674:1679  gas() */\n      gas\n        /* \"Seminar DevOps (1)/contracts/contracts/ProxyStorage/ProxyPattern.sol\":1661:1722  delegatecall(gas(), _delegate, 0x0, calldatasize(), 0x0, 0x0) */\n      delegatecall\n        /* \"Seminar DevOps (1)/contracts/contracts/ProxyStorage/ProxyPattern.sol\":1796:1812  returndatasize() */\n      returndatasize\n        /* \"Seminar DevOps (1)/contracts/contracts/ProxyStorage/ProxyPattern.sol\":1791:1794  0x0 */\n      0x00\n        /* \"Seminar DevOps (1)/contracts/contracts/ProxyStorage/ProxyPattern.sol\":1786:1789  0x0 */\n      dup1\n        /* \"Seminar DevOps (1)/contracts/contracts/ProxyStorage/ProxyPattern.sol\":1771:1813  returndatacopy(0x0, 0x0, returndatasize()) */\n      returndatacopy\n        /* \"Seminar DevOps (1)/contracts/contracts/ProxyStorage/ProxyPattern.sol\":1900:1906  result */\n      dup1\n        /* \"Seminar DevOps (1)/contracts/contracts/ProxyStorage/ProxyPattern.sol\":1924:1925  0 */\n      0x00\n        /* \"Seminar DevOps (1)/contracts/contracts/ProxyStorage/ProxyPattern.sol\":1919:1957  case 0 {revert(0x0, returndatasize())} */\n      dup2\n      eq\n      tag_12\n      jumpi\n        /* \"Seminar DevOps (1)/contracts/contracts/ProxyStorage/ProxyPattern.sol\":1992:2008  returndatasize() */\n      returndatasize\n        /* \"Seminar DevOps (1)/contracts/contracts/ProxyStorage/ProxyPattern.sol\":1987:1990  0x0 */\n      0x00\n        /* \"Seminar DevOps (1)/contracts/contracts/ProxyStorage/ProxyPattern.sol\":1979:2009  return (0x0, returndatasize()) */\n      return\n        /* \"Seminar DevOps (1)/contracts/contracts/ProxyStorage/ProxyPattern.sol\":1919:1957  case 0 {revert(0x0, returndatasize())} */\n    tag_12:\n        /* \"Seminar DevOps (1)/contracts/contracts/ProxyStorage/ProxyPattern.sol\":1939:1955  returndatasize() */\n      returndatasize\n        /* \"Seminar DevOps (1)/contracts/contracts/ProxyStorage/ProxyPattern.sol\":1934:1937  0x0 */\n      0x00\n        /* \"Seminar DevOps (1)/contracts/contracts/ProxyStorage/ProxyPattern.sol\":1927:1956  revert(0x0, returndatasize()) */\n      revert\n        /* \"Seminar DevOps (1)/contracts/contracts/ProxyStorage/ProxyPattern.sol\":789:969  function getDelegate() public view returns(address delegate){... */\n    tag_3:\n      callvalue\n      dup1\n      iszero\n      tag_13\n      jumpi\n      0x00\n      dup1\n      revert\n    tag_13:\n      pop\n      tag_14\n      tag_9\n      jump\t// in\n    tag_14:\n      mload(0x40)\n      tag_15\n      swap2\n      swap1\n      tag_16\n      jump\t// in\n    tag_15:\n      mload(0x40)\n      dup1\n      swap2\n      sub\n      swap1\n      return\n        /* \"Seminar DevOps (1)/contracts/contracts/ProxyStorage/ProxyPattern.sol\":565:731  function getNumber() public view returns(uint256 num){... */\n    tag_4:\n      callvalue\n      dup1\n      iszero\n      tag_17\n      jumpi\n      0x00\n      dup1\n      revert\n    tag_17:\n      pop\n      tag_18\n      tag_19\n      jump\t// in\n    tag_18:\n      mload(0x40)\n      tag_20\n      swap2\n      swap1\n      tag_21\n      jump\t// in\n    tag_20:\n      mload(0x40)\n      dup1\n      swap2\n      sub\n      swap1\n      return\n        /* \"Seminar DevOps (1)/contracts/contracts/ProxyStorage/ProxyPattern.sol\":976:1153  function updateDelegate(address _delegate) public{... */\n    tag_5:\n      callvalue\n      dup1\n      iszero\n      tag_22\n      jumpi\n      0x00\n      dup1\n      revert\n    tag_22:\n      pop\n      tag_23\n      0x04\n      dup1\n      calldatasize\n      sub\n      dup2\n      add\n      swap1\n      tag_24\n      swap2\n      swap1\n      tag_25\n      jump\t// in\n    tag_24:\n      tag_26\n      jump\t// in\n    tag_23:\n      stop\n        /* \"Seminar DevOps (1)/contracts/contracts/ProxyStorage/ProxyPattern.sol\":789:969  function getDelegate() public view returns(address delegate){... */\n    tag_9:\n        /* \"Seminar DevOps (1)/contracts/contracts/ProxyStorage/ProxyPattern.sol\":832:848  address delegate */\n      0x00\n        /* \"Seminar DevOps (1)/contracts/contracts/ProxyStorage/ProxyPattern.sol\":859:875  bytes32 position */\n      dup1\n        /* \"Seminar DevOps (1)/contracts/contracts/ProxyStorage/ProxyPattern.sol\":878:899  keccak256(\"delegate\") */\n      0x6fdcb8fff5ef717a847d344b0a6ae7be40a2656cce2c3881dd009fc855b9d1ec\n        /* \"Seminar DevOps (1)/contracts/contracts/ProxyStorage/ProxyPattern.sol\":859:899  bytes32 position = keccak256(\"delegate\") */\n      swap1\n      pop\n        /* \"Seminar DevOps (1)/contracts/contracts/ProxyStorage/ProxyPattern.sol\":946:954  position */\n      dup1\n        /* \"Seminar DevOps (1)/contracts/contracts/ProxyStorage/ProxyPattern.sol\":940:955  sload(position) */\n      sload\n        /* \"Seminar DevOps (1)/contracts/contracts/ProxyStorage/ProxyPattern.sol\":928:955  delegate := sload(position) */\n      swap2\n      pop\n        /* \"Seminar DevOps (1)/contracts/contracts/ProxyStorage/ProxyPattern.sol\":918:963  {... */\n      pop\n        /* \"Seminar DevOps (1)/contracts/contracts/ProxyStorage/ProxyPattern.sol\":789:969  function getDelegate() public view returns(address delegate){... */\n      swap1\n      jump\t// out\n        /* \"Seminar DevOps (1)/contracts/contracts/ProxyStorage/ProxyPattern.sol\":565:731  function getNumber() public view returns(uint256 num){... */\n    tag_19:\n        /* \"Seminar DevOps (1)/contracts/contracts/ProxyStorage/ProxyPattern.sol\":606:617  uint256 num */\n      0x00\n        /* \"Seminar DevOps (1)/contracts/contracts/ProxyStorage/ProxyPattern.sol\":628:644  bytes32 position */\n      dup1\n        /* \"Seminar DevOps (1)/contracts/contracts/ProxyStorage/ProxyPattern.sol\":647:666  keccak256(\"number\") */\n      0xf648814c67221440671fd7c2de979db4020a9320fb7985ff79ca8e7dced277f8\n        /* \"Seminar DevOps (1)/contracts/contracts/ProxyStorage/ProxyPattern.sol\":628:666  bytes32 position = keccak256(\"number\") */\n      swap1\n      pop\n        /* \"Seminar DevOps (1)/contracts/contracts/ProxyStorage/ProxyPattern.sol\":708:716  position */\n      dup1\n        /* \"Seminar DevOps (1)/contracts/contracts/ProxyStorage/ProxyPattern.sol\":702:717  sload(position) */\n      sload\n        /* \"Seminar DevOps (1)/contracts/contracts/ProxyStorage/ProxyPattern.sol\":695:717  num := sload(position) */\n      swap2\n      pop\n        /* \"Seminar DevOps (1)/contracts/contracts/ProxyStorage/ProxyPattern.sol\":685:725  {... */\n      pop\n        /* \"Seminar DevOps (1)/contracts/contracts/ProxyStorage/ProxyPattern.sol\":565:731  function getNumber() public view returns(uint256 num){... */\n      swap1\n      jump\t// out\n        /* \"Seminar DevOps (1)/contracts/contracts/ProxyStorage/ProxyPattern.sol\":976:1153  function updateDelegate(address _delegate) public{... */\n    tag_26:\n        /* \"Seminar DevOps (1)/contracts/contracts/ProxyStorage/ProxyPattern.sol\":1035:1051  bytes32 position */\n      0x00\n        /* \"Seminar DevOps (1)/contracts/contracts/ProxyStorage/ProxyPattern.sol\":1054:1075  keccak256(\"delegate\") */\n      0x6fdcb8fff5ef717a847d344b0a6ae7be40a2656cce2c3881dd009fc855b9d1ec\n        /* \"Seminar DevOps (1)/contracts/contracts/ProxyStorage/ProxyPattern.sol\":1035:1075  bytes32 position = keccak256(\"delegate\") */\n      swap1\n      pop\n        /* \"Seminar DevOps (1)/contracts/contracts/ProxyStorage/ProxyPattern.sol\":1129:1138  _delegate */\n      dup2\n        /* \"Seminar DevOps (1)/contracts/contracts/ProxyStorage/ProxyPattern.sol\":1119:1127  position */\n      dup2\n        /* \"Seminar DevOps (1)/contracts/contracts/ProxyStorage/ProxyPattern.sol\":1112:1139  sstore(position, _delegate) */\n      sstore\n        /* \"Seminar DevOps (1)/contracts/contracts/ProxyStorage/ProxyPattern.sol\":1098:1140  {... */\n      pop\n        /* \"Seminar DevOps (1)/contracts/contracts/ProxyStorage/ProxyPattern.sol\":976:1153  function updateDelegate(address _delegate) public{... */\n      pop\n      jump\t// out\n        /* \"#utility.yul\":7:133   */\n    tag_30:\n        /* \"#utility.yul\":44:51   */\n      0x00\n        /* \"#utility.yul\":84:126   */\n      0xffffffffffffffffffffffffffffffffffffffff\n        /* \"#utility.yul\":77:82   */\n      dup3\n        /* \"#utility.yul\":73:127   */\n      and\n        /* \"#utility.yul\":62:127   */\n      swap1\n      pop\n        /* \"#utility.yul\":7:133   */\n      swap2\n      swap1\n      pop\n      jump\t// out\n        /* \"#utility.yul\":139:235   */\n    tag_31:\n        /* \"#utility.yul\":176:183   */\n      0x00\n        /* \"#utility.yul\":205:229   */\n      tag_43\n        /* \"#utility.yul\":223:228   */\n      dup3\n        /* \"#utility.yul\":205:229   */\n      tag_30\n      jump\t// in\n    tag_43:\n        /* \"#utility.yul\":194:229   */\n      swap1\n      pop\n        /* \"#utility.yul\":139:235   */\n      swap2\n      swap1\n      pop\n      jump\t// out\n        /* \"#utility.yul\":241:359   */\n    tag_32:\n        /* \"#utility.yul\":328:352   */\n      tag_45\n        /* \"#utility.yul\":346:351   */\n      dup2\n        /* \"#utility.yul\":328:352   */\n      tag_31\n      jump\t// in\n    tag_45:\n        /* \"#utility.yul\":323:326   */\n      dup3\n        /* \"#utility.yul\":316:353   */\n      mstore\n        /* \"#utility.yul\":241:359   */\n      pop\n      pop\n      jump\t// out\n        /* \"#utility.yul\":365:587   */\n    tag_16:\n        /* \"#utility.yul\":458:462   */\n      0x00\n        /* \"#utility.yul\":496:498   */\n      0x20\n        /* \"#utility.yul\":485:494   */\n      dup3\n        /* \"#utility.yul\":481:499   */\n      add\n        /* \"#utility.yul\":473:499   */\n      swap1\n      pop\n        /* \"#utility.yul\":509:580   */\n      tag_47\n        /* \"#utility.yul\":577:578   */\n      0x00\n        /* \"#utility.yul\":566:575   */\n      dup4\n        /* \"#utility.yul\":562:579   */\n      add\n        /* \"#utility.yul\":553:559   */\n      dup5\n        /* \"#utility.yul\":509:580   */\n      tag_32\n      jump\t// in\n    tag_47:\n        /* \"#utility.yul\":365:587   */\n      swap3\n      swap2\n      pop\n      pop\n      jump\t// out\n        /* \"#utility.yul\":593:670   */\n    tag_33:\n        /* \"#utility.yul\":630:637   */\n      0x00\n        /* \"#utility.yul\":659:664   */\n      dup2\n        /* \"#utility.yul\":648:664   */\n      swap1\n      pop\n        /* \"#utility.yul\":593:670   */\n      swap2\n      swap1\n      pop\n      jump\t// out\n        /* \"#utility.yul\":676:794   */\n    tag_34:\n        /* \"#utility.yul\":763:787   */\n      tag_50\n        /* \"#utility.yul\":781:786   */\n      dup2\n        /* \"#utility.yul\":763:787   */\n      tag_33\n      jump\t// in\n    tag_50:\n        /* \"#utility.yul\":758:761   */\n      dup3\n        /* \"#utility.yul\":751:788   */\n      mstore\n        /* \"#utility.yul\":676:794   */\n      pop\n      pop\n      jump\t// out\n        /* \"#utility.yul\":800:1022   */\n    tag_21:\n        /* \"#utility.yul\":893:897   */\n      0x00\n        /* \"#utility.yul\":931:933   */\n      0x20\n        /* \"#utility.yul\":920:929   */\n      dup3\n        /* \"#utility.yul\":916:934   */\n      add\n        /* \"#utility.yul\":908:934   */\n      swap1\n      pop\n        /* \"#utility.yul\":944:1015   */\n      tag_52\n        /* \"#utility.yul\":1012:1013   */\n      0x00\n        /* \"#utility.yul\":1001:1010   */\n      dup4\n        /* \"#utility.yul\":997:1014   */\n      add\n        /* \"#utility.yul\":988:994   */\n      dup5\n        /* \"#utility.yul\":944:1015   */\n      tag_34\n      jump\t// in\n    tag_52:\n        /* \"#utility.yul\":800:1022   */\n      swap3\n      swap2\n      pop\n      pop\n      jump\t// out\n        /* \"#utility.yul\":1109:1226   */\n    tag_36:\n        /* \"#utility.yul\":1218:1219   */\n      0x00\n        /* \"#utility.yul\":1215:1216   */\n      dup1\n        /* \"#utility.yul\":1208:1220   */\n      revert\n        /* \"#utility.yul\":1355:1477   */\n    tag_38:\n        /* \"#utility.yul\":1428:1452   */\n      tag_57\n        /* \"#utility.yul\":1446:1451   */\n      dup2\n        /* \"#utility.yul\":1428:1452   */\n      tag_31\n      jump\t// in\n    tag_57:\n        /* \"#utility.yul\":1421:1426   */\n      dup2\n        /* \"#utility.yul\":1418:1453   */\n      eq\n        /* \"#utility.yul\":1408:1471   */\n      tag_58\n      jumpi\n        /* \"#utility.yul\":1467:1468   */\n      0x00\n        /* \"#utility.yul\":1464:1465   */\n      dup1\n        /* \"#utility.yul\":1457:1469   */\n      revert\n        /* \"#utility.yul\":1408:1471   */\n    tag_58:\n        /* \"#utility.yul\":1355:1477   */\n      pop\n      jump\t// out\n        /* \"#utility.yul\":1483:1622   */\n    tag_39:\n        /* \"#utility.yul\":1529:1534   */\n      0x00\n        /* \"#utility.yul\":1567:1573   */\n      dup2\n        /* \"#utility.yul\":1554:1574   */\n      calldataload\n        /* \"#utility.yul\":1545:1574   */\n      swap1\n      pop\n        /* \"#utility.yul\":1583:1616   */\n      tag_60\n        /* \"#utility.yul\":1610:1615   */\n      dup2\n        /* \"#utility.yul\":1583:1616   */\n      tag_38\n      jump\t// in\n    tag_60:\n        /* \"#utility.yul\":1483:1622   */\n      swap3\n      swap2\n      pop\n      pop\n      jump\t// out\n        /* \"#utility.yul\":1628:1957   */\n    tag_25:\n        /* \"#utility.yul\":1687:1693   */\n      0x00\n        /* \"#utility.yul\":1736:1738   */\n      0x20\n        /* \"#utility.yul\":1724:1733   */\n      dup3\n        /* \"#utility.yul\":1715:1722   */\n      dup5\n        /* \"#utility.yul\":1711:1734   */\n      sub\n        /* \"#utility.yul\":1707:1739   */\n      slt\n        /* \"#utility.yul\":1704:1823   */\n      iszero\n      tag_62\n      jumpi\n        /* \"#utility.yul\":1742:1821   */\n      tag_63\n      tag_36\n      jump\t// in\n    tag_63:\n        /* \"#utility.yul\":1704:1823   */\n    tag_62:\n        /* \"#utility.yul\":1862:1863   */\n      0x00\n        /* \"#utility.yul\":1887:1940   */\n      tag_64\n        /* \"#utility.yul\":1932:1939   */\n      dup5\n        /* \"#utility.yul\":1923:1929   */\n      dup3\n        /* \"#utility.yul\":1912:1921   */\n      dup6\n        /* \"#utility.yul\":1908:1930   */\n      add\n        /* \"#utility.yul\":1887:1940   */\n      tag_39\n      jump\t// in\n    tag_64:\n        /* \"#utility.yul\":1877:1940   */\n      swap2\n      pop\n        /* \"#utility.yul\":1833:1950   */\n      pop\n        /* \"#utility.yul\":1628:1957   */\n      swap3\n      swap2\n      pop\n      pop\n      jump\t// out\n\n    auxdata: 0xa26469706673582212204d8423e4dca486c2c73aacbe43202ca17b2b3e52651c28d12e69a0903e91622f64736f6c63430008120033\n}\n",
				"bytecode": {
					"linkReferences": {},
					"object": "608060405234801561001057600080fd5b506040516103cf3803806103cf833981810160405281019061003291906100c4565b60007f6fdcb8fff5ef717a847d344b0a6ae7be40a2656cce2c3881dd009fc855b9d1ec905081815550506100f1565b600080fd5b600073ffffffffffffffffffffffffffffffffffffffff82169050919050565b600061009182610066565b9050919050565b6100a181610086565b81146100ac57600080fd5b50565b6000815190506100be81610098565b92915050565b6000602082840312156100da576100d9610061565b5b60006100e8848285016100af565b91505092915050565b6102cf806101006000396000f3fe6080604052600436106100385760003560e01c8063bc7f3b50146100a4578063f2c9ecd8146100cf578063fe3f9b0e146100fa57610039565b5b6000610043610123565b9050600073ffffffffffffffffffffffffffffffffffffffff168173ffffffffffffffffffffffffffffffffffffffff160361007e57600080fd5b3660008037600080366000845af43d6000803e806000811461009f573d6000f35b3d6000fd5b3480156100b057600080fd5b506100b9610123565b6040516100c691906101ec565b60405180910390f35b3480156100db57600080fd5b506100e4610151565b6040516100f19190610220565b60405180910390f35b34801561010657600080fd5b50610121600480360381019061011c919061026c565b61017f565b005b6000807f6fdcb8fff5ef717a847d344b0a6ae7be40a2656cce2c3881dd009fc855b9d1ec9050805491505090565b6000807ff648814c67221440671fd7c2de979db4020a9320fb7985ff79ca8e7dced277f89050805491505090565b60007f6fdcb8fff5ef717a847d344b0a6ae7be40a2656cce2c3881dd009fc855b9d1ec90508181555050565b600073ffffffffffffffffffffffffffffffffffffffff82169050919050565b60006101d6826101ab565b9050919050565b6101e6816101cb565b82525050565b600060208201905061020160008301846101dd565b92915050565b6000819050919050565b61021a81610207565b82525050565b60006020820190506102356000830184610211565b92915050565b600080fd5b610249816101cb565b811461025457600080fd5b50565b60008135905061026681610240565b92915050565b6000602082840312156102825761028161023b565b5b600061029084828501610257565b9150509291505056fea26469706673582212204d8423e4dca486c2c73aacbe43202ca17b2b3e52651c28d12e69a0903e91622f64736f6c63430008120033",
					"opcodes": "PUSH1 0x80 PUSH1 0x40 MSTORE CALLVALUE DUP1 ISZERO PUSH2 0x10 JUMPI PUSH1 0x0 DUP1 REVERT JUMPDEST POP PUSH1 0x40 MLOAD PUSH2 0x3CF CODESIZE SUB DUP1 PUSH2 0x3CF DUP4 CODECOPY DUP2 DUP2 ADD PUSH1 0x40 MSTORE DUP2 ADD SWAP1 PUSH2 0x32 SWAP2 SWAP1 PUSH2 0xC4 JUMP JUMPDEST PUSH1 0x0 PUSH32 0x6FDCB8FFF5EF717A847D344B0A6AE7BE40A2656CCE2C3881DD009FC855B9D1EC SWAP1 POP DUP2 DUP2 SSTORE POP POP PUSH2 0xF1 JUMP JUMPDEST PUSH1 0x0 DUP1 REVERT JUMPDEST PUSH1 0x0 PUSH20 0xFFFFFFFFFFFFFFFFFFFFFFFFFFFFFFFFFFFFFFFF DUP3 AND SWAP1 POP SWAP2 SWAP1 POP JUMP JUMPDEST PUSH1 0x0 PUSH2 0x91 DUP3 PUSH2 0x66 JUMP JUMPDEST SWAP1 POP SWAP2 SWAP1 POP JUMP JUMPDEST PUSH2 0xA1 DUP2 PUSH2 0x86 JUMP JUMPDEST DUP2 EQ PUSH2 0xAC JUMPI PUSH1 0x0 DUP1 REVERT JUMPDEST POP JUMP JUMPDEST PUSH1 0x0 DUP2 MLOAD SWAP1 POP PUSH2 0xBE DUP2 PUSH2 0x98 JUMP JUMPDEST SWAP3 SWAP2 POP POP JUMP JUMPDEST PUSH1 0x0 PUSH1 0x20 DUP3 DUP5 SUB SLT ISZERO PUSH2 0xDA JUMPI PUSH2 0xD9 PUSH2 0x61 JUMP JUMPDEST JUMPDEST PUSH1 0x0 PUSH2 0xE8 DUP5 DUP3 DUP6 ADD PUSH2 0xAF JUMP JUMPDEST SWAP2 POP POP SWAP3 SWAP2 POP POP JUMP JUMPDEST PUSH2 0x2CF DUP1 PUSH2 0x100 PUSH1 0x0 CODECOPY PUSH1 0x0 RETURN INVALID PUSH1 0x80 PUSH1 0x40 MSTORE PUSH1 0x4 CALLDATASIZE LT PUSH2 0x38 JUMPI PUSH1 0x0 CALLDATALOAD PUSH1 0xE0 SHR DUP1 PUSH4 0xBC7F3B50 EQ PUSH2 0xA4 JUMPI DUP1 PUSH4 0xF2C9ECD8 EQ PUSH2 0xCF JUMPI DUP1 PUSH4 0xFE3F9B0E EQ PUSH2 0xFA JUMPI PUSH2 0x39 JUMP JUMPDEST JUMPDEST PUSH1 0x0 PUSH2 0x43 PUSH2 0x123 JUMP JUMPDEST SWAP1 POP PUSH1 0x0 PUSH20 0xFFFFFFFFFFFFFFFFFFFFFFFFFFFFFFFFFFFFFFFF AND DUP2 PUSH20 0xFFFFFFFFFFFFFFFFFFFFFFFFFFFFFFFFFFFFFFFF AND SUB PUSH2 0x7E JUMPI PUSH1 0x0 DUP1 REVERT JUMPDEST CALLDATASIZE PUSH1 0x0 DUP1 CALLDATACOPY PUSH1 0x0 DUP1 CALLDATASIZE PUSH1 0x0 DUP5 GAS DELEGATECALL RETURNDATASIZE PUSH1 0x0 DUP1 RETURNDATACOPY DUP1 PUSH1 0x0 DUP2 EQ PUSH2 0x9F JUMPI RETURNDATASIZE PUSH1 0x0 RETURN JUMPDEST RETURNDATASIZE PUSH1 0x0 REVERT JUMPDEST CALLVALUE DUP1 ISZERO PUSH2 0xB0 JUMPI PUSH1 0x0 DUP1 REVERT JUMPDEST POP PUSH2 0xB9 PUSH2 0x123 JUMP JUMPDEST PUSH1 0x40 MLOAD PUSH2 0xC6 SWAP2 SWAP1 PUSH2 0x1EC JUMP JUMPDEST PUSH1 0x40 MLOAD DUP1 SWAP2 SUB SWAP1 RETURN JUMPDEST CALLVALUE DUP1 ISZERO PUSH2 0xDB JUMPI PUSH1 0x0 DUP1 REVERT JUMPDEST POP PUSH2 0xE4 PUSH2 0x151 JUMP JUMPDEST PUSH1 0x40 MLOAD PUSH2 0xF1 SWAP2 SWAP1 PUSH2 0x220 JUMP JUMPDEST PUSH1 0x40 MLOAD DUP1 SWAP2 SUB SWAP1 RETURN JUMPDEST CALLVALUE DUP1 ISZERO PUSH2 0x106 JUMPI PUSH1 0x0 DUP1 REVERT JUMPDEST POP PUSH2 0x121 PUSH1 0x4 DUP1 CALLDATASIZE SUB DUP2 ADD SWAP1 PUSH2 0x11C SWAP2 SWAP1 PUSH2 0x26C JUMP JUMPDEST PUSH2 0x17F JUMP JUMPDEST STOP JUMPDEST PUSH1 0x0 DUP1 PUSH32 0x6FDCB8FFF5EF717A847D344B0A6AE7BE40A2656CCE2C3881DD009FC855B9D1EC SWAP1 POP DUP1 SLOAD SWAP2 POP POP SWAP1 JUMP JUMPDEST PUSH1 0x0 DUP1 PUSH32 0xF648814C67221440671FD7C2DE979DB4020A9320FB7985FF79CA8E7DCED277F8 SWAP1 POP DUP1 SLOAD SWAP2 POP POP SWAP1 JUMP JUMPDEST PUSH1 0x0 PUSH32 0x6FDCB8FFF5EF717A847D344B0A6AE7BE40A2656CCE2C3881DD009FC855B9D1EC SWAP1 POP DUP2 DUP2 SSTORE POP POP JUMP JUMPDEST PUSH1 0x0 PUSH20 0xFFFFFFFFFFFFFFFFFFFFFFFFFFFFFFFFFFFFFFFF DUP3 AND SWAP1 POP SWAP2 SWAP1 POP JUMP JUMPDEST PUSH1 0x0 PUSH2 0x1D6 DUP3 PUSH2 0x1AB JUMP JUMPDEST SWAP1 POP SWAP2 SWAP1 POP JUMP JUMPDEST PUSH2 0x1E6 DUP2 PUSH2 0x1CB JUMP JUMPDEST DUP3 MSTORE POP POP JUMP JUMPDEST PUSH1 0x0 PUSH1 0x20 DUP3 ADD SWAP1 POP PUSH2 0x201 PUSH1 0x0 DUP4 ADD DUP5 PUSH2 0x1DD JUMP JUMPDEST SWAP3 SWAP2 POP POP JUMP JUMPDEST PUSH1 0x0 DUP2 SWAP1 POP SWAP2 SWAP1 POP JUMP JUMPDEST PUSH2 0x21A DUP2 PUSH2 0x207 JUMP JUMPDEST DUP3 MSTORE POP POP JUMP JUMPDEST PUSH1 0x0 PUSH1 0x20 DUP3 ADD SWAP1 POP PUSH2 0x235 PUSH1 0x0 DUP4 ADD DUP5 PUSH2 0x211 JUMP JUMPDEST SWAP3 SWAP2 POP POP JUMP JUMPDEST PUSH1 0x0 DUP1 REVERT JUMPDEST PUSH2 0x249 DUP2 PUSH2 0x1CB JUMP JUMPDEST DUP2 EQ PUSH2 0x254 JUMPI PUSH1 0x0 DUP1 REVERT JUMPDEST POP JUMP JUMPDEST PUSH1 0x0 DUP2 CALLDATALOAD SWAP1 POP PUSH2 0x266 DUP2 PUSH2 0x240 JUMP JUMPDEST SWAP3 SWAP2 POP POP JUMP JUMPDEST PUSH1 0x0 PUSH1 0x20 DUP3 DUP5 SUB SLT ISZERO PUSH2 0x282 JUMPI PUSH2 0x281 PUSH2 0x23B JUMP JUMPDEST JUMPDEST PUSH1 0x0 PUSH2 0x290 DUP5 DUP3 DUP6 ADD PUSH2 0x257 JUMP JUMPDEST SWAP2 POP POP SWAP3 SWAP2 POP POP JUMP INVALID LOG2 PUSH5 0x6970667358 0x22 SLT KECCAK256 0x4D DUP5 0x23 0xE4 0xDC LOG4 DUP7 0xC2 0xC7 GASPRICE 0xAC 0xBE NUMBER KECCAK256 0x2C LOG1 PUSH28 0x2B3E52651C28D12E69A0903E91622F64736F6C634300081200330000 "
				},
				"gasEstimates": {
					"creation": {
						"codeDepositCost": "143800",
						"executionCost": "infinite",
						"totalCost": "infinite"
					},
					"external": {
						"": "infinite",
						"getDelegate()": "2477",
						"getNumber()": "2450",
						"updateDelegate(address)": "22596"
					}
				},
				"methodIdentifiers": {
					"getDelegate()": "bc7f3b50",
					"getNumber()": "f2c9ecd8",
					"updateDelegate(address)": "fe3f9b0e"
				}
			},
			"storageLayout": {
				"storage": [],
				"types": null
			},
			"userdoc": {
				"kind": "user",
				"methods": {},
				"version": 1
			}
		}
	}
}