{
	"data": {
		"bytecode": {
			"linkReferences": {},
			"object": "608060405234801561001057600080fd5b50612b0e806100206000396000f3fe6080604052600436106100955760003560e01c80637d86195c116100595780637d86195c14610262578063a4666aeb1461029f578063adfca15e146102dc578063cdffacc614610319578063f58b911d1461035657610096565b806302c856971461018d5780630e90f45d146101b85780631f931c1c146101e357806352ef6b2c1461020c5780637a0ed6271461023757610096565b5b600080600080357fffffffff00000000000000000000000000000000000000000000000000000000167bffffffffffffffffffffffffffffffffffffffffffffffffffffffff19167bffffffffffffffffffffffffffffffffffffffffffffffffffffffff1916815260200190815260200160002060009054906101000a900473ffffffffffffffffffffffffffffffffffffffff169050600073ffffffffffffffffffffffffffffffffffffffff168173ffffffffffffffffffffffffffffffffffffffff160361016757600080fd5b3660008037600080366000845af43d6000803e8060008114610188573d6000f35b3d6000fd5b34801561019957600080fd5b506101a2610393565b6040516101af9190611b94565b60405180910390f35b3480156101c457600080fd5b506101cd6103ab565b6040516101da9190611b94565b60405180910390f35b3480156101ef57600080fd5b5061020a60048036038101906102059190611cdc565b6103c3565b005b34801561021857600080fd5b50610221610ef4565b60405161022e9190611e2f565b60405180910390f35b34801561024357600080fd5b5061024c610f82565b604051610259919061203a565b60405180910390f35b34801561026e57600080fd5b5061028960048036038101906102849190612088565b6112d9565b60405161029691906120c4565b60405180910390f35b3480156102ab57600080fd5b506102c660048036038101906102c1919061210b565b611318565b6040516102d391906120c4565b60405180910390f35b3480156102e857600080fd5b5061030360048036038101906102fe9190612138565b61134b565b60405161031091906121d4565b60405180910390f35b34801561032557600080fd5b50610340600480360381019061033b919061210b565b61164f565b60405161034d91906120c4565b60405180910390f35b34801561036257600080fd5b5061037d60048036038101906103789190612088565b6116c9565b60405161038a9190612205565b60405180910390f35b60008061039e611700565b9050806001015491505090565b6000806103b6611700565b9050806000015491505090565b60005b85859050811015610dab57600060028111156103e5576103e4612220565b5b8686838181106103f8576103f761224f565b5b905060200281019061040a919061228d565b602001602081019061041c91906122da565b600281111561042e5761042d612220565b5b036107485760005b8686838181106104495761044861224f565b5b905060200281019061045b919061228d565b806040019061046a9190612307565b905081101561074657600073ffffffffffffffffffffffffffffffffffffffff166000808989868181106104a1576104a061224f565b5b90506020028101906104b3919061228d565b80604001906104c29190612307565b858181106104d3576104d261224f565b5b90506020020160208101906104e8919061210b565b7bffffffffffffffffffffffffffffffffffffffffffffffffffffffff19167bffffffffffffffffffffffffffffffffffffffffffffffffffffffff1916815260200190815260200160002060009054906101000a900473ffffffffffffffffffffffffffffffffffffffff1673ffffffffffffffffffffffffffffffffffffffff1603610733578686838181106105835761058261224f565b5b9050602002810190610595919061228d565b60000160208101906105a79190612138565b6000808989868181106105bd576105bc61224f565b5b90506020028101906105cf919061228d565b80604001906105de9190612307565b858181106105ef576105ee61224f565b5b9050602002016020810190610604919061210b565b7bffffffffffffffffffffffffffffffffffffffffffffffffffffffff19167bffffffffffffffffffffffffffffffffffffffffffffffffffffffff1916815260200190815260200160002060006101000a81548173ffffffffffffffffffffffffffffffffffffffff021916908373ffffffffffffffffffffffffffffffffffffffff16021790555060018787848181106106a3576106a261224f565b5b90506020028101906106b5919061228d565b80604001906106c49190612307565b838181106106d5576106d461224f565b5b90506020020160208101906106ea919061210b565b90806001815401808255809150506001900390600052602060002090600891828204019190066004029091909190916101000a81548163ffffffff021916908360e01c02179055505b808061073e90612399565b915050610436565b505b6001600281111561075c5761075b612220565b5b86868381811061076f5761076e61224f565b5b9050602002810190610781919061228d565b602001602081019061079391906122da565b60028111156107a5576107a4612220565b5b03610a1b5760005b8686838181106107c0576107bf61224f565b5b90506020028101906107d2919061228d565b80604001906107e19190612307565b9050811015610a1957600073ffffffffffffffffffffffffffffffffffffffff166000808989868181106108185761081761224f565b5b905060200281019061082a919061228d565b80604001906108399190612307565b8581811061084a5761084961224f565b5b905060200201602081019061085f919061210b565b7bffffffffffffffffffffffffffffffffffffffffffffffffffffffff19167bffffffffffffffffffffffffffffffffffffffffffffffffffffffff1916815260200190815260200160002060009054906101000a900473ffffffffffffffffffffffffffffffffffffffff1673ffffffffffffffffffffffffffffffffffffffff1614610a06578686838181106108fa576108f961224f565b5b905060200281019061090c919061228d565b600001602081019061091e9190612138565b6000808989868181106109345761093361224f565b5b9050602002810190610946919061228d565b80604001906109559190612307565b858181106109665761096561224f565b5b905060200201602081019061097b919061210b565b7bffffffffffffffffffffffffffffffffffffffffffffffffffffffff19167bffffffffffffffffffffffffffffffffffffffffffffffffffffffff1916815260200190815260200160002060006101000a81548173ffffffffffffffffffffffffffffffffffffffff021916908373ffffffffffffffffffffffffffffffffffffffff1602179055505b8080610a1190612399565b9150506107ad565b505b600280811115610a2e57610a2d612220565b5b868683818110610a4157610a4061224f565b5b9050602002810190610a53919061228d565b6020016020810190610a6591906122da565b6002811115610a7757610a76612220565b5b03610d985760005b868683818110610a9257610a9161224f565b5b9050602002810190610aa4919061228d565b8060400190610ab39190612307565b9050811015610d96576000806000898986818110610ad457610ad361224f565b5b9050602002810190610ae6919061228d565b8060400190610af59190612307565b85818110610b0657610b0561224f565b5b9050602002016020810190610b1b919061210b565b7bffffffffffffffffffffffffffffffffffffffffffffffffffffffff19167bffffffffffffffffffffffffffffffffffffffffffffffffffffffff1916815260200190815260200160002060006101000a81548173ffffffffffffffffffffffffffffffffffffffff021916908373ffffffffffffffffffffffffffffffffffffffff16021790555060005b600180549050811015610d8257878784818110610bc857610bc761224f565b5b9050602002810190610bda919061228d565b8060400190610be99190612307565b83818110610bfa57610bf961224f565b5b9050602002016020810190610c0f919061210b565b7bffffffffffffffffffffffffffffffffffffffffffffffffffffffff191660018281548110610c4257610c4161224f565b5b90600052602060002090600891828204019190066004029054906101000a900460e01b7bffffffffffffffffffffffffffffffffffffffffffffffffffffffff191603610d6f5760018080549050610c9a91906123e1565b811015610d6e576001808080549050610cb391906123e1565b81548110610cc457610cc361224f565b5b90600052602060002090600891828204019190066004029054906101000a900460e01b60018281548110610cfb57610cfa61224f565b5b90600052602060002090600891828204019190066004026101000a81548163ffffffff021916908360e01c02179055506001805480610d3d57610d3c612415565b5b60019003818190600052602060002090600891828204019190066004026101000a81549063ffffffff021916905590555b5b8080610d7a90612399565b915050610ba8565b508080610d8e90612399565b915050610a7f565b505b8080610da390612399565b9150506103c6565b50610db461172d565b60029080519060200190610dc9929190611aa4565b507f8faa70878671ccd212d20771b795c50af8fd3ff6cf27f4bde57e5d4de0aeb6738585858585604051610e01959493929190612757565b60405180910390a1600073ffffffffffffffffffffffffffffffffffffffff168373ffffffffffffffffffffffffffffffffffffffff1614610eed5760008373ffffffffffffffffffffffffffffffffffffffff168383604051610e669291906127d0565b600060405180830381855af49150503d8060008114610ea1576040519150601f19603f3d011682016040523d82523d6000602084013e610ea6565b606091505b5050905080610eeb577ff7799c13936fa7e564cd208124650df4af9063ed8b45000d2442efdb081b7759848484604051610ee2939291906127e9565b60405180910390a15b505b5050505050565b60606002805480602002602001604051908101604052809291908181526020018280548015610f7857602002820191906000526020600020905b8160009054906101000a900473ffffffffffffffffffffffffffffffffffffffff1673ffffffffffffffffffffffffffffffffffffffff1681526020019060010190808311610f2e575b5050505050905090565b60603073ffffffffffffffffffffffffffffffffffffffff166352ef6b2c6040518163ffffffff1660e01b8152600401600060405180830381865afa158015610fcf573d6000803e3d6000fd5b505050506040513d6000823e3d601f19601f82011682018060405250810190610ff8919061296e565b5167ffffffffffffffff8111156110125761101161281b565b5b60405190808252806020026020018201604052801561104b57816020015b611038611b2e565b8152602001906001900390816110305790505b5090506000805b3073ffffffffffffffffffffffffffffffffffffffff166352ef6b2c6040518163ffffffff1660e01b8152600401600060405180830381865afa15801561109d573d6000803e3d6000fd5b505050506040513d6000823e3d601f19601f820116820180604052508101906110c6919061296e565b518110156112d457600060405180604001604052803073ffffffffffffffffffffffffffffffffffffffff166352ef6b2c6040518163ffffffff1660e01b8152600401600060405180830381865afa158015611126573d6000803e3d6000fd5b505050506040513d6000823e3d601f19601f8201168201806040525081019061114f919061296e565b84815181106111615761116061224f565b5b602002602001015173ffffffffffffffffffffffffffffffffffffffff1681526020013073ffffffffffffffffffffffffffffffffffffffff1663adfca15e3073ffffffffffffffffffffffffffffffffffffffff166352ef6b2c6040518163ffffffff1660e01b8152600401600060405180830381865afa1580156111eb573d6000803e3d6000fd5b505050506040513d6000823e3d601f19601f82011682018060405250810190611214919061296e565b86815181106112265761122561224f565b5b60200260200101516040518263ffffffff1660e01b815260040161124a91906120c4565b600060405180830381865afa158015611267573d6000803e3d6000fd5b505050506040513d6000823e3d601f19601f820116820180604052508101906112909190612a8f565b8152509050808484806112a290612399565b9550815181106112b5576112b461224f565b5b60200260200101819052505080806112cc90612399565b915050611052565b505090565b600281815481106112e957600080fd5b906000526020600020016000915054906101000a900473ffffffffffffffffffffffffffffffffffffffff1681565b60006020528060005260406000206000915054906101000a900473ffffffffffffffffffffffffffffffffffffffff1681565b60606000805b600180549050811015611459578373ffffffffffffffffffffffffffffffffffffffff166000806001848154811061138c5761138b61224f565b5b90600052602060002090600891828204019190066004029054906101000a900460e01b7bffffffffffffffffffffffffffffffffffffffffffffffffffffffff19167bffffffffffffffffffffffffffffffffffffffffffffffffffffffff1916815260200190815260200160002060009054906101000a900473ffffffffffffffffffffffffffffffffffffffff1673ffffffffffffffffffffffffffffffffffffffff160361144657818061144290612399565b9250505b808061145190612399565b915050611351565b508067ffffffffffffffff8111156114745761147361281b565b5b6040519080825280602002602001820160405280156114a25781602001602082028036833780820191505090505b5091506000905060005b600180549050811015611648578373ffffffffffffffffffffffffffffffffffffffff16600080600184815481106114e7576114e661224f565b5b90600052602060002090600891828204019190066004029054906101000a900460e01b7bffffffffffffffffffffffffffffffffffffffffffffffffffffffff19167bffffffffffffffffffffffffffffffffffffffffffffffffffffffff1916815260200190815260200160002060009054906101000a900473ffffffffffffffffffffffffffffffffffffffff1673ffffffffffffffffffffffffffffffffffffffff160361163557600181815481106115a6576115a561224f565b5b90600052602060002090600891828204019190066004029054906101000a900460e01b8383806115d590612399565b9450815181106115e8576115e761224f565b5b60200260200101907bffffffffffffffffffffffffffffffffffffffffffffffffffffffff191690817bffffffffffffffffffffffffffffffffffffffffffffffffffffffff1916815250505b808061164090612399565b9150506114ac565b5050919050565b6000806000837bffffffffffffffffffffffffffffffffffffffffffffffffffffffff19167bffffffffffffffffffffffffffffffffffffffffffffffffffffffff1916815260200190815260200160002060009054906101000a900473ffffffffffffffffffffffffffffffffffffffff169050919050565b600181815481106116d957600080fd5b9060005260206000209060089182820401919006600402915054906101000a900460e01b81565b6000807f20bdb322702e8f31eb02a18e466059b6b3224433a6e129849583a03f267f40a390508091505090565b6060600060018054905067ffffffffffffffff8111156117505761174f61281b565b5b60405190808252806020026020018201604052801561177e5781602001602082028036833780820191505090505b5090506000805b6001805490508110156119cc57600080600090505b838110156118ad578481815181106117b5576117b461224f565b5b602002602001015173ffffffffffffffffffffffffffffffffffffffff16600080600186815481106117ea576117e961224f565b5b90600052602060002090600891828204019190066004029054906101000a900460e01b7bffffffffffffffffffffffffffffffffffffffffffffffffffffffff19167bffffffffffffffffffffffffffffffffffffffffffffffffffffffff1916815260200190815260200160002060009054906101000a900473ffffffffffffffffffffffffffffffffffffffff1673ffffffffffffffffffffffffffffffffffffffff160361189a57600191505b80806118a590612399565b91505061179a565b50806119b457600080600184815481106118ca576118c961224f565b5b90600052602060002090600891828204019190066004029054906101000a900460e01b7bffffffffffffffffffffffffffffffffffffffffffffffffffffffff19167bffffffffffffffffffffffffffffffffffffffffffffffffffffffff1916815260200190815260200160002060009054906101000a900473ffffffffffffffffffffffffffffffffffffffff1684848061196690612399565b9550815181106119795761197861224f565b5b602002602001019073ffffffffffffffffffffffffffffffffffffffff16908173ffffffffffffffffffffffffffffffffffffffff16815250505b600090505080806119c490612399565b915050611785565b508067ffffffffffffffff8111156119e7576119e661281b565b5b604051908082528060200260200182016040528015611a155781602001602082028036833780820191505090505b50925060005b81811015611a9e57828181518110611a3657611a3561224f565b5b6020026020010151848281518110611a5157611a5061224f565b5b602002602001019073ffffffffffffffffffffffffffffffffffffffff16908173ffffffffffffffffffffffffffffffffffffffff16815250508080611a9690612399565b915050611a1b565b50505090565b828054828255906000526020600020908101928215611b1d579160200282015b82811115611b1c5782518260006101000a81548173ffffffffffffffffffffffffffffffffffffffff021916908373ffffffffffffffffffffffffffffffffffffffff16021790555091602001919060010190611ac4565b5b509050611b2a9190611b5e565b5090565b6040518060400160405280600073ffffffffffffffffffffffffffffffffffffffff168152602001606081525090565b5b80821115611b77576000816000905550600101611b5f565b5090565b6000819050919050565b611b8e81611b7b565b82525050565b6000602082019050611ba96000830184611b85565b92915050565b6000604051905090565b600080fd5b600080fd5b600080fd5b600080fd5b600080fd5b60008083601f840112611be857611be7611bc3565b5b8235905067ffffffffffffffff811115611c0557611c04611bc8565b5b602083019150836020820283011115611c2157611c20611bcd565b5b9250929050565b600073ffffffffffffffffffffffffffffffffffffffff82169050919050565b6000611c5382611c28565b9050919050565b611c6381611c48565b8114611c6e57600080fd5b50565b600081359050611c8081611c5a565b92915050565b60008083601f840112611c9c57611c9b611bc3565b5b8235905067ffffffffffffffff811115611cb957611cb8611bc8565b5b602083019150836001820283011115611cd557611cd4611bcd565b5b9250929050565b600080600080600060608688031215611cf857611cf7611bb9565b5b600086013567ffffffffffffffff811115611d1657611d15611bbe565b5b611d2288828901611bd2565b95509550506020611d3588828901611c71565b935050604086013567ffffffffffffffff811115611d5657611d55611bbe565b5b611d6288828901611c86565b92509250509295509295909350565b600081519050919050565b600082825260208201905092915050565b6000819050602082019050919050565b611da681611c48565b82525050565b6000611db88383611d9d565b60208301905092915050565b6000602082019050919050565b6000611ddc82611d71565b611de68185611d7c565b9350611df183611d8d565b8060005b83811015611e22578151611e098882611dac565b9750611e1483611dc4565b925050600181019050611df5565b5085935050505092915050565b60006020820190508181036000830152611e498184611dd1565b905092915050565b600081519050919050565b600082825260208201905092915050565b6000819050602082019050919050565b600081519050919050565b600082825260208201905092915050565b6000819050602082019050919050565b60007fffffffff0000000000000000000000000000000000000000000000000000000082169050919050565b611ede81611ea9565b82525050565b6000611ef08383611ed5565b60208301905092915050565b6000602082019050919050565b6000611f1482611e7d565b611f1e8185611e88565b9350611f2983611e99565b8060005b83811015611f5a578151611f418882611ee4565b9750611f4c83611efc565b925050600181019050611f2d565b5085935050505092915050565b6000604083016000830151611f7f6000860182611d9d565b5060208301518482036020860152611f978282611f09565b9150508091505092915050565b6000611fb08383611f67565b905092915050565b6000602082019050919050565b6000611fd082611e51565b611fda8185611e5c565b935083602082028501611fec85611e6d565b8060005b8581101561202857848403895281516120098582611fa4565b945061201483611fb8565b925060208a01995050600181019050611ff0565b50829750879550505050505092915050565b600060208201905081810360008301526120548184611fc5565b905092915050565b61206581611b7b565b811461207057600080fd5b50565b6000813590506120828161205c565b92915050565b60006020828403121561209e5761209d611bb9565b5b60006120ac84828501612073565b91505092915050565b6120be81611c48565b82525050565b60006020820190506120d960008301846120b5565b92915050565b6120e881611ea9565b81146120f357600080fd5b50565b600081359050612105816120df565b92915050565b60006020828403121561212157612120611bb9565b5b600061212f848285016120f6565b91505092915050565b60006020828403121561214e5761214d611bb9565b5b600061215c84828501611c71565b91505092915050565b600082825260208201905092915050565b600061218182611e7d565b61218b8185612165565b935061219683611e99565b8060005b838110156121c75781516121ae8882611ee4565b97506121b983611efc565b92505060018101905061219a565b5085935050505092915050565b600060208201905081810360008301526121ee8184612176565b905092915050565b6121ff81611ea9565b82525050565b600060208201905061221a60008301846121f6565b92915050565b7f4e487b7100000000000000000000000000000000000000000000000000000000600052602160045260246000fd5b7f4e487b7100000000000000000000000000000000000000000000000000000000600052603260045260246000fd5b600080fd5b600080fd5b600080fd5b6000823560016060038336030381126122a9576122a861227e565b5b80830191505092915050565b600381106122c257600080fd5b50565b6000813590506122d4816122b5565b92915050565b6000602082840312156122f0576122ef611bb9565b5b60006122fe848285016122c5565b91505092915050565b600080833560016020038436030381126123245761232361227e565b5b80840192508235915067ffffffffffffffff82111561234657612345612283565b5b60208301925060208202360383131561236257612361612288565b5b509250929050565b7f4e487b7100000000000000000000000000000000000000000000000000000000600052601160045260246000fd5b60006123a482611b7b565b91507fffffffffffffffffffffffffffffffffffffffffffffffffffffffffffffffff82036123d6576123d561236a565b5b600182019050919050565b60006123ec82611b7b565b91506123f783611b7b565b925082820390508181111561240f5761240e61236a565b5b92915050565b7f4e487b7100000000000000000000000000000000000000000000000000000000600052603160045260246000fd5b600082825260208201905092915050565b6000819050919050565b600061246e6020840184611c71565b905092915050565b600061248560208401846122c5565b905092915050565b6003811061249e5761249d612220565b5b50565b60008190506124af8261248d565b919050565b60006124bf826124a1565b9050919050565b6124cf816124b4565b82525050565b600080fd5b600080fd5b600080fd5b60008083356001602003843603038112612501576125006124df565b5b83810192508235915060208301925067ffffffffffffffff821115612529576125286124d5565b5b60208202360383131561253f5761253e6124da565b5b509250929050565b6000819050919050565b600061256060208401846120f6565b905092915050565b6000602082019050919050565b60006125818385611e88565b935061258c82612547565b8060005b858110156125c5576125a28284612551565b6125ac8882611ee4565b97506125b783612568565b925050600181019050612590565b5085925050509392505050565b6000606083016125e5600084018461245f565b6125f26000860182611d9d565b506126006020840184612476565b61260d60208601826124c6565b5061261b60408401846124e4565b858303604087015261262e838284612575565b925050508091505092915050565b600061264883836125d2565b905092915050565b60008235600160600383360303811261266c5761266b6124df565b5b82810191505092915050565b6000602082019050919050565b60006126918385612444565b9350836020840285016126a384612455565b8060005b878110156126e75784840389526126be8284612650565b6126c8858261263c565b94506126d383612678565b925060208a019950506001810190506126a7565b50829750879450505050509392505050565b600082825260208201905092915050565b82818337600083830152505050565b6000601f19601f8301169050919050565b600061273683856126f9565b935061274383858461270a565b61274c83612719565b840190509392505050565b60006060820190508181036000830152612772818789612685565b905061278160208301866120b5565b818103604083015261279481848661272a565b90509695505050505050565b600081905092915050565b60006127b783856127a0565b93506127c483858461270a565b82840190509392505050565b60006127dd8284866127ab565b91508190509392505050565b60006040820190506127fe60008301866120b5565b818103602083015261281181848661272a565b9050949350505050565b7f4e487b7100000000000000000000000000000000000000000000000000000000600052604160045260246000fd5b61285382612719565b810181811067ffffffffffffffff821117156128725761287161281b565b5b80604052505050565b6000612885611baf565b9050612891828261284a565b919050565b600067ffffffffffffffff8211156128b1576128b061281b565b5b602082029050602081019050919050565b6000815190506128d181611c5a565b92915050565b60006128ea6128e584612896565b61287b565b9050808382526020820190506020840283018581111561290d5761290c611bcd565b5b835b81811015612936578061292288826128c2565b84526020840193505060208101905061290f565b5050509392505050565b600082601f83011261295557612954611bc3565b5b81516129658482602086016128d7565b91505092915050565b60006020828403121561298457612983611bb9565b5b600082015167ffffffffffffffff8111156129a2576129a1611bbe565b5b6129ae84828501612940565b91505092915050565b600067ffffffffffffffff8211156129d2576129d161281b565b5b602082029050602081019050919050565b6000815190506129f2816120df565b92915050565b6000612a0b612a06846129b7565b61287b565b90508083825260208201905060208402830185811115612a2e57612a2d611bcd565b5b835b81811015612a575780612a4388826129e3565b845260208401935050602081019050612a30565b5050509392505050565b600082601f830112612a7657612a75611bc3565b5b8151612a868482602086016129f8565b91505092915050565b600060208284031215612aa557612aa4611bb9565b5b600082015167ffffffffffffffff811115612ac357612ac2611bbe565b5b612acf84828501612a61565b9150509291505056fea26469706673582212206062c7240bb0279ac2dbe6255d53e0978d7571253e5c0757280bb11cc7ea034464736f6c63430008120033",
			"opcodes": "PUSH1 0x80 PUSH1 0x40 MSTORE CALLVALUE DUP1 ISZERO PUSH2 0x10 JUMPI PUSH1 0x0 DUP1 REVERT JUMPDEST POP PUSH2 0x2B0E DUP1 PUSH2 0x20 PUSH1 0x0 CODECOPY PUSH1 0x0 RETURN INVALID PUSH1 0x80 PUSH1 0x40 MSTORE PUSH1 0x4 CALLDATASIZE LT PUSH2 0x95 JUMPI PUSH1 0x0 CALLDATALOAD PUSH1 0xE0 SHR DUP1 PUSH4 0x7D86195C GT PUSH2 0x59 JUMPI DUP1 PUSH4 0x7D86195C EQ PUSH2 0x262 JUMPI DUP1 PUSH4 0xA4666AEB EQ PUSH2 0x29F JUMPI DUP1 PUSH4 0xADFCA15E EQ PUSH2 0x2DC JUMPI DUP1 PUSH4 0xCDFFACC6 EQ PUSH2 0x319 JUMPI DUP1 PUSH4 0xF58B911D EQ PUSH2 0x356 JUMPI PUSH2 0x96 JUMP JUMPDEST DUP1 PUSH4 0x2C85697 EQ PUSH2 0x18D JUMPI DUP1 PUSH4 0xE90F45D EQ PUSH2 0x1B8 JUMPI DUP1 PUSH4 0x1F931C1C EQ PUSH2 0x1E3 JUMPI DUP1 PUSH4 0x52EF6B2C EQ PUSH2 0x20C JUMPI DUP1 PUSH4 0x7A0ED627 EQ PUSH2 0x237 JUMPI PUSH2 0x96 JUMP JUMPDEST JUMPDEST PUSH1 0x0 DUP1 PUSH1 0x0 DUP1 CALLDATALOAD PUSH32 0xFFFFFFFF00000000000000000000000000000000000000000000000000000000 AND PUSH28 0xFFFFFFFFFFFFFFFFFFFFFFFFFFFFFFFFFFFFFFFFFFFFFFFFFFFFFFFF NOT AND PUSH28 0xFFFFFFFFFFFFFFFFFFFFFFFFFFFFFFFFFFFFFFFFFFFFFFFFFFFFFFFF NOT AND DUP2 MSTORE PUSH1 0x20 ADD SWAP1 DUP2 MSTORE PUSH1 0x20 ADD PUSH1 0x0 KECCAK256 PUSH1 0x0 SWAP1 SLOAD SWAP1 PUSH2 0x100 EXP SWAP1 DIV PUSH20 0xFFFFFFFFFFFFFFFFFFFFFFFFFFFFFFFFFFFFFFFF AND SWAP1 POP PUSH1 0x0 PUSH20 0xFFFFFFFFFFFFFFFFFFFFFFFFFFFFFFFFFFFFFFFF AND DUP2 PUSH20 0xFFFFFFFFFFFFFFFFFFFFFFFFFFFFFFFFFFFFFFFF AND SUB PUSH2 0x167 JUMPI PUSH1 0x0 DUP1 REVERT JUMPDEST CALLDATASIZE PUSH1 0x0 DUP1 CALLDATACOPY PUSH1 0x0 DUP1 CALLDATASIZE PUSH1 0x0 DUP5 GAS DELEGATECALL RETURNDATASIZE PUSH1 0x0 DUP1 RETURNDATACOPY DUP1 PUSH1 0x0 DUP2 EQ PUSH2 0x188 JUMPI RETURNDATASIZE PUSH1 0x0 RETURN JUMPDEST RETURNDATASIZE PUSH1 0x0 REVERT JUMPDEST CALLVALUE DUP1 ISZERO PUSH2 0x199 JUMPI PUSH1 0x0 DUP1 REVERT JUMPDEST POP PUSH2 0x1A2 PUSH2 0x393 JUMP JUMPDEST PUSH1 0x40 MLOAD PUSH2 0x1AF SWAP2 SWAP1 PUSH2 0x1B94 JUMP JUMPDEST PUSH1 0x40 MLOAD DUP1 SWAP2 SUB SWAP1 RETURN JUMPDEST CALLVALUE DUP1 ISZERO PUSH2 0x1C4 JUMPI PUSH1 0x0 DUP1 REVERT JUMPDEST POP PUSH2 0x1CD PUSH2 0x3AB JUMP JUMPDEST PUSH1 0x40 MLOAD PUSH2 0x1DA SWAP2 SWAP1 PUSH2 0x1B94 JUMP JUMPDEST PUSH1 0x40 MLOAD DUP1 SWAP2 SUB SWAP1 RETURN JUMPDEST CALLVALUE DUP1 ISZERO PUSH2 0x1EF JUMPI PUSH1 0x0 DUP1 REVERT JUMPDEST POP PUSH2 0x20A PUSH1 0x4 DUP1 CALLDATASIZE SUB DUP2 ADD SWAP1 PUSH2 0x205 SWAP2 SWAP1 PUSH2 0x1CDC JUMP JUMPDEST PUSH2 0x3C3 JUMP JUMPDEST STOP JUMPDEST CALLVALUE DUP1 ISZERO PUSH2 0x218 JUMPI PUSH1 0x0 DUP1 REVERT JUMPDEST POP PUSH2 0x221 PUSH2 0xEF4 JUMP JUMPDEST PUSH1 0x40 MLOAD PUSH2 0x22E SWAP2 SWAP1 PUSH2 0x1E2F JUMP JUMPDEST PUSH1 0x40 MLOAD DUP1 SWAP2 SUB SWAP1 RETURN JUMPDEST CALLVALUE DUP1 ISZERO PUSH2 0x243 JUMPI PUSH1 0x0 DUP1 REVERT JUMPDEST POP PUSH2 0x24C PUSH2 0xF82 JUMP JUMPDEST PUSH1 0x40 MLOAD PUSH2 0x259 SWAP2 SWAP1 PUSH2 0x203A JUMP JUMPDEST PUSH1 0x40 MLOAD DUP1 SWAP2 SUB SWAP1 RETURN JUMPDEST CALLVALUE DUP1 ISZERO PUSH2 0x26E JUMPI PUSH1 0x0 DUP1 REVERT JUMPDEST POP PUSH2 0x289 PUSH1 0x4 DUP1 CALLDATASIZE SUB DUP2 ADD SWAP1 PUSH2 0x284 SWAP2 SWAP1 PUSH2 0x2088 JUMP JUMPDEST PUSH2 0x12D9 JUMP JUMPDEST PUSH1 0x40 MLOAD PUSH2 0x296 SWAP2 SWAP1 PUSH2 0x20C4 JUMP JUMPDEST PUSH1 0x40 MLOAD DUP1 SWAP2 SUB SWAP1 RETURN JUMPDEST CALLVALUE DUP1 ISZERO PUSH2 0x2AB JUMPI PUSH1 0x0 DUP1 REVERT JUMPDEST POP PUSH2 0x2C6 PUSH1 0x4 DUP1 CALLDATASIZE SUB DUP2 ADD SWAP1 PUSH2 0x2C1 SWAP2 SWAP1 PUSH2 0x210B JUMP JUMPDEST PUSH2 0x1318 JUMP JUMPDEST PUSH1 0x40 MLOAD PUSH2 0x2D3 SWAP2 SWAP1 PUSH2 0x20C4 JUMP JUMPDEST PUSH1 0x40 MLOAD DUP1 SWAP2 SUB SWAP1 RETURN JUMPDEST CALLVALUE DUP1 ISZERO PUSH2 0x2E8 JUMPI PUSH1 0x0 DUP1 REVERT JUMPDEST POP PUSH2 0x303 PUSH1 0x4 DUP1 CALLDATASIZE SUB DUP2 ADD SWAP1 PUSH2 0x2FE SWAP2 SWAP1 PUSH2 0x2138 JUMP JUMPDEST PUSH2 0x134B JUMP JUMPDEST PUSH1 0x40 MLOAD PUSH2 0x310 SWAP2 SWAP1 PUSH2 0x21D4 JUMP JUMPDEST PUSH1 0x40 MLOAD DUP1 SWAP2 SUB SWAP1 RETURN JUMPDEST CALLVALUE DUP1 ISZERO PUSH2 0x325 JUMPI PUSH1 0x0 DUP1 REVERT JUMPDEST POP PUSH2 0x340 PUSH1 0x4 DUP1 CALLDATASIZE SUB DUP2 ADD SWAP1 PUSH2 0x33B SWAP2 SWAP1 PUSH2 0x210B JUMP JUMPDEST PUSH2 0x164F JUMP JUMPDEST PUSH1 0x40 MLOAD PUSH2 0x34D SWAP2 SWAP1 PUSH2 0x20C4 JUMP JUMPDEST PUSH1 0x40 MLOAD DUP1 SWAP2 SUB SWAP1 RETURN JUMPDEST CALLVALUE DUP1 ISZERO PUSH2 0x362 JUMPI PUSH1 0x0 DUP1 REVERT JUMPDEST POP PUSH2 0x37D PUSH1 0x4 DUP1 CALLDATASIZE SUB DUP2 ADD SWAP1 PUSH2 0x378 SWAP2 SWAP1 PUSH2 0x2088 JUMP JUMPDEST PUSH2 0x16C9 JUMP JUMPDEST PUSH1 0x40 MLOAD PUSH2 0x38A SWAP2 SWAP1 PUSH2 0x2205 JUMP JUMPDEST PUSH1 0x40 MLOAD DUP1 SWAP2 SUB SWAP1 RETURN JUMPDEST PUSH1 0x0 DUP1 PUSH2 0x39E PUSH2 0x1700 JUMP JUMPDEST SWAP1 POP DUP1 PUSH1 0x1 ADD SLOAD SWAP2 POP POP SWAP1 JUMP JUMPDEST PUSH1 0x0 DUP1 PUSH2 0x3B6 PUSH2 0x1700 JUMP JUMPDEST SWAP1 POP DUP1 PUSH1 0x0 ADD SLOAD SWAP2 POP POP SWAP1 JUMP JUMPDEST PUSH1 0x0 JUMPDEST DUP6 DUP6 SWAP1 POP DUP2 LT ISZERO PUSH2 0xDAB JUMPI PUSH1 0x0 PUSH1 0x2 DUP2 GT ISZERO PUSH2 0x3E5 JUMPI PUSH2 0x3E4 PUSH2 0x2220 JUMP JUMPDEST JUMPDEST DUP7 DUP7 DUP4 DUP2 DUP2 LT PUSH2 0x3F8 JUMPI PUSH2 0x3F7 PUSH2 0x224F JUMP JUMPDEST JUMPDEST SWAP1 POP PUSH1 0x20 MUL DUP2 ADD SWAP1 PUSH2 0x40A SWAP2 SWAP1 PUSH2 0x228D JUMP JUMPDEST PUSH1 0x20 ADD PUSH1 0x20 DUP2 ADD SWAP1 PUSH2 0x41C SWAP2 SWAP1 PUSH2 0x22DA JUMP JUMPDEST PUSH1 0x2 DUP2 GT ISZERO PUSH2 0x42E JUMPI PUSH2 0x42D PUSH2 0x2220 JUMP JUMPDEST JUMPDEST SUB PUSH2 0x748 JUMPI PUSH1 0x0 JUMPDEST DUP7 DUP7 DUP4 DUP2 DUP2 LT PUSH2 0x449 JUMPI PUSH2 0x448 PUSH2 0x224F JUMP JUMPDEST JUMPDEST SWAP1 POP PUSH1 0x20 MUL DUP2 ADD SWAP1 PUSH2 0x45B SWAP2 SWAP1 PUSH2 0x228D JUMP JUMPDEST DUP1 PUSH1 0x40 ADD SWAP1 PUSH2 0x46A SWAP2 SWAP1 PUSH2 0x2307 JUMP JUMPDEST SWAP1 POP DUP2 LT ISZERO PUSH2 0x746 JUMPI PUSH1 0x0 PUSH20 0xFFFFFFFFFFFFFFFFFFFFFFFFFFFFFFFFFFFFFFFF AND PUSH1 0x0 DUP1 DUP10 DUP10 DUP7 DUP2 DUP2 LT PUSH2 0x4A1 JUMPI PUSH2 0x4A0 PUSH2 0x224F JUMP JUMPDEST JUMPDEST SWAP1 POP PUSH1 0x20 MUL DUP2 ADD SWAP1 PUSH2 0x4B3 SWAP2 SWAP1 PUSH2 0x228D JUMP JUMPDEST DUP1 PUSH1 0x40 ADD SWAP1 PUSH2 0x4C2 SWAP2 SWAP1 PUSH2 0x2307 JUMP JUMPDEST DUP6 DUP2 DUP2 LT PUSH2 0x4D3 JUMPI PUSH2 0x4D2 PUSH2 0x224F JUMP JUMPDEST JUMPDEST SWAP1 POP PUSH1 0x20 MUL ADD PUSH1 0x20 DUP2 ADD SWAP1 PUSH2 0x4E8 SWAP2 SWAP1 PUSH2 0x210B JUMP JUMPDEST PUSH28 0xFFFFFFFFFFFFFFFFFFFFFFFFFFFFFFFFFFFFFFFFFFFFFFFFFFFFFFFF NOT AND PUSH28 0xFFFFFFFFFFFFFFFFFFFFFFFFFFFFFFFFFFFFFFFFFFFFFFFFFFFFFFFF NOT AND DUP2 MSTORE PUSH1 0x20 ADD SWAP1 DUP2 MSTORE PUSH1 0x20 ADD PUSH1 0x0 KECCAK256 PUSH1 0x0 SWAP1 SLOAD SWAP1 PUSH2 0x100 EXP SWAP1 DIV PUSH20 0xFFFFFFFFFFFFFFFFFFFFFFFFFFFFFFFFFFFFFFFF AND PUSH20 0xFFFFFFFFFFFFFFFFFFFFFFFFFFFFFFFFFFFFFFFF AND SUB PUSH2 0x733 JUMPI DUP7 DUP7 DUP4 DUP2 DUP2 LT PUSH2 0x583 JUMPI PUSH2 0x582 PUSH2 0x224F JUMP JUMPDEST JUMPDEST SWAP1 POP PUSH1 0x20 MUL DUP2 ADD SWAP1 PUSH2 0x595 SWAP2 SWAP1 PUSH2 0x228D JUMP JUMPDEST PUSH1 0x0 ADD PUSH1 0x20 DUP2 ADD SWAP1 PUSH2 0x5A7 SWAP2 SWAP1 PUSH2 0x2138 JUMP JUMPDEST PUSH1 0x0 DUP1 DUP10 DUP10 DUP7 DUP2 DUP2 LT PUSH2 0x5BD JUMPI PUSH2 0x5BC PUSH2 0x224F JUMP JUMPDEST JUMPDEST SWAP1 POP PUSH1 0x20 MUL DUP2 ADD SWAP1 PUSH2 0x5CF SWAP2 SWAP1 PUSH2 0x228D JUMP JUMPDEST DUP1 PUSH1 0x40 ADD SWAP1 PUSH2 0x5DE SWAP2 SWAP1 PUSH2 0x2307 JUMP JUMPDEST DUP6 DUP2 DUP2 LT PUSH2 0x5EF JUMPI PUSH2 0x5EE PUSH2 0x224F JUMP JUMPDEST JUMPDEST SWAP1 POP PUSH1 0x20 MUL ADD PUSH1 0x20 DUP2 ADD SWAP1 PUSH2 0x604 SWAP2 SWAP1 PUSH2 0x210B JUMP JUMPDEST PUSH28 0xFFFFFFFFFFFFFFFFFFFFFFFFFFFFFFFFFFFFFFFFFFFFFFFFFFFFFFFF NOT AND PUSH28 0xFFFFFFFFFFFFFFFFFFFFFFFFFFFFFFFFFFFFFFFFFFFFFFFFFFFFFFFF NOT AND DUP2 MSTORE PUSH1 0x20 ADD SWAP1 DUP2 MSTORE PUSH1 0x20 ADD PUSH1 0x0 KECCAK256 PUSH1 0x0 PUSH2 0x100 EXP DUP2 SLOAD DUP2 PUSH20 0xFFFFFFFFFFFFFFFFFFFFFFFFFFFFFFFFFFFFFFFF MUL NOT AND SWAP1 DUP4 PUSH20 0xFFFFFFFFFFFFFFFFFFFFFFFFFFFFFFFFFFFFFFFF AND MUL OR SWAP1 SSTORE POP PUSH1 0x1 DUP8 DUP8 DUP5 DUP2 DUP2 LT PUSH2 0x6A3 JUMPI PUSH2 0x6A2 PUSH2 0x224F JUMP JUMPDEST JUMPDEST SWAP1 POP PUSH1 0x20 MUL DUP2 ADD SWAP1 PUSH2 0x6B5 SWAP2 SWAP1 PUSH2 0x228D JUMP JUMPDEST DUP1 PUSH1 0x40 ADD SWAP1 PUSH2 0x6C4 SWAP2 SWAP1 PUSH2 0x2307 JUMP JUMPDEST DUP4 DUP2 DUP2 LT PUSH2 0x6D5 JUMPI PUSH2 0x6D4 PUSH2 0x224F JUMP JUMPDEST JUMPDEST SWAP1 POP PUSH1 0x20 MUL ADD PUSH1 0x20 DUP2 ADD SWAP1 PUSH2 0x6EA SWAP2 SWAP1 PUSH2 0x210B JUMP JUMPDEST SWAP1 DUP1 PUSH1 0x1 DUP2 SLOAD ADD DUP1 DUP3 SSTORE DUP1 SWAP2 POP POP PUSH1 0x1 SWAP1 SUB SWAP1 PUSH1 0x0 MSTORE PUSH1 0x20 PUSH1 0x0 KECCAK256 SWAP1 PUSH1 0x8 SWAP2 DUP3 DUP3 DIV ADD SWAP2 SWAP1 MOD PUSH1 0x4 MUL SWAP1 SWAP2 SWAP1 SWAP2 SWAP1 SWAP2 PUSH2 0x100 EXP DUP2 SLOAD DUP2 PUSH4 0xFFFFFFFF MUL NOT AND SWAP1 DUP4 PUSH1 0xE0 SHR MUL OR SWAP1 SSTORE POP JUMPDEST DUP1 DUP1 PUSH2 0x73E SWAP1 PUSH2 0x2399 JUMP JUMPDEST SWAP2 POP POP PUSH2 0x436 JUMP JUMPDEST POP JUMPDEST PUSH1 0x1 PUSH1 0x2 DUP2 GT ISZERO PUSH2 0x75C JUMPI PUSH2 0x75B PUSH2 0x2220 JUMP JUMPDEST JUMPDEST DUP7 DUP7 DUP4 DUP2 DUP2 LT PUSH2 0x76F JUMPI PUSH2 0x76E PUSH2 0x224F JUMP JUMPDEST JUMPDEST SWAP1 POP PUSH1 0x20 MUL DUP2 ADD SWAP1 PUSH2 0x781 SWAP2 SWAP1 PUSH2 0x228D JUMP JUMPDEST PUSH1 0x20 ADD PUSH1 0x20 DUP2 ADD SWAP1 PUSH2 0x793 SWAP2 SWAP1 PUSH2 0x22DA JUMP JUMPDEST PUSH1 0x2 DUP2 GT ISZERO PUSH2 0x7A5 JUMPI PUSH2 0x7A4 PUSH2 0x2220 JUMP JUMPDEST JUMPDEST SUB PUSH2 0xA1B JUMPI PUSH1 0x0 JUMPDEST DUP7 DUP7 DUP4 DUP2 DUP2 LT PUSH2 0x7C0 JUMPI PUSH2 0x7BF PUSH2 0x224F JUMP JUMPDEST JUMPDEST SWAP1 POP PUSH1 0x20 MUL DUP2 ADD SWAP1 PUSH2 0x7D2 SWAP2 SWAP1 PUSH2 0x228D JUMP JUMPDEST DUP1 PUSH1 0x40 ADD SWAP1 PUSH2 0x7E1 SWAP2 SWAP1 PUSH2 0x2307 JUMP JUMPDEST SWAP1 POP DUP2 LT ISZERO PUSH2 0xA19 JUMPI PUSH1 0x0 PUSH20 0xFFFFFFFFFFFFFFFFFFFFFFFFFFFFFFFFFFFFFFFF AND PUSH1 0x0 DUP1 DUP10 DUP10 DUP7 DUP2 DUP2 LT PUSH2 0x818 JUMPI PUSH2 0x817 PUSH2 0x224F JUMP JUMPDEST JUMPDEST SWAP1 POP PUSH1 0x20 MUL DUP2 ADD SWAP1 PUSH2 0x82A SWAP2 SWAP1 PUSH2 0x228D JUMP JUMPDEST DUP1 PUSH1 0x40 ADD SWAP1 PUSH2 0x839 SWAP2 SWAP1 PUSH2 0x2307 JUMP JUMPDEST DUP6 DUP2 DUP2 LT PUSH2 0x84A JUMPI PUSH2 0x849 PUSH2 0x224F JUMP JUMPDEST JUMPDEST SWAP1 POP PUSH1 0x20 MUL ADD PUSH1 0x20 DUP2 ADD SWAP1 PUSH2 0x85F SWAP2 SWAP1 PUSH2 0x210B JUMP JUMPDEST PUSH28 0xFFFFFFFFFFFFFFFFFFFFFFFFFFFFFFFFFFFFFFFFFFFFFFFFFFFFFFFF NOT AND PUSH28 0xFFFFFFFFFFFFFFFFFFFFFFFFFFFFFFFFFFFFFFFFFFFFFFFFFFFFFFFF NOT AND DUP2 MSTORE PUSH1 0x20 ADD SWAP1 DUP2 MSTORE PUSH1 0x20 ADD PUSH1 0x0 KECCAK256 PUSH1 0x0 SWAP1 SLOAD SWAP1 PUSH2 0x100 EXP SWAP1 DIV PUSH20 0xFFFFFFFFFFFFFFFFFFFFFFFFFFFFFFFFFFFFFFFF AND PUSH20 0xFFFFFFFFFFFFFFFFFFFFFFFFFFFFFFFFFFFFFFFF AND EQ PUSH2 0xA06 JUMPI DUP7 DUP7 DUP4 DUP2 DUP2 LT PUSH2 0x8FA JUMPI PUSH2 0x8F9 PUSH2 0x224F JUMP JUMPDEST JUMPDEST SWAP1 POP PUSH1 0x20 MUL DUP2 ADD SWAP1 PUSH2 0x90C SWAP2 SWAP1 PUSH2 0x228D JUMP JUMPDEST PUSH1 0x0 ADD PUSH1 0x20 DUP2 ADD SWAP1 PUSH2 0x91E SWAP2 SWAP1 PUSH2 0x2138 JUMP JUMPDEST PUSH1 0x0 DUP1 DUP10 DUP10 DUP7 DUP2 DUP2 LT PUSH2 0x934 JUMPI PUSH2 0x933 PUSH2 0x224F JUMP JUMPDEST JUMPDEST SWAP1 POP PUSH1 0x20 MUL DUP2 ADD SWAP1 PUSH2 0x946 SWAP2 SWAP1 PUSH2 0x228D JUMP JUMPDEST DUP1 PUSH1 0x40 ADD SWAP1 PUSH2 0x955 SWAP2 SWAP1 PUSH2 0x2307 JUMP JUMPDEST DUP6 DUP2 DUP2 LT PUSH2 0x966 JUMPI PUSH2 0x965 PUSH2 0x224F JUMP JUMPDEST JUMPDEST SWAP1 POP PUSH1 0x20 MUL ADD PUSH1 0x20 DUP2 ADD SWAP1 PUSH2 0x97B SWAP2 SWAP1 PUSH2 0x210B JUMP JUMPDEST PUSH28 0xFFFFFFFFFFFFFFFFFFFFFFFFFFFFFFFFFFFFFFFFFFFFFFFFFFFFFFFF NOT AND PUSH28 0xFFFFFFFFFFFFFFFFFFFFFFFFFFFFFFFFFFFFFFFFFFFFFFFFFFFFFFFF NOT AND DUP2 MSTORE PUSH1 0x20 ADD SWAP1 DUP2 MSTORE PUSH1 0x20 ADD PUSH1 0x0 KECCAK256 PUSH1 0x0 PUSH2 0x100 EXP DUP2 SLOAD DUP2 PUSH20 0xFFFFFFFFFFFFFFFFFFFFFFFFFFFFFFFFFFFFFFFF MUL NOT AND SWAP1 DUP4 PUSH20 0xFFFFFFFFFFFFFFFFFFFFFFFFFFFFFFFFFFFFFFFF AND MUL OR SWAP1 SSTORE POP JUMPDEST DUP1 DUP1 PUSH2 0xA11 SWAP1 PUSH2 0x2399 JUMP JUMPDEST SWAP2 POP POP PUSH2 0x7AD JUMP JUMPDEST POP JUMPDEST PUSH1 0x2 DUP1 DUP2 GT ISZERO PUSH2 0xA2E JUMPI PUSH2 0xA2D PUSH2 0x2220 JUMP JUMPDEST JUMPDEST DUP7 DUP7 DUP4 DUP2 DUP2 LT PUSH2 0xA41 JUMPI PUSH2 0xA40 PUSH2 0x224F JUMP JUMPDEST JUMPDEST SWAP1 POP PUSH1 0x20 MUL DUP2 ADD SWAP1 PUSH2 0xA53 SWAP2 SWAP1 PUSH2 0x228D JUMP JUMPDEST PUSH1 0x20 ADD PUSH1 0x20 DUP2 ADD SWAP1 PUSH2 0xA65 SWAP2 SWAP1 PUSH2 0x22DA JUMP JUMPDEST PUSH1 0x2 DUP2 GT ISZERO PUSH2 0xA77 JUMPI PUSH2 0xA76 PUSH2 0x2220 JUMP JUMPDEST JUMPDEST SUB PUSH2 0xD98 JUMPI PUSH1 0x0 JUMPDEST DUP7 DUP7 DUP4 DUP2 DUP2 LT PUSH2 0xA92 JUMPI PUSH2 0xA91 PUSH2 0x224F JUMP JUMPDEST JUMPDEST SWAP1 POP PUSH1 0x20 MUL DUP2 ADD SWAP1 PUSH2 0xAA4 SWAP2 SWAP1 PUSH2 0x228D JUMP JUMPDEST DUP1 PUSH1 0x40 ADD SWAP1 PUSH2 0xAB3 SWAP2 SWAP1 PUSH2 0x2307 JUMP JUMPDEST SWAP1 POP DUP2 LT ISZERO PUSH2 0xD96 JUMPI PUSH1 0x0 DUP1 PUSH1 0x0 DUP10 DUP10 DUP7 DUP2 DUP2 LT PUSH2 0xAD4 JUMPI PUSH2 0xAD3 PUSH2 0x224F JUMP JUMPDEST JUMPDEST SWAP1 POP PUSH1 0x20 MUL DUP2 ADD SWAP1 PUSH2 0xAE6 SWAP2 SWAP1 PUSH2 0x228D JUMP JUMPDEST DUP1 PUSH1 0x40 ADD SWAP1 PUSH2 0xAF5 SWAP2 SWAP1 PUSH2 0x2307 JUMP JUMPDEST DUP6 DUP2 DUP2 LT PUSH2 0xB06 JUMPI PUSH2 0xB05 PUSH2 0x224F JUMP JUMPDEST JUMPDEST SWAP1 POP PUSH1 0x20 MUL ADD PUSH1 0x20 DUP2 ADD SWAP1 PUSH2 0xB1B SWAP2 SWAP1 PUSH2 0x210B JUMP JUMPDEST PUSH28 0xFFFFFFFFFFFFFFFFFFFFFFFFFFFFFFFFFFFFFFFFFFFFFFFFFFFFFFFF NOT AND PUSH28 0xFFFFFFFFFFFFFFFFFFFFFFFFFFFFFFFFFFFFFFFFFFFFFFFFFFFFFFFF NOT AND DUP2 MSTORE PUSH1 0x20 ADD SWAP1 DUP2 MSTORE PUSH1 0x20 ADD PUSH1 0x0 KECCAK256 PUSH1 0x0 PUSH2 0x100 EXP DUP2 SLOAD DUP2 PUSH20 0xFFFFFFFFFFFFFFFFFFFFFFFFFFFFFFFFFFFFFFFF MUL NOT AND SWAP1 DUP4 PUSH20 0xFFFFFFFFFFFFFFFFFFFFFFFFFFFFFFFFFFFFFFFF AND MUL OR SWAP1 SSTORE POP PUSH1 0x0 JUMPDEST PUSH1 0x1 DUP1 SLOAD SWAP1 POP DUP2 LT ISZERO PUSH2 0xD82 JUMPI DUP8 DUP8 DUP5 DUP2 DUP2 LT PUSH2 0xBC8 JUMPI PUSH2 0xBC7 PUSH2 0x224F JUMP JUMPDEST JUMPDEST SWAP1 POP PUSH1 0x20 MUL DUP2 ADD SWAP1 PUSH2 0xBDA SWAP2 SWAP1 PUSH2 0x228D JUMP JUMPDEST DUP1 PUSH1 0x40 ADD SWAP1 PUSH2 0xBE9 SWAP2 SWAP1 PUSH2 0x2307 JUMP JUMPDEST DUP4 DUP2 DUP2 LT PUSH2 0xBFA JUMPI PUSH2 0xBF9 PUSH2 0x224F JUMP JUMPDEST JUMPDEST SWAP1 POP PUSH1 0x20 MUL ADD PUSH1 0x20 DUP2 ADD SWAP1 PUSH2 0xC0F SWAP2 SWAP1 PUSH2 0x210B JUMP JUMPDEST PUSH28 0xFFFFFFFFFFFFFFFFFFFFFFFFFFFFFFFFFFFFFFFFFFFFFFFFFFFFFFFF NOT AND PUSH1 0x1 DUP3 DUP2 SLOAD DUP2 LT PUSH2 0xC42 JUMPI PUSH2 0xC41 PUSH2 0x224F JUMP JUMPDEST JUMPDEST SWAP1 PUSH1 0x0 MSTORE PUSH1 0x20 PUSH1 0x0 KECCAK256 SWAP1 PUSH1 0x8 SWAP2 DUP3 DUP3 DIV ADD SWAP2 SWAP1 MOD PUSH1 0x4 MUL SWAP1 SLOAD SWAP1 PUSH2 0x100 EXP SWAP1 DIV PUSH1 0xE0 SHL PUSH28 0xFFFFFFFFFFFFFFFFFFFFFFFFFFFFFFFFFFFFFFFFFFFFFFFFFFFFFFFF NOT AND SUB PUSH2 0xD6F JUMPI PUSH1 0x1 DUP1 DUP1 SLOAD SWAP1 POP PUSH2 0xC9A SWAP2 SWAP1 PUSH2 0x23E1 JUMP JUMPDEST DUP2 LT ISZERO PUSH2 0xD6E JUMPI PUSH1 0x1 DUP1 DUP1 DUP1 SLOAD SWAP1 POP PUSH2 0xCB3 SWAP2 SWAP1 PUSH2 0x23E1 JUMP JUMPDEST DUP2 SLOAD DUP2 LT PUSH2 0xCC4 JUMPI PUSH2 0xCC3 PUSH2 0x224F JUMP JUMPDEST JUMPDEST SWAP1 PUSH1 0x0 MSTORE PUSH1 0x20 PUSH1 0x0 KECCAK256 SWAP1 PUSH1 0x8 SWAP2 DUP3 DUP3 DIV ADD SWAP2 SWAP1 MOD PUSH1 0x4 MUL SWAP1 SLOAD SWAP1 PUSH2 0x100 EXP SWAP1 DIV PUSH1 0xE0 SHL PUSH1 0x1 DUP3 DUP2 SLOAD DUP2 LT PUSH2 0xCFB JUMPI PUSH2 0xCFA PUSH2 0x224F JUMP JUMPDEST JUMPDEST SWAP1 PUSH1 0x0 MSTORE PUSH1 0x20 PUSH1 0x0 KECCAK256 SWAP1 PUSH1 0x8 SWAP2 DUP3 DUP3 DIV ADD SWAP2 SWAP1 MOD PUSH1 0x4 MUL PUSH2 0x100 EXP DUP2 SLOAD DUP2 PUSH4 0xFFFFFFFF MUL NOT AND SWAP1 DUP4 PUSH1 0xE0 SHR MUL OR SWAP1 SSTORE POP PUSH1 0x1 DUP1 SLOAD DUP1 PUSH2 0xD3D JUMPI PUSH2 0xD3C PUSH2 0x2415 JUMP JUMPDEST JUMPDEST PUSH1 0x1 SWAP1 SUB DUP2 DUP2 SWAP1 PUSH1 0x0 MSTORE PUSH1 0x20 PUSH1 0x0 KECCAK256 SWAP1 PUSH1 0x8 SWAP2 DUP3 DUP3 DIV ADD SWAP2 SWAP1 MOD PUSH1 0x4 MUL PUSH2 0x100 EXP DUP2 SLOAD SWAP1 PUSH4 0xFFFFFFFF MUL NOT AND SWAP1 SSTORE SWAP1 SSTORE JUMPDEST JUMPDEST DUP1 DUP1 PUSH2 0xD7A SWAP1 PUSH2 0x2399 JUMP JUMPDEST SWAP2 POP POP PUSH2 0xBA8 JUMP JUMPDEST POP DUP1 DUP1 PUSH2 0xD8E SWAP1 PUSH2 0x2399 JUMP JUMPDEST SWAP2 POP POP PUSH2 0xA7F JUMP JUMPDEST POP JUMPDEST DUP1 DUP1 PUSH2 0xDA3 SWAP1 PUSH2 0x2399 JUMP JUMPDEST SWAP2 POP POP PUSH2 0x3C6 JUMP JUMPDEST POP PUSH2 0xDB4 PUSH2 0x172D JUMP JUMPDEST PUSH1 0x2 SWAP1 DUP1 MLOAD SWAP1 PUSH1 0x20 ADD SWAP1 PUSH2 0xDC9 SWAP3 SWAP2 SWAP1 PUSH2 0x1AA4 JUMP JUMPDEST POP PUSH32 0x8FAA70878671CCD212D20771B795C50AF8FD3FF6CF27F4BDE57E5D4DE0AEB673 DUP6 DUP6 DUP6 DUP6 DUP6 PUSH1 0x40 MLOAD PUSH2 0xE01 SWAP6 SWAP5 SWAP4 SWAP3 SWAP2 SWAP1 PUSH2 0x2757 JUMP JUMPDEST PUSH1 0x40 MLOAD DUP1 SWAP2 SUB SWAP1 LOG1 PUSH1 0x0 PUSH20 0xFFFFFFFFFFFFFFFFFFFFFFFFFFFFFFFFFFFFFFFF AND DUP4 PUSH20 0xFFFFFFFFFFFFFFFFFFFFFFFFFFFFFFFFFFFFFFFF AND EQ PUSH2 0xEED JUMPI PUSH1 0x0 DUP4 PUSH20 0xFFFFFFFFFFFFFFFFFFFFFFFFFFFFFFFFFFFFFFFF AND DUP4 DUP4 PUSH1 0x40 MLOAD PUSH2 0xE66 SWAP3 SWAP2 SWAP1 PUSH2 0x27D0 JUMP JUMPDEST PUSH1 0x0 PUSH1 0x40 MLOAD DUP1 DUP4 SUB DUP2 DUP6 GAS DELEGATECALL SWAP2 POP POP RETURNDATASIZE DUP1 PUSH1 0x0 DUP2 EQ PUSH2 0xEA1 JUMPI PUSH1 0x40 MLOAD SWAP2 POP PUSH1 0x1F NOT PUSH1 0x3F RETURNDATASIZE ADD AND DUP3 ADD PUSH1 0x40 MSTORE RETURNDATASIZE DUP3 MSTORE RETURNDATASIZE PUSH1 0x0 PUSH1 0x20 DUP5 ADD RETURNDATACOPY PUSH2 0xEA6 JUMP JUMPDEST PUSH1 0x60 SWAP2 POP JUMPDEST POP POP SWAP1 POP DUP1 PUSH2 0xEEB JUMPI PUSH32 0xF7799C13936FA7E564CD208124650DF4AF9063ED8B45000D2442EFDB081B7759 DUP5 DUP5 DUP5 PUSH1 0x40 MLOAD PUSH2 0xEE2 SWAP4 SWAP3 SWAP2 SWAP1 PUSH2 0x27E9 JUMP JUMPDEST PUSH1 0x40 MLOAD DUP1 SWAP2 SUB SWAP1 LOG1 JUMPDEST POP JUMPDEST POP POP POP POP POP JUMP JUMPDEST PUSH1 0x60 PUSH1 0x2 DUP1 SLOAD DUP1 PUSH1 0x20 MUL PUSH1 0x20 ADD PUSH1 0x40 MLOAD SWAP1 DUP2 ADD PUSH1 0x40 MSTORE DUP1 SWAP3 SWAP2 SWAP1 DUP2 DUP2 MSTORE PUSH1 0x20 ADD DUP3 DUP1 SLOAD DUP1 ISZERO PUSH2 0xF78 JUMPI PUSH1 0x20 MUL DUP3 ADD SWAP2 SWAP1 PUSH1 0x0 MSTORE PUSH1 0x20 PUSH1 0x0 KECCAK256 SWAP1 JUMPDEST DUP2 PUSH1 0x0 SWAP1 SLOAD SWAP1 PUSH2 0x100 EXP SWAP1 DIV PUSH20 0xFFFFFFFFFFFFFFFFFFFFFFFFFFFFFFFFFFFFFFFF AND PUSH20 0xFFFFFFFFFFFFFFFFFFFFFFFFFFFFFFFFFFFFFFFF AND DUP2 MSTORE PUSH1 0x20 ADD SWAP1 PUSH1 0x1 ADD SWAP1 DUP1 DUP4 GT PUSH2 0xF2E JUMPI JUMPDEST POP POP POP POP POP SWAP1 POP SWAP1 JUMP JUMPDEST PUSH1 0x60 ADDRESS PUSH20 0xFFFFFFFFFFFFFFFFFFFFFFFFFFFFFFFFFFFFFFFF AND PUSH4 0x52EF6B2C PUSH1 0x40 MLOAD DUP2 PUSH4 0xFFFFFFFF AND PUSH1 0xE0 SHL DUP2 MSTORE PUSH1 0x4 ADD PUSH1 0x0 PUSH1 0x40 MLOAD DUP1 DUP4 SUB DUP2 DUP7 GAS STATICCALL ISZERO DUP1 ISZERO PUSH2 0xFCF JUMPI RETURNDATASIZE PUSH1 0x0 DUP1 RETURNDATACOPY RETURNDATASIZE PUSH1 0x0 REVERT JUMPDEST POP POP POP POP PUSH1 0x40 MLOAD RETURNDATASIZE PUSH1 0x0 DUP3 RETURNDATACOPY RETURNDATASIZE PUSH1 0x1F NOT PUSH1 0x1F DUP3 ADD AND DUP3 ADD DUP1 PUSH1 0x40 MSTORE POP DUP2 ADD SWAP1 PUSH2 0xFF8 SWAP2 SWAP1 PUSH2 0x296E JUMP JUMPDEST MLOAD PUSH8 0xFFFFFFFFFFFFFFFF DUP2 GT ISZERO PUSH2 0x1012 JUMPI PUSH2 0x1011 PUSH2 0x281B JUMP JUMPDEST JUMPDEST PUSH1 0x40 MLOAD SWAP1 DUP1 DUP3 MSTORE DUP1 PUSH1 0x20 MUL PUSH1 0x20 ADD DUP3 ADD PUSH1 0x40 MSTORE DUP1 ISZERO PUSH2 0x104B JUMPI DUP2 PUSH1 0x20 ADD JUMPDEST PUSH2 0x1038 PUSH2 0x1B2E JUMP JUMPDEST DUP2 MSTORE PUSH1 0x20 ADD SWAP1 PUSH1 0x1 SWAP1 SUB SWAP1 DUP2 PUSH2 0x1030 JUMPI SWAP1 POP JUMPDEST POP SWAP1 POP PUSH1 0x0 DUP1 JUMPDEST ADDRESS PUSH20 0xFFFFFFFFFFFFFFFFFFFFFFFFFFFFFFFFFFFFFFFF AND PUSH4 0x52EF6B2C PUSH1 0x40 MLOAD DUP2 PUSH4 0xFFFFFFFF AND PUSH1 0xE0 SHL DUP2 MSTORE PUSH1 0x4 ADD PUSH1 0x0 PUSH1 0x40 MLOAD DUP1 DUP4 SUB DUP2 DUP7 GAS STATICCALL ISZERO DUP1 ISZERO PUSH2 0x109D JUMPI RETURNDATASIZE PUSH1 0x0 DUP1 RETURNDATACOPY RETURNDATASIZE PUSH1 0x0 REVERT JUMPDEST POP POP POP POP PUSH1 0x40 MLOAD RETURNDATASIZE PUSH1 0x0 DUP3 RETURNDATACOPY RETURNDATASIZE PUSH1 0x1F NOT PUSH1 0x1F DUP3 ADD AND DUP3 ADD DUP1 PUSH1 0x40 MSTORE POP DUP2 ADD SWAP1 PUSH2 0x10C6 SWAP2 SWAP1 PUSH2 0x296E JUMP JUMPDEST MLOAD DUP2 LT ISZERO PUSH2 0x12D4 JUMPI PUSH1 0x0 PUSH1 0x40 MLOAD DUP1 PUSH1 0x40 ADD PUSH1 0x40 MSTORE DUP1 ADDRESS PUSH20 0xFFFFFFFFFFFFFFFFFFFFFFFFFFFFFFFFFFFFFFFF AND PUSH4 0x52EF6B2C PUSH1 0x40 MLOAD DUP2 PUSH4 0xFFFFFFFF AND PUSH1 0xE0 SHL DUP2 MSTORE PUSH1 0x4 ADD PUSH1 0x0 PUSH1 0x40 MLOAD DUP1 DUP4 SUB DUP2 DUP7 GAS STATICCALL ISZERO DUP1 ISZERO PUSH2 0x1126 JUMPI RETURNDATASIZE PUSH1 0x0 DUP1 RETURNDATACOPY RETURNDATASIZE PUSH1 0x0 REVERT JUMPDEST POP POP POP POP PUSH1 0x40 MLOAD RETURNDATASIZE PUSH1 0x0 DUP3 RETURNDATACOPY RETURNDATASIZE PUSH1 0x1F NOT PUSH1 0x1F DUP3 ADD AND DUP3 ADD DUP1 PUSH1 0x40 MSTORE POP DUP2 ADD SWAP1 PUSH2 0x114F SWAP2 SWAP1 PUSH2 0x296E JUMP JUMPDEST DUP5 DUP2 MLOAD DUP2 LT PUSH2 0x1161 JUMPI PUSH2 0x1160 PUSH2 0x224F JUMP JUMPDEST JUMPDEST PUSH1 0x20 MUL PUSH1 0x20 ADD ADD MLOAD PUSH20 0xFFFFFFFFFFFFFFFFFFFFFFFFFFFFFFFFFFFFFFFF AND DUP2 MSTORE PUSH1 0x20 ADD ADDRESS PUSH20 0xFFFFFFFFFFFFFFFFFFFFFFFFFFFFFFFFFFFFFFFF AND PUSH4 0xADFCA15E ADDRESS PUSH20 0xFFFFFFFFFFFFFFFFFFFFFFFFFFFFFFFFFFFFFFFF AND PUSH4 0x52EF6B2C PUSH1 0x40 MLOAD DUP2 PUSH4 0xFFFFFFFF AND PUSH1 0xE0 SHL DUP2 MSTORE PUSH1 0x4 ADD PUSH1 0x0 PUSH1 0x40 MLOAD DUP1 DUP4 SUB DUP2 DUP7 GAS STATICCALL ISZERO DUP1 ISZERO PUSH2 0x11EB JUMPI RETURNDATASIZE PUSH1 0x0 DUP1 RETURNDATACOPY RETURNDATASIZE PUSH1 0x0 REVERT JUMPDEST POP POP POP POP PUSH1 0x40 MLOAD RETURNDATASIZE PUSH1 0x0 DUP3 RETURNDATACOPY RETURNDATASIZE PUSH1 0x1F NOT PUSH1 0x1F DUP3 ADD AND DUP3 ADD DUP1 PUSH1 0x40 MSTORE POP DUP2 ADD SWAP1 PUSH2 0x1214 SWAP2 SWAP1 PUSH2 0x296E JUMP JUMPDEST DUP7 DUP2 MLOAD DUP2 LT PUSH2 0x1226 JUMPI PUSH2 0x1225 PUSH2 0x224F JUMP JUMPDEST JUMPDEST PUSH1 0x20 MUL PUSH1 0x20 ADD ADD MLOAD PUSH1 0x40 MLOAD DUP3 PUSH4 0xFFFFFFFF AND PUSH1 0xE0 SHL DUP2 MSTORE PUSH1 0x4 ADD PUSH2 0x124A SWAP2 SWAP1 PUSH2 0x20C4 JUMP JUMPDEST PUSH1 0x0 PUSH1 0x40 MLOAD DUP1 DUP4 SUB DUP2 DUP7 GAS STATICCALL ISZERO DUP1 ISZERO PUSH2 0x1267 JUMPI RETURNDATASIZE PUSH1 0x0 DUP1 RETURNDATACOPY RETURNDATASIZE PUSH1 0x0 REVERT JUMPDEST POP POP POP POP PUSH1 0x40 MLOAD RETURNDATASIZE PUSH1 0x0 DUP3 RETURNDATACOPY RETURNDATASIZE PUSH1 0x1F NOT PUSH1 0x1F DUP3 ADD AND DUP3 ADD DUP1 PUSH1 0x40 MSTORE POP DUP2 ADD SWAP1 PUSH2 0x1290 SWAP2 SWAP1 PUSH2 0x2A8F JUMP JUMPDEST DUP2 MSTORE POP SWAP1 POP DUP1 DUP5 DUP5 DUP1 PUSH2 0x12A2 SWAP1 PUSH2 0x2399 JUMP JUMPDEST SWAP6 POP DUP2 MLOAD DUP2 LT PUSH2 0x12B5 JUMPI PUSH2 0x12B4 PUSH2 0x224F JUMP JUMPDEST JUMPDEST PUSH1 0x20 MUL PUSH1 0x20 ADD ADD DUP2 SWAP1 MSTORE POP POP DUP1 DUP1 PUSH2 0x12CC SWAP1 PUSH2 0x2399 JUMP JUMPDEST SWAP2 POP POP PUSH2 0x1052 JUMP JUMPDEST POP POP SWAP1 JUMP JUMPDEST PUSH1 0x2 DUP2 DUP2 SLOAD DUP2 LT PUSH2 0x12E9 JUMPI PUSH1 0x0 DUP1 REVERT JUMPDEST SWAP1 PUSH1 0x0 MSTORE PUSH1 0x20 PUSH1 0x0 KECCAK256 ADD PUSH1 0x0 SWAP2 POP SLOAD SWAP1 PUSH2 0x100 EXP SWAP1 DIV PUSH20 0xFFFFFFFFFFFFFFFFFFFFFFFFFFFFFFFFFFFFFFFF AND DUP2 JUMP JUMPDEST PUSH1 0x0 PUSH1 0x20 MSTORE DUP1 PUSH1 0x0 MSTORE PUSH1 0x40 PUSH1 0x0 KECCAK256 PUSH1 0x0 SWAP2 POP SLOAD SWAP1 PUSH2 0x100 EXP SWAP1 DIV PUSH20 0xFFFFFFFFFFFFFFFFFFFFFFFFFFFFFFFFFFFFFFFF AND DUP2 JUMP JUMPDEST PUSH1 0x60 PUSH1 0x0 DUP1 JUMPDEST PUSH1 0x1 DUP1 SLOAD SWAP1 POP DUP2 LT ISZERO PUSH2 0x1459 JUMPI DUP4 PUSH20 0xFFFFFFFFFFFFFFFFFFFFFFFFFFFFFFFFFFFFFFFF AND PUSH1 0x0 DUP1 PUSH1 0x1 DUP5 DUP2 SLOAD DUP2 LT PUSH2 0x138C JUMPI PUSH2 0x138B PUSH2 0x224F JUMP JUMPDEST JUMPDEST SWAP1 PUSH1 0x0 MSTORE PUSH1 0x20 PUSH1 0x0 KECCAK256 SWAP1 PUSH1 0x8 SWAP2 DUP3 DUP3 DIV ADD SWAP2 SWAP1 MOD PUSH1 0x4 MUL SWAP1 SLOAD SWAP1 PUSH2 0x100 EXP SWAP1 DIV PUSH1 0xE0 SHL PUSH28 0xFFFFFFFFFFFFFFFFFFFFFFFFFFFFFFFFFFFFFFFFFFFFFFFFFFFFFFFF NOT AND PUSH28 0xFFFFFFFFFFFFFFFFFFFFFFFFFFFFFFFFFFFFFFFFFFFFFFFFFFFFFFFF NOT AND DUP2 MSTORE PUSH1 0x20 ADD SWAP1 DUP2 MSTORE PUSH1 0x20 ADD PUSH1 0x0 KECCAK256 PUSH1 0x0 SWAP1 SLOAD SWAP1 PUSH2 0x100 EXP SWAP1 DIV PUSH20 0xFFFFFFFFFFFFFFFFFFFFFFFFFFFFFFFFFFFFFFFF AND PUSH20 0xFFFFFFFFFFFFFFFFFFFFFFFFFFFFFFFFFFFFFFFF AND SUB PUSH2 0x1446 JUMPI DUP2 DUP1 PUSH2 0x1442 SWAP1 PUSH2 0x2399 JUMP JUMPDEST SWAP3 POP POP JUMPDEST DUP1 DUP1 PUSH2 0x1451 SWAP1 PUSH2 0x2399 JUMP JUMPDEST SWAP2 POP POP PUSH2 0x1351 JUMP JUMPDEST POP DUP1 PUSH8 0xFFFFFFFFFFFFFFFF DUP2 GT ISZERO PUSH2 0x1474 JUMPI PUSH2 0x1473 PUSH2 0x281B JUMP JUMPDEST JUMPDEST PUSH1 0x40 MLOAD SWAP1 DUP1 DUP3 MSTORE DUP1 PUSH1 0x20 MUL PUSH1 0x20 ADD DUP3 ADD PUSH1 0x40 MSTORE DUP1 ISZERO PUSH2 0x14A2 JUMPI DUP2 PUSH1 0x20 ADD PUSH1 0x20 DUP3 MUL DUP1 CALLDATASIZE DUP4 CALLDATACOPY DUP1 DUP3 ADD SWAP2 POP POP SWAP1 POP JUMPDEST POP SWAP2 POP PUSH1 0x0 SWAP1 POP PUSH1 0x0 JUMPDEST PUSH1 0x1 DUP1 SLOAD SWAP1 POP DUP2 LT ISZERO PUSH2 0x1648 JUMPI DUP4 PUSH20 0xFFFFFFFFFFFFFFFFFFFFFFFFFFFFFFFFFFFFFFFF AND PUSH1 0x0 DUP1 PUSH1 0x1 DUP5 DUP2 SLOAD DUP2 LT PUSH2 0x14E7 JUMPI PUSH2 0x14E6 PUSH2 0x224F JUMP JUMPDEST JUMPDEST SWAP1 PUSH1 0x0 MSTORE PUSH1 0x20 PUSH1 0x0 KECCAK256 SWAP1 PUSH1 0x8 SWAP2 DUP3 DUP3 DIV ADD SWAP2 SWAP1 MOD PUSH1 0x4 MUL SWAP1 SLOAD SWAP1 PUSH2 0x100 EXP SWAP1 DIV PUSH1 0xE0 SHL PUSH28 0xFFFFFFFFFFFFFFFFFFFFFFFFFFFFFFFFFFFFFFFFFFFFFFFFFFFFFFFF NOT AND PUSH28 0xFFFFFFFFFFFFFFFFFFFFFFFFFFFFFFFFFFFFFFFFFFFFFFFFFFFFFFFF NOT AND DUP2 MSTORE PUSH1 0x20 ADD SWAP1 DUP2 MSTORE PUSH1 0x20 ADD PUSH1 0x0 KECCAK256 PUSH1 0x0 SWAP1 SLOAD SWAP1 PUSH2 0x100 EXP SWAP1 DIV PUSH20 0xFFFFFFFFFFFFFFFFFFFFFFFFFFFFFFFFFFFFFFFF AND PUSH20 0xFFFFFFFFFFFFFFFFFFFFFFFFFFFFFFFFFFFFFFFF AND SUB PUSH2 0x1635 JUMPI PUSH1 0x1 DUP2 DUP2 SLOAD DUP2 LT PUSH2 0x15A6 JUMPI PUSH2 0x15A5 PUSH2 0x224F JUMP JUMPDEST JUMPDEST SWAP1 PUSH1 0x0 MSTORE PUSH1 0x20 PUSH1 0x0 KECCAK256 SWAP1 PUSH1 0x8 SWAP2 DUP3 DUP3 DIV ADD SWAP2 SWAP1 MOD PUSH1 0x4 MUL SWAP1 SLOAD SWAP1 PUSH2 0x100 EXP SWAP1 DIV PUSH1 0xE0 SHL DUP4 DUP4 DUP1 PUSH2 0x15D5 SWAP1 PUSH2 0x2399 JUMP JUMPDEST SWAP5 POP DUP2 MLOAD DUP2 LT PUSH2 0x15E8 JUMPI PUSH2 0x15E7 PUSH2 0x224F JUMP JUMPDEST JUMPDEST PUSH1 0x20 MUL PUSH1 0x20 ADD ADD SWAP1 PUSH28 0xFFFFFFFFFFFFFFFFFFFFFFFFFFFFFFFFFFFFFFFFFFFFFFFFFFFFFFFF NOT AND SWAP1 DUP2 PUSH28 0xFFFFFFFFFFFFFFFFFFFFFFFFFFFFFFFFFFFFFFFFFFFFFFFFFFFFFFFF NOT AND DUP2 MSTORE POP POP JUMPDEST DUP1 DUP1 PUSH2 0x1640 SWAP1 PUSH2 0x2399 JUMP JUMPDEST SWAP2 POP POP PUSH2 0x14AC JUMP JUMPDEST POP POP SWAP2 SWAP1 POP JUMP JUMPDEST PUSH1 0x0 DUP1 PUSH1 0x0 DUP4 PUSH28 0xFFFFFFFFFFFFFFFFFFFFFFFFFFFFFFFFFFFFFFFFFFFFFFFFFFFFFFFF NOT AND PUSH28 0xFFFFFFFFFFFFFFFFFFFFFFFFFFFFFFFFFFFFFFFFFFFFFFFFFFFFFFFF NOT AND DUP2 MSTORE PUSH1 0x20 ADD SWAP1 DUP2 MSTORE PUSH1 0x20 ADD PUSH1 0x0 KECCAK256 PUSH1 0x0 SWAP1 SLOAD SWAP1 PUSH2 0x100 EXP SWAP1 DIV PUSH20 0xFFFFFFFFFFFFFFFFFFFFFFFFFFFFFFFFFFFFFFFF AND SWAP1 POP SWAP2 SWAP1 POP JUMP JUMPDEST PUSH1 0x1 DUP2 DUP2 SLOAD DUP2 LT PUSH2 0x16D9 JUMPI PUSH1 0x0 DUP1 REVERT JUMPDEST SWAP1 PUSH1 0x0 MSTORE PUSH1 0x20 PUSH1 0x0 KECCAK256 SWAP1 PUSH1 0x8 SWAP2 DUP3 DUP3 DIV ADD SWAP2 SWAP1 MOD PUSH1 0x4 MUL SWAP2 POP SLOAD SWAP1 PUSH2 0x100 EXP SWAP1 DIV PUSH1 0xE0 SHL DUP2 JUMP JUMPDEST PUSH1 0x0 DUP1 PUSH32 0x20BDB322702E8F31EB02A18E466059B6B3224433A6E129849583A03F267F40A3 SWAP1 POP DUP1 SWAP2 POP POP SWAP1 JUMP JUMPDEST PUSH1 0x60 PUSH1 0x0 PUSH1 0x1 DUP1 SLOAD SWAP1 POP PUSH8 0xFFFFFFFFFFFFFFFF DUP2 GT ISZERO PUSH2 0x1750 JUMPI PUSH2 0x174F PUSH2 0x281B JUMP JUMPDEST JUMPDEST PUSH1 0x40 MLOAD SWAP1 DUP1 DUP3 MSTORE DUP1 PUSH1 0x20 MUL PUSH1 0x20 ADD DUP3 ADD PUSH1 0x40 MSTORE DUP1 ISZERO PUSH2 0x177E JUMPI DUP2 PUSH1 0x20 ADD PUSH1 0x20 DUP3 MUL DUP1 CALLDATASIZE DUP4 CALLDATACOPY DUP1 DUP3 ADD SWAP2 POP POP SWAP1 POP JUMPDEST POP SWAP1 POP PUSH1 0x0 DUP1 JUMPDEST PUSH1 0x1 DUP1 SLOAD SWAP1 POP DUP2 LT ISZERO PUSH2 0x19CC JUMPI PUSH1 0x0 DUP1 PUSH1 0x0 SWAP1 POP JUMPDEST DUP4 DUP2 LT ISZERO PUSH2 0x18AD JUMPI DUP5 DUP2 DUP2 MLOAD DUP2 LT PUSH2 0x17B5 JUMPI PUSH2 0x17B4 PUSH2 0x224F JUMP JUMPDEST JUMPDEST PUSH1 0x20 MUL PUSH1 0x20 ADD ADD MLOAD PUSH20 0xFFFFFFFFFFFFFFFFFFFFFFFFFFFFFFFFFFFFFFFF AND PUSH1 0x0 DUP1 PUSH1 0x1 DUP7 DUP2 SLOAD DUP2 LT PUSH2 0x17EA JUMPI PUSH2 0x17E9 PUSH2 0x224F JUMP JUMPDEST JUMPDEST SWAP1 PUSH1 0x0 MSTORE PUSH1 0x20 PUSH1 0x0 KECCAK256 SWAP1 PUSH1 0x8 SWAP2 DUP3 DUP3 DIV ADD SWAP2 SWAP1 MOD PUSH1 0x4 MUL SWAP1 SLOAD SWAP1 PUSH2 0x100 EXP SWAP1 DIV PUSH1 0xE0 SHL PUSH28 0xFFFFFFFFFFFFFFFFFFFFFFFFFFFFFFFFFFFFFFFFFFFFFFFFFFFFFFFF NOT AND PUSH28 0xFFFFFFFFFFFFFFFFFFFFFFFFFFFFFFFFFFFFFFFFFFFFFFFFFFFFFFFF NOT AND DUP2 MSTORE PUSH1 0x20 ADD SWAP1 DUP2 MSTORE PUSH1 0x20 ADD PUSH1 0x0 KECCAK256 PUSH1 0x0 SWAP1 SLOAD SWAP1 PUSH2 0x100 EXP SWAP1 DIV PUSH20 0xFFFFFFFFFFFFFFFFFFFFFFFFFFFFFFFFFFFFFFFF AND PUSH20 0xFFFFFFFFFFFFFFFFFFFFFFFFFFFFFFFFFFFFFFFF AND SUB PUSH2 0x189A JUMPI PUSH1 0x1 SWAP2 POP JUMPDEST DUP1 DUP1 PUSH2 0x18A5 SWAP1 PUSH2 0x2399 JUMP JUMPDEST SWAP2 POP POP PUSH2 0x179A JUMP JUMPDEST POP DUP1 PUSH2 0x19B4 JUMPI PUSH1 0x0 DUP1 PUSH1 0x1 DUP5 DUP2 SLOAD DUP2 LT PUSH2 0x18CA JUMPI PUSH2 0x18C9 PUSH2 0x224F JUMP JUMPDEST JUMPDEST SWAP1 PUSH1 0x0 MSTORE PUSH1 0x20 PUSH1 0x0 KECCAK256 SWAP1 PUSH1 0x8 SWAP2 DUP3 DUP3 DIV ADD SWAP2 SWAP1 MOD PUSH1 0x4 MUL SWAP1 SLOAD SWAP1 PUSH2 0x100 EXP SWAP1 DIV PUSH1 0xE0 SHL PUSH28 0xFFFFFFFFFFFFFFFFFFFFFFFFFFFFFFFFFFFFFFFFFFFFFFFFFFFFFFFF NOT AND PUSH28 0xFFFFFFFFFFFFFFFFFFFFFFFFFFFFFFFFFFFFFFFFFFFFFFFFFFFFFFFF NOT AND DUP2 MSTORE PUSH1 0x20 ADD SWAP1 DUP2 MSTORE PUSH1 0x20 ADD PUSH1 0x0 KECCAK256 PUSH1 0x0 SWAP1 SLOAD SWAP1 PUSH2 0x100 EXP SWAP1 DIV PUSH20 0xFFFFFFFFFFFFFFFFFFFFFFFFFFFFFFFFFFFFFFFF AND DUP5 DUP5 DUP1 PUSH2 0x1966 SWAP1 PUSH2 0x2399 JUMP JUMPDEST SWAP6 POP DUP2 MLOAD DUP2 LT PUSH2 0x1979 JUMPI PUSH2 0x1978 PUSH2 0x224F JUMP JUMPDEST JUMPDEST PUSH1 0x20 MUL PUSH1 0x20 ADD ADD SWAP1 PUSH20 0xFFFFFFFFFFFFFFFFFFFFFFFFFFFFFFFFFFFFFFFF AND SWAP1 DUP2 PUSH20 0xFFFFFFFFFFFFFFFFFFFFFFFFFFFFFFFFFFFFFFFF AND DUP2 MSTORE POP POP JUMPDEST PUSH1 0x0 SWAP1 POP POP DUP1 DUP1 PUSH2 0x19C4 SWAP1 PUSH2 0x2399 JUMP JUMPDEST SWAP2 POP POP PUSH2 0x1785 JUMP JUMPDEST POP DUP1 PUSH8 0xFFFFFFFFFFFFFFFF DUP2 GT ISZERO PUSH2 0x19E7 JUMPI PUSH2 0x19E6 PUSH2 0x281B JUMP JUMPDEST JUMPDEST PUSH1 0x40 MLOAD SWAP1 DUP1 DUP3 MSTORE DUP1 PUSH1 0x20 MUL PUSH1 0x20 ADD DUP3 ADD PUSH1 0x40 MSTORE DUP1 ISZERO PUSH2 0x1A15 JUMPI DUP2 PUSH1 0x20 ADD PUSH1 0x20 DUP3 MUL DUP1 CALLDATASIZE DUP4 CALLDATACOPY DUP1 DUP3 ADD SWAP2 POP POP SWAP1 POP JUMPDEST POP SWAP3 POP PUSH1 0x0 JUMPDEST DUP2 DUP2 LT ISZERO PUSH2 0x1A9E JUMPI DUP3 DUP2 DUP2 MLOAD DUP2 LT PUSH2 0x1A36 JUMPI PUSH2 0x1A35 PUSH2 0x224F JUMP JUMPDEST JUMPDEST PUSH1 0x20 MUL PUSH1 0x20 ADD ADD MLOAD DUP5 DUP3 DUP2 MLOAD DUP2 LT PUSH2 0x1A51 JUMPI PUSH2 0x1A50 PUSH2 0x224F JUMP JUMPDEST JUMPDEST PUSH1 0x20 MUL PUSH1 0x20 ADD ADD SWAP1 PUSH20 0xFFFFFFFFFFFFFFFFFFFFFFFFFFFFFFFFFFFFFFFF AND SWAP1 DUP2 PUSH20 0xFFFFFFFFFFFFFFFFFFFFFFFFFFFFFFFFFFFFFFFF AND DUP2 MSTORE POP POP DUP1 DUP1 PUSH2 0x1A96 SWAP1 PUSH2 0x2399 JUMP JUMPDEST SWAP2 POP POP PUSH2 0x1A1B JUMP JUMPDEST POP POP POP SWAP1 JUMP JUMPDEST DUP3 DUP1 SLOAD DUP3 DUP3 SSTORE SWAP1 PUSH1 0x0 MSTORE PUSH1 0x20 PUSH1 0x0 KECCAK256 SWAP1 DUP2 ADD SWAP3 DUP3 ISZERO PUSH2 0x1B1D JUMPI SWAP2 PUSH1 0x20 MUL DUP3 ADD JUMPDEST DUP3 DUP2 GT ISZERO PUSH2 0x1B1C JUMPI DUP3 MLOAD DUP3 PUSH1 0x0 PUSH2 0x100 EXP DUP2 SLOAD DUP2 PUSH20 0xFFFFFFFFFFFFFFFFFFFFFFFFFFFFFFFFFFFFFFFF MUL NOT AND SWAP1 DUP4 PUSH20 0xFFFFFFFFFFFFFFFFFFFFFFFFFFFFFFFFFFFFFFFF AND MUL OR SWAP1 SSTORE POP SWAP2 PUSH1 0x20 ADD SWAP2 SWAP1 PUSH1 0x1 ADD SWAP1 PUSH2 0x1AC4 JUMP JUMPDEST JUMPDEST POP SWAP1 POP PUSH2 0x1B2A SWAP2 SWAP1 PUSH2 0x1B5E JUMP JUMPDEST POP SWAP1 JUMP JUMPDEST PUSH1 0x40 MLOAD DUP1 PUSH1 0x40 ADD PUSH1 0x40 MSTORE DUP1 PUSH1 0x0 PUSH20 0xFFFFFFFFFFFFFFFFFFFFFFFFFFFFFFFFFFFFFFFF AND DUP2 MSTORE PUSH1 0x20 ADD PUSH1 0x60 DUP2 MSTORE POP SWAP1 JUMP JUMPDEST JUMPDEST DUP1 DUP3 GT ISZERO PUSH2 0x1B77 JUMPI PUSH1 0x0 DUP2 PUSH1 0x0 SWAP1 SSTORE POP PUSH1 0x1 ADD PUSH2 0x1B5F JUMP JUMPDEST POP SWAP1 JUMP JUMPDEST PUSH1 0x0 DUP2 SWAP1 POP SWAP2 SWAP1 POP JUMP JUMPDEST PUSH2 0x1B8E DUP2 PUSH2 0x1B7B JUMP JUMPDEST DUP3 MSTORE POP POP JUMP JUMPDEST PUSH1 0x0 PUSH1 0x20 DUP3 ADD SWAP1 POP PUSH2 0x1BA9 PUSH1 0x0 DUP4 ADD DUP5 PUSH2 0x1B85 JUMP JUMPDEST SWAP3 SWAP2 POP POP JUMP JUMPDEST PUSH1 0x0 PUSH1 0x40 MLOAD SWAP1 POP SWAP1 JUMP JUMPDEST PUSH1 0x0 DUP1 REVERT JUMPDEST PUSH1 0x0 DUP1 REVERT JUMPDEST PUSH1 0x0 DUP1 REVERT JUMPDEST PUSH1 0x0 DUP1 REVERT JUMPDEST PUSH1 0x0 DUP1 REVERT JUMPDEST PUSH1 0x0 DUP1 DUP4 PUSH1 0x1F DUP5 ADD SLT PUSH2 0x1BE8 JUMPI PUSH2 0x1BE7 PUSH2 0x1BC3 JUMP JUMPDEST JUMPDEST DUP3 CALLDATALOAD SWAP1 POP PUSH8 0xFFFFFFFFFFFFFFFF DUP2 GT ISZERO PUSH2 0x1C05 JUMPI PUSH2 0x1C04 PUSH2 0x1BC8 JUMP JUMPDEST JUMPDEST PUSH1 0x20 DUP4 ADD SWAP2 POP DUP4 PUSH1 0x20 DUP3 MUL DUP4 ADD GT ISZERO PUSH2 0x1C21 JUMPI PUSH2 0x1C20 PUSH2 0x1BCD JUMP JUMPDEST JUMPDEST SWAP3 POP SWAP3 SWAP1 POP JUMP JUMPDEST PUSH1 0x0 PUSH20 0xFFFFFFFFFFFFFFFFFFFFFFFFFFFFFFFFFFFFFFFF DUP3 AND SWAP1 POP SWAP2 SWAP1 POP JUMP JUMPDEST PUSH1 0x0 PUSH2 0x1C53 DUP3 PUSH2 0x1C28 JUMP JUMPDEST SWAP1 POP SWAP2 SWAP1 POP JUMP JUMPDEST PUSH2 0x1C63 DUP2 PUSH2 0x1C48 JUMP JUMPDEST DUP2 EQ PUSH2 0x1C6E JUMPI PUSH1 0x0 DUP1 REVERT JUMPDEST POP JUMP JUMPDEST PUSH1 0x0 DUP2 CALLDATALOAD SWAP1 POP PUSH2 0x1C80 DUP2 PUSH2 0x1C5A JUMP JUMPDEST SWAP3 SWAP2 POP POP JUMP JUMPDEST PUSH1 0x0 DUP1 DUP4 PUSH1 0x1F DUP5 ADD SLT PUSH2 0x1C9C JUMPI PUSH2 0x1C9B PUSH2 0x1BC3 JUMP JUMPDEST JUMPDEST DUP3 CALLDATALOAD SWAP1 POP PUSH8 0xFFFFFFFFFFFFFFFF DUP2 GT ISZERO PUSH2 0x1CB9 JUMPI PUSH2 0x1CB8 PUSH2 0x1BC8 JUMP JUMPDEST JUMPDEST PUSH1 0x20 DUP4 ADD SWAP2 POP DUP4 PUSH1 0x1 DUP3 MUL DUP4 ADD GT ISZERO PUSH2 0x1CD5 JUMPI PUSH2 0x1CD4 PUSH2 0x1BCD JUMP JUMPDEST JUMPDEST SWAP3 POP SWAP3 SWAP1 POP JUMP JUMPDEST PUSH1 0x0 DUP1 PUSH1 0x0 DUP1 PUSH1 0x0 PUSH1 0x60 DUP7 DUP9 SUB SLT ISZERO PUSH2 0x1CF8 JUMPI PUSH2 0x1CF7 PUSH2 0x1BB9 JUMP JUMPDEST JUMPDEST PUSH1 0x0 DUP7 ADD CALLDATALOAD PUSH8 0xFFFFFFFFFFFFFFFF DUP2 GT ISZERO PUSH2 0x1D16 JUMPI PUSH2 0x1D15 PUSH2 0x1BBE JUMP JUMPDEST JUMPDEST PUSH2 0x1D22 DUP9 DUP3 DUP10 ADD PUSH2 0x1BD2 JUMP JUMPDEST SWAP6 POP SWAP6 POP POP PUSH1 0x20 PUSH2 0x1D35 DUP9 DUP3 DUP10 ADD PUSH2 0x1C71 JUMP JUMPDEST SWAP4 POP POP PUSH1 0x40 DUP7 ADD CALLDATALOAD PUSH8 0xFFFFFFFFFFFFFFFF DUP2 GT ISZERO PUSH2 0x1D56 JUMPI PUSH2 0x1D55 PUSH2 0x1BBE JUMP JUMPDEST JUMPDEST PUSH2 0x1D62 DUP9 DUP3 DUP10 ADD PUSH2 0x1C86 JUMP JUMPDEST SWAP3 POP SWAP3 POP POP SWAP3 SWAP6 POP SWAP3 SWAP6 SWAP1 SWAP4 POP JUMP JUMPDEST PUSH1 0x0 DUP2 MLOAD SWAP1 POP SWAP2 SWAP1 POP JUMP JUMPDEST PUSH1 0x0 DUP3 DUP3 MSTORE PUSH1 0x20 DUP3 ADD SWAP1 POP SWAP3 SWAP2 POP POP JUMP JUMPDEST PUSH1 0x0 DUP2 SWAP1 POP PUSH1 0x20 DUP3 ADD SWAP1 POP SWAP2 SWAP1 POP JUMP JUMPDEST PUSH2 0x1DA6 DUP2 PUSH2 0x1C48 JUMP JUMPDEST DUP3 MSTORE POP POP JUMP JUMPDEST PUSH1 0x0 PUSH2 0x1DB8 DUP4 DUP4 PUSH2 0x1D9D JUMP JUMPDEST PUSH1 0x20 DUP4 ADD SWAP1 POP SWAP3 SWAP2 POP POP JUMP JUMPDEST PUSH1 0x0 PUSH1 0x20 DUP3 ADD SWAP1 POP SWAP2 SWAP1 POP JUMP JUMPDEST PUSH1 0x0 PUSH2 0x1DDC DUP3 PUSH2 0x1D71 JUMP JUMPDEST PUSH2 0x1DE6 DUP2 DUP6 PUSH2 0x1D7C JUMP JUMPDEST SWAP4 POP PUSH2 0x1DF1 DUP4 PUSH2 0x1D8D JUMP JUMPDEST DUP1 PUSH1 0x0 JUMPDEST DUP4 DUP2 LT ISZERO PUSH2 0x1E22 JUMPI DUP2 MLOAD PUSH2 0x1E09 DUP9 DUP3 PUSH2 0x1DAC JUMP JUMPDEST SWAP8 POP PUSH2 0x1E14 DUP4 PUSH2 0x1DC4 JUMP JUMPDEST SWAP3 POP POP PUSH1 0x1 DUP2 ADD SWAP1 POP PUSH2 0x1DF5 JUMP JUMPDEST POP DUP6 SWAP4 POP POP POP POP SWAP3 SWAP2 POP POP JUMP JUMPDEST PUSH1 0x0 PUSH1 0x20 DUP3 ADD SWAP1 POP DUP2 DUP2 SUB PUSH1 0x0 DUP4 ADD MSTORE PUSH2 0x1E49 DUP2 DUP5 PUSH2 0x1DD1 JUMP JUMPDEST SWAP1 POP SWAP3 SWAP2 POP POP JUMP JUMPDEST PUSH1 0x0 DUP2 MLOAD SWAP1 POP SWAP2 SWAP1 POP JUMP JUMPDEST PUSH1 0x0 DUP3 DUP3 MSTORE PUSH1 0x20 DUP3 ADD SWAP1 POP SWAP3 SWAP2 POP POP JUMP JUMPDEST PUSH1 0x0 DUP2 SWAP1 POP PUSH1 0x20 DUP3 ADD SWAP1 POP SWAP2 SWAP1 POP JUMP JUMPDEST PUSH1 0x0 DUP2 MLOAD SWAP1 POP SWAP2 SWAP1 POP JUMP JUMPDEST PUSH1 0x0 DUP3 DUP3 MSTORE PUSH1 0x20 DUP3 ADD SWAP1 POP SWAP3 SWAP2 POP POP JUMP JUMPDEST PUSH1 0x0 DUP2 SWAP1 POP PUSH1 0x20 DUP3 ADD SWAP1 POP SWAP2 SWAP1 POP JUMP JUMPDEST PUSH1 0x0 PUSH32 0xFFFFFFFF00000000000000000000000000000000000000000000000000000000 DUP3 AND SWAP1 POP SWAP2 SWAP1 POP JUMP JUMPDEST PUSH2 0x1EDE DUP2 PUSH2 0x1EA9 JUMP JUMPDEST DUP3 MSTORE POP POP JUMP JUMPDEST PUSH1 0x0 PUSH2 0x1EF0 DUP4 DUP4 PUSH2 0x1ED5 JUMP JUMPDEST PUSH1 0x20 DUP4 ADD SWAP1 POP SWAP3 SWAP2 POP POP JUMP JUMPDEST PUSH1 0x0 PUSH1 0x20 DUP3 ADD SWAP1 POP SWAP2 SWAP1 POP JUMP JUMPDEST PUSH1 0x0 PUSH2 0x1F14 DUP3 PUSH2 0x1E7D JUMP JUMPDEST PUSH2 0x1F1E DUP2 DUP6 PUSH2 0x1E88 JUMP JUMPDEST SWAP4 POP PUSH2 0x1F29 DUP4 PUSH2 0x1E99 JUMP JUMPDEST DUP1 PUSH1 0x0 JUMPDEST DUP4 DUP2 LT ISZERO PUSH2 0x1F5A JUMPI DUP2 MLOAD PUSH2 0x1F41 DUP9 DUP3 PUSH2 0x1EE4 JUMP JUMPDEST SWAP8 POP PUSH2 0x1F4C DUP4 PUSH2 0x1EFC JUMP JUMPDEST SWAP3 POP POP PUSH1 0x1 DUP2 ADD SWAP1 POP PUSH2 0x1F2D JUMP JUMPDEST POP DUP6 SWAP4 POP POP POP POP SWAP3 SWAP2 POP POP JUMP JUMPDEST PUSH1 0x0 PUSH1 0x40 DUP4 ADD PUSH1 0x0 DUP4 ADD MLOAD PUSH2 0x1F7F PUSH1 0x0 DUP7 ADD DUP3 PUSH2 0x1D9D JUMP JUMPDEST POP PUSH1 0x20 DUP4 ADD MLOAD DUP5 DUP3 SUB PUSH1 0x20 DUP7 ADD MSTORE PUSH2 0x1F97 DUP3 DUP3 PUSH2 0x1F09 JUMP JUMPDEST SWAP2 POP POP DUP1 SWAP2 POP POP SWAP3 SWAP2 POP POP JUMP JUMPDEST PUSH1 0x0 PUSH2 0x1FB0 DUP4 DUP4 PUSH2 0x1F67 JUMP JUMPDEST SWAP1 POP SWAP3 SWAP2 POP POP JUMP JUMPDEST PUSH1 0x0 PUSH1 0x20 DUP3 ADD SWAP1 POP SWAP2 SWAP1 POP JUMP JUMPDEST PUSH1 0x0 PUSH2 0x1FD0 DUP3 PUSH2 0x1E51 JUMP JUMPDEST PUSH2 0x1FDA DUP2 DUP6 PUSH2 0x1E5C JUMP JUMPDEST SWAP4 POP DUP4 PUSH1 0x20 DUP3 MUL DUP6 ADD PUSH2 0x1FEC DUP6 PUSH2 0x1E6D JUMP JUMPDEST DUP1 PUSH1 0x0 JUMPDEST DUP6 DUP2 LT ISZERO PUSH2 0x2028 JUMPI DUP5 DUP5 SUB DUP10 MSTORE DUP2 MLOAD PUSH2 0x2009 DUP6 DUP3 PUSH2 0x1FA4 JUMP JUMPDEST SWAP5 POP PUSH2 0x2014 DUP4 PUSH2 0x1FB8 JUMP JUMPDEST SWAP3 POP PUSH1 0x20 DUP11 ADD SWAP10 POP POP PUSH1 0x1 DUP2 ADD SWAP1 POP PUSH2 0x1FF0 JUMP JUMPDEST POP DUP3 SWAP8 POP DUP8 SWAP6 POP POP POP POP POP POP SWAP3 SWAP2 POP POP JUMP JUMPDEST PUSH1 0x0 PUSH1 0x20 DUP3 ADD SWAP1 POP DUP2 DUP2 SUB PUSH1 0x0 DUP4 ADD MSTORE PUSH2 0x2054 DUP2 DUP5 PUSH2 0x1FC5 JUMP JUMPDEST SWAP1 POP SWAP3 SWAP2 POP POP JUMP JUMPDEST PUSH2 0x2065 DUP2 PUSH2 0x1B7B JUMP JUMPDEST DUP2 EQ PUSH2 0x2070 JUMPI PUSH1 0x0 DUP1 REVERT JUMPDEST POP JUMP JUMPDEST PUSH1 0x0 DUP2 CALLDATALOAD SWAP1 POP PUSH2 0x2082 DUP2 PUSH2 0x205C JUMP JUMPDEST SWAP3 SWAP2 POP POP JUMP JUMPDEST PUSH1 0x0 PUSH1 0x20 DUP3 DUP5 SUB SLT ISZERO PUSH2 0x209E JUMPI PUSH2 0x209D PUSH2 0x1BB9 JUMP JUMPDEST JUMPDEST PUSH1 0x0 PUSH2 0x20AC DUP5 DUP3 DUP6 ADD PUSH2 0x2073 JUMP JUMPDEST SWAP2 POP POP SWAP3 SWAP2 POP POP JUMP JUMPDEST PUSH2 0x20BE DUP2 PUSH2 0x1C48 JUMP JUMPDEST DUP3 MSTORE POP POP JUMP JUMPDEST PUSH1 0x0 PUSH1 0x20 DUP3 ADD SWAP1 POP PUSH2 0x20D9 PUSH1 0x0 DUP4 ADD DUP5 PUSH2 0x20B5 JUMP JUMPDEST SWAP3 SWAP2 POP POP JUMP JUMPDEST PUSH2 0x20E8 DUP2 PUSH2 0x1EA9 JUMP JUMPDEST DUP2 EQ PUSH2 0x20F3 JUMPI PUSH1 0x0 DUP1 REVERT JUMPDEST POP JUMP JUMPDEST PUSH1 0x0 DUP2 CALLDATALOAD SWAP1 POP PUSH2 0x2105 DUP2 PUSH2 0x20DF JUMP JUMPDEST SWAP3 SWAP2 POP POP JUMP JUMPDEST PUSH1 0x0 PUSH1 0x20 DUP3 DUP5 SUB SLT ISZERO PUSH2 0x2121 JUMPI PUSH2 0x2120 PUSH2 0x1BB9 JUMP JUMPDEST JUMPDEST PUSH1 0x0 PUSH2 0x212F DUP5 DUP3 DUP6 ADD PUSH2 0x20F6 JUMP JUMPDEST SWAP2 POP POP SWAP3 SWAP2 POP POP JUMP JUMPDEST PUSH1 0x0 PUSH1 0x20 DUP3 DUP5 SUB SLT ISZERO PUSH2 0x214E JUMPI PUSH2 0x214D PUSH2 0x1BB9 JUMP JUMPDEST JUMPDEST PUSH1 0x0 PUSH2 0x215C DUP5 DUP3 DUP6 ADD PUSH2 0x1C71 JUMP JUMPDEST SWAP2 POP POP SWAP3 SWAP2 POP POP JUMP JUMPDEST PUSH1 0x0 DUP3 DUP3 MSTORE PUSH1 0x20 DUP3 ADD SWAP1 POP SWAP3 SWAP2 POP POP JUMP JUMPDEST PUSH1 0x0 PUSH2 0x2181 DUP3 PUSH2 0x1E7D JUMP JUMPDEST PUSH2 0x218B DUP2 DUP6 PUSH2 0x2165 JUMP JUMPDEST SWAP4 POP PUSH2 0x2196 DUP4 PUSH2 0x1E99 JUMP JUMPDEST DUP1 PUSH1 0x0 JUMPDEST DUP4 DUP2 LT ISZERO PUSH2 0x21C7 JUMPI DUP2 MLOAD PUSH2 0x21AE DUP9 DUP3 PUSH2 0x1EE4 JUMP JUMPDEST SWAP8 POP PUSH2 0x21B9 DUP4 PUSH2 0x1EFC JUMP JUMPDEST SWAP3 POP POP PUSH1 0x1 DUP2 ADD SWAP1 POP PUSH2 0x219A JUMP JUMPDEST POP DUP6 SWAP4 POP POP POP POP SWAP3 SWAP2 POP POP JUMP JUMPDEST PUSH1 0x0 PUSH1 0x20 DUP3 ADD SWAP1 POP DUP2 DUP2 SUB PUSH1 0x0 DUP4 ADD MSTORE PUSH2 0x21EE DUP2 DUP5 PUSH2 0x2176 JUMP JUMPDEST SWAP1 POP SWAP3 SWAP2 POP POP JUMP JUMPDEST PUSH2 0x21FF DUP2 PUSH2 0x1EA9 JUMP JUMPDEST DUP3 MSTORE POP POP JUMP JUMPDEST PUSH1 0x0 PUSH1 0x20 DUP3 ADD SWAP1 POP PUSH2 0x221A PUSH1 0x0 DUP4 ADD DUP5 PUSH2 0x21F6 JUMP JUMPDEST SWAP3 SWAP2 POP POP JUMP JUMPDEST PUSH32 0x4E487B7100000000000000000000000000000000000000000000000000000000 PUSH1 0x0 MSTORE PUSH1 0x21 PUSH1 0x4 MSTORE PUSH1 0x24 PUSH1 0x0 REVERT JUMPDEST PUSH32 0x4E487B7100000000000000000000000000000000000000000000000000000000 PUSH1 0x0 MSTORE PUSH1 0x32 PUSH1 0x4 MSTORE PUSH1 0x24 PUSH1 0x0 REVERT JUMPDEST PUSH1 0x0 DUP1 REVERT JUMPDEST PUSH1 0x0 DUP1 REVERT JUMPDEST PUSH1 0x0 DUP1 REVERT JUMPDEST PUSH1 0x0 DUP3 CALLDATALOAD PUSH1 0x1 PUSH1 0x60 SUB DUP4 CALLDATASIZE SUB SUB DUP2 SLT PUSH2 0x22A9 JUMPI PUSH2 0x22A8 PUSH2 0x227E JUMP JUMPDEST JUMPDEST DUP1 DUP4 ADD SWAP2 POP POP SWAP3 SWAP2 POP POP JUMP JUMPDEST PUSH1 0x3 DUP2 LT PUSH2 0x22C2 JUMPI PUSH1 0x0 DUP1 REVERT JUMPDEST POP JUMP JUMPDEST PUSH1 0x0 DUP2 CALLDATALOAD SWAP1 POP PUSH2 0x22D4 DUP2 PUSH2 0x22B5 JUMP JUMPDEST SWAP3 SWAP2 POP POP JUMP JUMPDEST PUSH1 0x0 PUSH1 0x20 DUP3 DUP5 SUB SLT ISZERO PUSH2 0x22F0 JUMPI PUSH2 0x22EF PUSH2 0x1BB9 JUMP JUMPDEST JUMPDEST PUSH1 0x0 PUSH2 0x22FE DUP5 DUP3 DUP6 ADD PUSH2 0x22C5 JUMP JUMPDEST SWAP2 POP POP SWAP3 SWAP2 POP POP JUMP JUMPDEST PUSH1 0x0 DUP1 DUP4 CALLDATALOAD PUSH1 0x1 PUSH1 0x20 SUB DUP5 CALLDATASIZE SUB SUB DUP2 SLT PUSH2 0x2324 JUMPI PUSH2 0x2323 PUSH2 0x227E JUMP JUMPDEST JUMPDEST DUP1 DUP5 ADD SWAP3 POP DUP3 CALLDATALOAD SWAP2 POP PUSH8 0xFFFFFFFFFFFFFFFF DUP3 GT ISZERO PUSH2 0x2346 JUMPI PUSH2 0x2345 PUSH2 0x2283 JUMP JUMPDEST JUMPDEST PUSH1 0x20 DUP4 ADD SWAP3 POP PUSH1 0x20 DUP3 MUL CALLDATASIZE SUB DUP4 SGT ISZERO PUSH2 0x2362 JUMPI PUSH2 0x2361 PUSH2 0x2288 JUMP JUMPDEST JUMPDEST POP SWAP3 POP SWAP3 SWAP1 POP JUMP JUMPDEST PUSH32 0x4E487B7100000000000000000000000000000000000000000000000000000000 PUSH1 0x0 MSTORE PUSH1 0x11 PUSH1 0x4 MSTORE PUSH1 0x24 PUSH1 0x0 REVERT JUMPDEST PUSH1 0x0 PUSH2 0x23A4 DUP3 PUSH2 0x1B7B JUMP JUMPDEST SWAP2 POP PUSH32 0xFFFFFFFFFFFFFFFFFFFFFFFFFFFFFFFFFFFFFFFFFFFFFFFFFFFFFFFFFFFFFFFF DUP3 SUB PUSH2 0x23D6 JUMPI PUSH2 0x23D5 PUSH2 0x236A JUMP JUMPDEST JUMPDEST PUSH1 0x1 DUP3 ADD SWAP1 POP SWAP2 SWAP1 POP JUMP JUMPDEST PUSH1 0x0 PUSH2 0x23EC DUP3 PUSH2 0x1B7B JUMP JUMPDEST SWAP2 POP PUSH2 0x23F7 DUP4 PUSH2 0x1B7B JUMP JUMPDEST SWAP3 POP DUP3 DUP3 SUB SWAP1 POP DUP2 DUP2 GT ISZERO PUSH2 0x240F JUMPI PUSH2 0x240E PUSH2 0x236A JUMP JUMPDEST JUMPDEST SWAP3 SWAP2 POP POP JUMP JUMPDEST PUSH32 0x4E487B7100000000000000000000000000000000000000000000000000000000 PUSH1 0x0 MSTORE PUSH1 0x31 PUSH1 0x4 MSTORE PUSH1 0x24 PUSH1 0x0 REVERT JUMPDEST PUSH1 0x0 DUP3 DUP3 MSTORE PUSH1 0x20 DUP3 ADD SWAP1 POP SWAP3 SWAP2 POP POP JUMP JUMPDEST PUSH1 0x0 DUP2 SWAP1 POP SWAP2 SWAP1 POP JUMP JUMPDEST PUSH1 0x0 PUSH2 0x246E PUSH1 0x20 DUP5 ADD DUP5 PUSH2 0x1C71 JUMP JUMPDEST SWAP1 POP SWAP3 SWAP2 POP POP JUMP JUMPDEST PUSH1 0x0 PUSH2 0x2485 PUSH1 0x20 DUP5 ADD DUP5 PUSH2 0x22C5 JUMP JUMPDEST SWAP1 POP SWAP3 SWAP2 POP POP JUMP JUMPDEST PUSH1 0x3 DUP2 LT PUSH2 0x249E JUMPI PUSH2 0x249D PUSH2 0x2220 JUMP JUMPDEST JUMPDEST POP JUMP JUMPDEST PUSH1 0x0 DUP2 SWAP1 POP PUSH2 0x24AF DUP3 PUSH2 0x248D JUMP JUMPDEST SWAP2 SWAP1 POP JUMP JUMPDEST PUSH1 0x0 PUSH2 0x24BF DUP3 PUSH2 0x24A1 JUMP JUMPDEST SWAP1 POP SWAP2 SWAP1 POP JUMP JUMPDEST PUSH2 0x24CF DUP2 PUSH2 0x24B4 JUMP JUMPDEST DUP3 MSTORE POP POP JUMP JUMPDEST PUSH1 0x0 DUP1 REVERT JUMPDEST PUSH1 0x0 DUP1 REVERT JUMPDEST PUSH1 0x0 DUP1 REVERT JUMPDEST PUSH1 0x0 DUP1 DUP4 CALLDATALOAD PUSH1 0x1 PUSH1 0x20 SUB DUP5 CALLDATASIZE SUB SUB DUP2 SLT PUSH2 0x2501 JUMPI PUSH2 0x2500 PUSH2 0x24DF JUMP JUMPDEST JUMPDEST DUP4 DUP2 ADD SWAP3 POP DUP3 CALLDATALOAD SWAP2 POP PUSH1 0x20 DUP4 ADD SWAP3 POP PUSH8 0xFFFFFFFFFFFFFFFF DUP3 GT ISZERO PUSH2 0x2529 JUMPI PUSH2 0x2528 PUSH2 0x24D5 JUMP JUMPDEST JUMPDEST PUSH1 0x20 DUP3 MUL CALLDATASIZE SUB DUP4 SGT ISZERO PUSH2 0x253F JUMPI PUSH2 0x253E PUSH2 0x24DA JUMP JUMPDEST JUMPDEST POP SWAP3 POP SWAP3 SWAP1 POP JUMP JUMPDEST PUSH1 0x0 DUP2 SWAP1 POP SWAP2 SWAP1 POP JUMP JUMPDEST PUSH1 0x0 PUSH2 0x2560 PUSH1 0x20 DUP5 ADD DUP5 PUSH2 0x20F6 JUMP JUMPDEST SWAP1 POP SWAP3 SWAP2 POP POP JUMP JUMPDEST PUSH1 0x0 PUSH1 0x20 DUP3 ADD SWAP1 POP SWAP2 SWAP1 POP JUMP JUMPDEST PUSH1 0x0 PUSH2 0x2581 DUP4 DUP6 PUSH2 0x1E88 JUMP JUMPDEST SWAP4 POP PUSH2 0x258C DUP3 PUSH2 0x2547 JUMP JUMPDEST DUP1 PUSH1 0x0 JUMPDEST DUP6 DUP2 LT ISZERO PUSH2 0x25C5 JUMPI PUSH2 0x25A2 DUP3 DUP5 PUSH2 0x2551 JUMP JUMPDEST PUSH2 0x25AC DUP9 DUP3 PUSH2 0x1EE4 JUMP JUMPDEST SWAP8 POP PUSH2 0x25B7 DUP4 PUSH2 0x2568 JUMP JUMPDEST SWAP3 POP POP PUSH1 0x1 DUP2 ADD SWAP1 POP PUSH2 0x2590 JUMP JUMPDEST POP DUP6 SWAP3 POP POP POP SWAP4 SWAP3 POP POP POP JUMP JUMPDEST PUSH1 0x0 PUSH1 0x60 DUP4 ADD PUSH2 0x25E5 PUSH1 0x0 DUP5 ADD DUP5 PUSH2 0x245F JUMP JUMPDEST PUSH2 0x25F2 PUSH1 0x0 DUP7 ADD DUP3 PUSH2 0x1D9D JUMP JUMPDEST POP PUSH2 0x2600 PUSH1 0x20 DUP5 ADD DUP5 PUSH2 0x2476 JUMP JUMPDEST PUSH2 0x260D PUSH1 0x20 DUP7 ADD DUP3 PUSH2 0x24C6 JUMP JUMPDEST POP PUSH2 0x261B PUSH1 0x40 DUP5 ADD DUP5 PUSH2 0x24E4 JUMP JUMPDEST DUP6 DUP4 SUB PUSH1 0x40 DUP8 ADD MSTORE PUSH2 0x262E DUP4 DUP3 DUP5 PUSH2 0x2575 JUMP JUMPDEST SWAP3 POP POP POP DUP1 SWAP2 POP POP SWAP3 SWAP2 POP POP JUMP JUMPDEST PUSH1 0x0 PUSH2 0x2648 DUP4 DUP4 PUSH2 0x25D2 JUMP JUMPDEST SWAP1 POP SWAP3 SWAP2 POP POP JUMP JUMPDEST PUSH1 0x0 DUP3 CALLDATALOAD PUSH1 0x1 PUSH1 0x60 SUB DUP4 CALLDATASIZE SUB SUB DUP2 SLT PUSH2 0x266C JUMPI PUSH2 0x266B PUSH2 0x24DF JUMP JUMPDEST JUMPDEST DUP3 DUP2 ADD SWAP2 POP POP SWAP3 SWAP2 POP POP JUMP JUMPDEST PUSH1 0x0 PUSH1 0x20 DUP3 ADD SWAP1 POP SWAP2 SWAP1 POP JUMP JUMPDEST PUSH1 0x0 PUSH2 0x2691 DUP4 DUP6 PUSH2 0x2444 JUMP JUMPDEST SWAP4 POP DUP4 PUSH1 0x20 DUP5 MUL DUP6 ADD PUSH2 0x26A3 DUP5 PUSH2 0x2455 JUMP JUMPDEST DUP1 PUSH1 0x0 JUMPDEST DUP8 DUP2 LT ISZERO PUSH2 0x26E7 JUMPI DUP5 DUP5 SUB DUP10 MSTORE PUSH2 0x26BE DUP3 DUP5 PUSH2 0x2650 JUMP JUMPDEST PUSH2 0x26C8 DUP6 DUP3 PUSH2 0x263C JUMP JUMPDEST SWAP5 POP PUSH2 0x26D3 DUP4 PUSH2 0x2678 JUMP JUMPDEST SWAP3 POP PUSH1 0x20 DUP11 ADD SWAP10 POP POP PUSH1 0x1 DUP2 ADD SWAP1 POP PUSH2 0x26A7 JUMP JUMPDEST POP DUP3 SWAP8 POP DUP8 SWAP5 POP POP POP POP POP SWAP4 SWAP3 POP POP POP JUMP JUMPDEST PUSH1 0x0 DUP3 DUP3 MSTORE PUSH1 0x20 DUP3 ADD SWAP1 POP SWAP3 SWAP2 POP POP JUMP JUMPDEST DUP3 DUP2 DUP4 CALLDATACOPY PUSH1 0x0 DUP4 DUP4 ADD MSTORE POP POP POP JUMP JUMPDEST PUSH1 0x0 PUSH1 0x1F NOT PUSH1 0x1F DUP4 ADD AND SWAP1 POP SWAP2 SWAP1 POP JUMP JUMPDEST PUSH1 0x0 PUSH2 0x2736 DUP4 DUP6 PUSH2 0x26F9 JUMP JUMPDEST SWAP4 POP PUSH2 0x2743 DUP4 DUP6 DUP5 PUSH2 0x270A JUMP JUMPDEST PUSH2 0x274C DUP4 PUSH2 0x2719 JUMP JUMPDEST DUP5 ADD SWAP1 POP SWAP4 SWAP3 POP POP POP JUMP JUMPDEST PUSH1 0x0 PUSH1 0x60 DUP3 ADD SWAP1 POP DUP2 DUP2 SUB PUSH1 0x0 DUP4 ADD MSTORE PUSH2 0x2772 DUP2 DUP8 DUP10 PUSH2 0x2685 JUMP JUMPDEST SWAP1 POP PUSH2 0x2781 PUSH1 0x20 DUP4 ADD DUP7 PUSH2 0x20B5 JUMP JUMPDEST DUP2 DUP2 SUB PUSH1 0x40 DUP4 ADD MSTORE PUSH2 0x2794 DUP2 DUP5 DUP7 PUSH2 0x272A JUMP JUMPDEST SWAP1 POP SWAP7 SWAP6 POP POP POP POP POP POP JUMP JUMPDEST PUSH1 0x0 DUP2 SWAP1 POP SWAP3 SWAP2 POP POP JUMP JUMPDEST PUSH1 0x0 PUSH2 0x27B7 DUP4 DUP6 PUSH2 0x27A0 JUMP JUMPDEST SWAP4 POP PUSH2 0x27C4 DUP4 DUP6 DUP5 PUSH2 0x270A JUMP JUMPDEST DUP3 DUP5 ADD SWAP1 POP SWAP4 SWAP3 POP POP POP JUMP JUMPDEST PUSH1 0x0 PUSH2 0x27DD DUP3 DUP5 DUP7 PUSH2 0x27AB JUMP JUMPDEST SWAP2 POP DUP2 SWAP1 POP SWAP4 SWAP3 POP POP POP JUMP JUMPDEST PUSH1 0x0 PUSH1 0x40 DUP3 ADD SWAP1 POP PUSH2 0x27FE PUSH1 0x0 DUP4 ADD DUP7 PUSH2 0x20B5 JUMP JUMPDEST DUP2 DUP2 SUB PUSH1 0x20 DUP4 ADD MSTORE PUSH2 0x2811 DUP2 DUP5 DUP7 PUSH2 0x272A JUMP JUMPDEST SWAP1 POP SWAP5 SWAP4 POP POP POP POP JUMP JUMPDEST PUSH32 0x4E487B7100000000000000000000000000000000000000000000000000000000 PUSH1 0x0 MSTORE PUSH1 0x41 PUSH1 0x4 MSTORE PUSH1 0x24 PUSH1 0x0 REVERT JUMPDEST PUSH2 0x2853 DUP3 PUSH2 0x2719 JUMP JUMPDEST DUP2 ADD DUP2 DUP2 LT PUSH8 0xFFFFFFFFFFFFFFFF DUP3 GT OR ISZERO PUSH2 0x2872 JUMPI PUSH2 0x2871 PUSH2 0x281B JUMP JUMPDEST JUMPDEST DUP1 PUSH1 0x40 MSTORE POP POP POP JUMP JUMPDEST PUSH1 0x0 PUSH2 0x2885 PUSH2 0x1BAF JUMP JUMPDEST SWAP1 POP PUSH2 0x2891 DUP3 DUP3 PUSH2 0x284A JUMP JUMPDEST SWAP2 SWAP1 POP JUMP JUMPDEST PUSH1 0x0 PUSH8 0xFFFFFFFFFFFFFFFF DUP3 GT ISZERO PUSH2 0x28B1 JUMPI PUSH2 0x28B0 PUSH2 0x281B JUMP JUMPDEST JUMPDEST PUSH1 0x20 DUP3 MUL SWAP1 POP PUSH1 0x20 DUP2 ADD SWAP1 POP SWAP2 SWAP1 POP JUMP JUMPDEST PUSH1 0x0 DUP2 MLOAD SWAP1 POP PUSH2 0x28D1 DUP2 PUSH2 0x1C5A JUMP JUMPDEST SWAP3 SWAP2 POP POP JUMP JUMPDEST PUSH1 0x0 PUSH2 0x28EA PUSH2 0x28E5 DUP5 PUSH2 0x2896 JUMP JUMPDEST PUSH2 0x287B JUMP JUMPDEST SWAP1 POP DUP1 DUP4 DUP3 MSTORE PUSH1 0x20 DUP3 ADD SWAP1 POP PUSH1 0x20 DUP5 MUL DUP4 ADD DUP6 DUP2 GT ISZERO PUSH2 0x290D JUMPI PUSH2 0x290C PUSH2 0x1BCD JUMP JUMPDEST JUMPDEST DUP4 JUMPDEST DUP2 DUP2 LT ISZERO PUSH2 0x2936 JUMPI DUP1 PUSH2 0x2922 DUP9 DUP3 PUSH2 0x28C2 JUMP JUMPDEST DUP5 MSTORE PUSH1 0x20 DUP5 ADD SWAP4 POP POP PUSH1 0x20 DUP2 ADD SWAP1 POP PUSH2 0x290F JUMP JUMPDEST POP POP POP SWAP4 SWAP3 POP POP POP JUMP JUMPDEST PUSH1 0x0 DUP3 PUSH1 0x1F DUP4 ADD SLT PUSH2 0x2955 JUMPI PUSH2 0x2954 PUSH2 0x1BC3 JUMP JUMPDEST JUMPDEST DUP2 MLOAD PUSH2 0x2965 DUP5 DUP3 PUSH1 0x20 DUP7 ADD PUSH2 0x28D7 JUMP JUMPDEST SWAP2 POP POP SWAP3 SWAP2 POP POP JUMP JUMPDEST PUSH1 0x0 PUSH1 0x20 DUP3 DUP5 SUB SLT ISZERO PUSH2 0x2984 JUMPI PUSH2 0x2983 PUSH2 0x1BB9 JUMP JUMPDEST JUMPDEST PUSH1 0x0 DUP3 ADD MLOAD PUSH8 0xFFFFFFFFFFFFFFFF DUP2 GT ISZERO PUSH2 0x29A2 JUMPI PUSH2 0x29A1 PUSH2 0x1BBE JUMP JUMPDEST JUMPDEST PUSH2 0x29AE DUP5 DUP3 DUP6 ADD PUSH2 0x2940 JUMP JUMPDEST SWAP2 POP POP SWAP3 SWAP2 POP POP JUMP JUMPDEST PUSH1 0x0 PUSH8 0xFFFFFFFFFFFFFFFF DUP3 GT ISZERO PUSH2 0x29D2 JUMPI PUSH2 0x29D1 PUSH2 0x281B JUMP JUMPDEST JUMPDEST PUSH1 0x20 DUP3 MUL SWAP1 POP PUSH1 0x20 DUP2 ADD SWAP1 POP SWAP2 SWAP1 POP JUMP JUMPDEST PUSH1 0x0 DUP2 MLOAD SWAP1 POP PUSH2 0x29F2 DUP2 PUSH2 0x20DF JUMP JUMPDEST SWAP3 SWAP2 POP POP JUMP JUMPDEST PUSH1 0x0 PUSH2 0x2A0B PUSH2 0x2A06 DUP5 PUSH2 0x29B7 JUMP JUMPDEST PUSH2 0x287B JUMP JUMPDEST SWAP1 POP DUP1 DUP4 DUP3 MSTORE PUSH1 0x20 DUP3 ADD SWAP1 POP PUSH1 0x20 DUP5 MUL DUP4 ADD DUP6 DUP2 GT ISZERO PUSH2 0x2A2E JUMPI PUSH2 0x2A2D PUSH2 0x1BCD JUMP JUMPDEST JUMPDEST DUP4 JUMPDEST DUP2 DUP2 LT ISZERO PUSH2 0x2A57 JUMPI DUP1 PUSH2 0x2A43 DUP9 DUP3 PUSH2 0x29E3 JUMP JUMPDEST DUP5 MSTORE PUSH1 0x20 DUP5 ADD SWAP4 POP POP PUSH1 0x20 DUP2 ADD SWAP1 POP PUSH2 0x2A30 JUMP JUMPDEST POP POP POP SWAP4 SWAP3 POP POP POP JUMP JUMPDEST PUSH1 0x0 DUP3 PUSH1 0x1F DUP4 ADD SLT PUSH2 0x2A76 JUMPI PUSH2 0x2A75 PUSH2 0x1BC3 JUMP JUMPDEST JUMPDEST DUP2 MLOAD PUSH2 0x2A86 DUP5 DUP3 PUSH1 0x20 DUP7 ADD PUSH2 0x29F8 JUMP JUMPDEST SWAP2 POP POP SWAP3 SWAP2 POP POP JUMP JUMPDEST PUSH1 0x0 PUSH1 0x20 DUP3 DUP5 SUB SLT ISZERO PUSH2 0x2AA5 JUMPI PUSH2 0x2AA4 PUSH2 0x1BB9 JUMP JUMPDEST JUMPDEST PUSH1 0x0 DUP3 ADD MLOAD PUSH8 0xFFFFFFFFFFFFFFFF DUP2 GT ISZERO PUSH2 0x2AC3 JUMPI PUSH2 0x2AC2 PUSH2 0x1BBE JUMP JUMPDEST JUMPDEST PUSH2 0x2ACF DUP5 DUP3 DUP6 ADD PUSH2 0x2A61 JUMP JUMPDEST SWAP2 POP POP SWAP3 SWAP2 POP POP JUMP INVALID LOG2 PUSH5 0x6970667358 0x22 SLT KECCAK256 PUSH1 0x62 0xC7 0x24 SIGNEXTEND 0xB0 0x27 SWAP11 0xC2 0xDB 0xE6 0x25 0x5D MSTORE8 0xE0 SWAP8 DUP14 PUSH22 0x71253E5C0757280BB11CC7EA034464736F6C63430008 SLT STOP CALLER "
		},
		"gasEstimates": {
			"creation": {
				"codeDepositCost": "2204400",
				"executionCost": "2353",
				"totalCost": "2206753"
			},
			"external": {
				"": "infinite",
				"diamondCut((address,uint8,bytes4[])[],address,bytes)": "infinite",
				"facetAddress(bytes4)": "2955",
				"facetAddresses()": "infinite",
				"facetFunctionSelectors(address)": "infinite",
				"facets()": "infinite",
				"getNumber10()": "2527",
				"getNumber100()": "2505",
				"selectorToAddress(bytes4)": "2867",
				"selectors(uint256)": "6637",
				"storedAddresses(uint256)": "4956"
			},
			"internal": {
				"facetAddressesSupport()": "infinite"
			}
		},
		"methodIdentifiers": {
			"diamondCut((address,uint8,bytes4[])[],address,bytes)": "1f931c1c",
			"facetAddress(bytes4)": "cdffacc6",
			"facetAddresses()": "52ef6b2c",
			"facetFunctionSelectors(address)": "adfca15e",
			"facets()": "7a0ed627",
			"getNumber10()": "0e90f45d",
			"getNumber100()": "02c85697",
			"selectorToAddress(bytes4)": "a4666aeb",
			"selectors(uint256)": "f58b911d",
			"storedAddresses(uint256)": "7d86195c"
		}
	},
	"abi": [
		{
			"anonymous": false,
			"inputs": [
				{
					"components": [
						{
							"internalType": "address",
							"name": "facetAddress",
							"type": "address"
						},
						{
							"internalType": "enum IDiamond.FacetCutAction",
							"name": "action",
							"type": "uint8"
						},
						{
							"internalType": "bytes4[]",
							"name": "functionSelectors",
							"type": "bytes4[]"
						}
					],
					"indexed": false,
					"internalType": "struct IDiamond.FacetCut[]",
					"name": "_diamondCut",
					"type": "tuple[]"
				},
				{
					"indexed": false,
					"internalType": "address",
					"name": "_init",
					"type": "address"
				},
				{
					"indexed": false,
					"internalType": "bytes",
					"name": "_calldata",
					"type": "bytes"
				}
			],
			"name": "DiamondCut",
			"type": "event"
		},
		{
			"anonymous": false,
			"inputs": [
				{
					"indexed": false,
					"internalType": "address",
					"name": "_init",
					"type": "address"
				},
				{
					"indexed": false,
					"internalType": "bytes",
					"name": "_calldata",
					"type": "bytes"
				}
			],
			"name": "callFailed",
			"type": "event"
		},
		{
			"stateMutability": "payable",
			"type": "fallback"
		},
		{
			"inputs": [
				{
					"components": [
						{
							"internalType": "address",
							"name": "facetAddress",
							"type": "address"
						},
						{
							"internalType": "enum IDiamond.FacetCutAction",
							"name": "action",
							"type": "uint8"
						},
						{
							"internalType": "bytes4[]",
							"name": "functionSelectors",
							"type": "bytes4[]"
						}
					],
					"internalType": "struct IDiamond.FacetCut[]",
					"name": "_diamondCut",
					"type": "tuple[]"
				},
				{
					"internalType": "address",
					"name": "_init",
					"type": "address"
				},
				{
					"internalType": "bytes",
					"name": "_calldata",
					"type": "bytes"
				}
			],
			"name": "diamondCut",
			"outputs": [],
			"stateMutability": "nonpayable",
			"type": "function"
		},
		{
			"inputs": [
				{
					"internalType": "bytes4",
					"name": "_functionSelector",
					"type": "bytes4"
				}
			],
			"name": "facetAddress",
			"outputs": [
				{
					"internalType": "address",
					"name": "facetAddress_",
					"type": "address"
				}
			],
			"stateMutability": "view",
			"type": "function"
		},
		{
			"inputs": [],
			"name": "facetAddresses",
			"outputs": [
				{
					"internalType": "address[]",
					"name": "facetAddresses_",
					"type": "address[]"
				}
			],
			"stateMutability": "view",
			"type": "function"
		},
		{
			"inputs": [
				{
					"internalType": "address",
					"name": "_facet",
					"type": "address"
				}
			],
			"name": "facetFunctionSelectors",
			"outputs": [
				{
					"internalType": "bytes4[]",
					"name": "facetFunctionSelectors_",
					"type": "bytes4[]"
				}
			],
			"stateMutability": "view",
			"type": "function"
		},
		{
			"inputs": [],
			"name": "facets",
			"outputs": [
				{
					"components": [
						{
							"internalType": "address",
							"name": "facetAddress",
							"type": "address"
						},
						{
							"internalType": "bytes4[]",
							"name": "functionSelectors",
							"type": "bytes4[]"
						}
					],
					"internalType": "struct IDiamondLoupe.Facet[]",
					"name": "facets_",
					"type": "tuple[]"
				}
			],
			"stateMutability": "view",
			"type": "function"
		},
		{
			"inputs": [],
			"name": "getNumber10",
			"outputs": [
				{
					"internalType": "uint256",
					"name": "num",
					"type": "uint256"
				}
			],
			"stateMutability": "view",
			"type": "function"
		},
		{
			"inputs": [],
			"name": "getNumber100",
			"outputs": [
				{
					"internalType": "uint256",
					"name": "num",
					"type": "uint256"
				}
			],
			"stateMutability": "view",
			"type": "function"
		},
		{
			"inputs": [
				{
					"internalType": "bytes4",
					"name": "",
					"type": "bytes4"
				}
			],
			"name": "selectorToAddress",
			"outputs": [
				{
					"internalType": "address",
					"name": "",
					"type": "address"
				}
			],
			"stateMutability": "view",
			"type": "function"
		},
		{
			"inputs": [
				{
					"internalType": "uint256",
					"name": "",
					"type": "uint256"
				}
			],
			"name": "selectors",
			"outputs": [
				{
					"internalType": "bytes4",
					"name": "",
					"type": "bytes4"
				}
			],
			"stateMutability": "view",
			"type": "function"
		},
		{
			"inputs": [
				{
					"internalType": "uint256",
					"name": "",
					"type": "uint256"
				}
			],
			"name": "storedAddresses",
			"outputs": [
				{
					"internalType": "address",
					"name": "",
					"type": "address"
				}
			],
			"stateMutability": "view",
			"type": "function"
		}
	]
}